{
  "address": "0x851356ae760d987E095750cCeb3bC6014560891C",
  "abi": [
    {
      "inputs": [
        {
          "internalType": "address",
          "name": "vrfCoordinatorV2",
          "type": "address"
        },
        {
          "internalType": "address",
          "name": "_receiptManagerAddress",
          "type": "address"
        },
        {
          "internalType": "address",
          "name": "_promotionsManagerAddress",
          "type": "address"
        },
        {
          "internalType": "bytes32",
          "name": "gasLane",
          "type": "bytes32"
        },
        {
          "internalType": "uint64",
          "name": "subscriptionId",
          "type": "uint64"
        },
        {
          "internalType": "uint32",
          "name": "callbackGasLimit",
          "type": "uint32"
        }
      ],
      "stateMutability": "nonpayable",
      "type": "constructor"
    },
    {
      "inputs": [],
      "name": "InvalidConfig",
      "type": "error"
    },
    {
      "inputs": [],
      "name": "NotApproved",
      "type": "error"
    },
    {
      "inputs": [],
      "name": "NotCustomURI",
      "type": "error"
    },
    {
      "inputs": [
        {
          "internalType": "address",
          "name": "have",
          "type": "address"
        },
        {
          "internalType": "address",
          "name": "want",
          "type": "address"
        }
      ],
      "name": "OnlyCoordinatorCanFulfill",
      "type": "error"
    },
    {
      "inputs": [],
      "name": "Promotion_Expired",
      "type": "error"
    },
    {
      "inputs": [],
      "name": "URIAlreadSet",
      "type": "error"
    },
    {
      "anonymous": false,
      "inputs": [
        {
          "indexed": true,
          "internalType": "uint256",
          "name": "promotionID",
          "type": "uint256"
        },
        {
          "indexed": false,
          "internalType": "uint256",
          "name": "numberOfParticipants",
          "type": "uint256"
        }
      ],
      "name": "DrawingCancelled",
      "type": "event"
    },
    {
      "anonymous": false,
      "inputs": [
        {
          "indexed": true,
          "internalType": "address",
          "name": "owner",
          "type": "address"
        },
        {
          "indexed": true,
          "internalType": "uint256",
          "name": "promotionID",
          "type": "uint256"
        },
        {
          "indexed": true,
          "internalType": "address",
          "name": "erc20Token",
          "type": "address"
        },
        {
          "indexed": false,
          "internalType": "uint256",
          "name": "maxSlots",
          "type": "uint256"
        },
        {
          "indexed": false,
          "internalType": "uint256",
          "name": "endTime",
          "type": "uint256"
        },
        {
          "indexed": false,
          "internalType": "uint256",
          "name": "price",
          "type": "uint256"
        },
        {
          "indexed": false,
          "internalType": "uint256",
          "name": "cohortSize",
          "type": "uint256"
        },
        {
          "indexed": false,
          "internalType": "uint256",
          "name": "rebateAmount",
          "type": "uint256"
        },
        {
          "indexed": false,
          "internalType": "bool",
          "name": "mintsNFTs",
          "type": "bool"
        }
      ],
      "name": "DrawingCreated",
      "type": "event"
    },
    {
      "anonymous": false,
      "inputs": [
        {
          "indexed": true,
          "internalType": "uint256",
          "name": "promotionID",
          "type": "uint256"
        },
        {
          "indexed": false,
          "internalType": "uint256",
          "name": "redeemedAmount",
          "type": "uint256"
        }
      ],
      "name": "DrawingCustodyRedeemed",
      "type": "event"
    },
    {
      "anonymous": false,
      "inputs": [
        {
          "indexed": true,
          "internalType": "uint256",
          "name": "tokenID",
          "type": "uint256"
        },
        {
          "indexed": true,
          "internalType": "uint256",
          "name": "promotionID",
          "type": "uint256"
        },
        {
          "indexed": false,
          "internalType": "uint256",
          "name": "redeemedAmount",
          "type": "uint256"
        }
      ],
      "name": "DrawingReceiptRedeemed",
      "type": "event"
    },
    {
      "anonymous": false,
      "inputs": [
        {
          "indexed": true,
          "internalType": "address",
          "name": "joiner",
          "type": "address"
        },
        {
          "indexed": true,
          "internalType": "uint256",
          "name": "promotionID",
          "type": "uint256"
        },
        {
          "indexed": true,
          "internalType": "uint256",
          "name": "firstParticipantNumber",
          "type": "uint256"
        },
        {
          "indexed": false,
          "internalType": "uint256",
          "name": "firstTokenID",
          "type": "uint256"
        },
        {
          "indexed": false,
          "internalType": "uint256",
          "name": "numTickets",
          "type": "uint256"
        }
      ],
      "name": "DrawingReceiptsMinted",
      "type": "event"
    },
    {
      "anonymous": false,
      "inputs": [
        {
          "indexed": true,
          "internalType": "uint256",
          "name": "promotionID",
          "type": "uint256"
        },
        {
          "indexed": false,
          "internalType": "uint256",
          "name": "cohort",
          "type": "uint256"
        },
        {
          "indexed": false,
          "internalType": "uint256",
          "name": "tokenID",
          "type": "uint256"
        },
        {
          "indexed": false,
          "internalType": "uint256",
          "name": "participantNumber",
          "type": "uint256"
        },
        {
          "indexed": false,
          "internalType": "uint256",
          "name": "prize",
          "type": "uint256"
        },
        {
          "indexed": false,
          "internalType": "uint256",
          "name": "randomWord",
          "type": "uint256"
        }
      ],
      "name": "RaffleWinner",
      "type": "event"
    },
    {
      "anonymous": false,
      "inputs": [
        {
          "indexed": false,
          "internalType": "uint256[]",
          "name": "promotionIDs",
          "type": "uint256[]"
        },
        {
          "indexed": true,
          "internalType": "uint256",
          "name": "vrfRequestID",
          "type": "uint256"
        },
        {
          "indexed": true,
          "internalType": "address",
          "name": "initiator",
          "type": "address"
        },
        {
          "indexed": false,
          "internalType": "uint256[]",
          "name": "cohorts",
          "type": "uint256[]"
        }
      ],
      "name": "RafflesInitiated",
      "type": "event"
    },
    {
      "inputs": [
        {
          "internalType": "uint256",
          "name": "",
          "type": "uint256"
        }
      ],
      "name": "DrawingReceipts",
      "outputs": [
        {
          "internalType": "uint256",
          "name": "drawingID",
          "type": "uint256"
        },
        {
          "internalType": "uint256",
          "name": "redeemableAmount",
          "type": "uint256"
        }
      ],
      "stateMutability": "view",
      "type": "function"
    },
    {
      "inputs": [
        {
          "internalType": "uint256",
          "name": "",
          "type": "uint256"
        }
      ],
      "name": "Drawings",
      "outputs": [
        {
          "internalType": "uint256",
          "name": "maxSlots",
          "type": "uint256"
        },
        {
          "internalType": "uint256",
          "name": "endTime",
          "type": "uint256"
        },
        {
          "internalType": "uint256",
          "name": "price",
          "type": "uint256"
        },
        {
          "internalType": "uint256",
          "name": "cohortSize",
          "type": "uint256"
        },
        {
          "internalType": "uint256",
          "name": "rebateAmount",
          "type": "uint256"
        },
        {
          "internalType": "address",
          "name": "owner",
          "type": "address"
        },
        {
          "internalType": "bool",
          "name": "returnedCustody",
          "type": "bool"
        },
        {
          "internalType": "address",
          "name": "erc20Token",
          "type": "address"
        },
        {
          "internalType": "bool",
          "name": "mintsNFTs",
          "type": "bool"
        }
      ],
      "stateMutability": "view",
      "type": "function"
    },
    {
      "inputs": [],
      "name": "MINIMUM_DURATION",
      "outputs": [
        {
          "internalType": "uint256",
          "name": "",
          "type": "uint256"
        }
      ],
      "stateMutability": "view",
      "type": "function"
    },
    {
      "inputs": [
        {
          "internalType": "address",
          "name": "",
          "type": "address"
        },
        {
          "internalType": "uint256",
          "name": "",
          "type": "uint256"
        }
      ],
      "name": "addressToPromotions",
      "outputs": [
        {
          "internalType": "uint256",
          "name": "",
          "type": "uint256"
        }
      ],
      "stateMutability": "view",
      "type": "function"
    },
    {
      "inputs": [
        {
          "internalType": "address",
          "name": "",
          "type": "address"
        },
        {
          "internalType": "address",
          "name": "",
          "type": "address"
        }
      ],
      "name": "approvedOperators",
      "outputs": [
        {
          "internalType": "bool",
          "name": "",
          "type": "bool"
        }
      ],
      "stateMutability": "view",
      "type": "function"
    },
    {
      "inputs": [
        {
          "internalType": "address",
          "name": "",
          "type": "address"
        },
        {
          "internalType": "uint256",
          "name": "",
          "type": "uint256"
        }
      ],
      "name": "arrayOfApprovedOperators",
      "outputs": [
        {
          "internalType": "address",
          "name": "",
          "type": "address"
        }
      ],
      "stateMutability": "view",
      "type": "function"
    },
    {
      "inputs": [
        {
          "internalType": "uint256",
          "name": "drawingID",
          "type": "uint256"
        }
      ],
      "name": "cancelDrawing",
      "outputs": [],
      "stateMutability": "nonpayable",
      "type": "function"
    },
    {
      "inputs": [],
      "name": "commission",
      "outputs": [
        {
          "internalType": "uint256",
          "name": "",
          "type": "uint256"
        }
      ],
      "stateMutability": "view",
      "type": "function"
    },
    {
      "inputs": [],
      "name": "contractOwner",
      "outputs": [
        {
          "internalType": "address",
          "name": "",
          "type": "address"
        }
      ],
      "stateMutability": "view",
      "type": "function"
    },
    {
      "inputs": [
        {
          "internalType": "uint256",
          "name": "_maxSlots",
          "type": "uint256"
        },
        {
          "internalType": "uint256",
          "name": "_duration",
          "type": "uint256"
        },
        {
          "internalType": "uint256",
          "name": "_price",
          "type": "uint256"
        },
        {
          "internalType": "uint256",
          "name": "_cohortSize",
          "type": "uint256"
        },
        {
          "internalType": "uint256",
          "name": "_rebateAmount",
          "type": "uint256"
        },
        {
          "internalType": "address",
          "name": "_owner",
          "type": "address"
        },
        {
          "internalType": "address",
          "name": "_erc20Token",
          "type": "address"
        },
        {
          "internalType": "bool",
          "name": "_mintsNFTs",
          "type": "bool"
        }
      ],
      "name": "createDrawing",
      "outputs": [],
      "stateMutability": "nonpayable",
      "type": "function"
    },
    {
      "inputs": [
        {
          "internalType": "uint256",
          "name": "drawingID",
          "type": "uint256"
        },
        {
          "internalType": "uint256",
          "name": "cohort",
          "type": "uint256"
        }
      ],
      "name": "drawingEligibility",
      "outputs": [
        {
          "internalType": "bool",
          "name": "",
          "type": "bool"
        }
      ],
      "stateMutability": "view",
      "type": "function"
    },
    {
      "inputs": [],
      "name": "drawingIDs",
      "outputs": [
        {
          "internalType": "uint256",
          "name": "",
          "type": "uint256"
        }
      ],
      "stateMutability": "view",
      "type": "function"
    },
    {
      "inputs": [
        {
          "internalType": "address",
          "name": "",
          "type": "address"
        }
      ],
      "name": "earnedCommissions",
      "outputs": [
        {
          "internalType": "uint256",
          "name": "",
          "type": "uint256"
        }
      ],
      "stateMutability": "view",
      "type": "function"
    },
    {
      "inputs": [
        {
          "internalType": "uint256",
          "name": "promotionID",
          "type": "uint256"
        }
      ],
      "name": "getNumberOfParticipants",
      "outputs": [
        {
          "internalType": "uint256",
          "name": "",
          "type": "uint256"
        }
      ],
      "stateMutability": "view",
      "type": "function"
    },
    {
      "inputs": [
        {
          "internalType": "uint256",
          "name": "promotionID",
          "type": "uint256"
        }
      ],
      "name": "getPromotionReceipts",
      "outputs": [
        {
          "internalType": "uint256[]",
          "name": "",
          "type": "uint256[]"
        }
      ],
      "stateMutability": "view",
      "type": "function"
    },
    {
      "inputs": [
        {
          "internalType": "address",
          "name": "promotionOwner",
          "type": "address"
        }
      ],
      "name": "getPromotionsByOwner",
      "outputs": [
        {
          "internalType": "uint256[]",
          "name": "",
          "type": "uint256[]"
        }
      ],
      "stateMutability": "view",
      "type": "function"
    },
    {
      "inputs": [
        {
          "internalType": "uint256[]",
          "name": "arrayOfDrawingIDs",
          "type": "uint256[]"
        },
        {
          "internalType": "uint256[]",
          "name": "arrayOfcohorts",
          "type": "uint256[]"
        }
      ],
      "name": "initiateDrawings",
      "outputs": [],
      "stateMutability": "nonpayable",
      "type": "function"
    },
    {
      "inputs": [
        {
          "internalType": "uint256",
          "name": "drawingID",
          "type": "uint256"
        },
        {
          "internalType": "uint256",
          "name": "numOrders",
          "type": "uint256"
        }
      ],
      "name": "joinDrawing",
      "outputs": [],
      "stateMutability": "nonpayable",
      "type": "function"
    },
    {
      "inputs": [
        {
          "internalType": "uint256",
          "name": "",
          "type": "uint256"
        },
        {
          "internalType": "uint256",
          "name": "",
          "type": "uint256"
        }
      ],
      "name": "promotionIDToReceiptIDs",
      "outputs": [
        {
          "internalType": "uint256",
          "name": "",
          "type": "uint256"
        }
      ],
      "stateMutability": "view",
      "type": "function"
    },
    {
      "inputs": [],
      "name": "promotionsManager",
      "outputs": [
        {
          "internalType": "contract IPromotionsManager",
          "name": "",
          "type": "address"
        }
      ],
      "stateMutability": "view",
      "type": "function"
    },
    {
      "inputs": [],
      "name": "promotionsManagerAddress",
      "outputs": [
        {
          "internalType": "address",
          "name": "",
          "type": "address"
        }
      ],
      "stateMutability": "view",
      "type": "function"
    },
    {
      "inputs": [
        {
          "internalType": "uint256",
          "name": "requestId",
          "type": "uint256"
        },
        {
          "internalType": "uint256[]",
          "name": "randomWords",
          "type": "uint256[]"
        }
      ],
      "name": "rawFulfillRandomWords",
      "outputs": [],
      "stateMutability": "nonpayable",
      "type": "function"
    },
    {
      "inputs": [
        {
          "internalType": "uint256",
          "name": "",
          "type": "uint256"
        }
      ],
      "name": "receiptIDToPromotionID",
      "outputs": [
        {
          "internalType": "uint256",
          "name": "",
          "type": "uint256"
        }
      ],
      "stateMutability": "view",
      "type": "function"
    },
    {
      "inputs": [],
      "name": "receiptManager",
      "outputs": [
        {
          "internalType": "contract IReceiptManager",
          "name": "",
          "type": "address"
        }
      ],
      "stateMutability": "view",
      "type": "function"
    },
    {
      "inputs": [],
      "name": "receiptManagerAddress",
      "outputs": [
        {
          "internalType": "address",
          "name": "",
          "type": "address"
        }
      ],
      "stateMutability": "view",
      "type": "function"
    },
    {
      "inputs": [
        {
          "internalType": "uint256[]",
          "name": "receiptIDs",
          "type": "uint256[]"
        }
      ],
      "name": "redeemDrawingReceipts",
      "outputs": [],
      "stateMutability": "nonpayable",
      "type": "function"
    },
    {
      "inputs": [
        {
          "internalType": "uint256",
          "name": "drawingID",
          "type": "uint256"
        }
      ],
      "name": "retrieveExcessDrawingCustody",
      "outputs": [],
      "stateMutability": "nonpayable",
      "type": "function"
    },
    {
      "inputs": [
        {
          "internalType": "uint256",
          "name": "newCommissionBPs",
          "type": "uint256"
        }
      ],
      "name": "setCommission",
      "outputs": [],
      "stateMutability": "nonpayable",
      "type": "function"
    },
    {
      "inputs": [
        {
          "internalType": "address payable",
          "name": "newOwner",
          "type": "address"
        }
      ],
      "name": "setOwner",
      "outputs": [],
      "stateMutability": "nonpayable",
      "type": "function"
    },
    {
      "inputs": [
        {
          "internalType": "uint256",
          "name": "promotionID",
          "type": "uint256"
        },
        {
          "internalType": "string",
          "name": "newURIRoot",
          "type": "string"
        }
      ],
      "name": "setPromotionURI",
      "outputs": [],
      "stateMutability": "nonpayable",
      "type": "function"
    },
    {
      "inputs": [
        {
          "internalType": "address",
          "name": "_promotionsManagerAddress",
          "type": "address"
        }
      ],
      "name": "setPromotionsManager",
      "outputs": [],
      "stateMutability": "nonpayable",
      "type": "function"
    },
    {
      "inputs": [
        {
          "internalType": "address",
          "name": "_receiptManagerAddress",
          "type": "address"
        }
      ],
      "name": "setReceiptManager",
      "outputs": [],
      "stateMutability": "nonpayable",
      "type": "function"
    },
    {
      "inputs": [
        {
          "internalType": "uint256",
          "name": "promotionID",
          "type": "uint256"
        },
        {
          "internalType": "uint256",
          "name": "basisPoints",
          "type": "uint256"
        }
      ],
      "name": "setRoyalty",
      "outputs": [],
      "stateMutability": "nonpayable",
      "type": "function"
    },
    {
      "inputs": [
        {
          "internalType": "uint256",
          "name": "",
          "type": "uint256"
        }
      ],
      "name": "unmintedReceiptsToOwners",
      "outputs": [
        {
          "internalType": "address",
          "name": "",
          "type": "address"
        }
      ],
      "stateMutability": "view",
      "type": "function"
    },
    {
      "inputs": [
        {
          "internalType": "address",
          "name": "erc20Token",
          "type": "address"
        }
      ],
      "name": "withdrawCommissions",
      "outputs": [],
      "stateMutability": "nonpayable",
      "type": "function"
    },
    {
      "inputs": [
        {
          "internalType": "address",
          "name": "",
          "type": "address"
        }
      ],
      "name": "withdrawnCommissions",
      "outputs": [
        {
          "internalType": "uint256",
          "name": "",
          "type": "uint256"
        }
      ],
      "stateMutability": "view",
      "type": "function"
    }
  ],
  "transactionHash": "0x8f27e3f1189773efedca9580b5adbb6dc7ec860430cc25fe4dd6b6677622568c",
  "args": [
    "0x5FbDB2315678afecb367f032d93F642f64180aa3",
    "0xE6E340D132b5f46d1e472DebcD681B2aBc16e57E",
    "0xc3e53F4d16Ae77Db1c982e75a937B9f60FE63690",
    "0x474e34a077df58807dbe9c96d3c009b23b3c6d0cce433e59bbf5b34f823bc56c",
    "0x0000000000000000000000000000000000000000000000000000000000000001",
    "500000"
  ],
  "numDeployments": 1,
  "solcInputHash": "0a1fef0750a3912da5dfa6fd178eaafc",
  "bytecode": "0x61012060405260c860005560c8600e553480156200001c57600080fd5b506040516200533638038062005336833981810160405281019062000042919062000361565b858073ffffffffffffffffffffffffffffffffffffffff1660808173ffffffffffffffffffffffffffffffffffffffff16815250505033600160006101000a81548173ffffffffffffffffffffffffffffffffffffffff021916908373ffffffffffffffffffffffffffffffffffffffff16021790555084600260006101000a81548173ffffffffffffffffffffffffffffffffffffffff021916908373ffffffffffffffffffffffffffffffffffffffff16021790555084600c60006101000a81548173ffffffffffffffffffffffffffffffffffffffff021916908373ffffffffffffffffffffffffffffffffffffffff16021790555083600360006101000a81548173ffffffffffffffffffffffffffffffffffffffff021916908373ffffffffffffffffffffffffffffffffffffffff16021790555083600d60006101000a81548173ffffffffffffffffffffffffffffffffffffffff021916908373ffffffffffffffffffffffffffffffffffffffff1602179055508573ffffffffffffffffffffffffffffffffffffffff1660a08173ffffffffffffffffffffffffffffffffffffffff16815250508261010081815250508167ffffffffffffffff1660e08167ffffffffffffffff16815250508063ffffffff1660c08163ffffffff1681525050505050505050620003fd565b600080fd5b600073ffffffffffffffffffffffffffffffffffffffff82169050919050565b600062000268826200023b565b9050919050565b6200027a816200025b565b81146200028657600080fd5b50565b6000815190506200029a816200026f565b92915050565b6000819050919050565b620002b581620002a0565b8114620002c157600080fd5b50565b600081519050620002d581620002aa565b92915050565b600067ffffffffffffffff82169050919050565b620002fa81620002db565b81146200030657600080fd5b50565b6000815190506200031a81620002ef565b92915050565b600063ffffffff82169050919050565b6200033b8162000320565b81146200034757600080fd5b50565b6000815190506200035b8162000330565b92915050565b60008060008060008060c0878903121562000381576200038062000236565b5b60006200039189828a0162000289565b9650506020620003a489828a0162000289565b9550506040620003b789828a0162000289565b9450506060620003ca89828a01620002c4565b9350506080620003dd89828a0162000309565b92505060a0620003f089828a016200034a565b9150509295509295509295565b60805160a05160c05160e05161010051614eed620004496000396000612ad201526000612af301526000612b1601526000612a9601526000818161183d01526118910152614eed6000f3fe608060405234801561001057600080fd5b506004361061021c5760003560e01c806376640a5c11610125578063c4e80dbc116100ad578063e3bbf52e1161007c578063e3bbf52e1461068c578063e9b08e13146106aa578063ee1309b3146106da578063ef5856c3146106f6578063f7dbfa53146107265761021c565b8063c4e80dbc146105e8578063ce606ee014610620578063cfefaa4e1461063e578063e14891911461066e5761021c565b80639eb7b720116100f45780639eb7b72014610532578063a0bbde321461054e578063a118c1661461056c578063a3a92ad814610588578063c0628f1d146105b85761021c565b806376640a5c146104aa5780637aa88c7f146104c85780639165bdba146104f8578063933a6f0d146105165761021c565b80632ff71a69116101a857806351f7a8541161017757806351f7a854146103f35780635970b2da1461040f5780635a31470d1461044057806364ead1eb1461045c5780636d03e7281461048c5761021c565b80632ff71a691461035b57806334d8222014610377578063355e6b43146103a75780633a810114146103c35761021c565b806313af4035116101ef57806313af4035146102a557806317a59ab0146102c15780631fe543e3146102f15780632d2828f51461030d5780632d28e89d1461033d5761021c565b806301ab2c0f14610221578063039551f41461023d5780630bd7b3221461026d578063122ee6d714610289575b600080fd5b61023b6004803603810190610236919061398b565b610742565b005b61025760048036038101906102529190613a41565b610b37565b6040516102649190613a90565b60405180910390f35b61028760048036038101906102829190613aab565b610b85565b005b6102a3600480360381019061029e9190613ad8565b610e3d565b005b6102bf60048036038101906102ba9190613b56565b61174f565b005b6102db60048036038101906102d69190613b83565b611823565b6040516102e89190613bbf565b60405180910390f35b61030b60048036038101906103069190613d33565b61183b565b005b61032760048036038101906103229190613ad8565b6118fb565b6040516103349190613d9e565b60405180910390f35b6103456119a2565b6040516103529190613bbf565b60405180910390f35b61037560048036038101906103709190613b83565b6119a8565b005b610391600480360381019061038c9190613db9565b611abd565b60405161039e9190613d9e565b60405180910390f35b6103c160048036038101906103bc9190613aab565b611aec565b005b6103dd60048036038101906103d89190613b83565b611bcb565b6040516103ea9190613eb7565b60405180910390f35b61040d60048036038101906104089190613b83565b611c62565b005b61042960048036038101906104249190613aab565b611ea2565b604051610437929190613ed9565b60405180910390f35b61045a60048036038101906104559190613f5d565b611ec6565b005b61047660048036038101906104719190613aab565b61218f565b6040516104839190613bbf565b60405180910390f35b6104946121af565b6040516104a19190613a90565b60405180910390f35b6104b26121d5565b6040516104bf919061401c565b60405180910390f35b6104e260048036038101906104dd9190613aab565b6121fb565b6040516104ef9190613a90565b60405180910390f35b61050061222e565b60405161050d9190614058565b60405180910390f35b610530600480360381019061052b9190613ad8565b612254565b005b61054c600480360381019061054791906140c9565b6123f7565b005b6105566128b3565b6040516105639190613a90565b60405180910390f35b61058660048036038101906105819190614116565b6128d9565b005b6105a2600480360381019061059d9190613aab565b612c38565b6040516105af9190613bbf565b60405180910390f35b6105d260048036038101906105cd9190613a41565b612c50565b6040516105df9190613bbf565b60405180910390f35b61060260048036038101906105fd9190613aab565b612c81565b60405161061799989796959493929190614197565b60405180910390f35b610628612d29565b6040516106359190613a90565b60405180910390f35b61065860048036038101906106539190613b83565b612d4f565b6040516106659190613bbf565b60405180910390f35b610676612d67565b6040516106839190613bbf565b60405180910390f35b610694612d6d565b6040516106a19190613bbf565b60405180910390f35b6106c460048036038101906106bf9190613aab565b612d73565b6040516106d19190613eb7565b60405180910390f35b6106f460048036038101906106ef9190613aab565b612de4565b005b610710600480360381019061070b9190613ad8565b6131e2565b60405161071d9190613bbf565b60405180910390f35b610740600480360381019061073b9190613b83565b613213565b005b82600d60009054906101000a900473ffffffffffffffffffffffffffffffffffffffff1673ffffffffffffffffffffffffffffffffffffffff16631a17945133836040518363ffffffff1660e01b81526004016107a0929190614224565b602060405180830381865afa1580156107bd573d6000803e3d6000fd5b505050506040513d601f19601f820116820180604052508101906107e19190614262565b610820576040517f08c379a0000000000000000000000000000000000000000000000000000000008152600401610817906142ec565b60405180910390fd5b60018611158061083c57506000868a610839919061433b565b14155b80610848575061038488105b80610854575060018911155b8061086a57508587610866919061439b565b8510155b156108a1576040517f35be3ac800000000000000000000000000000000000000000000000000000000815260040160405180910390fd5b600060106000600e5481526020019081526020016000209050898160000181905550848160050160006101000a81548173ffffffffffffffffffffffffffffffffffffffff021916908373ffffffffffffffffffffffffffffffffffffffff160217905550884261091291906143dd565b8160010181905550878160020181905550868160030181905550858160040181905550838160060160006101000a81548173ffffffffffffffffffffffffffffffffffffffff021916908373ffffffffffffffffffffffffffffffffffffffff160217905550828160060160146101000a81548160ff0219169083151502179055508373ffffffffffffffffffffffffffffffffffffffff16600e548673ffffffffffffffffffffffffffffffffffffffff167f4fe575ad6e2b2231a747048394fc59b5a82933feb10b902ec3f1d25825c608048d428e6109f391906143dd565b8d8d8d8b604051610a0996959493929190614411565b60405180910390a4600860008673ffffffffffffffffffffffffffffffffffffffff1673ffffffffffffffffffffffffffffffffffffffff168152602001908152602001600020600e5490806001815401808255809150506001900390600052602060002001600090919091909150558215610b1157600c60009054906101000a900473ffffffffffffffffffffffffffffffffffffffff1673ffffffffffffffffffffffffffffffffffffffff166335b20baf600e54876040518363ffffffff1660e01b8152600401610ade929190614472565b600060405180830381600087803b158015610af857600080fd5b505af1158015610b0c573d6000803e3d6000fd5b505050505b6001600e6000828254610b2491906143dd565b9250508190555050505050505050505050565b60076020528160005260406000208181548110610b5357600080fd5b906000526020600020016000915091509054906101000a900473ffffffffffffffffffffffffffffffffffffffff1681565b6000601060008381526020019081526020016000209050600d60009054906101000a900473ffffffffffffffffffffffffffffffffffffffff1673ffffffffffffffffffffffffffffffffffffffff16631a179451338360050160009054906101000a900473ffffffffffffffffffffffffffffffffffffffff166040518363ffffffff1660e01b8152600401610c1d929190614224565b602060405180830381865afa158015610c3a573d6000803e3d6000fd5b505050506040513d601f19601f82011682018060405250810190610c5e9190614262565b610c94576040517fc19f17a900000000000000000000000000000000000000000000000000000000815260040160405180910390fd5b6000600a6000848152602001908152602001600020805490509050428260010154118015610cc55750816000015481105b15610e38576000826003015482610cdc919061433b565b905060008183610cec919061449b565b90506000600184610cfd919061449b565b905060008367ffffffffffffffff811115610d1b57610d1a613bf0565b5b604051908082528060200260200182016040528015610d495781602001602082028036833780820191505090505b50905060008390505b828111610dc657600a60008981526020019081526020016000208181548110610d7e57610d7d6144cf565b5b9060005260206000200154828583610d96919061449b565b81518110610da757610da66144cf565b5b6020026020010181815250508080610dbe906144fe565b915050610d52565b50610dd5818760040154613328565b867f9cf541ac877be08a68335da670ce95ed50bc3319b4a7abe245d3efebe429ab7185604051610e059190613bbf565b60405180910390a284866000018190555060018660050160146101000a81548160ff021916908315150217905550505050505b505050565b6000601060008481526020019081526020016000206040518061012001604052908160008201548152602001600182015481526020016002820154815260200160038201548152602001600482015481526020016005820160009054906101000a900473ffffffffffffffffffffffffffffffffffffffff1673ffffffffffffffffffffffffffffffffffffffff1673ffffffffffffffffffffffffffffffffffffffff1681526020016005820160149054906101000a900460ff161515151581526020016006820160009054906101000a900473ffffffffffffffffffffffffffffffffffffffff1673ffffffffffffffffffffffffffffffffffffffff1673ffffffffffffffffffffffffffffffffffffffff1681526020016006820160149054906101000a900460ff16151515158152505090506000600a6000858152602001908152602001600020805490509050610fcd6040518060400160405280600181526020017f3100000000000000000000000000000000000000000000000000000000000000815250613381565b816000015181101580610fe35750428260200151105b1561101a576040517faf061c0e00000000000000000000000000000000000000000000000000000000815260040160405180910390fd5b8160000151838261102b91906143dd565b111561104457808260000151611041919061449b565b92505b6110826040518060400160405280600181526020017f3200000000000000000000000000000000000000000000000000000000000000815250613381565b6000838360800151611094919061439b565b9050600084846080015185604001516110ad919061449b565b6110b7919061439b565b90506000612710600054836110cc919061439b565b6110d69190614546565b9050600082846110e691906143dd565b90506110f18461341a565b6110fa8361341a565b6111038261341a565b61110c8161341a565b61114a6040518060400160405280600181526020017f3900000000000000000000000000000000000000000000000000000000000000815250613381565b8560e0015173ffffffffffffffffffffffffffffffffffffffff166323b872dd3330846040518463ffffffff1660e01b815260040161118b93929190614577565b6020604051808303816000875af11580156111aa573d6000803e3d6000fd5b505050506040513d601f19601f820116820180604052508101906111ce9190614262565b5061120d6040518060400160405280600281526020017f3361000000000000000000000000000000000000000000000000000000000000815250613381565b8560e0015173ffffffffffffffffffffffffffffffffffffffff1663a9059cbb600d60009054906101000a900473ffffffffffffffffffffffffffffffffffffffff1673ffffffffffffffffffffffffffffffffffffffff16637366ad268960a001518a60e001516040518363ffffffff1660e01b8152600401611292929190614224565b602060405180830381865afa1580156112af573d6000803e3d6000fd5b505050506040513d601f19601f820116820180604052508101906112d391906145c3565b84866112df919061449b565b6040518363ffffffff1660e01b81526004016112fc9291906145f0565b6020604051808303816000875af115801561131b573d6000803e3d6000fd5b505050506040513d601f19601f8201168201806040525081019061133f9190614262565b5061137e6040518060400160405280600181526020017f3400000000000000000000000000000000000000000000000000000000000000815250613381565b81600460008860e0015173ffffffffffffffffffffffffffffffffffffffff1673ffffffffffffffffffffffffffffffffffffffff16815260200190815260200160002060008282546113d191906143dd565b9250508190555060008661010001511561149b57600c60009054906101000a900473ffffffffffffffffffffffffffffffffffffffff1673ffffffffffffffffffffffffffffffffffffffff16629308a1338b60018a61143191906143dd565b8c6040518563ffffffff1660e01b81526004016114519493929190614619565b6020604051808303816000875af1158015611470573d6000803e3d6000fd5b505050506040513d601f19601f820116820180604052508101906114949190614673565b905061153c565b600c60009054906101000a900473ffffffffffffffffffffffffffffffffffffffff1673ffffffffffffffffffffffffffffffffffffffff16631d4922b8896040518263ffffffff1660e01b81526004016114f69190613bbf565b6020604051808303816000875af1158015611515573d6000803e3d6000fd5b505050506040513d601f19601f820116820180604052508101906115399190614673565b90505b61157a6040518060400160405280600181526020017f3500000000000000000000000000000000000000000000000000000000000000815250613381565b60005b88811015611669576000600f6000838561159791906143dd565b815260200190815260200160002090508a8160000181905550600a60008c815260200190815260200160002082846115cf91906143dd565b908060018154018082558091505060019003906000526020600020016000909190919091505588610100015161165d573360096000848661161091906143dd565b815260200190815260200160002060006101000a81548173ffffffffffffffffffffffffffffffffffffffff021916908373ffffffffffffffffffffffffffffffffffffffff1602179055505b5080600101905061157d565b506116a86040518060400160405280600181526020017f3600000000000000000000000000000000000000000000000000000000000000815250613381565b6001866116b591906143dd565b893373ffffffffffffffffffffffffffffffffffffffff167f7161b5c25db83b719c0d4524453acce4c20ccee615ad868b4540004f11cfca75848c6040516116fe929190613ed9565b60405180910390a46117446040518060400160405280600181526020017f3700000000000000000000000000000000000000000000000000000000000000815250613381565b505050505050505050565b600160009054906101000a900473ffffffffffffffffffffffffffffffffffffffff1673ffffffffffffffffffffffffffffffffffffffff163373ffffffffffffffffffffffffffffffffffffffff16146117df576040517f08c379a00000000000000000000000000000000000000000000000000000000081526004016117d6906146ec565b60405180910390fd5b80600160006101000a81548173ffffffffffffffffffffffffffffffffffffffff021916908373ffffffffffffffffffffffffffffffffffffffff16021790555050565b60046020528060005260406000206000915090505481565b7f000000000000000000000000000000000000000000000000000000000000000073ffffffffffffffffffffffffffffffffffffffff163373ffffffffffffffffffffffffffffffffffffffff16146118ed57337f00000000000000000000000000000000000000000000000000000000000000006040517f1cf993f40000000000000000000000000000000000000000000000000000000081526004016118e4929190614224565b60405180910390fd5b6118f782826134b3565b5050565b60008060106000858152602001908152602001600020905082600161192091906143dd565b816003015461192f919061439b565b600a600086815260200190815260200160002080549050108061198757506001151560126000868152602001908152602001600020600085815260200190815260200160002060009054906101000a900460ff161515145b1561199657600091505061199c565b60019150505b92915050565b61038481565b600160009054906101000a900473ffffffffffffffffffffffffffffffffffffffff1673ffffffffffffffffffffffffffffffffffffffff163373ffffffffffffffffffffffffffffffffffffffff1614611a38576040517f08c379a0000000000000000000000000000000000000000000000000000000008152600401611a2f906146ec565b60405180910390fd5b80600260006101000a81548173ffffffffffffffffffffffffffffffffffffffff021916908373ffffffffffffffffffffffffffffffffffffffff16021790555080600c60006101000a81548173ffffffffffffffffffffffffffffffffffffffff021916908373ffffffffffffffffffffffffffffffffffffffff16021790555050565b60066020528160005260406000206020528060005260406000206000915091509054906101000a900460ff1681565b600160009054906101000a900473ffffffffffffffffffffffffffffffffffffffff1673ffffffffffffffffffffffffffffffffffffffff163373ffffffffffffffffffffffffffffffffffffffff1614611b7c576040517f08c379a0000000000000000000000000000000000000000000000000000000008152600401611b73906146ec565b60405180910390fd5b612710811115611bc1576040517f08c379a0000000000000000000000000000000000000000000000000000000008152600401611bb890614758565b60405180910390fd5b8060008190555050565b6060600860008373ffffffffffffffffffffffffffffffffffffffff1673ffffffffffffffffffffffffffffffffffffffff168152602001908152602001600020805480602002602001604051908101604052809291908181526020018280548015611c5657602002820191906000526020600020905b815481526020019060010190808311611c42575b50505050509050919050565b600160009054906101000a900473ffffffffffffffffffffffffffffffffffffffff1673ffffffffffffffffffffffffffffffffffffffff163373ffffffffffffffffffffffffffffffffffffffff1614611cf2576040517f08c379a0000000000000000000000000000000000000000000000000000000008152600401611ce9906146ec565b60405180910390fd5b8073ffffffffffffffffffffffffffffffffffffffff1663a9059cbb600160009054906101000a900473ffffffffffffffffffffffffffffffffffffffff16600560008573ffffffffffffffffffffffffffffffffffffffff1673ffffffffffffffffffffffffffffffffffffffff16815260200190815260200160002054600460008673ffffffffffffffffffffffffffffffffffffffff1673ffffffffffffffffffffffffffffffffffffffff16815260200190815260200160002054611dbb919061449b565b6040518363ffffffff1660e01b8152600401611dd89291906145f0565b6020604051808303816000875af1158015611df7573d6000803e3d6000fd5b505050506040513d601f19601f82011682018060405250810190611e1b9190614262565b50600460008273ffffffffffffffffffffffffffffffffffffffff1673ffffffffffffffffffffffffffffffffffffffff16815260200190815260200160002054600560008373ffffffffffffffffffffffffffffffffffffffff1673ffffffffffffffffffffffffffffffffffffffff1681526020019081526020016000208190555050565b600f6020528060005260406000206000915090508060000154908060010154905082565b6000601060008581526020019081526020016000209050600d60009054906101000a900473ffffffffffffffffffffffffffffffffffffffff1673ffffffffffffffffffffffffffffffffffffffff16631a179451338360050160009054906101000a900473ffffffffffffffffffffffffffffffffffffffff166040518363ffffffff1660e01b8152600401611f5e929190614224565b602060405180830381865afa158015611f7b573d6000803e3d6000fd5b505050506040513d601f19601f82011682018060405250810190611f9f9190614262565b611fd5576040517fc19f17a900000000000000000000000000000000000000000000000000000000815260040160405180910390fd5b8060060160149054906101000a900460ff1661201d576040517f1fbb40b200000000000000000000000000000000000000000000000000000000815260040160405180910390fd5b6000600c60009054906101000a900473ffffffffffffffffffffffffffffffffffffffff1673ffffffffffffffffffffffffffffffffffffffff1663135a0ce9866040518263ffffffff1660e01b815260040161207a9190613bbf565b600060405180830381865afa158015612097573d6000803e3d6000fd5b505050506040513d6000823e3d601f19601f820116820180604052508101906120c09190614848565b51146120f8576040517f1c1d2b4c00000000000000000000000000000000000000000000000000000000815260040160405180910390fd5b600c60009054906101000a900473ffffffffffffffffffffffffffffffffffffffff1673ffffffffffffffffffffffffffffffffffffffff166384936ac08585856040518463ffffffff1660e01b8152600401612157939291906148cd565b600060405180830381600087803b15801561217157600080fd5b505af1158015612185573d6000803e3d6000fd5b5050505050505050565b6000600a6000838152602001908152602001600020805490509050919050565b600360009054906101000a900473ffffffffffffffffffffffffffffffffffffffff1681565b600d60009054906101000a900473ffffffffffffffffffffffffffffffffffffffff1681565b60096020528060005260406000206000915054906101000a900473ffffffffffffffffffffffffffffffffffffffff1681565b600c60009054906101000a900473ffffffffffffffffffffffffffffffffffffffff1681565b6000601060008481526020019081526020016000209050600d60009054906101000a900473ffffffffffffffffffffffffffffffffffffffff1673ffffffffffffffffffffffffffffffffffffffff16631a179451338360050160009054906101000a900473ffffffffffffffffffffffffffffffffffffffff166040518363ffffffff1660e01b81526004016122ec929190614224565b602060405180830381865afa158015612309573d6000803e3d6000fd5b505050506040513d601f19601f8201168201806040525081019061232d9190614262565b612363576040517fc19f17a900000000000000000000000000000000000000000000000000000000815260040160405180910390fd5b600c60009054906101000a900473ffffffffffffffffffffffffffffffffffffffff1673ffffffffffffffffffffffffffffffffffffffff1663933a6f0d84846040518363ffffffff1660e01b81526004016123c0929190613ed9565b600060405180830381600087803b1580156123da57600080fd5b505af11580156123ee573d6000803e3d6000fd5b50505050505050565b60008060106000600f600087876000818110612416576124156144cf565b5b90506020020135815260200190815260200160002060000154815260200190815260200160002060060160009054906101000a900473ffffffffffffffffffffffffffffffffffffffff16905060005b84849050811015612824576000600f600087878581811061248a576124896144cf565b5b9050602002013581526020019081526020016000206040518060400160405290816000820154815260200160018201548152505090506000601060008360000151815260200190815260200160002090508060060160009054906101000a900473ffffffffffffffffffffffffffffffffffffffff1673ffffffffffffffffffffffffffffffffffffffff168473ffffffffffffffffffffffffffffffffffffffff161461256d576040517f08c379a00000000000000000000000000000000000000000000000000000000081526004016125649061494b565b60405180910390fd5b8060060160149054906101000a900460ff16156126ab573373ffffffffffffffffffffffffffffffffffffffff16600c60009054906101000a900473ffffffffffffffffffffffffffffffffffffffff1673ffffffffffffffffffffffffffffffffffffffff16636352211e8989878181106125ec576125eb6144cf565b5b905060200201356040518263ffffffff1660e01b815260040161260f9190613bbf565b602060405180830381865afa15801561262c573d6000803e3d6000fd5b505050506040513d601f19601f8201168201806040525081019061265091906145c3565b73ffffffffffffffffffffffffffffffffffffffff16146126a6576040517f08c379a000000000000000000000000000000000000000000000000000000000815260040161269d906149b7565b60405180910390fd5b612766565b3373ffffffffffffffffffffffffffffffffffffffff16600960008989878181106126d9576126d86144cf565b5b90506020020135815260200190815260200160002060009054906101000a900473ffffffffffffffffffffffffffffffffffffffff1673ffffffffffffffffffffffffffffffffffffffff1614612765576040517f08c379a000000000000000000000000000000000000000000000000000000000815260040161275c906149b7565b60405180910390fd5b5b6000826020015111156128155781602001518561278391906143dd565b94506000600f600089898781811061279e5761279d6144cf565b5b9050602002013581526020019081526020016000206001018190555081600001518787858181106127d2576127d16144cf565b5b905060200201357fb5fc8625ed5a401da04cf815ab8ba4ea3e4ee3fade469830de8392b54106aaf6846020015160405161280c9190613bbf565b60405180910390a35b50508080600101915050612466565b50600082146128ad578073ffffffffffffffffffffffffffffffffffffffff1663a9059cbb33846040518363ffffffff1660e01b81526004016128689291906145f0565b6020604051808303816000875af1158015612887573d6000803e3d6000fd5b505050506040513d601f19601f820116820180604052508101906128ab9190614262565b505b50505050565b600260009054906101000a900473ffffffffffffffffffffffffffffffffffffffff1681565b818190508484905014612921576040517f08c379a000000000000000000000000000000000000000000000000000000000815260040161291890614a23565b60405180910390fd5b6005848490501115612968576040517f08c379a000000000000000000000000000000000000000000000000000000000815260040161295f90614a8f565b60405180910390fd5b60005b848490508110156129fe576129b285858381811061298c5761298b6144cf565b5b905060200201358484848181106129a6576129a56144cf565b5b905060200201356118fb565b6129f1576040517f08c379a00000000000000000000000000000000000000000000000000000000081526004016129e890614afb565b60405180910390fd5b808060010191505061296b565b5060005b84849050811015612a8957600160126000878785818110612a2657612a256144cf565b5b9050602002013581526020019081526020016000206000858585818110612a5057612a4f6144cf565b5b90506020020135815260200190815260200160002060006101000a81548160ff0219169083151502179055508080600101915050612a02565b50600084849050905060007f000000000000000000000000000000000000000000000000000000000000000073ffffffffffffffffffffffffffffffffffffffff16635d3b1d307f00000000000000000000000000000000000000000000000000000000000000007f000000000000000000000000000000000000000000000000000000000000000060037f0000000000000000000000000000000000000000000000000000000000000000876040518663ffffffff1660e01b8152600401612b56959493929190614b93565b6020604051808303816000875af1158015612b75573d6000803e3d6000fd5b505050506040513d601f19601f82011682018060405250810190612b999190614673565b905060006011600083815260200190815260200160002090508686826000019190612bc5929190613816565b508484826001019190612bd9929190613816565b503373ffffffffffffffffffffffffffffffffffffffff16827f2583379594240285f33befc38b7fe9800ffffc1527a3640e877957f01f6c767c89898989604051612c279493929190614c50565b60405180910390a350505050505050565b600b6020528060005260406000206000915090505481565b60086020528160005260406000208181548110612c6c57600080fd5b90600052602060002001600091509150505481565b60106020528060005260406000206000915090508060000154908060010154908060020154908060030154908060040154908060050160009054906101000a900473ffffffffffffffffffffffffffffffffffffffff16908060050160149054906101000a900460ff16908060060160009054906101000a900473ffffffffffffffffffffffffffffffffffffffff16908060060160149054906101000a900460ff16905089565b600160009054906101000a900473ffffffffffffffffffffffffffffffffffffffff1681565b60056020528060005260406000206000915090505481565b60005481565b600e5481565b60606000600a6000848152602001908152602001600020805480602002602001604051908101604052809291908181526020018280548015612dd457602002820191906000526020600020905b815481526020019060010190808311612dc0575b5050505050905080915050919050565b6000601060008381526020019081526020016000206040518061012001604052908160008201548152602001600182015481526020016002820154815260200160038201548152602001600482015481526020016005820160009054906101000a900473ffffffffffffffffffffffffffffffffffffffff1673ffffffffffffffffffffffffffffffffffffffff1673ffffffffffffffffffffffffffffffffffffffff1681526020016005820160149054906101000a900460ff161515151581526020016006820160009054906101000a900473ffffffffffffffffffffffffffffffffffffffff1673ffffffffffffffffffffffffffffffffffffffff1673ffffffffffffffffffffffffffffffffffffffff1681526020016006820160149054906101000a900460ff1615151515815250509050600d60009054906101000a900473ffffffffffffffffffffffffffffffffffffffff1673ffffffffffffffffffffffffffffffffffffffff16631a179451338360a001516040518363ffffffff1660e01b8152600401612f7c929190614224565b602060405180830381865afa158015612f99573d6000803e3d6000fd5b505050506040513d601f19601f82011682018060405250810190612fbd9190614262565b612ff3576040517fc19f17a900000000000000000000000000000000000000000000000000000000815260040160405180910390fd5b6000600a600084815260200190815260200160002080549050905081602001514211806130235750808260000151145b613062576040517f08c379a000000000000000000000000000000000000000000000000000000000815260040161305990614cd7565b60405180910390fd5b8160c00151156130a7576040517f08c379a000000000000000000000000000000000000000000000000000000000815260040161309e90614d43565b60405180910390fd5b600082608001518360600151836130be919061433b565b6130c8919061439b565b90508260e0015173ffffffffffffffffffffffffffffffffffffffff1663a9059cbb600160009054906101000a900473ffffffffffffffffffffffffffffffffffffffff16836040518363ffffffff1660e01b815260040161312b9291906145f0565b6020604051808303816000875af115801561314a573d6000803e3d6000fd5b505050506040513d601f19601f8201168201806040525081019061316e9190614262565b50600060106000868152602001908152602001600020905060018160050160146101000a81548160ff021916908315150217905550847fc8238ac10f9eb45287c62f15a3fc07d82e14337161270a251934c7e77b78ae59836040516131d39190613bbf565b60405180910390a25050505050565b600a60205281600052604060002081815481106131fe57600080fd5b90600052602060002001600091509150505481565b600160009054906101000a900473ffffffffffffffffffffffffffffffffffffffff1673ffffffffffffffffffffffffffffffffffffffff163373ffffffffffffffffffffffffffffffffffffffff16146132a3576040517f08c379a000000000000000000000000000000000000000000000000000000000815260040161329a906146ec565b60405180910390fd5b80600360006101000a81548173ffffffffffffffffffffffffffffffffffffffff021916908373ffffffffffffffffffffffffffffffffffffffff16021790555080600d60006101000a81548173ffffffffffffffffffffffffffffffffffffffff021916908373ffffffffffffffffffffffffffffffffffffffff16021790555050565b60005b825181101561337c576000600f600085848151811061334d5761334c6144cf565b5b60200260200101518152602001908152602001600020905082816001018190555050808060010191505061332b565b505050565b613417816040516024016133959190614da7565b6040516020818303038152906040527f41304fac000000000000000000000000000000000000000000000000000000007bffffffffffffffffffffffffffffffffffffffffffffffffffffffff19166020820180517bffffffffffffffffffffffffffffffffffffffffffffffffffffffff83818316178352505050506137d0565b50565b6134b08160405160240161342e9190613bbf565b6040516020818303038152906040527ff82c50f1000000000000000000000000000000000000000000000000000000007bffffffffffffffffffffffffffffffffffffffffffffffffffffffff19166020820180517bffffffffffffffffffffffffffffffffffffffffffffffffffffffff83818316178352505050506137d0565b50565b60006011600084815260200190815260200160002090506135086040518060400160405280600a81526020017f66756c66696c6c696e6700000000000000000000000000000000000000000000815250613381565b8060000180549050825114613552576040517f08c379a000000000000000000000000000000000000000000000000000000000815260040161354990614e15565b60405180910390fd5b60005b816000018054905081101561374657600082600001828154811061357c5761357b6144cf565b5b9060005260206000200154905060008360010183815481106135a1576135a06144cf565b5b9060005260206000200154905060008584815181106135c3576135c26144cf565b5b6020026020010151905061360b6040518060400160405280600181526020017f6100000000000000000000000000000000000000000000000000000000000000815250613381565b60006010600085815260200190815260200160002060030154905060008183613634919061433b565b8285613640919061439b565b61364a91906143dd565b90506000600a60008781526020019081526020016000208281548110613673576136726144cf565b5b9060005260206000200154905060008360106000898152602001908152602001600020600401546136a4919061439b565b90506000600f600084815260200190815260200160002090508181600101819055506136cf8361341a565b6136d88261341a565b6136e5816001015461341a565b877f1ce4fea8c1574374c0e9c12b4c6a3c3f0eb1aa3993a405d065e09f2ee0585084888560018861371691906143dd565b868b604051613729959493929190614e35565b60405180910390a250505050505050508080600101915050613555565b506137856040518060400160405280600181526020017f6200000000000000000000000000000000000000000000000000000000000000815250613381565b60116000848152602001908152602001600020600080820160006137a99190613863565b6001820160006137b99190613863565b6002820160006137c99190613863565b5050505050565b6137e7816137df6137ea61380b565b63ffffffff16565b50565b60006a636f6e736f6c652e6c6f679050600080835160208501845afa505050565b613884819050919050565b828054828255906000526020600020908101928215613852579160200282015b82811115613851578235825591602001919060010190613836565b5b50905061385f919061388e565b5090565b5080546000825590600052602060002090810190613881919061388e565b50565b61388c614e88565b565b5b808211156138a757600081600090555060010161388f565b5090565b6000604051905090565b600080fd5b600080fd5b6000819050919050565b6138d2816138bf565b81146138dd57600080fd5b50565b6000813590506138ef816138c9565b92915050565b600073ffffffffffffffffffffffffffffffffffffffff82169050919050565b6000613920826138f5565b9050919050565b61393081613915565b811461393b57600080fd5b50565b60008135905061394d81613927565b92915050565b60008115159050919050565b61396881613953565b811461397357600080fd5b50565b6000813590506139858161395f565b92915050565b600080600080600080600080610100898b0312156139ac576139ab6138b5565b5b60006139ba8b828c016138e0565b98505060206139cb8b828c016138e0565b97505060406139dc8b828c016138e0565b96505060606139ed8b828c016138e0565b95505060806139fe8b828c016138e0565b94505060a0613a0f8b828c0161393e565b93505060c0613a208b828c0161393e565b92505060e0613a318b828c01613976565b9150509295985092959890939650565b60008060408385031215613a5857613a576138b5565b5b6000613a668582860161393e565b9250506020613a77858286016138e0565b9150509250929050565b613a8a81613915565b82525050565b6000602082019050613aa56000830184613a81565b92915050565b600060208284031215613ac157613ac06138b5565b5b6000613acf848285016138e0565b91505092915050565b60008060408385031215613aef57613aee6138b5565b5b6000613afd858286016138e0565b9250506020613b0e858286016138e0565b9150509250929050565b6000613b23826138f5565b9050919050565b613b3381613b18565b8114613b3e57600080fd5b50565b600081359050613b5081613b2a565b92915050565b600060208284031215613b6c57613b6b6138b5565b5b6000613b7a84828501613b41565b91505092915050565b600060208284031215613b9957613b986138b5565b5b6000613ba78482850161393e565b91505092915050565b613bb9816138bf565b82525050565b6000602082019050613bd46000830184613bb0565b92915050565b600080fd5b6000601f19601f8301169050919050565b7f4e487b7100000000000000000000000000000000000000000000000000000000600052604160045260246000fd5b613c2882613bdf565b810181811067ffffffffffffffff82111715613c4757613c46613bf0565b5b80604052505050565b6000613c5a6138ab565b9050613c668282613c1f565b919050565b600067ffffffffffffffff821115613c8657613c85613bf0565b5b602082029050602081019050919050565b600080fd5b6000613caf613caa84613c6b565b613c50565b90508083825260208201905060208402830185811115613cd257613cd1613c97565b5b835b81811015613cfb5780613ce788826138e0565b845260208401935050602081019050613cd4565b5050509392505050565b600082601f830112613d1a57613d19613bda565b5b8135613d2a848260208601613c9c565b91505092915050565b60008060408385031215613d4a57613d496138b5565b5b6000613d58858286016138e0565b925050602083013567ffffffffffffffff811115613d7957613d786138ba565b5b613d8585828601613d05565b9150509250929050565b613d9881613953565b82525050565b6000602082019050613db36000830184613d8f565b92915050565b60008060408385031215613dd057613dcf6138b5565b5b6000613dde8582860161393e565b9250506020613def8582860161393e565b9150509250929050565b600081519050919050565b600082825260208201905092915050565b6000819050602082019050919050565b613e2e816138bf565b82525050565b6000613e408383613e25565b60208301905092915050565b6000602082019050919050565b6000613e6482613df9565b613e6e8185613e04565b9350613e7983613e15565b8060005b83811015613eaa578151613e918882613e34565b9750613e9c83613e4c565b925050600181019050613e7d565b5085935050505092915050565b60006020820190508181036000830152613ed18184613e59565b905092915050565b6000604082019050613eee6000830185613bb0565b613efb6020830184613bb0565b9392505050565b600080fd5b60008083601f840112613f1d57613f1c613bda565b5b8235905067ffffffffffffffff811115613f3a57613f39613f02565b5b602083019150836001820283011115613f5657613f55613c97565b5b9250929050565b600080600060408486031215613f7657613f756138b5565b5b6000613f84868287016138e0565b935050602084013567ffffffffffffffff811115613fa557613fa46138ba565b5b613fb186828701613f07565b92509250509250925092565b6000819050919050565b6000613fe2613fdd613fd8846138f5565b613fbd565b6138f5565b9050919050565b6000613ff482613fc7565b9050919050565b600061400682613fe9565b9050919050565b61401681613ffb565b82525050565b6000602082019050614031600083018461400d565b92915050565b600061404282613fe9565b9050919050565b61405281614037565b82525050565b600060208201905061406d6000830184614049565b92915050565b60008083601f84011261408957614088613bda565b5b8235905067ffffffffffffffff8111156140a6576140a5613f02565b5b6020830191508360208202830111156140c2576140c1613c97565b5b9250929050565b600080602083850312156140e0576140df6138b5565b5b600083013567ffffffffffffffff8111156140fe576140fd6138ba565b5b61410a85828601614073565b92509250509250929050565b600080600080604085870312156141305761412f6138b5565b5b600085013567ffffffffffffffff81111561414e5761414d6138ba565b5b61415a87828801614073565b9450945050602085013567ffffffffffffffff81111561417d5761417c6138ba565b5b61418987828801614073565b925092505092959194509250565b6000610120820190506141ad600083018c613bb0565b6141ba602083018b613bb0565b6141c7604083018a613bb0565b6141d46060830189613bb0565b6141e16080830188613bb0565b6141ee60a0830187613a81565b6141fb60c0830186613d8f565b61420860e0830185613a81565b614216610100830184613d8f565b9a9950505050505050505050565b60006040820190506142396000830185613a81565b6142466020830184613a81565b9392505050565b60008151905061425c8161395f565b92915050565b600060208284031215614278576142776138b5565b5b60006142868482850161424d565b91505092915050565b600082825260208201905092915050565b7f4e6f7420417070726f7665640000000000000000000000000000000000000000600082015250565b60006142d6600c8361428f565b91506142e1826142a0565b602082019050919050565b60006020820190508181036000830152614305816142c9565b9050919050565b7f4e487b7100000000000000000000000000000000000000000000000000000000600052601260045260246000fd5b6000614346826138bf565b9150614351836138bf565b9250826143615761436061430c565b5b828206905092915050565b7f4e487b7100000000000000000000000000000000000000000000000000000000600052601160045260246000fd5b60006143a6826138bf565b91506143b1836138bf565b92508282026143bf816138bf565b915082820484148315176143d6576143d561436c565b5b5092915050565b60006143e8826138bf565b91506143f3836138bf565b925082820190508082111561440b5761440a61436c565b5b92915050565b600060c0820190506144266000830189613bb0565b6144336020830188613bb0565b6144406040830187613bb0565b61444d6060830186613bb0565b61445a6080830185613bb0565b61446760a0830184613d8f565b979650505050505050565b60006040820190506144876000830185613bb0565b6144946020830184613a81565b9392505050565b60006144a6826138bf565b91506144b1836138bf565b92508282039050818111156144c9576144c861436c565b5b92915050565b7f4e487b7100000000000000000000000000000000000000000000000000000000600052603260045260246000fd5b6000614509826138bf565b91507fffffffffffffffffffffffffffffffffffffffffffffffffffffffffffffffff820361453b5761453a61436c565b5b600182019050919050565b6000614551826138bf565b915061455c836138bf565b92508261456c5761456b61430c565b5b828204905092915050565b600060608201905061458c6000830186613a81565b6145996020830185613a81565b6145a66040830184613bb0565b949350505050565b6000815190506145bd81613927565b92915050565b6000602082840312156145d9576145d86138b5565b5b60006145e7848285016145ae565b91505092915050565b60006040820190506146056000830185613a81565b6146126020830184613bb0565b9392505050565b600060808201905061462e6000830187613a81565b61463b6020830186613bb0565b6146486040830185613bb0565b6146556060830184613bb0565b95945050505050565b60008151905061466d816138c9565b92915050565b600060208284031215614689576146886138b5565b5b60006146978482850161465e565b91505092915050565b7f4e6f744f776e6572000000000000000000000000000000000000000000000000600082015250565b60006146d660088361428f565b91506146e1826146a0565b602082019050919050565b60006020820190508181036000830152614705816146c9565b9050919050565b7f496e760000000000000000000000000000000000000000000000000000000000600082015250565b600061474260038361428f565b915061474d8261470c565b602082019050919050565b6000602082019050818103600083015261477181614735565b9050919050565b600080fd5b600067ffffffffffffffff82111561479857614797613bf0565b5b6147a182613bdf565b9050602081019050919050565b60005b838110156147cc5780820151818401526020810190506147b1565b60008484015250505050565b60006147eb6147e68461477d565b613c50565b90508281526020810184848401111561480757614806614778565b5b6148128482856147ae565b509392505050565b600082601f83011261482f5761482e613bda565b5b815161483f8482602086016147d8565b91505092915050565b60006020828403121561485e5761485d6138b5565b5b600082015167ffffffffffffffff81111561487c5761487b6138ba565b5b6148888482850161481a565b91505092915050565b82818337600083830152505050565b60006148ac838561428f565b93506148b9838584614891565b6148c283613bdf565b840190509392505050565b60006040820190506148e26000830186613bb0565b81810360208301526148f58184866148a0565b9050949350505050565b7f496e76616c696400000000000000000000000000000000000000000000000000600082015250565b600061493560078361428f565b9150614940826148ff565b602082019050919050565b6000602082019050818103600083015261496481614928565b9050919050565b7f4e6f74206f776e65640000000000000000000000000000000000000000000000600082015250565b60006149a160098361428f565b91506149ac8261496b565b602082019050919050565b600060208201905081810360008301526149d081614994565b9050919050565b7f4172726179206c656e677468206d69736d617463680000000000000000000000600082015250565b6000614a0d60158361428f565b9150614a18826149d7565b602082019050919050565b60006020820190508181036000830152614a3c81614a00565b9050919050565b7f457863656564206c656e67746800000000000000000000000000000000000000600082015250565b6000614a79600d8361428f565b9150614a8482614a43565b602082019050919050565b60006020820190508181036000830152614aa881614a6c565b9050919050565b7f496e656c696769626c6520656e74727900000000000000000000000000000000600082015250565b6000614ae560108361428f565b9150614af082614aaf565b602082019050919050565b60006020820190508181036000830152614b1481614ad8565b9050919050565b6000819050919050565b614b2e81614b1b565b82525050565b600067ffffffffffffffff82169050919050565b614b5181614b34565b82525050565b600061ffff82169050919050565b614b6e81614b57565b82525050565b600063ffffffff82169050919050565b614b8d81614b74565b82525050565b600060a082019050614ba86000830188614b25565b614bb56020830187614b48565b614bc26040830186614b65565b614bcf6060830185614b84565b614bdc6080830184614b84565b9695505050505050565b600080fd5b82818337505050565b6000614c008385613e04565b93507f07ffffffffffffffffffffffffffffffffffffffffffffffffffffffffffffff831115614c3357614c32614be6565b5b602083029250614c44838584614beb565b82840190509392505050565b60006040820190508181036000830152614c6b818688614bf4565b90508181036020830152614c80818486614bf4565b905095945050505050565b7f496e656c696769626c6500000000000000000000000000000000000000000000600082015250565b6000614cc1600a8361428f565b9150614ccc82614c8b565b602082019050919050565b60006020820190508181036000830152614cf081614cb4565b9050919050565b7f416c72656164792052657475726e656400000000000000000000000000000000600082015250565b6000614d2d60108361428f565b9150614d3882614cf7565b602082019050919050565b60006020820190508181036000830152614d5c81614d20565b9050919050565b600081519050919050565b6000614d7982614d63565b614d83818561428f565b9350614d938185602086016147ae565b614d9c81613bdf565b840191505092915050565b60006020820190508181036000830152614dc18184614d6e565b905092915050565b7f52616e646f6d20776f726473206c656e677468206d69736d6174636800000000600082015250565b6000614dff601c8361428f565b9150614e0a82614dc9565b602082019050919050565b60006020820190508181036000830152614e2e81614df2565b9050919050565b600060a082019050614e4a6000830188613bb0565b614e576020830187613bb0565b614e646040830186613bb0565b614e716060830185613bb0565b614e7e6080830184613bb0565b9695505050505050565b7f4e487b7100000000000000000000000000000000000000000000000000000000600052605160045260246000fdfea264697066735822122000581b9fce61fe66321bfcafd709084589c14a8f96478f4216a9f1ae5d6a392964736f6c63430008180033",
  "devdoc": {
    "kind": "dev",
    "methods": {},
    "version": 1
  },
  "userdoc": {
    "kind": "user",
    "methods": {},
    "version": 1
  },
  "storageLayout": {
    "storage": [
      {
        "astId": 1720,
        "contract": "contracts/DrawingManagerv4.sol:DrawingManager",
        "label": "commission",
        "offset": 0,
        "slot": "0",
        "type": "t_uint256"
      },
      {
        "astId": 1722,
        "contract": "contracts/DrawingManagerv4.sol:DrawingManager",
        "label": "contractOwner",
        "offset": 0,
        "slot": "1",
        "type": "t_address"
      },
      {
        "astId": 1724,
        "contract": "contracts/DrawingManagerv4.sol:DrawingManager",
        "label": "receiptManagerAddress",
        "offset": 0,
        "slot": "2",
        "type": "t_address"
      },
      {
        "astId": 1726,
        "contract": "contracts/DrawingManagerv4.sol:DrawingManager",
        "label": "promotionsManagerAddress",
        "offset": 0,
        "slot": "3",
        "type": "t_address"
      },
      {
        "astId": 1730,
        "contract": "contracts/DrawingManagerv4.sol:DrawingManager",
        "label": "earnedCommissions",
        "offset": 0,
        "slot": "4",
        "type": "t_mapping(t_address,t_uint256)"
      },
      {
        "astId": 1734,
        "contract": "contracts/DrawingManagerv4.sol:DrawingManager",
        "label": "withdrawnCommissions",
        "offset": 0,
        "slot": "5",
        "type": "t_mapping(t_address,t_uint256)"
      },
      {
        "astId": 1740,
        "contract": "contracts/DrawingManagerv4.sol:DrawingManager",
        "label": "approvedOperators",
        "offset": 0,
        "slot": "6",
        "type": "t_mapping(t_address,t_mapping(t_address,t_bool))"
      },
      {
        "astId": 1745,
        "contract": "contracts/DrawingManagerv4.sol:DrawingManager",
        "label": "arrayOfApprovedOperators",
        "offset": 0,
        "slot": "7",
        "type": "t_mapping(t_address,t_array(t_address)dyn_storage)"
      },
      {
        "astId": 1750,
        "contract": "contracts/DrawingManagerv4.sol:DrawingManager",
        "label": "addressToPromotions",
        "offset": 0,
        "slot": "8",
        "type": "t_mapping(t_address,t_array(t_uint256)dyn_storage)"
      },
      {
        "astId": 1754,
        "contract": "contracts/DrawingManagerv4.sol:DrawingManager",
        "label": "unmintedReceiptsToOwners",
        "offset": 0,
        "slot": "9",
        "type": "t_mapping(t_uint256,t_address)"
      },
      {
        "astId": 1759,
        "contract": "contracts/DrawingManagerv4.sol:DrawingManager",
        "label": "promotionIDToReceiptIDs",
        "offset": 0,
        "slot": "10",
        "type": "t_mapping(t_uint256,t_array(t_uint256)dyn_storage)"
      },
      {
        "astId": 1763,
        "contract": "contracts/DrawingManagerv4.sol:DrawingManager",
        "label": "receiptIDToPromotionID",
        "offset": 0,
        "slot": "11",
        "type": "t_mapping(t_uint256,t_uint256)"
      },
      {
        "astId": 1766,
        "contract": "contracts/DrawingManagerv4.sol:DrawingManager",
        "label": "receiptManager",
        "offset": 0,
        "slot": "12",
        "type": "t_contract(IReceiptManager)10163"
      },
      {
        "astId": 1769,
        "contract": "contracts/DrawingManagerv4.sol:DrawingManager",
        "label": "promotionsManager",
        "offset": 0,
        "slot": "13",
        "type": "t_contract(IPromotionsManager)10105"
      },
      {
        "astId": 363,
        "contract": "contracts/DrawingManagerv4.sol:DrawingManager",
        "label": "drawingIDs",
        "offset": 0,
        "slot": "14",
        "type": "t_uint256"
      },
      {
        "astId": 371,
        "contract": "contracts/DrawingManagerv4.sol:DrawingManager",
        "label": "DrawingReceipts",
        "offset": 0,
        "slot": "15",
        "type": "t_mapping(t_uint256,t_struct(DrawingReceipt)350_storage)"
      },
      {
        "astId": 376,
        "contract": "contracts/DrawingManagerv4.sol:DrawingManager",
        "label": "Drawings",
        "offset": 0,
        "slot": "16",
        "type": "t_mapping(t_uint256,t_struct(Drawing)345_storage)"
      },
      {
        "astId": 381,
        "contract": "contracts/DrawingManagerv4.sol:DrawingManager",
        "label": "vrfRequestIDtoContext",
        "offset": 0,
        "slot": "17",
        "type": "t_mapping(t_uint256,t_struct(VRFRequestContext)360_storage)"
      },
      {
        "astId": 387,
        "contract": "contracts/DrawingManagerv4.sol:DrawingManager",
        "label": "raffleInitiatedBool",
        "offset": 0,
        "slot": "18",
        "type": "t_mapping(t_uint256,t_mapping(t_uint256,t_bool))"
      },
      {
        "astId": 399,
        "contract": "contracts/DrawingManagerv4.sol:DrawingManager",
        "label": "s_lastTimeStamp",
        "offset": 0,
        "slot": "19",
        "type": "t_uint256"
      }
    ],
    "types": {
      "t_address": {
        "encoding": "inplace",
        "label": "address",
        "numberOfBytes": "20"
      },
      "t_array(t_address)dyn_storage": {
        "base": "t_address",
        "encoding": "dynamic_array",
        "label": "address[]",
        "numberOfBytes": "32"
      },
      "t_array(t_uint256)dyn_storage": {
        "base": "t_uint256",
        "encoding": "dynamic_array",
        "label": "uint256[]",
        "numberOfBytes": "32"
      },
      "t_bool": {
        "encoding": "inplace",
        "label": "bool",
        "numberOfBytes": "1"
      },
      "t_contract(IPromotionsManager)10105": {
        "encoding": "inplace",
        "label": "contract IPromotionsManager",
        "numberOfBytes": "20"
      },
      "t_contract(IReceiptManager)10163": {
        "encoding": "inplace",
        "label": "contract IReceiptManager",
        "numberOfBytes": "20"
      },
      "t_mapping(t_address,t_array(t_address)dyn_storage)": {
        "encoding": "mapping",
        "key": "t_address",
        "label": "mapping(address => address[])",
        "numberOfBytes": "32",
        "value": "t_array(t_address)dyn_storage"
      },
      "t_mapping(t_address,t_array(t_uint256)dyn_storage)": {
        "encoding": "mapping",
        "key": "t_address",
        "label": "mapping(address => uint256[])",
        "numberOfBytes": "32",
        "value": "t_array(t_uint256)dyn_storage"
      },
      "t_mapping(t_address,t_bool)": {
        "encoding": "mapping",
        "key": "t_address",
        "label": "mapping(address => bool)",
        "numberOfBytes": "32",
        "value": "t_bool"
      },
      "t_mapping(t_address,t_mapping(t_address,t_bool))": {
        "encoding": "mapping",
        "key": "t_address",
        "label": "mapping(address => mapping(address => bool))",
        "numberOfBytes": "32",
        "value": "t_mapping(t_address,t_bool)"
      },
      "t_mapping(t_address,t_uint256)": {
        "encoding": "mapping",
        "key": "t_address",
        "label": "mapping(address => uint256)",
        "numberOfBytes": "32",
        "value": "t_uint256"
      },
      "t_mapping(t_uint256,t_address)": {
        "encoding": "mapping",
        "key": "t_uint256",
        "label": "mapping(uint256 => address)",
        "numberOfBytes": "32",
        "value": "t_address"
      },
      "t_mapping(t_uint256,t_array(t_uint256)dyn_storage)": {
        "encoding": "mapping",
        "key": "t_uint256",
        "label": "mapping(uint256 => uint256[])",
        "numberOfBytes": "32",
        "value": "t_array(t_uint256)dyn_storage"
      },
      "t_mapping(t_uint256,t_bool)": {
        "encoding": "mapping",
        "key": "t_uint256",
        "label": "mapping(uint256 => bool)",
        "numberOfBytes": "32",
        "value": "t_bool"
      },
      "t_mapping(t_uint256,t_mapping(t_uint256,t_bool))": {
        "encoding": "mapping",
        "key": "t_uint256",
        "label": "mapping(uint256 => mapping(uint256 => bool))",
        "numberOfBytes": "32",
        "value": "t_mapping(t_uint256,t_bool)"
      },
      "t_mapping(t_uint256,t_struct(Drawing)345_storage)": {
        "encoding": "mapping",
        "key": "t_uint256",
        "label": "mapping(uint256 => struct DrawingManager.Drawing)",
        "numberOfBytes": "32",
        "value": "t_struct(Drawing)345_storage"
      },
      "t_mapping(t_uint256,t_struct(DrawingReceipt)350_storage)": {
        "encoding": "mapping",
        "key": "t_uint256",
        "label": "mapping(uint256 => struct DrawingManager.DrawingReceipt)",
        "numberOfBytes": "32",
        "value": "t_struct(DrawingReceipt)350_storage"
      },
      "t_mapping(t_uint256,t_struct(VRFRequestContext)360_storage)": {
        "encoding": "mapping",
        "key": "t_uint256",
        "label": "mapping(uint256 => struct DrawingManager.VRFRequestContext)",
        "numberOfBytes": "32",
        "value": "t_struct(VRFRequestContext)360_storage"
      },
      "t_mapping(t_uint256,t_uint256)": {
        "encoding": "mapping",
        "key": "t_uint256",
        "label": "mapping(uint256 => uint256)",
        "numberOfBytes": "32",
        "value": "t_uint256"
      },
      "t_struct(Drawing)345_storage": {
        "encoding": "inplace",
        "label": "struct DrawingManager.Drawing",
        "members": [
          {
            "astId": 328,
            "contract": "contracts/DrawingManagerv4.sol:DrawingManager",
            "label": "maxSlots",
            "offset": 0,
            "slot": "0",
            "type": "t_uint256"
          },
          {
            "astId": 330,
            "contract": "contracts/DrawingManagerv4.sol:DrawingManager",
            "label": "endTime",
            "offset": 0,
            "slot": "1",
            "type": "t_uint256"
          },
          {
            "astId": 332,
            "contract": "contracts/DrawingManagerv4.sol:DrawingManager",
            "label": "price",
            "offset": 0,
            "slot": "2",
            "type": "t_uint256"
          },
          {
            "astId": 334,
            "contract": "contracts/DrawingManagerv4.sol:DrawingManager",
            "label": "cohortSize",
            "offset": 0,
            "slot": "3",
            "type": "t_uint256"
          },
          {
            "astId": 336,
            "contract": "contracts/DrawingManagerv4.sol:DrawingManager",
            "label": "rebateAmount",
            "offset": 0,
            "slot": "4",
            "type": "t_uint256"
          },
          {
            "astId": 338,
            "contract": "contracts/DrawingManagerv4.sol:DrawingManager",
            "label": "owner",
            "offset": 0,
            "slot": "5",
            "type": "t_address"
          },
          {
            "astId": 340,
            "contract": "contracts/DrawingManagerv4.sol:DrawingManager",
            "label": "returnedCustody",
            "offset": 20,
            "slot": "5",
            "type": "t_bool"
          },
          {
            "astId": 342,
            "contract": "contracts/DrawingManagerv4.sol:DrawingManager",
            "label": "erc20Token",
            "offset": 0,
            "slot": "6",
            "type": "t_address"
          },
          {
            "astId": 344,
            "contract": "contracts/DrawingManagerv4.sol:DrawingManager",
            "label": "mintsNFTs",
            "offset": 20,
            "slot": "6",
            "type": "t_bool"
          }
        ],
        "numberOfBytes": "224"
      },
      "t_struct(DrawingReceipt)350_storage": {
        "encoding": "inplace",
        "label": "struct DrawingManager.DrawingReceipt",
        "members": [
          {
            "astId": 347,
            "contract": "contracts/DrawingManagerv4.sol:DrawingManager",
            "label": "drawingID",
            "offset": 0,
            "slot": "0",
            "type": "t_uint256"
          },
          {
            "astId": 349,
            "contract": "contracts/DrawingManagerv4.sol:DrawingManager",
            "label": "redeemableAmount",
            "offset": 0,
            "slot": "1",
            "type": "t_uint256"
          }
        ],
        "numberOfBytes": "64"
      },
      "t_struct(VRFRequestContext)360_storage": {
        "encoding": "inplace",
        "label": "struct DrawingManager.VRFRequestContext",
        "members": [
          {
            "astId": 353,
            "contract": "contracts/DrawingManagerv4.sol:DrawingManager",
            "label": "drawingIDArray",
            "offset": 0,
            "slot": "0",
            "type": "t_array(t_uint256)dyn_storage"
          },
          {
            "astId": 356,
            "contract": "contracts/DrawingManagerv4.sol:DrawingManager",
            "label": "cohorts",
            "offset": 0,
            "slot": "1",
            "type": "t_array(t_uint256)dyn_storage"
          },
          {
            "astId": 359,
            "contract": "contracts/DrawingManagerv4.sol:DrawingManager",
            "label": "randomWords",
            "offset": 0,
            "slot": "2",
            "type": "t_array(t_uint256)dyn_storage"
          }
        ],
        "numberOfBytes": "96"
      },
      "t_uint256": {
        "encoding": "inplace",
        "label": "uint256",
        "numberOfBytes": "32"
      }
    }
  }
}