{
  "address": "0x851356ae760d987E095750cCeb3bC6014560891C",
  "abi": [
    {
      "inputs": [
        {
          "internalType": "address",
          "name": "vrfCoordinatorV2",
          "type": "address"
        },
        {
          "internalType": "address",
          "name": "_receiptManagerAddress",
          "type": "address"
        },
        {
          "internalType": "address",
          "name": "_promotionsManagerAddress",
          "type": "address"
        },
        {
          "internalType": "bytes32",
          "name": "gasLane",
          "type": "bytes32"
        },
        {
          "internalType": "uint64",
          "name": "subscriptionId",
          "type": "uint64"
        },
        {
          "internalType": "uint32",
          "name": "callbackGasLimit",
          "type": "uint32"
        }
      ],
      "stateMutability": "nonpayable",
      "type": "constructor"
    },
    {
      "inputs": [],
      "name": "InvalidConfig",
      "type": "error"
    },
    {
      "inputs": [],
      "name": "NotApproved",
      "type": "error"
    },
    {
      "inputs": [],
      "name": "NotCustomURI",
      "type": "error"
    },
    {
      "inputs": [
        {
          "internalType": "address",
          "name": "have",
          "type": "address"
        },
        {
          "internalType": "address",
          "name": "want",
          "type": "address"
        }
      ],
      "name": "OnlyCoordinatorCanFulfill",
      "type": "error"
    },
    {
      "inputs": [],
      "name": "Promotion_Expired",
      "type": "error"
    },
    {
      "inputs": [],
      "name": "URIAlreadSet",
      "type": "error"
    },
    {
      "anonymous": false,
      "inputs": [
        {
          "indexed": true,
          "internalType": "uint256",
          "name": "promotionID",
          "type": "uint256"
        },
        {
          "indexed": false,
          "internalType": "uint256",
          "name": "numberOfParticipants",
          "type": "uint256"
        }
      ],
      "name": "DrawingCancelled",
      "type": "event"
    },
    {
      "anonymous": false,
      "inputs": [
        {
          "indexed": true,
          "internalType": "address",
          "name": "owner",
          "type": "address"
        },
        {
          "indexed": true,
          "internalType": "uint256",
          "name": "promotionID",
          "type": "uint256"
        },
        {
          "indexed": true,
          "internalType": "address",
          "name": "erc20Token",
          "type": "address"
        },
        {
          "indexed": false,
          "internalType": "uint256",
          "name": "maxSlots",
          "type": "uint256"
        },
        {
          "indexed": false,
          "internalType": "uint256",
          "name": "endTime",
          "type": "uint256"
        },
        {
          "indexed": false,
          "internalType": "uint256",
          "name": "price",
          "type": "uint256"
        },
        {
          "indexed": false,
          "internalType": "uint256",
          "name": "cohortSize",
          "type": "uint256"
        },
        {
          "indexed": false,
          "internalType": "uint256",
          "name": "rebateAmount",
          "type": "uint256"
        },
        {
          "indexed": false,
          "internalType": "bool",
          "name": "mintsNFTs",
          "type": "bool"
        }
      ],
      "name": "DrawingCreated",
      "type": "event"
    },
    {
      "anonymous": false,
      "inputs": [
        {
          "indexed": true,
          "internalType": "uint256",
          "name": "promotionID",
          "type": "uint256"
        },
        {
          "indexed": false,
          "internalType": "uint256",
          "name": "redeemedAmount",
          "type": "uint256"
        }
      ],
      "name": "DrawingCustodyRedeemed",
      "type": "event"
    },
    {
      "anonymous": false,
      "inputs": [
        {
          "indexed": true,
          "internalType": "uint256",
          "name": "tokenID",
          "type": "uint256"
        },
        {
          "indexed": true,
          "internalType": "uint256",
          "name": "promotionID",
          "type": "uint256"
        },
        {
          "indexed": false,
          "internalType": "uint256",
          "name": "redeemedAmount",
          "type": "uint256"
        }
      ],
      "name": "DrawingReceiptRedeemed",
      "type": "event"
    },
    {
      "anonymous": false,
      "inputs": [
        {
          "indexed": true,
          "internalType": "address",
          "name": "joiner",
          "type": "address"
        },
        {
          "indexed": true,
          "internalType": "uint256",
          "name": "promotionID",
          "type": "uint256"
        },
        {
          "indexed": true,
          "internalType": "uint256",
          "name": "firstParticipantNumber",
          "type": "uint256"
        },
        {
          "indexed": false,
          "internalType": "uint256",
          "name": "firstTokenID",
          "type": "uint256"
        },
        {
          "indexed": false,
          "internalType": "uint256",
          "name": "numTickets",
          "type": "uint256"
        }
      ],
      "name": "DrawingReceiptsMinted",
      "type": "event"
    },
    {
      "anonymous": false,
      "inputs": [
        {
          "indexed": true,
          "internalType": "uint256",
          "name": "promotionID",
          "type": "uint256"
        },
        {
          "indexed": false,
          "internalType": "uint256",
          "name": "cohort",
          "type": "uint256"
        },
        {
          "indexed": false,
          "internalType": "uint256",
          "name": "tokenID",
          "type": "uint256"
        },
        {
          "indexed": false,
          "internalType": "uint256",
          "name": "participantNumber",
          "type": "uint256"
        },
        {
          "indexed": false,
          "internalType": "uint256",
          "name": "prize",
          "type": "uint256"
        },
        {
          "indexed": false,
          "internalType": "uint256",
          "name": "randomWord",
          "type": "uint256"
        }
      ],
      "name": "RaffleWinner",
      "type": "event"
    },
    {
      "anonymous": false,
      "inputs": [
        {
          "indexed": false,
          "internalType": "uint256[]",
          "name": "promotionIDs",
          "type": "uint256[]"
        },
        {
          "indexed": true,
          "internalType": "uint256",
          "name": "vrfRequestID",
          "type": "uint256"
        },
        {
          "indexed": true,
          "internalType": "address",
          "name": "initiator",
          "type": "address"
        },
        {
          "indexed": false,
          "internalType": "uint256[]",
          "name": "cohorts",
          "type": "uint256[]"
        }
      ],
      "name": "RafflesInitiated",
      "type": "event"
    },
    {
      "inputs": [
        {
          "internalType": "uint256",
          "name": "",
          "type": "uint256"
        }
      ],
      "name": "DrawingReceipts",
      "outputs": [
        {
          "internalType": "uint256",
          "name": "drawingID",
          "type": "uint256"
        },
        {
          "internalType": "uint256",
          "name": "redeemableAmount",
          "type": "uint256"
        }
      ],
      "stateMutability": "view",
      "type": "function"
    },
    {
      "inputs": [
        {
          "internalType": "uint256",
          "name": "",
          "type": "uint256"
        }
      ],
      "name": "Drawings",
      "outputs": [
        {
          "internalType": "uint256",
          "name": "maxSlots",
          "type": "uint256"
        },
        {
          "internalType": "uint256",
          "name": "endTime",
          "type": "uint256"
        },
        {
          "internalType": "uint256",
          "name": "price",
          "type": "uint256"
        },
        {
          "internalType": "uint256",
          "name": "cohortSize",
          "type": "uint256"
        },
        {
          "internalType": "uint256",
          "name": "rebateAmount",
          "type": "uint256"
        },
        {
          "internalType": "address",
          "name": "owner",
          "type": "address"
        },
        {
          "internalType": "bool",
          "name": "returnedCustody",
          "type": "bool"
        },
        {
          "internalType": "address",
          "name": "erc20Token",
          "type": "address"
        },
        {
          "internalType": "bool",
          "name": "mintsNFTs",
          "type": "bool"
        }
      ],
      "stateMutability": "view",
      "type": "function"
    },
    {
      "inputs": [],
      "name": "MINIMUM_DURATION",
      "outputs": [
        {
          "internalType": "uint256",
          "name": "",
          "type": "uint256"
        }
      ],
      "stateMutability": "view",
      "type": "function"
    },
    {
      "inputs": [
        {
          "internalType": "address",
          "name": "",
          "type": "address"
        },
        {
          "internalType": "uint256",
          "name": "",
          "type": "uint256"
        }
      ],
      "name": "addressToPromotions",
      "outputs": [
        {
          "internalType": "uint256",
          "name": "",
          "type": "uint256"
        }
      ],
      "stateMutability": "view",
      "type": "function"
    },
    {
      "inputs": [
        {
          "internalType": "address",
          "name": "",
          "type": "address"
        },
        {
          "internalType": "address",
          "name": "",
          "type": "address"
        }
      ],
      "name": "approvedOperators",
      "outputs": [
        {
          "internalType": "bool",
          "name": "",
          "type": "bool"
        }
      ],
      "stateMutability": "view",
      "type": "function"
    },
    {
      "inputs": [
        {
          "internalType": "address",
          "name": "",
          "type": "address"
        },
        {
          "internalType": "uint256",
          "name": "",
          "type": "uint256"
        }
      ],
      "name": "arrayOfApprovedOperators",
      "outputs": [
        {
          "internalType": "address",
          "name": "",
          "type": "address"
        }
      ],
      "stateMutability": "view",
      "type": "function"
    },
    {
      "inputs": [
        {
          "internalType": "uint256",
          "name": "drawingID",
          "type": "uint256"
        }
      ],
      "name": "cancelDrawing",
      "outputs": [],
      "stateMutability": "nonpayable",
      "type": "function"
    },
    {
      "inputs": [],
      "name": "commission",
      "outputs": [
        {
          "internalType": "uint256",
          "name": "",
          "type": "uint256"
        }
      ],
      "stateMutability": "view",
      "type": "function"
    },
    {
      "inputs": [],
      "name": "contractOwner",
      "outputs": [
        {
          "internalType": "address",
          "name": "",
          "type": "address"
        }
      ],
      "stateMutability": "view",
      "type": "function"
    },
    {
      "inputs": [
        {
          "internalType": "uint256",
          "name": "_maxSlots",
          "type": "uint256"
        },
        {
          "internalType": "uint256",
          "name": "_duration",
          "type": "uint256"
        },
        {
          "internalType": "uint256",
          "name": "_price",
          "type": "uint256"
        },
        {
          "internalType": "uint256",
          "name": "_cohortSize",
          "type": "uint256"
        },
        {
          "internalType": "uint256",
          "name": "_rebateAmount",
          "type": "uint256"
        },
        {
          "internalType": "address",
          "name": "_owner",
          "type": "address"
        },
        {
          "internalType": "address",
          "name": "_erc20Token",
          "type": "address"
        },
        {
          "internalType": "bool",
          "name": "_mintsNFTs",
          "type": "bool"
        }
      ],
      "name": "createDrawing",
      "outputs": [],
      "stateMutability": "nonpayable",
      "type": "function"
    },
    {
      "inputs": [
        {
          "internalType": "uint256",
          "name": "drawingID",
          "type": "uint256"
        },
        {
          "internalType": "uint256",
          "name": "cohort",
          "type": "uint256"
        }
      ],
      "name": "drawingEligibility",
      "outputs": [
        {
          "internalType": "bool",
          "name": "",
          "type": "bool"
        }
      ],
      "stateMutability": "view",
      "type": "function"
    },
    {
      "inputs": [],
      "name": "drawingIDs",
      "outputs": [
        {
          "internalType": "uint256",
          "name": "",
          "type": "uint256"
        }
      ],
      "stateMutability": "view",
      "type": "function"
    },
    {
      "inputs": [
        {
          "internalType": "address",
          "name": "",
          "type": "address"
        }
      ],
      "name": "earnedCommissions",
      "outputs": [
        {
          "internalType": "uint256",
          "name": "",
          "type": "uint256"
        }
      ],
      "stateMutability": "view",
      "type": "function"
    },
    {
      "inputs": [
        {
          "internalType": "uint256",
          "name": "promotionID",
          "type": "uint256"
        }
      ],
      "name": "getNumberOfParticipants",
      "outputs": [
        {
          "internalType": "uint256",
          "name": "",
          "type": "uint256"
        }
      ],
      "stateMutability": "view",
      "type": "function"
    },
    {
      "inputs": [
        {
          "internalType": "uint256",
          "name": "promotionID",
          "type": "uint256"
        }
      ],
      "name": "getPromotionReceipts",
      "outputs": [
        {
          "internalType": "uint256[]",
          "name": "",
          "type": "uint256[]"
        }
      ],
      "stateMutability": "view",
      "type": "function"
    },
    {
      "inputs": [
        {
          "internalType": "address",
          "name": "promotionOwner",
          "type": "address"
        }
      ],
      "name": "getPromotionsByOwner",
      "outputs": [
        {
          "internalType": "uint256[]",
          "name": "",
          "type": "uint256[]"
        }
      ],
      "stateMutability": "view",
      "type": "function"
    },
    {
      "inputs": [
        {
          "internalType": "uint256[]",
          "name": "arrayOfDrawingIDs",
          "type": "uint256[]"
        },
        {
          "internalType": "uint256[]",
          "name": "arrayOfcohorts",
          "type": "uint256[]"
        }
      ],
      "name": "initiateDrawings",
      "outputs": [],
      "stateMutability": "nonpayable",
      "type": "function"
    },
    {
      "inputs": [
        {
          "internalType": "uint256",
          "name": "drawingID",
          "type": "uint256"
        },
        {
          "internalType": "uint256",
          "name": "numOrders",
          "type": "uint256"
        }
      ],
      "name": "joinDrawing",
      "outputs": [],
      "stateMutability": "nonpayable",
      "type": "function"
    },
    {
      "inputs": [
        {
          "internalType": "uint256",
          "name": "",
          "type": "uint256"
        },
        {
          "internalType": "uint256",
          "name": "",
          "type": "uint256"
        }
      ],
      "name": "promotionIDToReceiptIDs",
      "outputs": [
        {
          "internalType": "uint256",
          "name": "",
          "type": "uint256"
        }
      ],
      "stateMutability": "view",
      "type": "function"
    },
    {
      "inputs": [],
      "name": "promotionsManager",
      "outputs": [
        {
          "internalType": "contract IPromotionsManager",
          "name": "",
          "type": "address"
        }
      ],
      "stateMutability": "view",
      "type": "function"
    },
    {
      "inputs": [],
      "name": "promotionsManagerAddress",
      "outputs": [
        {
          "internalType": "address",
          "name": "",
          "type": "address"
        }
      ],
      "stateMutability": "view",
      "type": "function"
    },
    {
      "inputs": [
        {
          "internalType": "uint256",
          "name": "requestId",
          "type": "uint256"
        },
        {
          "internalType": "uint256[]",
          "name": "randomWords",
          "type": "uint256[]"
        }
      ],
      "name": "rawFulfillRandomWords",
      "outputs": [],
      "stateMutability": "nonpayable",
      "type": "function"
    },
    {
      "inputs": [
        {
          "internalType": "uint256",
          "name": "",
          "type": "uint256"
        }
      ],
      "name": "receiptIDToPromotionID",
      "outputs": [
        {
          "internalType": "uint256",
          "name": "",
          "type": "uint256"
        }
      ],
      "stateMutability": "view",
      "type": "function"
    },
    {
      "inputs": [],
      "name": "receiptManager",
      "outputs": [
        {
          "internalType": "contract IReceiptManager",
          "name": "",
          "type": "address"
        }
      ],
      "stateMutability": "view",
      "type": "function"
    },
    {
      "inputs": [],
      "name": "receiptManagerAddress",
      "outputs": [
        {
          "internalType": "address",
          "name": "",
          "type": "address"
        }
      ],
      "stateMutability": "view",
      "type": "function"
    },
    {
      "inputs": [
        {
          "internalType": "uint256[]",
          "name": "receiptIDs",
          "type": "uint256[]"
        }
      ],
      "name": "redeemDrawingReceipts",
      "outputs": [],
      "stateMutability": "nonpayable",
      "type": "function"
    },
    {
      "inputs": [
        {
          "internalType": "uint256",
          "name": "drawingID",
          "type": "uint256"
        }
      ],
      "name": "retrieveExcessDrawingCustody",
      "outputs": [],
      "stateMutability": "nonpayable",
      "type": "function"
    },
    {
      "inputs": [
        {
          "internalType": "uint256",
          "name": "newCommissionBPs",
          "type": "uint256"
        }
      ],
      "name": "setCommission",
      "outputs": [],
      "stateMutability": "nonpayable",
      "type": "function"
    },
    {
      "inputs": [
        {
          "internalType": "address payable",
          "name": "newOwner",
          "type": "address"
        }
      ],
      "name": "setOwner",
      "outputs": [],
      "stateMutability": "nonpayable",
      "type": "function"
    },
    {
      "inputs": [
        {
          "internalType": "uint256",
          "name": "promotionID",
          "type": "uint256"
        },
        {
          "internalType": "string",
          "name": "newURIRoot",
          "type": "string"
        }
      ],
      "name": "setPromotionURI",
      "outputs": [],
      "stateMutability": "nonpayable",
      "type": "function"
    },
    {
      "inputs": [
        {
          "internalType": "address",
          "name": "_promotionsManagerAddress",
          "type": "address"
        }
      ],
      "name": "setPromotionsManager",
      "outputs": [],
      "stateMutability": "nonpayable",
      "type": "function"
    },
    {
      "inputs": [
        {
          "internalType": "address",
          "name": "_receiptManagerAddress",
          "type": "address"
        }
      ],
      "name": "setReceiptManager",
      "outputs": [],
      "stateMutability": "nonpayable",
      "type": "function"
    },
    {
      "inputs": [
        {
          "internalType": "uint256",
          "name": "promotionID",
          "type": "uint256"
        },
        {
          "internalType": "uint256",
          "name": "basisPoints",
          "type": "uint256"
        }
      ],
      "name": "setRoyalty",
      "outputs": [],
      "stateMutability": "nonpayable",
      "type": "function"
    },
    {
      "inputs": [
        {
          "internalType": "uint256",
          "name": "",
          "type": "uint256"
        }
      ],
      "name": "unmintedReceiptsToOwners",
      "outputs": [
        {
          "internalType": "address",
          "name": "",
          "type": "address"
        }
      ],
      "stateMutability": "view",
      "type": "function"
    },
    {
      "inputs": [
        {
          "internalType": "address",
          "name": "erc20Token",
          "type": "address"
        }
      ],
      "name": "withdrawCommissions",
      "outputs": [],
      "stateMutability": "nonpayable",
      "type": "function"
    },
    {
      "inputs": [
        {
          "internalType": "address",
          "name": "",
          "type": "address"
        }
      ],
      "name": "withdrawnCommissions",
      "outputs": [
        {
          "internalType": "uint256",
          "name": "",
          "type": "uint256"
        }
      ],
      "stateMutability": "view",
      "type": "function"
    }
  ],
  "transactionHash": "0xf392ba2d6e6423b923bf179ed1c9c36e5da86e91da82246b3fad0775a820a614",
  "args": [
    "0x5FbDB2315678afecb367f032d93F642f64180aa3",
    "0xE6E340D132b5f46d1e472DebcD681B2aBc16e57E",
    "0xc3e53F4d16Ae77Db1c982e75a937B9f60FE63690",
    "0x474e34a077df58807dbe9c96d3c009b23b3c6d0cce433e59bbf5b34f823bc56c",
    "0x0000000000000000000000000000000000000000000000000000000000000001",
    "500000"
  ],
  "numDeployments": 1,
  "solcInputHash": "61c1dc32c71141d4d5a498afe63289eb",
  "bytecode": "0x61012060405260c860005560c8600e553480156200001c57600080fd5b506040516200554538038062005545833981810160405281019062000042919062000361565b858073ffffffffffffffffffffffffffffffffffffffff1660808173ffffffffffffffffffffffffffffffffffffffff16815250505033600160006101000a81548173ffffffffffffffffffffffffffffffffffffffff021916908373ffffffffffffffffffffffffffffffffffffffff16021790555084600260006101000a81548173ffffffffffffffffffffffffffffffffffffffff021916908373ffffffffffffffffffffffffffffffffffffffff16021790555084600c60006101000a81548173ffffffffffffffffffffffffffffffffffffffff021916908373ffffffffffffffffffffffffffffffffffffffff16021790555083600360006101000a81548173ffffffffffffffffffffffffffffffffffffffff021916908373ffffffffffffffffffffffffffffffffffffffff16021790555083600d60006101000a81548173ffffffffffffffffffffffffffffffffffffffff021916908373ffffffffffffffffffffffffffffffffffffffff1602179055508573ffffffffffffffffffffffffffffffffffffffff1660a08173ffffffffffffffffffffffffffffffffffffffff16815250508261010081815250508167ffffffffffffffff1660e08167ffffffffffffffff16815250508063ffffffff1660c08163ffffffff1681525050505050505050620003fd565b600080fd5b600073ffffffffffffffffffffffffffffffffffffffff82169050919050565b600062000268826200023b565b9050919050565b6200027a816200025b565b81146200028657600080fd5b50565b6000815190506200029a816200026f565b92915050565b6000819050919050565b620002b581620002a0565b8114620002c157600080fd5b50565b600081519050620002d581620002aa565b92915050565b600067ffffffffffffffff82169050919050565b620002fa81620002db565b81146200030657600080fd5b50565b6000815190506200031a81620002ef565b92915050565b600063ffffffff82169050919050565b6200033b8162000320565b81146200034757600080fd5b50565b6000815190506200035b8162000330565b92915050565b60008060008060008060c0878903121562000381576200038062000236565b5b60006200039189828a0162000289565b9650506020620003a489828a0162000289565b9550506040620003b789828a0162000289565b9450506060620003ca89828a01620002c4565b9350506080620003dd89828a0162000309565b92505060a0620003f089828a016200034a565b9150509295509295509295565b60805160a05160c05160e051610100516150fc620004496000396000612bc901526000612bea01526000612c0d01526000612b8d01526000818161183d015261189101526150fc6000f3fe608060405234801561001057600080fd5b506004361061021c5760003560e01c806376640a5c11610125578063c4e80dbc116100ad578063e3bbf52e1161007c578063e3bbf52e1461068c578063e9b08e13146106aa578063ee1309b3146106da578063ef5856c3146106f6578063f7dbfa53146107265761021c565b8063c4e80dbc146105e8578063ce606ee014610620578063cfefaa4e1461063e578063e14891911461066e5761021c565b80639eb7b720116100f45780639eb7b72014610532578063a0bbde321461054e578063a118c1661461056c578063a3a92ad814610588578063c0628f1d146105b85761021c565b806376640a5c146104aa5780637aa88c7f146104c85780639165bdba146104f8578063933a6f0d146105165761021c565b80632ff71a69116101a857806351f7a8541161017757806351f7a854146103f35780635970b2da1461040f5780635a31470d1461044057806364ead1eb1461045c5780636d03e7281461048c5761021c565b80632ff71a691461035b57806334d8222014610377578063355e6b43146103a75780633a810114146103c35761021c565b806313af4035116101ef57806313af4035146102a557806317a59ab0146102c15780631fe543e3146102f15780632d2828f51461030d5780632d28e89d1461033d5761021c565b806301ab2c0f14610221578063039551f41461023d5780630bd7b3221461026d578063122ee6d714610289575b600080fd5b61023b60048036038101906102369190613b2e565b610742565b005b61025760048036038101906102529190613be4565b610b37565b6040516102649190613c33565b60405180910390f35b61028760048036038101906102829190613c4e565b610b85565b005b6102a3600480360381019061029e9190613c7b565b610e3d565b005b6102bf60048036038101906102ba9190613cf9565b61174f565b005b6102db60048036038101906102d69190613d26565b611823565b6040516102e89190613d62565b60405180910390f35b61030b60048036038101906103069190613ed6565b61183b565b005b61032760048036038101906103229190613c7b565b6118fb565b6040516103349190613f41565b60405180910390f35b610345611a53565b6040516103529190613d62565b60405180910390f35b61037560048036038101906103709190613d26565b611a59565b005b610391600480360381019061038c9190613f5c565b611b6e565b60405161039e9190613f41565b60405180910390f35b6103c160048036038101906103bc9190613c4e565b611b9d565b005b6103dd60048036038101906103d89190613d26565b611c7c565b6040516103ea919061405a565b60405180910390f35b61040d60048036038101906104089190613d26565b611d13565b005b61042960048036038101906104249190613c4e565b611f53565b60405161043792919061407c565b60405180910390f35b61045a60048036038101906104559190614100565b611f77565b005b61047660048036038101906104719190613c4e565b612240565b6040516104839190613d62565b60405180910390f35b610494612260565b6040516104a19190613c33565b60405180910390f35b6104b2612286565b6040516104bf91906141bf565b60405180910390f35b6104e260048036038101906104dd9190613c4e565b6122ac565b6040516104ef9190613c33565b60405180910390f35b6105006122df565b60405161050d91906141fb565b60405180910390f35b610530600480360381019061052b9190613c7b565b612305565b005b61054c6004803603810190610547919061426c565b6124a8565b005b610556612964565b6040516105639190613c33565b60405180910390f35b610586600480360381019061058191906142b9565b61298a565b005b6105a2600480360381019061059d9190613c4e565b612d2f565b6040516105af9190613d62565b60405180910390f35b6105d260048036038101906105cd9190613be4565b612d47565b6040516105df9190613d62565b60405180910390f35b61060260048036038101906105fd9190613c4e565b612d78565b6040516106179998979695949392919061433a565b60405180910390f35b610628612e20565b6040516106359190613c33565b60405180910390f35b61065860048036038101906106539190613d26565b612e46565b6040516106659190613d62565b60405180910390f35b610676612e5e565b6040516106839190613d62565b60405180910390f35b610694612e64565b6040516106a19190613d62565b60405180910390f35b6106c460048036038101906106bf9190613c4e565b612e6a565b6040516106d1919061405a565b60405180910390f35b6106f460048036038101906106ef9190613c4e565b612edb565b005b610710600480360381019061070b9190613c7b565b6132d9565b60405161071d9190613d62565b60405180910390f35b610740600480360381019061073b9190613d26565b61330a565b005b82600d60009054906101000a900473ffffffffffffffffffffffffffffffffffffffff1673ffffffffffffffffffffffffffffffffffffffff16631a17945133836040518363ffffffff1660e01b81526004016107a09291906143c7565b602060405180830381865afa1580156107bd573d6000803e3d6000fd5b505050506040513d601f19601f820116820180604052508101906107e19190614405565b610820576040517f08c379a00000000000000000000000000000000000000000000000000000000081526004016108179061448f565b60405180910390fd5b60018611158061083c57506000868a61083991906144de565b14155b80610848575061038488105b80610854575060018911155b8061086a57508587610866919061453e565b8510155b156108a1576040517f35be3ac800000000000000000000000000000000000000000000000000000000815260040160405180910390fd5b600060106000600e5481526020019081526020016000209050898160000181905550848160050160006101000a81548173ffffffffffffffffffffffffffffffffffffffff021916908373ffffffffffffffffffffffffffffffffffffffff16021790555088426109129190614580565b8160010181905550878160020181905550868160030181905550858160040181905550838160060160006101000a81548173ffffffffffffffffffffffffffffffffffffffff021916908373ffffffffffffffffffffffffffffffffffffffff160217905550828160060160146101000a81548160ff0219169083151502179055508373ffffffffffffffffffffffffffffffffffffffff16600e548673ffffffffffffffffffffffffffffffffffffffff167f4fe575ad6e2b2231a747048394fc59b5a82933feb10b902ec3f1d25825c608048d428e6109f39190614580565b8d8d8d8b604051610a09969594939291906145b4565b60405180910390a4600860008673ffffffffffffffffffffffffffffffffffffffff1673ffffffffffffffffffffffffffffffffffffffff168152602001908152602001600020600e5490806001815401808255809150506001900390600052602060002001600090919091909150558215610b1157600c60009054906101000a900473ffffffffffffffffffffffffffffffffffffffff1673ffffffffffffffffffffffffffffffffffffffff166335b20baf600e54876040518363ffffffff1660e01b8152600401610ade929190614615565b600060405180830381600087803b158015610af857600080fd5b505af1158015610b0c573d6000803e3d6000fd5b505050505b6001600e6000828254610b249190614580565b9250508190555050505050505050505050565b60076020528160005260406000208181548110610b5357600080fd5b906000526020600020016000915091509054906101000a900473ffffffffffffffffffffffffffffffffffffffff1681565b6000601060008381526020019081526020016000209050600d60009054906101000a900473ffffffffffffffffffffffffffffffffffffffff1673ffffffffffffffffffffffffffffffffffffffff16631a179451338360050160009054906101000a900473ffffffffffffffffffffffffffffffffffffffff166040518363ffffffff1660e01b8152600401610c1d9291906143c7565b602060405180830381865afa158015610c3a573d6000803e3d6000fd5b505050506040513d601f19601f82011682018060405250810190610c5e9190614405565b610c94576040517fc19f17a900000000000000000000000000000000000000000000000000000000815260040160405180910390fd5b6000600a6000848152602001908152602001600020805490509050428260010154118015610cc55750816000015481105b15610e38576000826003015482610cdc91906144de565b905060008183610cec919061463e565b90506000600184610cfd919061463e565b905060008367ffffffffffffffff811115610d1b57610d1a613d93565b5b604051908082528060200260200182016040528015610d495781602001602082028036833780820191505090505b50905060008390505b828111610dc657600a60008981526020019081526020016000208181548110610d7e57610d7d614672565b5b9060005260206000200154828583610d96919061463e565b81518110610da757610da6614672565b5b6020026020010181815250508080610dbe906146a1565b915050610d52565b50610dd581876004015461341f565b867f9cf541ac877be08a68335da670ce95ed50bc3319b4a7abe245d3efebe429ab7185604051610e059190613d62565b60405180910390a284866000018190555060018660050160146101000a81548160ff021916908315150217905550505050505b505050565b6000601060008481526020019081526020016000206040518061012001604052908160008201548152602001600182015481526020016002820154815260200160038201548152602001600482015481526020016005820160009054906101000a900473ffffffffffffffffffffffffffffffffffffffff1673ffffffffffffffffffffffffffffffffffffffff1673ffffffffffffffffffffffffffffffffffffffff1681526020016005820160149054906101000a900460ff161515151581526020016006820160009054906101000a900473ffffffffffffffffffffffffffffffffffffffff1673ffffffffffffffffffffffffffffffffffffffff1673ffffffffffffffffffffffffffffffffffffffff1681526020016006820160149054906101000a900460ff16151515158152505090506000600a6000858152602001908152602001600020805490509050610fcd6040518060400160405280600181526020017f3100000000000000000000000000000000000000000000000000000000000000815250613478565b816000015181101580610fe35750428260200151105b1561101a576040517faf061c0e00000000000000000000000000000000000000000000000000000000815260040160405180910390fd5b8160000151838261102b9190614580565b111561104457808260000151611041919061463e565b92505b6110826040518060400160405280600181526020017f3200000000000000000000000000000000000000000000000000000000000000815250613478565b6000838360800151611094919061453e565b9050600084846080015185604001516110ad919061463e565b6110b7919061453e565b90506000612710600054836110cc919061453e565b6110d691906146e9565b9050600082846110e69190614580565b90506110f184613511565b6110fa83613511565b61110382613511565b61110c81613511565b61114a6040518060400160405280600181526020017f3900000000000000000000000000000000000000000000000000000000000000815250613478565b8560e0015173ffffffffffffffffffffffffffffffffffffffff166323b872dd3330846040518463ffffffff1660e01b815260040161118b9392919061471a565b6020604051808303816000875af11580156111aa573d6000803e3d6000fd5b505050506040513d601f19601f820116820180604052508101906111ce9190614405565b5061120d6040518060400160405280600281526020017f3361000000000000000000000000000000000000000000000000000000000000815250613478565b8560e0015173ffffffffffffffffffffffffffffffffffffffff1663a9059cbb600d60009054906101000a900473ffffffffffffffffffffffffffffffffffffffff1673ffffffffffffffffffffffffffffffffffffffff16637366ad268960a001518a60e001516040518363ffffffff1660e01b81526004016112929291906143c7565b602060405180830381865afa1580156112af573d6000803e3d6000fd5b505050506040513d601f19601f820116820180604052508101906112d39190614766565b84866112df919061463e565b6040518363ffffffff1660e01b81526004016112fc929190614793565b6020604051808303816000875af115801561131b573d6000803e3d6000fd5b505050506040513d601f19601f8201168201806040525081019061133f9190614405565b5061137e6040518060400160405280600181526020017f3400000000000000000000000000000000000000000000000000000000000000815250613478565b81600460008860e0015173ffffffffffffffffffffffffffffffffffffffff1673ffffffffffffffffffffffffffffffffffffffff16815260200190815260200160002060008282546113d19190614580565b9250508190555060008661010001511561149b57600c60009054906101000a900473ffffffffffffffffffffffffffffffffffffffff1673ffffffffffffffffffffffffffffffffffffffff16629308a1338b60018a6114319190614580565b8c6040518563ffffffff1660e01b815260040161145194939291906147bc565b6020604051808303816000875af1158015611470573d6000803e3d6000fd5b505050506040513d601f19601f820116820180604052508101906114949190614816565b905061153c565b600c60009054906101000a900473ffffffffffffffffffffffffffffffffffffffff1673ffffffffffffffffffffffffffffffffffffffff16631d4922b8896040518263ffffffff1660e01b81526004016114f69190613d62565b6020604051808303816000875af1158015611515573d6000803e3d6000fd5b505050506040513d601f19601f820116820180604052508101906115399190614816565b90505b61157a6040518060400160405280600181526020017f3500000000000000000000000000000000000000000000000000000000000000815250613478565b60005b88811015611669576000600f600083856115979190614580565b815260200190815260200160002090508a8160000181905550600a60008c815260200190815260200160002082846115cf9190614580565b908060018154018082558091505060019003906000526020600020016000909190919091505588610100015161165d57336009600084866116109190614580565b815260200190815260200160002060006101000a81548173ffffffffffffffffffffffffffffffffffffffff021916908373ffffffffffffffffffffffffffffffffffffffff1602179055505b5080600101905061157d565b506116a86040518060400160405280600181526020017f3600000000000000000000000000000000000000000000000000000000000000815250613478565b6001866116b59190614580565b893373ffffffffffffffffffffffffffffffffffffffff167f7161b5c25db83b719c0d4524453acce4c20ccee615ad868b4540004f11cfca75848c6040516116fe92919061407c565b60405180910390a46117446040518060400160405280600181526020017f3700000000000000000000000000000000000000000000000000000000000000815250613478565b505050505050505050565b600160009054906101000a900473ffffffffffffffffffffffffffffffffffffffff1673ffffffffffffffffffffffffffffffffffffffff163373ffffffffffffffffffffffffffffffffffffffff16146117df576040517f08c379a00000000000000000000000000000000000000000000000000000000081526004016117d69061488f565b60405180910390fd5b80600160006101000a81548173ffffffffffffffffffffffffffffffffffffffff021916908373ffffffffffffffffffffffffffffffffffffffff16021790555050565b60046020528060005260406000206000915090505481565b7f000000000000000000000000000000000000000000000000000000000000000073ffffffffffffffffffffffffffffffffffffffff163373ffffffffffffffffffffffffffffffffffffffff16146118ed57337f00000000000000000000000000000000000000000000000000000000000000006040517f1cf993f40000000000000000000000000000000000000000000000000000000081526004016118e49291906143c7565b60405180910390fd5b6118f782826135aa565b5050565b6000806010600085815260200190815260200160002090508260016119209190614580565b816003015461192f919061453e565b600a600086815260200190815260200160002080549050108061198757506001151560126000868152602001908152602001600020600085815260200190815260200160002060009054906101000a900460ff161515145b806119a857506000600a600086815260200190815260200160002080549050145b156119ff576119b784846138d7565b6119f56040518060400160405280600a81526020017f496e656c696769626c6500000000000000000000000000000000000000000000815250613478565b6000915050611a4d565b611a0984846138d7565b611a476040518060400160405280600881526020017f656c696769626c65000000000000000000000000000000000000000000000000815250613478565b60019150505b92915050565b61038481565b600160009054906101000a900473ffffffffffffffffffffffffffffffffffffffff1673ffffffffffffffffffffffffffffffffffffffff163373ffffffffffffffffffffffffffffffffffffffff1614611ae9576040517f08c379a0000000000000000000000000000000000000000000000000000000008152600401611ae09061488f565b60405180910390fd5b80600260006101000a81548173ffffffffffffffffffffffffffffffffffffffff021916908373ffffffffffffffffffffffffffffffffffffffff16021790555080600c60006101000a81548173ffffffffffffffffffffffffffffffffffffffff021916908373ffffffffffffffffffffffffffffffffffffffff16021790555050565b60066020528160005260406000206020528060005260406000206000915091509054906101000a900460ff1681565b600160009054906101000a900473ffffffffffffffffffffffffffffffffffffffff1673ffffffffffffffffffffffffffffffffffffffff163373ffffffffffffffffffffffffffffffffffffffff1614611c2d576040517f08c379a0000000000000000000000000000000000000000000000000000000008152600401611c249061488f565b60405180910390fd5b612710811115611c72576040517f08c379a0000000000000000000000000000000000000000000000000000000008152600401611c69906148fb565b60405180910390fd5b8060008190555050565b6060600860008373ffffffffffffffffffffffffffffffffffffffff1673ffffffffffffffffffffffffffffffffffffffff168152602001908152602001600020805480602002602001604051908101604052809291908181526020018280548015611d0757602002820191906000526020600020905b815481526020019060010190808311611cf3575b50505050509050919050565b600160009054906101000a900473ffffffffffffffffffffffffffffffffffffffff1673ffffffffffffffffffffffffffffffffffffffff163373ffffffffffffffffffffffffffffffffffffffff1614611da3576040517f08c379a0000000000000000000000000000000000000000000000000000000008152600401611d9a9061488f565b60405180910390fd5b8073ffffffffffffffffffffffffffffffffffffffff1663a9059cbb600160009054906101000a900473ffffffffffffffffffffffffffffffffffffffff16600560008573ffffffffffffffffffffffffffffffffffffffff1673ffffffffffffffffffffffffffffffffffffffff16815260200190815260200160002054600460008673ffffffffffffffffffffffffffffffffffffffff1673ffffffffffffffffffffffffffffffffffffffff16815260200190815260200160002054611e6c919061463e565b6040518363ffffffff1660e01b8152600401611e89929190614793565b6020604051808303816000875af1158015611ea8573d6000803e3d6000fd5b505050506040513d601f19601f82011682018060405250810190611ecc9190614405565b50600460008273ffffffffffffffffffffffffffffffffffffffff1673ffffffffffffffffffffffffffffffffffffffff16815260200190815260200160002054600560008373ffffffffffffffffffffffffffffffffffffffff1673ffffffffffffffffffffffffffffffffffffffff1681526020019081526020016000208190555050565b600f6020528060005260406000206000915090508060000154908060010154905082565b6000601060008581526020019081526020016000209050600d60009054906101000a900473ffffffffffffffffffffffffffffffffffffffff1673ffffffffffffffffffffffffffffffffffffffff16631a179451338360050160009054906101000a900473ffffffffffffffffffffffffffffffffffffffff166040518363ffffffff1660e01b815260040161200f9291906143c7565b602060405180830381865afa15801561202c573d6000803e3d6000fd5b505050506040513d601f19601f820116820180604052508101906120509190614405565b612086576040517fc19f17a900000000000000000000000000000000000000000000000000000000815260040160405180910390fd5b8060060160149054906101000a900460ff166120ce576040517f1fbb40b200000000000000000000000000000000000000000000000000000000815260040160405180910390fd5b6000600c60009054906101000a900473ffffffffffffffffffffffffffffffffffffffff1673ffffffffffffffffffffffffffffffffffffffff1663135a0ce9866040518263ffffffff1660e01b815260040161212b9190613d62565b600060405180830381865afa158015612148573d6000803e3d6000fd5b505050506040513d6000823e3d601f19601f8201168201806040525081019061217191906149eb565b51146121a9576040517f1c1d2b4c00000000000000000000000000000000000000000000000000000000815260040160405180910390fd5b600c60009054906101000a900473ffffffffffffffffffffffffffffffffffffffff1673ffffffffffffffffffffffffffffffffffffffff166384936ac08585856040518463ffffffff1660e01b815260040161220893929190614a70565b600060405180830381600087803b15801561222257600080fd5b505af1158015612236573d6000803e3d6000fd5b5050505050505050565b6000600a6000838152602001908152602001600020805490509050919050565b600360009054906101000a900473ffffffffffffffffffffffffffffffffffffffff1681565b600d60009054906101000a900473ffffffffffffffffffffffffffffffffffffffff1681565b60096020528060005260406000206000915054906101000a900473ffffffffffffffffffffffffffffffffffffffff1681565b600c60009054906101000a900473ffffffffffffffffffffffffffffffffffffffff1681565b6000601060008481526020019081526020016000209050600d60009054906101000a900473ffffffffffffffffffffffffffffffffffffffff1673ffffffffffffffffffffffffffffffffffffffff16631a179451338360050160009054906101000a900473ffffffffffffffffffffffffffffffffffffffff166040518363ffffffff1660e01b815260040161239d9291906143c7565b602060405180830381865afa1580156123ba573d6000803e3d6000fd5b505050506040513d601f19601f820116820180604052508101906123de9190614405565b612414576040517fc19f17a900000000000000000000000000000000000000000000000000000000815260040160405180910390fd5b600c60009054906101000a900473ffffffffffffffffffffffffffffffffffffffff1673ffffffffffffffffffffffffffffffffffffffff1663933a6f0d84846040518363ffffffff1660e01b815260040161247192919061407c565b600060405180830381600087803b15801561248b57600080fd5b505af115801561249f573d6000803e3d6000fd5b50505050505050565b60008060106000600f6000878760008181106124c7576124c6614672565b5b90506020020135815260200190815260200160002060000154815260200190815260200160002060060160009054906101000a900473ffffffffffffffffffffffffffffffffffffffff16905060005b848490508110156128d5576000600f600087878581811061253b5761253a614672565b5b9050602002013581526020019081526020016000206040518060400160405290816000820154815260200160018201548152505090506000601060008360000151815260200190815260200160002090508060060160009054906101000a900473ffffffffffffffffffffffffffffffffffffffff1673ffffffffffffffffffffffffffffffffffffffff168473ffffffffffffffffffffffffffffffffffffffff161461261e576040517f08c379a000000000000000000000000000000000000000000000000000000000815260040161261590614aee565b60405180910390fd5b8060060160149054906101000a900460ff161561275c573373ffffffffffffffffffffffffffffffffffffffff16600c60009054906101000a900473ffffffffffffffffffffffffffffffffffffffff1673ffffffffffffffffffffffffffffffffffffffff16636352211e89898781811061269d5761269c614672565b5b905060200201356040518263ffffffff1660e01b81526004016126c09190613d62565b602060405180830381865afa1580156126dd573d6000803e3d6000fd5b505050506040513d601f19601f820116820180604052508101906127019190614766565b73ffffffffffffffffffffffffffffffffffffffff1614612757576040517f08c379a000000000000000000000000000000000000000000000000000000000815260040161274e90614b5a565b60405180910390fd5b612817565b3373ffffffffffffffffffffffffffffffffffffffff166009600089898781811061278a57612789614672565b5b90506020020135815260200190815260200160002060009054906101000a900473ffffffffffffffffffffffffffffffffffffffff1673ffffffffffffffffffffffffffffffffffffffff1614612816576040517f08c379a000000000000000000000000000000000000000000000000000000000815260040161280d90614b5a565b60405180910390fd5b5b6000826020015111156128c6578160200151856128349190614580565b94506000600f600089898781811061284f5761284e614672565b5b90506020020135815260200190815260200160002060010181905550816000015187878581811061288357612882614672565b5b905060200201357fb5fc8625ed5a401da04cf815ab8ba4ea3e4ee3fade469830de8392b54106aaf684602001516040516128bd9190613d62565b60405180910390a35b50508080600101915050612517565b506000821461295e578073ffffffffffffffffffffffffffffffffffffffff1663a9059cbb33846040518363ffffffff1660e01b8152600401612919929190614793565b6020604051808303816000875af1158015612938573d6000803e3d6000fd5b505050506040513d601f19601f8201168201806040525081019061295c9190614405565b505b50505050565b600260009054906101000a900473ffffffffffffffffffffffffffffffffffffffff1681565b8181905084849050146129d2576040517f08c379a00000000000000000000000000000000000000000000000000000000081526004016129c990614bc6565b60405180910390fd5b6005848490501115612a19576040517f08c379a0000000000000000000000000000000000000000000000000000000008152600401612a1090614c32565b60405180910390fd5b60008484905011612a5f576040517f08c379a0000000000000000000000000000000000000000000000000000000008152600401612a5690614c9e565b60405180910390fd5b60005b84849050811015612af557612aa9858583818110612a8357612a82614672565b5b90506020020135848484818110612a9d57612a9c614672565b5b905060200201356118fb565b612ae8576040517f08c379a0000000000000000000000000000000000000000000000000000000008152600401612adf90614d0a565b60405180910390fd5b8080600101915050612a62565b5060005b84849050811015612b8057600160126000878785818110612b1d57612b1c614672565b5b9050602002013581526020019081526020016000206000858585818110612b4757612b46614672565b5b90506020020135815260200190815260200160002060006101000a81548160ff0219169083151502179055508080600101915050612af9565b50600084849050905060007f000000000000000000000000000000000000000000000000000000000000000073ffffffffffffffffffffffffffffffffffffffff16635d3b1d307f00000000000000000000000000000000000000000000000000000000000000007f000000000000000000000000000000000000000000000000000000000000000060037f0000000000000000000000000000000000000000000000000000000000000000876040518663ffffffff1660e01b8152600401612c4d959493929190614da2565b6020604051808303816000875af1158015612c6c573d6000803e3d6000fd5b505050506040513d601f19601f82011682018060405250810190612c909190614816565b905060006011600083815260200190815260200160002090508686826000019190612cbc9291906139b9565b508484826001019190612cd09291906139b9565b503373ffffffffffffffffffffffffffffffffffffffff16827f2583379594240285f33befc38b7fe9800ffffc1527a3640e877957f01f6c767c89898989604051612d1e9493929190614e5f565b60405180910390a350505050505050565b600b6020528060005260406000206000915090505481565b60086020528160005260406000208181548110612d6357600080fd5b90600052602060002001600091509150505481565b60106020528060005260406000206000915090508060000154908060010154908060020154908060030154908060040154908060050160009054906101000a900473ffffffffffffffffffffffffffffffffffffffff16908060050160149054906101000a900460ff16908060060160009054906101000a900473ffffffffffffffffffffffffffffffffffffffff16908060060160149054906101000a900460ff16905089565b600160009054906101000a900473ffffffffffffffffffffffffffffffffffffffff1681565b60056020528060005260406000206000915090505481565b60005481565b600e5481565b60606000600a6000848152602001908152602001600020805480602002602001604051908101604052809291908181526020018280548015612ecb57602002820191906000526020600020905b815481526020019060010190808311612eb7575b5050505050905080915050919050565b6000601060008381526020019081526020016000206040518061012001604052908160008201548152602001600182015481526020016002820154815260200160038201548152602001600482015481526020016005820160009054906101000a900473ffffffffffffffffffffffffffffffffffffffff1673ffffffffffffffffffffffffffffffffffffffff1673ffffffffffffffffffffffffffffffffffffffff1681526020016005820160149054906101000a900460ff161515151581526020016006820160009054906101000a900473ffffffffffffffffffffffffffffffffffffffff1673ffffffffffffffffffffffffffffffffffffffff1673ffffffffffffffffffffffffffffffffffffffff1681526020016006820160149054906101000a900460ff1615151515815250509050600d60009054906101000a900473ffffffffffffffffffffffffffffffffffffffff1673ffffffffffffffffffffffffffffffffffffffff16631a179451338360a001516040518363ffffffff1660e01b81526004016130739291906143c7565b602060405180830381865afa158015613090573d6000803e3d6000fd5b505050506040513d601f19601f820116820180604052508101906130b49190614405565b6130ea576040517fc19f17a900000000000000000000000000000000000000000000000000000000815260040160405180910390fd5b6000600a6000848152602001908152602001600020805490509050816020015142118061311a5750808260000151145b613159576040517f08c379a000000000000000000000000000000000000000000000000000000000815260040161315090614ee6565b60405180910390fd5b8160c001511561319e576040517f08c379a000000000000000000000000000000000000000000000000000000000815260040161319590614f52565b60405180910390fd5b600082608001518360600151836131b591906144de565b6131bf919061453e565b90508260e0015173ffffffffffffffffffffffffffffffffffffffff1663a9059cbb600160009054906101000a900473ffffffffffffffffffffffffffffffffffffffff16836040518363ffffffff1660e01b8152600401613222929190614793565b6020604051808303816000875af1158015613241573d6000803e3d6000fd5b505050506040513d601f19601f820116820180604052508101906132659190614405565b50600060106000868152602001908152602001600020905060018160050160146101000a81548160ff021916908315150217905550847fc8238ac10f9eb45287c62f15a3fc07d82e14337161270a251934c7e77b78ae59836040516132ca9190613d62565b60405180910390a25050505050565b600a60205281600052604060002081815481106132f557600080fd5b90600052602060002001600091509150505481565b600160009054906101000a900473ffffffffffffffffffffffffffffffffffffffff1673ffffffffffffffffffffffffffffffffffffffff163373ffffffffffffffffffffffffffffffffffffffff161461339a576040517f08c379a00000000000000000000000000000000000000000000000000000000081526004016133919061488f565b60405180910390fd5b80600360006101000a81548173ffffffffffffffffffffffffffffffffffffffff021916908373ffffffffffffffffffffffffffffffffffffffff16021790555080600d60006101000a81548173ffffffffffffffffffffffffffffffffffffffff021916908373ffffffffffffffffffffffffffffffffffffffff16021790555050565b60005b8251811015613473576000600f600085848151811061344457613443614672565b5b602002602001015181526020019081526020016000209050828160010181905550508080600101915050613422565b505050565b61350e8160405160240161348c9190614fb6565b6040516020818303038152906040527f41304fac000000000000000000000000000000000000000000000000000000007bffffffffffffffffffffffffffffffffffffffffffffffffffffffff19166020820180517bffffffffffffffffffffffffffffffffffffffffffffffffffffffff8381831617835250505050613973565b50565b6135a7816040516024016135259190613d62565b6040516020818303038152906040527ff82c50f1000000000000000000000000000000000000000000000000000000007bffffffffffffffffffffffffffffffffffffffffffffffffffffffff19166020820180517bffffffffffffffffffffffffffffffffffffffffffffffffffffffff8381831617835250505050613973565b50565b60006011600084815260200190815260200160002090506135ff6040518060400160405280600a81526020017f66756c66696c6c696e6700000000000000000000000000000000000000000000815250613478565b8060000180549050825114613649576040517f08c379a000000000000000000000000000000000000000000000000000000000815260040161364090615024565b60405180910390fd5b6136598160000180549050613511565b60005b816000018054905081101561384d57600082600001828154811061368357613682614672565b5b9060005260206000200154905060008360010183815481106136a8576136a7614672565b5b9060005260206000200154905060008584815181106136ca576136c9614672565b5b602002602001015190506137126040518060400160405280600181526020017f6100000000000000000000000000000000000000000000000000000000000000815250613478565b6000601060008581526020019081526020016000206003015490506000818361373b91906144de565b8285613747919061453e565b6137519190614580565b90506000600a6000878152602001908152602001600020828154811061377a57613779614672565b5b9060005260206000200154905060008360106000898152602001908152602001600020600401546137ab919061453e565b90506000600f600084815260200190815260200160002090508181600101819055506137d683613511565b6137df82613511565b6137ec8160010154613511565b877f1ce4fea8c1574374c0e9c12b4c6a3c3f0eb1aa3993a405d065e09f2ee0585084888560018861381d9190614580565b868b604051613830959493929190615044565b60405180910390a25050505050505050808060010191505061365c565b5061388c6040518060400160405280600181526020017f6200000000000000000000000000000000000000000000000000000000000000815250613478565b60116000848152602001908152602001600020600080820160006138b09190613a06565b6001820160006138c09190613a06565b6002820160006138d09190613a06565b5050505050565b61396f82826040516024016138ed92919061407c565b6040516020818303038152906040527ff666715a000000000000000000000000000000000000000000000000000000007bffffffffffffffffffffffffffffffffffffffffffffffffffffffff19166020820180517bffffffffffffffffffffffffffffffffffffffffffffffffffffffff8381831617835250505050613973565b5050565b61398a8161398261398d6139ae565b63ffffffff16565b50565b60006a636f6e736f6c652e6c6f679050600080835160208501845afa505050565b613a27819050919050565b8280548282559060005260206000209081019282156139f5579160200282015b828111156139f45782358255916020019190600101906139d9565b5b509050613a029190613a31565b5090565b5080546000825590600052602060002090810190613a249190613a31565b50565b613a2f615097565b565b5b80821115613a4a576000816000905550600101613a32565b5090565b6000604051905090565b600080fd5b600080fd5b6000819050919050565b613a7581613a62565b8114613a8057600080fd5b50565b600081359050613a9281613a6c565b92915050565b600073ffffffffffffffffffffffffffffffffffffffff82169050919050565b6000613ac382613a98565b9050919050565b613ad381613ab8565b8114613ade57600080fd5b50565b600081359050613af081613aca565b92915050565b60008115159050919050565b613b0b81613af6565b8114613b1657600080fd5b50565b600081359050613b2881613b02565b92915050565b600080600080600080600080610100898b031215613b4f57613b4e613a58565b5b6000613b5d8b828c01613a83565b9850506020613b6e8b828c01613a83565b9750506040613b7f8b828c01613a83565b9650506060613b908b828c01613a83565b9550506080613ba18b828c01613a83565b94505060a0613bb28b828c01613ae1565b93505060c0613bc38b828c01613ae1565b92505060e0613bd48b828c01613b19565b9150509295985092959890939650565b60008060408385031215613bfb57613bfa613a58565b5b6000613c0985828601613ae1565b9250506020613c1a85828601613a83565b9150509250929050565b613c2d81613ab8565b82525050565b6000602082019050613c486000830184613c24565b92915050565b600060208284031215613c6457613c63613a58565b5b6000613c7284828501613a83565b91505092915050565b60008060408385031215613c9257613c91613a58565b5b6000613ca085828601613a83565b9250506020613cb185828601613a83565b9150509250929050565b6000613cc682613a98565b9050919050565b613cd681613cbb565b8114613ce157600080fd5b50565b600081359050613cf381613ccd565b92915050565b600060208284031215613d0f57613d0e613a58565b5b6000613d1d84828501613ce4565b91505092915050565b600060208284031215613d3c57613d3b613a58565b5b6000613d4a84828501613ae1565b91505092915050565b613d5c81613a62565b82525050565b6000602082019050613d776000830184613d53565b92915050565b600080fd5b6000601f19601f8301169050919050565b7f4e487b7100000000000000000000000000000000000000000000000000000000600052604160045260246000fd5b613dcb82613d82565b810181811067ffffffffffffffff82111715613dea57613de9613d93565b5b80604052505050565b6000613dfd613a4e565b9050613e098282613dc2565b919050565b600067ffffffffffffffff821115613e2957613e28613d93565b5b602082029050602081019050919050565b600080fd5b6000613e52613e4d84613e0e565b613df3565b90508083825260208201905060208402830185811115613e7557613e74613e3a565b5b835b81811015613e9e5780613e8a8882613a83565b845260208401935050602081019050613e77565b5050509392505050565b600082601f830112613ebd57613ebc613d7d565b5b8135613ecd848260208601613e3f565b91505092915050565b60008060408385031215613eed57613eec613a58565b5b6000613efb85828601613a83565b925050602083013567ffffffffffffffff811115613f1c57613f1b613a5d565b5b613f2885828601613ea8565b9150509250929050565b613f3b81613af6565b82525050565b6000602082019050613f566000830184613f32565b92915050565b60008060408385031215613f7357613f72613a58565b5b6000613f8185828601613ae1565b9250506020613f9285828601613ae1565b9150509250929050565b600081519050919050565b600082825260208201905092915050565b6000819050602082019050919050565b613fd181613a62565b82525050565b6000613fe38383613fc8565b60208301905092915050565b6000602082019050919050565b600061400782613f9c565b6140118185613fa7565b935061401c83613fb8565b8060005b8381101561404d5781516140348882613fd7565b975061403f83613fef565b925050600181019050614020565b5085935050505092915050565b600060208201905081810360008301526140748184613ffc565b905092915050565b60006040820190506140916000830185613d53565b61409e6020830184613d53565b9392505050565b600080fd5b60008083601f8401126140c0576140bf613d7d565b5b8235905067ffffffffffffffff8111156140dd576140dc6140a5565b5b6020830191508360018202830111156140f9576140f8613e3a565b5b9250929050565b60008060006040848603121561411957614118613a58565b5b600061412786828701613a83565b935050602084013567ffffffffffffffff81111561414857614147613a5d565b5b614154868287016140aa565b92509250509250925092565b6000819050919050565b600061418561418061417b84613a98565b614160565b613a98565b9050919050565b60006141978261416a565b9050919050565b60006141a98261418c565b9050919050565b6141b98161419e565b82525050565b60006020820190506141d460008301846141b0565b92915050565b60006141e58261418c565b9050919050565b6141f5816141da565b82525050565b600060208201905061421060008301846141ec565b92915050565b60008083601f84011261422c5761422b613d7d565b5b8235905067ffffffffffffffff811115614249576142486140a5565b5b60208301915083602082028301111561426557614264613e3a565b5b9250929050565b6000806020838503121561428357614282613a58565b5b600083013567ffffffffffffffff8111156142a1576142a0613a5d565b5b6142ad85828601614216565b92509250509250929050565b600080600080604085870312156142d3576142d2613a58565b5b600085013567ffffffffffffffff8111156142f1576142f0613a5d565b5b6142fd87828801614216565b9450945050602085013567ffffffffffffffff8111156143205761431f613a5d565b5b61432c87828801614216565b925092505092959194509250565b600061012082019050614350600083018c613d53565b61435d602083018b613d53565b61436a604083018a613d53565b6143776060830189613d53565b6143846080830188613d53565b61439160a0830187613c24565b61439e60c0830186613f32565b6143ab60e0830185613c24565b6143b9610100830184613f32565b9a9950505050505050505050565b60006040820190506143dc6000830185613c24565b6143e96020830184613c24565b9392505050565b6000815190506143ff81613b02565b92915050565b60006020828403121561441b5761441a613a58565b5b6000614429848285016143f0565b91505092915050565b600082825260208201905092915050565b7f4e6f7420417070726f7665640000000000000000000000000000000000000000600082015250565b6000614479600c83614432565b915061448482614443565b602082019050919050565b600060208201905081810360008301526144a88161446c565b9050919050565b7f4e487b7100000000000000000000000000000000000000000000000000000000600052601260045260246000fd5b60006144e982613a62565b91506144f483613a62565b925082614504576145036144af565b5b828206905092915050565b7f4e487b7100000000000000000000000000000000000000000000000000000000600052601160045260246000fd5b600061454982613a62565b915061455483613a62565b925082820261456281613a62565b915082820484148315176145795761457861450f565b5b5092915050565b600061458b82613a62565b915061459683613a62565b92508282019050808211156145ae576145ad61450f565b5b92915050565b600060c0820190506145c96000830189613d53565b6145d66020830188613d53565b6145e36040830187613d53565b6145f06060830186613d53565b6145fd6080830185613d53565b61460a60a0830184613f32565b979650505050505050565b600060408201905061462a6000830185613d53565b6146376020830184613c24565b9392505050565b600061464982613a62565b915061465483613a62565b925082820390508181111561466c5761466b61450f565b5b92915050565b7f4e487b7100000000000000000000000000000000000000000000000000000000600052603260045260246000fd5b60006146ac82613a62565b91507fffffffffffffffffffffffffffffffffffffffffffffffffffffffffffffffff82036146de576146dd61450f565b5b600182019050919050565b60006146f482613a62565b91506146ff83613a62565b92508261470f5761470e6144af565b5b828204905092915050565b600060608201905061472f6000830186613c24565b61473c6020830185613c24565b6147496040830184613d53565b949350505050565b60008151905061476081613aca565b92915050565b60006020828403121561477c5761477b613a58565b5b600061478a84828501614751565b91505092915050565b60006040820190506147a86000830185613c24565b6147b56020830184613d53565b9392505050565b60006080820190506147d16000830187613c24565b6147de6020830186613d53565b6147eb6040830185613d53565b6147f86060830184613d53565b95945050505050565b60008151905061481081613a6c565b92915050565b60006020828403121561482c5761482b613a58565b5b600061483a84828501614801565b91505092915050565b7f4e6f744f776e6572000000000000000000000000000000000000000000000000600082015250565b6000614879600883614432565b915061488482614843565b602082019050919050565b600060208201905081810360008301526148a88161486c565b9050919050565b7f496e760000000000000000000000000000000000000000000000000000000000600082015250565b60006148e5600383614432565b91506148f0826148af565b602082019050919050565b60006020820190508181036000830152614914816148d8565b9050919050565b600080fd5b600067ffffffffffffffff82111561493b5761493a613d93565b5b61494482613d82565b9050602081019050919050565b60005b8381101561496f578082015181840152602081019050614954565b60008484015250505050565b600061498e61498984614920565b613df3565b9050828152602081018484840111156149aa576149a961491b565b5b6149b5848285614951565b509392505050565b600082601f8301126149d2576149d1613d7d565b5b81516149e284826020860161497b565b91505092915050565b600060208284031215614a0157614a00613a58565b5b600082015167ffffffffffffffff811115614a1f57614a1e613a5d565b5b614a2b848285016149bd565b91505092915050565b82818337600083830152505050565b6000614a4f8385614432565b9350614a5c838584614a34565b614a6583613d82565b840190509392505050565b6000604082019050614a856000830186613d53565b8181036020830152614a98818486614a43565b9050949350505050565b7f496e76616c696400000000000000000000000000000000000000000000000000600082015250565b6000614ad8600783614432565b9150614ae382614aa2565b602082019050919050565b60006020820190508181036000830152614b0781614acb565b9050919050565b7f4e6f74206f776e65640000000000000000000000000000000000000000000000600082015250565b6000614b44600983614432565b9150614b4f82614b0e565b602082019050919050565b60006020820190508181036000830152614b7381614b37565b9050919050565b7f4172726179206c656e677468206d69736d617463680000000000000000000000600082015250565b6000614bb0601583614432565b9150614bbb82614b7a565b602082019050919050565b60006020820190508181036000830152614bdf81614ba3565b9050919050565b7f457863656564206c656e67746800000000000000000000000000000000000000600082015250565b6000614c1c600d83614432565b9150614c2782614be6565b602082019050919050565b60006020820190508181036000830152614c4b81614c0f565b9050919050565b7f5a65726f206c656e677468000000000000000000000000000000000000000000600082015250565b6000614c88600b83614432565b9150614c9382614c52565b602082019050919050565b60006020820190508181036000830152614cb781614c7b565b9050919050565b7f496e656c696769626c6520656e74727900000000000000000000000000000000600082015250565b6000614cf4601083614432565b9150614cff82614cbe565b602082019050919050565b60006020820190508181036000830152614d2381614ce7565b9050919050565b6000819050919050565b614d3d81614d2a565b82525050565b600067ffffffffffffffff82169050919050565b614d6081614d43565b82525050565b600061ffff82169050919050565b614d7d81614d66565b82525050565b600063ffffffff82169050919050565b614d9c81614d83565b82525050565b600060a082019050614db76000830188614d34565b614dc46020830187614d57565b614dd16040830186614d74565b614dde6060830185614d93565b614deb6080830184614d93565b9695505050505050565b600080fd5b82818337505050565b6000614e0f8385613fa7565b93507f07ffffffffffffffffffffffffffffffffffffffffffffffffffffffffffffff831115614e4257614e41614df5565b5b602083029250614e53838584614dfa565b82840190509392505050565b60006040820190508181036000830152614e7a818688614e03565b90508181036020830152614e8f818486614e03565b905095945050505050565b7f496e656c696769626c6500000000000000000000000000000000000000000000600082015250565b6000614ed0600a83614432565b9150614edb82614e9a565b602082019050919050565b60006020820190508181036000830152614eff81614ec3565b9050919050565b7f416c72656164792052657475726e656400000000000000000000000000000000600082015250565b6000614f3c601083614432565b9150614f4782614f06565b602082019050919050565b60006020820190508181036000830152614f6b81614f2f565b9050919050565b600081519050919050565b6000614f8882614f72565b614f928185614432565b9350614fa2818560208601614951565b614fab81613d82565b840191505092915050565b60006020820190508181036000830152614fd08184614f7d565b905092915050565b7f52616e646f6d20776f726473206c656e677468206d69736d6174636800000000600082015250565b600061500e601c83614432565b915061501982614fd8565b602082019050919050565b6000602082019050818103600083015261503d81615001565b9050919050565b600060a0820190506150596000830188613d53565b6150666020830187613d53565b6150736040830186613d53565b6150806060830185613d53565b61508d6080830184613d53565b9695505050505050565b7f4e487b7100000000000000000000000000000000000000000000000000000000600052605160045260246000fdfea264697066735822122097109fee37c57972c2e7260858293491c0f3815e49eefa894f7e780b3f0c46f564736f6c63430008180033",
  "devdoc": {
    "kind": "dev",
    "methods": {},
    "version": 1
  },
  "userdoc": {
    "kind": "user",
    "methods": {},
    "version": 1
  },
  "storageLayout": {
    "storage": [
      {
        "astId": 1769,
        "contract": "contracts/DrawingManagerv4.sol:DrawingManager",
        "label": "commission",
        "offset": 0,
        "slot": "0",
        "type": "t_uint256"
      },
      {
        "astId": 1771,
        "contract": "contracts/DrawingManagerv4.sol:DrawingManager",
        "label": "contractOwner",
        "offset": 0,
        "slot": "1",
        "type": "t_address"
      },
      {
        "astId": 1773,
        "contract": "contracts/DrawingManagerv4.sol:DrawingManager",
        "label": "receiptManagerAddress",
        "offset": 0,
        "slot": "2",
        "type": "t_address"
      },
      {
        "astId": 1775,
        "contract": "contracts/DrawingManagerv4.sol:DrawingManager",
        "label": "promotionsManagerAddress",
        "offset": 0,
        "slot": "3",
        "type": "t_address"
      },
      {
        "astId": 1779,
        "contract": "contracts/DrawingManagerv4.sol:DrawingManager",
        "label": "earnedCommissions",
        "offset": 0,
        "slot": "4",
        "type": "t_mapping(t_address,t_uint256)"
      },
      {
        "astId": 1783,
        "contract": "contracts/DrawingManagerv4.sol:DrawingManager",
        "label": "withdrawnCommissions",
        "offset": 0,
        "slot": "5",
        "type": "t_mapping(t_address,t_uint256)"
      },
      {
        "astId": 1789,
        "contract": "contracts/DrawingManagerv4.sol:DrawingManager",
        "label": "approvedOperators",
        "offset": 0,
        "slot": "6",
        "type": "t_mapping(t_address,t_mapping(t_address,t_bool))"
      },
      {
        "astId": 1794,
        "contract": "contracts/DrawingManagerv4.sol:DrawingManager",
        "label": "arrayOfApprovedOperators",
        "offset": 0,
        "slot": "7",
        "type": "t_mapping(t_address,t_array(t_address)dyn_storage)"
      },
      {
        "astId": 1799,
        "contract": "contracts/DrawingManagerv4.sol:DrawingManager",
        "label": "addressToPromotions",
        "offset": 0,
        "slot": "8",
        "type": "t_mapping(t_address,t_array(t_uint256)dyn_storage)"
      },
      {
        "astId": 1803,
        "contract": "contracts/DrawingManagerv4.sol:DrawingManager",
        "label": "unmintedReceiptsToOwners",
        "offset": 0,
        "slot": "9",
        "type": "t_mapping(t_uint256,t_address)"
      },
      {
        "astId": 1808,
        "contract": "contracts/DrawingManagerv4.sol:DrawingManager",
        "label": "promotionIDToReceiptIDs",
        "offset": 0,
        "slot": "10",
        "type": "t_mapping(t_uint256,t_array(t_uint256)dyn_storage)"
      },
      {
        "astId": 1812,
        "contract": "contracts/DrawingManagerv4.sol:DrawingManager",
        "label": "receiptIDToPromotionID",
        "offset": 0,
        "slot": "11",
        "type": "t_mapping(t_uint256,t_uint256)"
      },
      {
        "astId": 1815,
        "contract": "contracts/DrawingManagerv4.sol:DrawingManager",
        "label": "receiptManager",
        "offset": 0,
        "slot": "12",
        "type": "t_contract(IReceiptManager)10212"
      },
      {
        "astId": 1818,
        "contract": "contracts/DrawingManagerv4.sol:DrawingManager",
        "label": "promotionsManager",
        "offset": 0,
        "slot": "13",
        "type": "t_contract(IPromotionsManager)10154"
      },
      {
        "astId": 363,
        "contract": "contracts/DrawingManagerv4.sol:DrawingManager",
        "label": "drawingIDs",
        "offset": 0,
        "slot": "14",
        "type": "t_uint256"
      },
      {
        "astId": 371,
        "contract": "contracts/DrawingManagerv4.sol:DrawingManager",
        "label": "DrawingReceipts",
        "offset": 0,
        "slot": "15",
        "type": "t_mapping(t_uint256,t_struct(DrawingReceipt)350_storage)"
      },
      {
        "astId": 376,
        "contract": "contracts/DrawingManagerv4.sol:DrawingManager",
        "label": "Drawings",
        "offset": 0,
        "slot": "16",
        "type": "t_mapping(t_uint256,t_struct(Drawing)345_storage)"
      },
      {
        "astId": 381,
        "contract": "contracts/DrawingManagerv4.sol:DrawingManager",
        "label": "vrfRequestIDtoContext",
        "offset": 0,
        "slot": "17",
        "type": "t_mapping(t_uint256,t_struct(VRFRequestContext)360_storage)"
      },
      {
        "astId": 387,
        "contract": "contracts/DrawingManagerv4.sol:DrawingManager",
        "label": "raffleInitiatedBool",
        "offset": 0,
        "slot": "18",
        "type": "t_mapping(t_uint256,t_mapping(t_uint256,t_bool))"
      },
      {
        "astId": 399,
        "contract": "contracts/DrawingManagerv4.sol:DrawingManager",
        "label": "s_lastTimeStamp",
        "offset": 0,
        "slot": "19",
        "type": "t_uint256"
      }
    ],
    "types": {
      "t_address": {
        "encoding": "inplace",
        "label": "address",
        "numberOfBytes": "20"
      },
      "t_array(t_address)dyn_storage": {
        "base": "t_address",
        "encoding": "dynamic_array",
        "label": "address[]",
        "numberOfBytes": "32"
      },
      "t_array(t_uint256)dyn_storage": {
        "base": "t_uint256",
        "encoding": "dynamic_array",
        "label": "uint256[]",
        "numberOfBytes": "32"
      },
      "t_bool": {
        "encoding": "inplace",
        "label": "bool",
        "numberOfBytes": "1"
      },
      "t_contract(IPromotionsManager)10154": {
        "encoding": "inplace",
        "label": "contract IPromotionsManager",
        "numberOfBytes": "20"
      },
      "t_contract(IReceiptManager)10212": {
        "encoding": "inplace",
        "label": "contract IReceiptManager",
        "numberOfBytes": "20"
      },
      "t_mapping(t_address,t_array(t_address)dyn_storage)": {
        "encoding": "mapping",
        "key": "t_address",
        "label": "mapping(address => address[])",
        "numberOfBytes": "32",
        "value": "t_array(t_address)dyn_storage"
      },
      "t_mapping(t_address,t_array(t_uint256)dyn_storage)": {
        "encoding": "mapping",
        "key": "t_address",
        "label": "mapping(address => uint256[])",
        "numberOfBytes": "32",
        "value": "t_array(t_uint256)dyn_storage"
      },
      "t_mapping(t_address,t_bool)": {
        "encoding": "mapping",
        "key": "t_address",
        "label": "mapping(address => bool)",
        "numberOfBytes": "32",
        "value": "t_bool"
      },
      "t_mapping(t_address,t_mapping(t_address,t_bool))": {
        "encoding": "mapping",
        "key": "t_address",
        "label": "mapping(address => mapping(address => bool))",
        "numberOfBytes": "32",
        "value": "t_mapping(t_address,t_bool)"
      },
      "t_mapping(t_address,t_uint256)": {
        "encoding": "mapping",
        "key": "t_address",
        "label": "mapping(address => uint256)",
        "numberOfBytes": "32",
        "value": "t_uint256"
      },
      "t_mapping(t_uint256,t_address)": {
        "encoding": "mapping",
        "key": "t_uint256",
        "label": "mapping(uint256 => address)",
        "numberOfBytes": "32",
        "value": "t_address"
      },
      "t_mapping(t_uint256,t_array(t_uint256)dyn_storage)": {
        "encoding": "mapping",
        "key": "t_uint256",
        "label": "mapping(uint256 => uint256[])",
        "numberOfBytes": "32",
        "value": "t_array(t_uint256)dyn_storage"
      },
      "t_mapping(t_uint256,t_bool)": {
        "encoding": "mapping",
        "key": "t_uint256",
        "label": "mapping(uint256 => bool)",
        "numberOfBytes": "32",
        "value": "t_bool"
      },
      "t_mapping(t_uint256,t_mapping(t_uint256,t_bool))": {
        "encoding": "mapping",
        "key": "t_uint256",
        "label": "mapping(uint256 => mapping(uint256 => bool))",
        "numberOfBytes": "32",
        "value": "t_mapping(t_uint256,t_bool)"
      },
      "t_mapping(t_uint256,t_struct(Drawing)345_storage)": {
        "encoding": "mapping",
        "key": "t_uint256",
        "label": "mapping(uint256 => struct DrawingManager.Drawing)",
        "numberOfBytes": "32",
        "value": "t_struct(Drawing)345_storage"
      },
      "t_mapping(t_uint256,t_struct(DrawingReceipt)350_storage)": {
        "encoding": "mapping",
        "key": "t_uint256",
        "label": "mapping(uint256 => struct DrawingManager.DrawingReceipt)",
        "numberOfBytes": "32",
        "value": "t_struct(DrawingReceipt)350_storage"
      },
      "t_mapping(t_uint256,t_struct(VRFRequestContext)360_storage)": {
        "encoding": "mapping",
        "key": "t_uint256",
        "label": "mapping(uint256 => struct DrawingManager.VRFRequestContext)",
        "numberOfBytes": "32",
        "value": "t_struct(VRFRequestContext)360_storage"
      },
      "t_mapping(t_uint256,t_uint256)": {
        "encoding": "mapping",
        "key": "t_uint256",
        "label": "mapping(uint256 => uint256)",
        "numberOfBytes": "32",
        "value": "t_uint256"
      },
      "t_struct(Drawing)345_storage": {
        "encoding": "inplace",
        "label": "struct DrawingManager.Drawing",
        "members": [
          {
            "astId": 328,
            "contract": "contracts/DrawingManagerv4.sol:DrawingManager",
            "label": "maxSlots",
            "offset": 0,
            "slot": "0",
            "type": "t_uint256"
          },
          {
            "astId": 330,
            "contract": "contracts/DrawingManagerv4.sol:DrawingManager",
            "label": "endTime",
            "offset": 0,
            "slot": "1",
            "type": "t_uint256"
          },
          {
            "astId": 332,
            "contract": "contracts/DrawingManagerv4.sol:DrawingManager",
            "label": "price",
            "offset": 0,
            "slot": "2",
            "type": "t_uint256"
          },
          {
            "astId": 334,
            "contract": "contracts/DrawingManagerv4.sol:DrawingManager",
            "label": "cohortSize",
            "offset": 0,
            "slot": "3",
            "type": "t_uint256"
          },
          {
            "astId": 336,
            "contract": "contracts/DrawingManagerv4.sol:DrawingManager",
            "label": "rebateAmount",
            "offset": 0,
            "slot": "4",
            "type": "t_uint256"
          },
          {
            "astId": 338,
            "contract": "contracts/DrawingManagerv4.sol:DrawingManager",
            "label": "owner",
            "offset": 0,
            "slot": "5",
            "type": "t_address"
          },
          {
            "astId": 340,
            "contract": "contracts/DrawingManagerv4.sol:DrawingManager",
            "label": "returnedCustody",
            "offset": 20,
            "slot": "5",
            "type": "t_bool"
          },
          {
            "astId": 342,
            "contract": "contracts/DrawingManagerv4.sol:DrawingManager",
            "label": "erc20Token",
            "offset": 0,
            "slot": "6",
            "type": "t_address"
          },
          {
            "astId": 344,
            "contract": "contracts/DrawingManagerv4.sol:DrawingManager",
            "label": "mintsNFTs",
            "offset": 20,
            "slot": "6",
            "type": "t_bool"
          }
        ],
        "numberOfBytes": "224"
      },
      "t_struct(DrawingReceipt)350_storage": {
        "encoding": "inplace",
        "label": "struct DrawingManager.DrawingReceipt",
        "members": [
          {
            "astId": 347,
            "contract": "contracts/DrawingManagerv4.sol:DrawingManager",
            "label": "drawingID",
            "offset": 0,
            "slot": "0",
            "type": "t_uint256"
          },
          {
            "astId": 349,
            "contract": "contracts/DrawingManagerv4.sol:DrawingManager",
            "label": "redeemableAmount",
            "offset": 0,
            "slot": "1",
            "type": "t_uint256"
          }
        ],
        "numberOfBytes": "64"
      },
      "t_struct(VRFRequestContext)360_storage": {
        "encoding": "inplace",
        "label": "struct DrawingManager.VRFRequestContext",
        "members": [
          {
            "astId": 353,
            "contract": "contracts/DrawingManagerv4.sol:DrawingManager",
            "label": "drawingIDArray",
            "offset": 0,
            "slot": "0",
            "type": "t_array(t_uint256)dyn_storage"
          },
          {
            "astId": 356,
            "contract": "contracts/DrawingManagerv4.sol:DrawingManager",
            "label": "cohorts",
            "offset": 0,
            "slot": "1",
            "type": "t_array(t_uint256)dyn_storage"
          },
          {
            "astId": 359,
            "contract": "contracts/DrawingManagerv4.sol:DrawingManager",
            "label": "randomWords",
            "offset": 0,
            "slot": "2",
            "type": "t_array(t_uint256)dyn_storage"
          }
        ],
        "numberOfBytes": "96"
      },
      "t_uint256": {
        "encoding": "inplace",
        "label": "uint256",
        "numberOfBytes": "32"
      }
    }
  }
}