{
  "address": "0x851356ae760d987E095750cCeb3bC6014560891C",
  "abi": [
    {
      "inputs": [
        {
          "internalType": "address",
          "name": "vrfCoordinatorV2",
          "type": "address"
        },
        {
          "internalType": "address",
          "name": "_receiptManagerAddress",
          "type": "address"
        },
        {
          "internalType": "address",
          "name": "_promotionsManagerAddress",
          "type": "address"
        },
        {
          "internalType": "bytes32",
          "name": "gasLane",
          "type": "bytes32"
        },
        {
          "internalType": "uint64",
          "name": "subscriptionId",
          "type": "uint64"
        },
        {
          "internalType": "uint32",
          "name": "callbackGasLimit",
          "type": "uint32"
        }
      ],
      "stateMutability": "nonpayable",
      "type": "constructor"
    },
    {
      "inputs": [],
      "name": "InvalidConfig",
      "type": "error"
    },
    {
      "inputs": [],
      "name": "NotApproved",
      "type": "error"
    },
    {
      "inputs": [],
      "name": "NotCustomURI",
      "type": "error"
    },
    {
      "inputs": [
        {
          "internalType": "address",
          "name": "have",
          "type": "address"
        },
        {
          "internalType": "address",
          "name": "want",
          "type": "address"
        }
      ],
      "name": "OnlyCoordinatorCanFulfill",
      "type": "error"
    },
    {
      "inputs": [],
      "name": "Promotion_Expired",
      "type": "error"
    },
    {
      "inputs": [],
      "name": "URIAlreadSet",
      "type": "error"
    },
    {
      "anonymous": false,
      "inputs": [
        {
          "indexed": true,
          "internalType": "uint256",
          "name": "promotionID",
          "type": "uint256"
        },
        {
          "indexed": false,
          "internalType": "uint256",
          "name": "numberOfParticipants",
          "type": "uint256"
        }
      ],
      "name": "DrawingCancelled",
      "type": "event"
    },
    {
      "anonymous": false,
      "inputs": [
        {
          "indexed": true,
          "internalType": "address",
          "name": "owner",
          "type": "address"
        },
        {
          "indexed": true,
          "internalType": "uint256",
          "name": "promotionID",
          "type": "uint256"
        },
        {
          "indexed": true,
          "internalType": "address",
          "name": "erc20Token",
          "type": "address"
        },
        {
          "indexed": false,
          "internalType": "uint256",
          "name": "maxSlots",
          "type": "uint256"
        },
        {
          "indexed": false,
          "internalType": "uint256",
          "name": "endTime",
          "type": "uint256"
        },
        {
          "indexed": false,
          "internalType": "uint256",
          "name": "price",
          "type": "uint256"
        },
        {
          "indexed": false,
          "internalType": "uint256",
          "name": "cohortSize",
          "type": "uint256"
        },
        {
          "indexed": false,
          "internalType": "uint256",
          "name": "rebateAmount",
          "type": "uint256"
        },
        {
          "indexed": false,
          "internalType": "bool",
          "name": "mintsNFTs",
          "type": "bool"
        }
      ],
      "name": "DrawingCreated",
      "type": "event"
    },
    {
      "anonymous": false,
      "inputs": [
        {
          "indexed": true,
          "internalType": "uint256",
          "name": "promotionID",
          "type": "uint256"
        },
        {
          "indexed": false,
          "internalType": "uint256",
          "name": "redeemedAmount",
          "type": "uint256"
        }
      ],
      "name": "DrawingCustodyRedeemed",
      "type": "event"
    },
    {
      "anonymous": false,
      "inputs": [
        {
          "indexed": true,
          "internalType": "uint256",
          "name": "tokenID",
          "type": "uint256"
        },
        {
          "indexed": true,
          "internalType": "uint256",
          "name": "promotionID",
          "type": "uint256"
        },
        {
          "indexed": false,
          "internalType": "uint256",
          "name": "redeemedAmount",
          "type": "uint256"
        }
      ],
      "name": "DrawingReceiptRedeemed",
      "type": "event"
    },
    {
      "anonymous": false,
      "inputs": [
        {
          "indexed": true,
          "internalType": "address",
          "name": "joiner",
          "type": "address"
        },
        {
          "indexed": true,
          "internalType": "uint256",
          "name": "promotionID",
          "type": "uint256"
        },
        {
          "indexed": true,
          "internalType": "uint256",
          "name": "firstParticipantNumber",
          "type": "uint256"
        },
        {
          "indexed": false,
          "internalType": "uint256",
          "name": "firstTokenID",
          "type": "uint256"
        },
        {
          "indexed": false,
          "internalType": "uint256",
          "name": "numTickets",
          "type": "uint256"
        }
      ],
      "name": "DrawingReceiptsMinted",
      "type": "event"
    },
    {
      "anonymous": false,
      "inputs": [
        {
          "indexed": true,
          "internalType": "uint256",
          "name": "promotionID",
          "type": "uint256"
        },
        {
          "indexed": true,
          "internalType": "uint256",
          "name": "vrfRequestID",
          "type": "uint256"
        },
        {
          "indexed": true,
          "internalType": "address",
          "name": "initiator",
          "type": "address"
        },
        {
          "indexed": false,
          "internalType": "uint256",
          "name": "cohort",
          "type": "uint256"
        }
      ],
      "name": "RaffleInitiated",
      "type": "event"
    },
    {
      "anonymous": false,
      "inputs": [
        {
          "indexed": true,
          "internalType": "uint256",
          "name": "promotionID",
          "type": "uint256"
        },
        {
          "indexed": false,
          "internalType": "uint256",
          "name": "cohort",
          "type": "uint256"
        },
        {
          "indexed": false,
          "internalType": "uint256",
          "name": "tokenID",
          "type": "uint256"
        },
        {
          "indexed": false,
          "internalType": "uint256",
          "name": "participantNumber",
          "type": "uint256"
        },
        {
          "indexed": false,
          "internalType": "uint256",
          "name": "prize",
          "type": "uint256"
        }
      ],
      "name": "RaffleWinner",
      "type": "event"
    },
    {
      "inputs": [
        {
          "internalType": "uint256",
          "name": "",
          "type": "uint256"
        }
      ],
      "name": "DrawingReceipts",
      "outputs": [
        {
          "internalType": "uint256",
          "name": "drawingID",
          "type": "uint256"
        },
        {
          "internalType": "uint256",
          "name": "redeemableAmount",
          "type": "uint256"
        }
      ],
      "stateMutability": "view",
      "type": "function"
    },
    {
      "inputs": [
        {
          "internalType": "uint256",
          "name": "",
          "type": "uint256"
        }
      ],
      "name": "Drawings",
      "outputs": [
        {
          "internalType": "uint256",
          "name": "maxSlots",
          "type": "uint256"
        },
        {
          "internalType": "uint256",
          "name": "endTime",
          "type": "uint256"
        },
        {
          "internalType": "uint256",
          "name": "price",
          "type": "uint256"
        },
        {
          "internalType": "uint256",
          "name": "cohortSize",
          "type": "uint256"
        },
        {
          "internalType": "uint256",
          "name": "rebateAmount",
          "type": "uint256"
        },
        {
          "internalType": "address",
          "name": "owner",
          "type": "address"
        },
        {
          "internalType": "bool",
          "name": "returnedCustody",
          "type": "bool"
        },
        {
          "internalType": "address",
          "name": "erc20Token",
          "type": "address"
        },
        {
          "internalType": "bool",
          "name": "mintsNFTs",
          "type": "bool"
        }
      ],
      "stateMutability": "view",
      "type": "function"
    },
    {
      "inputs": [],
      "name": "MINIMUM_DURATION",
      "outputs": [
        {
          "internalType": "uint256",
          "name": "",
          "type": "uint256"
        }
      ],
      "stateMutability": "view",
      "type": "function"
    },
    {
      "inputs": [
        {
          "internalType": "address",
          "name": "",
          "type": "address"
        },
        {
          "internalType": "uint256",
          "name": "",
          "type": "uint256"
        }
      ],
      "name": "addressToPromotions",
      "outputs": [
        {
          "internalType": "uint256",
          "name": "",
          "type": "uint256"
        }
      ],
      "stateMutability": "view",
      "type": "function"
    },
    {
      "inputs": [
        {
          "internalType": "address",
          "name": "",
          "type": "address"
        },
        {
          "internalType": "address",
          "name": "",
          "type": "address"
        }
      ],
      "name": "approvedOperators",
      "outputs": [
        {
          "internalType": "bool",
          "name": "",
          "type": "bool"
        }
      ],
      "stateMutability": "view",
      "type": "function"
    },
    {
      "inputs": [
        {
          "internalType": "address",
          "name": "",
          "type": "address"
        },
        {
          "internalType": "uint256",
          "name": "",
          "type": "uint256"
        }
      ],
      "name": "arrayOfApprovedOperators",
      "outputs": [
        {
          "internalType": "address",
          "name": "",
          "type": "address"
        }
      ],
      "stateMutability": "view",
      "type": "function"
    },
    {
      "inputs": [],
      "name": "bank",
      "outputs": [
        {
          "internalType": "address payable",
          "name": "",
          "type": "address"
        }
      ],
      "stateMutability": "view",
      "type": "function"
    },
    {
      "inputs": [
        {
          "internalType": "uint256",
          "name": "drawingID",
          "type": "uint256"
        }
      ],
      "name": "cancelDrawing",
      "outputs": [],
      "stateMutability": "nonpayable",
      "type": "function"
    },
    {
      "inputs": [],
      "name": "commission",
      "outputs": [
        {
          "internalType": "uint256",
          "name": "",
          "type": "uint256"
        }
      ],
      "stateMutability": "view",
      "type": "function"
    },
    {
      "inputs": [
        {
          "internalType": "uint256",
          "name": "_maxSlots",
          "type": "uint256"
        },
        {
          "internalType": "uint256",
          "name": "_duration",
          "type": "uint256"
        },
        {
          "internalType": "uint256",
          "name": "_price",
          "type": "uint256"
        },
        {
          "internalType": "uint256",
          "name": "_cohortSize",
          "type": "uint256"
        },
        {
          "internalType": "uint256",
          "name": "_rebateAmount",
          "type": "uint256"
        },
        {
          "internalType": "address",
          "name": "_owner",
          "type": "address"
        },
        {
          "internalType": "address",
          "name": "_erc20Token",
          "type": "address"
        },
        {
          "internalType": "bool",
          "name": "_mintsNFTs",
          "type": "bool"
        }
      ],
      "name": "createDrawing",
      "outputs": [],
      "stateMutability": "nonpayable",
      "type": "function"
    },
    {
      "inputs": [
        {
          "internalType": "uint256",
          "name": "drawingID",
          "type": "uint256"
        },
        {
          "internalType": "uint256",
          "name": "cohort",
          "type": "uint256"
        }
      ],
      "name": "drawingEligibility",
      "outputs": [
        {
          "internalType": "bool",
          "name": "",
          "type": "bool"
        }
      ],
      "stateMutability": "view",
      "type": "function"
    },
    {
      "inputs": [],
      "name": "drawingIDs",
      "outputs": [
        {
          "internalType": "uint256",
          "name": "",
          "type": "uint256"
        }
      ],
      "stateMutability": "view",
      "type": "function"
    },
    {
      "inputs": [
        {
          "internalType": "address",
          "name": "",
          "type": "address"
        }
      ],
      "name": "earnedCommissions",
      "outputs": [
        {
          "internalType": "uint256",
          "name": "",
          "type": "uint256"
        }
      ],
      "stateMutability": "view",
      "type": "function"
    },
    {
      "inputs": [
        {
          "internalType": "uint256",
          "name": "promotionID",
          "type": "uint256"
        }
      ],
      "name": "getNumberOfParticipants",
      "outputs": [
        {
          "internalType": "uint256",
          "name": "",
          "type": "uint256"
        }
      ],
      "stateMutability": "view",
      "type": "function"
    },
    {
      "inputs": [
        {
          "internalType": "uint256",
          "name": "promotionID",
          "type": "uint256"
        }
      ],
      "name": "getPromotionReceipts",
      "outputs": [
        {
          "internalType": "uint256[]",
          "name": "",
          "type": "uint256[]"
        }
      ],
      "stateMutability": "view",
      "type": "function"
    },
    {
      "inputs": [
        {
          "internalType": "address",
          "name": "promotionOwner",
          "type": "address"
        }
      ],
      "name": "getPromotionsByOwner",
      "outputs": [
        {
          "internalType": "uint256[]",
          "name": "",
          "type": "uint256[]"
        }
      ],
      "stateMutability": "view",
      "type": "function"
    },
    {
      "inputs": [
        {
          "internalType": "uint256",
          "name": "drawingID",
          "type": "uint256"
        },
        {
          "internalType": "uint256",
          "name": "cohort",
          "type": "uint256"
        }
      ],
      "name": "initiateDrawing",
      "outputs": [],
      "stateMutability": "nonpayable",
      "type": "function"
    },
    {
      "inputs": [
        {
          "internalType": "uint256",
          "name": "drawingID",
          "type": "uint256"
        },
        {
          "internalType": "uint256",
          "name": "numOrders",
          "type": "uint256"
        }
      ],
      "name": "joinDrawing",
      "outputs": [],
      "stateMutability": "nonpayable",
      "type": "function"
    },
    {
      "inputs": [],
      "name": "owner",
      "outputs": [
        {
          "internalType": "address",
          "name": "",
          "type": "address"
        }
      ],
      "stateMutability": "view",
      "type": "function"
    },
    {
      "inputs": [
        {
          "internalType": "uint256",
          "name": "",
          "type": "uint256"
        },
        {
          "internalType": "uint256",
          "name": "",
          "type": "uint256"
        }
      ],
      "name": "promotionIDToReceiptIDs",
      "outputs": [
        {
          "internalType": "uint256",
          "name": "",
          "type": "uint256"
        }
      ],
      "stateMutability": "view",
      "type": "function"
    },
    {
      "inputs": [],
      "name": "promotionsManager",
      "outputs": [
        {
          "internalType": "contract IPromotionsManager",
          "name": "",
          "type": "address"
        }
      ],
      "stateMutability": "view",
      "type": "function"
    },
    {
      "inputs": [],
      "name": "promotionsManagerAddress",
      "outputs": [
        {
          "internalType": "address",
          "name": "",
          "type": "address"
        }
      ],
      "stateMutability": "view",
      "type": "function"
    },
    {
      "inputs": [
        {
          "internalType": "uint256",
          "name": "requestId",
          "type": "uint256"
        },
        {
          "internalType": "uint256[]",
          "name": "randomWords",
          "type": "uint256[]"
        }
      ],
      "name": "rawFulfillRandomWords",
      "outputs": [],
      "stateMutability": "nonpayable",
      "type": "function"
    },
    {
      "inputs": [
        {
          "internalType": "uint256",
          "name": "",
          "type": "uint256"
        }
      ],
      "name": "receiptIDToPromotionID",
      "outputs": [
        {
          "internalType": "uint256",
          "name": "",
          "type": "uint256"
        }
      ],
      "stateMutability": "view",
      "type": "function"
    },
    {
      "inputs": [],
      "name": "receiptManager",
      "outputs": [
        {
          "internalType": "contract IReceiptManager",
          "name": "",
          "type": "address"
        }
      ],
      "stateMutability": "view",
      "type": "function"
    },
    {
      "inputs": [],
      "name": "receiptManagerAddress",
      "outputs": [
        {
          "internalType": "address",
          "name": "",
          "type": "address"
        }
      ],
      "stateMutability": "view",
      "type": "function"
    },
    {
      "inputs": [
        {
          "internalType": "uint256[]",
          "name": "receiptIDs",
          "type": "uint256[]"
        }
      ],
      "name": "redeemDrawingReceipts",
      "outputs": [],
      "stateMutability": "nonpayable",
      "type": "function"
    },
    {
      "inputs": [
        {
          "internalType": "uint256",
          "name": "drawingID",
          "type": "uint256"
        }
      ],
      "name": "retrieveExcessDrawingCustody",
      "outputs": [],
      "stateMutability": "nonpayable",
      "type": "function"
    },
    {
      "inputs": [
        {
          "internalType": "address payable",
          "name": "newBank",
          "type": "address"
        }
      ],
      "name": "setBank",
      "outputs": [],
      "stateMutability": "nonpayable",
      "type": "function"
    },
    {
      "inputs": [
        {
          "internalType": "uint256",
          "name": "newCommissionBPs",
          "type": "uint256"
        }
      ],
      "name": "setCommission",
      "outputs": [],
      "stateMutability": "nonpayable",
      "type": "function"
    },
    {
      "inputs": [
        {
          "internalType": "address payable",
          "name": "newOwner",
          "type": "address"
        }
      ],
      "name": "setOwner",
      "outputs": [],
      "stateMutability": "nonpayable",
      "type": "function"
    },
    {
      "inputs": [
        {
          "internalType": "uint256",
          "name": "promotionID",
          "type": "uint256"
        },
        {
          "internalType": "string",
          "name": "newURIRoot",
          "type": "string"
        }
      ],
      "name": "setPromotionURI",
      "outputs": [],
      "stateMutability": "nonpayable",
      "type": "function"
    },
    {
      "inputs": [
        {
          "internalType": "address",
          "name": "_promotionsManagerAddress",
          "type": "address"
        }
      ],
      "name": "setPromotionsManager",
      "outputs": [],
      "stateMutability": "nonpayable",
      "type": "function"
    },
    {
      "inputs": [
        {
          "internalType": "address",
          "name": "_receiptManagerAddress",
          "type": "address"
        }
      ],
      "name": "setReceiptManager",
      "outputs": [],
      "stateMutability": "nonpayable",
      "type": "function"
    },
    {
      "inputs": [
        {
          "internalType": "uint256",
          "name": "promotionID",
          "type": "uint256"
        },
        {
          "internalType": "uint256",
          "name": "basisPoints",
          "type": "uint256"
        }
      ],
      "name": "setRoyalty",
      "outputs": [],
      "stateMutability": "nonpayable",
      "type": "function"
    },
    {
      "inputs": [
        {
          "internalType": "uint256",
          "name": "",
          "type": "uint256"
        }
      ],
      "name": "unmintedReceiptsToOwners",
      "outputs": [
        {
          "internalType": "address",
          "name": "",
          "type": "address"
        }
      ],
      "stateMutability": "view",
      "type": "function"
    },
    {
      "inputs": [
        {
          "internalType": "address",
          "name": "erc20Token",
          "type": "address"
        }
      ],
      "name": "withdrawCommissions",
      "outputs": [],
      "stateMutability": "nonpayable",
      "type": "function"
    },
    {
      "inputs": [
        {
          "internalType": "address",
          "name": "",
          "type": "address"
        }
      ],
      "name": "withdrawnCommissions",
      "outputs": [
        {
          "internalType": "uint256",
          "name": "",
          "type": "uint256"
        }
      ],
      "stateMutability": "view",
      "type": "function"
    }
  ],
  "transactionHash": "0x58ebfa985a8312c117dca7e8bd618560790bd1029ca9280b07281a55d0bb3379",
  "args": [
    "0x5FbDB2315678afecb367f032d93F642f64180aa3",
    "0xE6E340D132b5f46d1e472DebcD681B2aBc16e57E",
    "0xc3e53F4d16Ae77Db1c982e75a937B9f60FE63690",
    "0x474e34a077df58807dbe9c96d3c009b23b3c6d0cce433e59bbf5b34f823bc56c",
    "0x0000000000000000000000000000000000000000000000000000000000000001",
    "500000"
  ],
  "numDeployments": 1,
  "solcInputHash": "861e589794e1892fc73a7a98a3fc5c0d",
  "bytecode": "0x61012060405260c860005560c8600f553480156200001c57600080fd5b5060405162005074380380620050748339818101604052810190620000429190620003c4565b858073ffffffffffffffffffffffffffffffffffffffff1660808173ffffffffffffffffffffffffffffffffffffffff16815250505033600260006101000a81548173ffffffffffffffffffffffffffffffffffffffff021916908373ffffffffffffffffffffffffffffffffffffffff160217905550600260009054906101000a900473ffffffffffffffffffffffffffffffffffffffff16600160006101000a81548173ffffffffffffffffffffffffffffffffffffffff021916908373ffffffffffffffffffffffffffffffffffffffff16021790555084600360006101000a81548173ffffffffffffffffffffffffffffffffffffffff021916908373ffffffffffffffffffffffffffffffffffffffff16021790555084600d60006101000a81548173ffffffffffffffffffffffffffffffffffffffff021916908373ffffffffffffffffffffffffffffffffffffffff16021790555083600460006101000a81548173ffffffffffffffffffffffffffffffffffffffff021916908373ffffffffffffffffffffffffffffffffffffffff16021790555083600e60006101000a81548173ffffffffffffffffffffffffffffffffffffffff021916908373ffffffffffffffffffffffffffffffffffffffff1602179055508573ffffffffffffffffffffffffffffffffffffffff1660a08173ffffffffffffffffffffffffffffffffffffffff16815250508261010081815250508167ffffffffffffffff1660e08167ffffffffffffffff16815250508063ffffffff1660c08163ffffffff168152505050505050505062000460565b600080fd5b600073ffffffffffffffffffffffffffffffffffffffff82169050919050565b6000620002cb826200029e565b9050919050565b620002dd81620002be565b8114620002e957600080fd5b50565b600081519050620002fd81620002d2565b92915050565b6000819050919050565b620003188162000303565b81146200032457600080fd5b50565b60008151905062000338816200030d565b92915050565b600067ffffffffffffffff82169050919050565b6200035d816200033e565b81146200036957600080fd5b50565b6000815190506200037d8162000352565b92915050565b600063ffffffff82169050919050565b6200039e8162000383565b8114620003aa57600080fd5b50565b600081519050620003be8162000393565b92915050565b60008060008060008060c08789031215620003e457620003e362000299565b5b6000620003f489828a01620002ec565b96505060206200040789828a01620002ec565b95505060406200041a89828a01620002ec565b94505060606200042d89828a0162000327565b93505060806200044089828a016200036c565b92505060a06200045389828a01620003ad565b9150509295509295509295565b60805160a05160c05160e05161010051614bc8620004ac60003960006119d0015260006119f101526000611a1401526000611994015260008181611b680152611bbc0152614bc86000f3fe608060405234801561001057600080fd5b50600436106102325760003560e01c80636d03e72811610130578063a3a92ad8116100b8578063e3bbf52e1161007c578063e3bbf52e146106dc578063e9b08e13146106fa578063ee1309b31461072a578063ef5856c314610746578063f7dbfa531461077657610232565b8063a3a92ad8146105f6578063c0628f1d14610626578063c4e80dbc14610656578063cfefaa4e1461068e578063e1489191146106be57610232565b80638da5cb5b116100ff5780638da5cb5b146105645780639165bdba14610582578063933a6f0d146105a05780639eb7b720146105bc578063a0bbde32146105d857610232565b80636d03e728146104da57806376640a5c146104f857806376cdb03b146105165780637aa88c7f1461053457610232565b80632d2828f5116101be5780633a810114116101825780633a8101141461041157806351f7a854146104415780635970b2da1461045d5780635a31470d1461048e57806364ead1eb146104aa57610232565b80632d2828f51461035b5780632d28e89d1461038b5780632ff71a69146103a957806334d82220146103c5578063355e6b43146103f557610232565b8063122ee6d711610205578063122ee6d7146102bb57806313af4035146102d75780631650612e146102f357806317a59ab01461030f5780631fe543e31461033f57610232565b806301ab2c0f14610237578063039551f414610253578063090d23b9146102835780630bd7b3221461029f575b600080fd5b610251600480360381019061024c919061389b565b610792565b005b61026d60048036038101906102689190613951565b610b87565b60405161027a91906139a0565b60405180910390f35b61029d600480360381019061029891906139f9565b610bd5565b005b6102b960048036038101906102b49190613a26565b610ca9565b005b6102d560048036038101906102d09190613a53565b610f61565b005b6102f160048036038101906102ec91906139f9565b611873565b005b61030d60048036038101906103089190613a53565b611947565b005b61032960048036038101906103249190613a93565b611b4e565b6040516103369190613acf565b60405180910390f35b61035960048036038101906103549190613c43565b611b66565b005b61037560048036038101906103709190613a53565b611c26565b6040516103829190613cae565b60405180910390f35b610393611cd3565b6040516103a09190613acf565b60405180910390f35b6103c360048036038101906103be9190613a93565b611cd9565b005b6103df60048036038101906103da9190613cc9565b611dee565b6040516103ec9190613cae565b60405180910390f35b61040f600480360381019061040a9190613a26565b611e1d565b005b61042b60048036038101906104269190613a93565b611efc565b6040516104389190613dc7565b60405180910390f35b61045b60048036038101906104569190613a93565b611f93565b005b61047760048036038101906104729190613a26565b6121d3565b604051610485929190613de9565b60405180910390f35b6104a860048036038101906104a39190613e6d565b6121f7565b005b6104c460048036038101906104bf9190613a26565b6124c0565b6040516104d19190613acf565b60405180910390f35b6104e26124e0565b6040516104ef91906139a0565b60405180910390f35b610500612506565b60405161050d9190613f2c565b60405180910390f35b61051e61252c565b60405161052b9190613f56565b60405180910390f35b61054e60048036038101906105499190613a26565b612552565b60405161055b91906139a0565b60405180910390f35b61056c612585565b60405161057991906139a0565b60405180910390f35b61058a6125ab565b6040516105979190613f92565b60405180910390f35b6105ba60048036038101906105b59190613a53565b6125d1565b005b6105d660048036038101906105d19190614003565b612774565b005b6105e0612c30565b6040516105ed91906139a0565b60405180910390f35b610610600480360381019061060b9190613a26565b612c56565b60405161061d9190613acf565b60405180910390f35b610640600480360381019061063b9190613951565b612c6e565b60405161064d9190613acf565b60405180910390f35b610670600480360381019061066b9190613a26565b612c9f565b60405161068599989796959493929190614050565b60405180910390f35b6106a860048036038101906106a39190613a93565b612d47565b6040516106b59190613acf565b60405180910390f35b6106c6612d5f565b6040516106d39190613acf565b60405180910390f35b6106e4612d65565b6040516106f19190613acf565b60405180910390f35b610714600480360381019061070f9190613a26565b612d6b565b6040516107219190613dc7565b60405180910390f35b610744600480360381019061073f9190613a26565b612ddc565b005b610760600480360381019061075b9190613a53565b6132e2565b60405161076d9190613acf565b60405180910390f35b610790600480360381019061078b9190613a93565b613313565b005b82600e60009054906101000a900473ffffffffffffffffffffffffffffffffffffffff1673ffffffffffffffffffffffffffffffffffffffff16631a17945133836040518363ffffffff1660e01b81526004016107f09291906140dd565b602060405180830381865afa15801561080d573d6000803e3d6000fd5b505050506040513d601f19601f82011682018060405250810190610831919061411b565b610870576040517f08c379a0000000000000000000000000000000000000000000000000000000008152600401610867906141a5565b60405180910390fd5b60018611158061088c57506000868a61088991906141f4565b14155b80610898575061038488105b806108a4575060018911155b806108ba575085876108b69190614254565b8510155b156108f1576040517f35be3ac800000000000000000000000000000000000000000000000000000000815260040160405180910390fd5b600060116000600f5481526020019081526020016000209050898160000181905550848160050160006101000a81548173ffffffffffffffffffffffffffffffffffffffff021916908373ffffffffffffffffffffffffffffffffffffffff16021790555088426109629190614296565b8160010181905550878160020181905550868160030181905550858160040181905550838160060160006101000a81548173ffffffffffffffffffffffffffffffffffffffff021916908373ffffffffffffffffffffffffffffffffffffffff160217905550828160060160146101000a81548160ff0219169083151502179055508373ffffffffffffffffffffffffffffffffffffffff16600f548673ffffffffffffffffffffffffffffffffffffffff167f4fe575ad6e2b2231a747048394fc59b5a82933feb10b902ec3f1d25825c608048d428e610a439190614296565b8d8d8d8b604051610a59969594939291906142ca565b60405180910390a4600960008673ffffffffffffffffffffffffffffffffffffffff1673ffffffffffffffffffffffffffffffffffffffff168152602001908152602001600020600f5490806001815401808255809150506001900390600052602060002001600090919091909150558215610b6157600d60009054906101000a900473ffffffffffffffffffffffffffffffffffffffff1673ffffffffffffffffffffffffffffffffffffffff166335b20baf600f54876040518363ffffffff1660e01b8152600401610b2e92919061432b565b600060405180830381600087803b158015610b4857600080fd5b505af1158015610b5c573d6000803e3d6000fd5b505050505b6001600f6000828254610b749190614296565b9250508190555050505050505050505050565b60086020528160005260406000208181548110610ba357600080fd5b906000526020600020016000915091509054906101000a900473ffffffffffffffffffffffffffffffffffffffff1681565b600260009054906101000a900473ffffffffffffffffffffffffffffffffffffffff1673ffffffffffffffffffffffffffffffffffffffff163373ffffffffffffffffffffffffffffffffffffffff1614610c65576040517f08c379a0000000000000000000000000000000000000000000000000000000008152600401610c5c906143a0565b60405180910390fd5b80600160006101000a81548173ffffffffffffffffffffffffffffffffffffffff021916908373ffffffffffffffffffffffffffffffffffffffff16021790555050565b6000601160008381526020019081526020016000209050600e60009054906101000a900473ffffffffffffffffffffffffffffffffffffffff1673ffffffffffffffffffffffffffffffffffffffff16631a179451338360050160009054906101000a900473ffffffffffffffffffffffffffffffffffffffff166040518363ffffffff1660e01b8152600401610d419291906140dd565b602060405180830381865afa158015610d5e573d6000803e3d6000fd5b505050506040513d601f19601f82011682018060405250810190610d82919061411b565b610db8576040517fc19f17a900000000000000000000000000000000000000000000000000000000815260040160405180910390fd5b6000600b6000848152602001908152602001600020805490509050428260010154118015610de95750816000015481105b15610f5c576000826003015482610e0091906141f4565b905060008183610e1091906143c0565b90506000600184610e2191906143c0565b905060008367ffffffffffffffff811115610e3f57610e3e613b00565b5b604051908082528060200260200182016040528015610e6d5781602001602082028036833780820191505090505b50905060008390505b828111610eea57600b60008981526020019081526020016000208181548110610ea257610ea16143f4565b5b9060005260206000200154828583610eba91906143c0565b81518110610ecb57610eca6143f4565b5b6020026020010181815250508080610ee290614423565b915050610e76565b50610ef9818760040154613428565b867f9cf541ac877be08a68335da670ce95ed50bc3319b4a7abe245d3efebe429ab7185604051610f299190613acf565b60405180910390a284866000018190555060018660050160146101000a81548160ff021916908315150217905550505050505b505050565b6000601160008481526020019081526020016000206040518061012001604052908160008201548152602001600182015481526020016002820154815260200160038201548152602001600482015481526020016005820160009054906101000a900473ffffffffffffffffffffffffffffffffffffffff1673ffffffffffffffffffffffffffffffffffffffff1673ffffffffffffffffffffffffffffffffffffffff1681526020016005820160149054906101000a900460ff161515151581526020016006820160009054906101000a900473ffffffffffffffffffffffffffffffffffffffff1673ffffffffffffffffffffffffffffffffffffffff1673ffffffffffffffffffffffffffffffffffffffff1681526020016006820160149054906101000a900460ff16151515158152505090506000600b60008581526020019081526020016000208054905090506110f16040518060400160405280600181526020017f3100000000000000000000000000000000000000000000000000000000000000815250613481565b8160000151811015806111075750428260200151105b1561113e576040517faf061c0e00000000000000000000000000000000000000000000000000000000815260040160405180910390fd5b8160000151838261114f9190614296565b11156111685780826000015161116591906143c0565b92505b6111a66040518060400160405280600181526020017f3200000000000000000000000000000000000000000000000000000000000000815250613481565b60008383608001516111b89190614254565b9050600084846080015185604001516111d191906143c0565b6111db9190614254565b90506000612710600054836111f09190614254565b6111fa919061446b565b90506000828461120a9190614296565b90506112158461351a565b61121e8361351a565b6112278261351a565b6112308161351a565b61126e6040518060400160405280600181526020017f3900000000000000000000000000000000000000000000000000000000000000815250613481565b8560e0015173ffffffffffffffffffffffffffffffffffffffff166323b872dd3330846040518463ffffffff1660e01b81526004016112af9392919061449c565b6020604051808303816000875af11580156112ce573d6000803e3d6000fd5b505050506040513d601f19601f820116820180604052508101906112f2919061411b565b506113316040518060400160405280600281526020017f3361000000000000000000000000000000000000000000000000000000000000815250613481565b8560e0015173ffffffffffffffffffffffffffffffffffffffff1663a9059cbb600e60009054906101000a900473ffffffffffffffffffffffffffffffffffffffff1673ffffffffffffffffffffffffffffffffffffffff16637366ad268960a001518a60e001516040518363ffffffff1660e01b81526004016113b69291906140dd565b602060405180830381865afa1580156113d3573d6000803e3d6000fd5b505050506040513d601f19601f820116820180604052508101906113f791906144e8565b848661140391906143c0565b6040518363ffffffff1660e01b8152600401611420929190614515565b6020604051808303816000875af115801561143f573d6000803e3d6000fd5b505050506040513d601f19601f82011682018060405250810190611463919061411b565b506114a26040518060400160405280600181526020017f3400000000000000000000000000000000000000000000000000000000000000815250613481565b81600560008860e0015173ffffffffffffffffffffffffffffffffffffffff1673ffffffffffffffffffffffffffffffffffffffff16815260200190815260200160002060008282546114f59190614296565b925050819055506000866101000151156115bf57600d60009054906101000a900473ffffffffffffffffffffffffffffffffffffffff1673ffffffffffffffffffffffffffffffffffffffff16629308a1338b60018a6115559190614296565b8c6040518563ffffffff1660e01b8152600401611575949392919061453e565b6020604051808303816000875af1158015611594573d6000803e3d6000fd5b505050506040513d601f19601f820116820180604052508101906115b89190614598565b9050611660565b600d60009054906101000a900473ffffffffffffffffffffffffffffffffffffffff1673ffffffffffffffffffffffffffffffffffffffff16631d4922b8896040518263ffffffff1660e01b815260040161161a9190613acf565b6020604051808303816000875af1158015611639573d6000803e3d6000fd5b505050506040513d601f19601f8201168201806040525081019061165d9190614598565b90505b61169e6040518060400160405280600181526020017f3500000000000000000000000000000000000000000000000000000000000000815250613481565b60005b8881101561178d5760006010600083856116bb9190614296565b815260200190815260200160002090508a8160000181905550600b60008c815260200190815260200160002082846116f39190614296565b90806001815401808255809150506001900390600052602060002001600090919091909150558861010001516117815733600a600084866117349190614296565b815260200190815260200160002060006101000a81548173ffffffffffffffffffffffffffffffffffffffff021916908373ffffffffffffffffffffffffffffffffffffffff1602179055505b508060010190506116a1565b506117cc6040518060400160405280600181526020017f3600000000000000000000000000000000000000000000000000000000000000815250613481565b6001866117d99190614296565b893373ffffffffffffffffffffffffffffffffffffffff167f7161b5c25db83b719c0d4524453acce4c20ccee615ad868b4540004f11cfca75848c604051611822929190613de9565b60405180910390a46118686040518060400160405280600181526020017f3700000000000000000000000000000000000000000000000000000000000000815250613481565b505050505050505050565b600260009054906101000a900473ffffffffffffffffffffffffffffffffffffffff1673ffffffffffffffffffffffffffffffffffffffff163373ffffffffffffffffffffffffffffffffffffffff1614611903576040517f08c379a00000000000000000000000000000000000000000000000000000000081526004016118fa906143a0565b60405180910390fd5b80600260006101000a81548173ffffffffffffffffffffffffffffffffffffffff021916908373ffffffffffffffffffffffffffffffffffffffff16021790555050565b6119518282611c26565b611990576040517f08c379a000000000000000000000000000000000000000000000000000000000815260040161198790614611565b60405180910390fd5b60007f000000000000000000000000000000000000000000000000000000000000000073ffffffffffffffffffffffffffffffffffffffff16635d3b1d307f00000000000000000000000000000000000000000000000000000000000000007f000000000000000000000000000000000000000000000000000000000000000060037f000000000000000000000000000000000000000000000000000000000000000060016040518663ffffffff1660e01b8152600401611a559594939291906146e4565b6020604051808303816000875af1158015611a74573d6000803e3d6000fd5b505050506040513d601f19601f82011682018060405250810190611a989190614598565b905082601260008381526020019081526020016000206000018190555081601260008381526020019081526020016000206001018190555080601360008581526020019081526020016000206000848152602001908152602001600020819055503373ffffffffffffffffffffffffffffffffffffffff1681847fb90eb61e101c792015a28a4622214b180ae150fd84b46f3b276fbbf6a0acc11985604051611b419190613acf565b60405180910390a4505050565b60056020528060005260406000206000915090505481565b7f000000000000000000000000000000000000000000000000000000000000000073ffffffffffffffffffffffffffffffffffffffff163373ffffffffffffffffffffffffffffffffffffffff1614611c1857337f00000000000000000000000000000000000000000000000000000000000000006040517f1cf993f4000000000000000000000000000000000000000000000000000000008152600401611c0f9291906140dd565b60405180910390fd5b611c2282826135b3565b5050565b600080601160008581526020019081526020016000209050826001611c4b9190614296565b8160030154611c5a9190614254565b600b6000868152602001908152602001600020805490501080611cb857506000601260006013600088815260200190815260200160002060008781526020019081526020016000205481526020019081526020016000206000015414155b15611cc7576000915050611ccd565b60019150505b92915050565b61038481565b600260009054906101000a900473ffffffffffffffffffffffffffffffffffffffff1673ffffffffffffffffffffffffffffffffffffffff163373ffffffffffffffffffffffffffffffffffffffff1614611d69576040517f08c379a0000000000000000000000000000000000000000000000000000000008152600401611d60906143a0565b60405180910390fd5b80600360006101000a81548173ffffffffffffffffffffffffffffffffffffffff021916908373ffffffffffffffffffffffffffffffffffffffff16021790555080600d60006101000a81548173ffffffffffffffffffffffffffffffffffffffff021916908373ffffffffffffffffffffffffffffffffffffffff16021790555050565b60076020528160005260406000206020528060005260406000206000915091509054906101000a900460ff1681565b600260009054906101000a900473ffffffffffffffffffffffffffffffffffffffff1673ffffffffffffffffffffffffffffffffffffffff163373ffffffffffffffffffffffffffffffffffffffff1614611ead576040517f08c379a0000000000000000000000000000000000000000000000000000000008152600401611ea4906143a0565b60405180910390fd5b612710811115611ef2576040517f08c379a0000000000000000000000000000000000000000000000000000000008152600401611ee990614783565b60405180910390fd5b8060008190555050565b6060600960008373ffffffffffffffffffffffffffffffffffffffff1673ffffffffffffffffffffffffffffffffffffffff168152602001908152602001600020805480602002602001604051908101604052809291908181526020018280548015611f8757602002820191906000526020600020905b815481526020019060010190808311611f73575b50505050509050919050565b600260009054906101000a900473ffffffffffffffffffffffffffffffffffffffff1673ffffffffffffffffffffffffffffffffffffffff163373ffffffffffffffffffffffffffffffffffffffff1614612023576040517f08c379a000000000000000000000000000000000000000000000000000000000815260040161201a906143a0565b60405180910390fd5b8073ffffffffffffffffffffffffffffffffffffffff1663a9059cbb600160009054906101000a900473ffffffffffffffffffffffffffffffffffffffff16600660008573ffffffffffffffffffffffffffffffffffffffff1673ffffffffffffffffffffffffffffffffffffffff16815260200190815260200160002054600560008673ffffffffffffffffffffffffffffffffffffffff1673ffffffffffffffffffffffffffffffffffffffff168152602001908152602001600020546120ec91906143c0565b6040518363ffffffff1660e01b81526004016121099291906147c4565b6020604051808303816000875af1158015612128573d6000803e3d6000fd5b505050506040513d601f19601f8201168201806040525081019061214c919061411b565b50600560008273ffffffffffffffffffffffffffffffffffffffff1673ffffffffffffffffffffffffffffffffffffffff16815260200190815260200160002054600660008373ffffffffffffffffffffffffffffffffffffffff1673ffffffffffffffffffffffffffffffffffffffff1681526020019081526020016000208190555050565b60106020528060005260406000206000915090508060000154908060010154905082565b6000601160008581526020019081526020016000209050600e60009054906101000a900473ffffffffffffffffffffffffffffffffffffffff1673ffffffffffffffffffffffffffffffffffffffff16631a179451338360050160009054906101000a900473ffffffffffffffffffffffffffffffffffffffff166040518363ffffffff1660e01b815260040161228f9291906140dd565b602060405180830381865afa1580156122ac573d6000803e3d6000fd5b505050506040513d601f19601f820116820180604052508101906122d0919061411b565b612306576040517fc19f17a900000000000000000000000000000000000000000000000000000000815260040160405180910390fd5b8060060160149054906101000a900460ff1661234e576040517f1fbb40b200000000000000000000000000000000000000000000000000000000815260040160405180910390fd5b6000600d60009054906101000a900473ffffffffffffffffffffffffffffffffffffffff1673ffffffffffffffffffffffffffffffffffffffff1663135a0ce9866040518263ffffffff1660e01b81526004016123ab9190613acf565b600060405180830381865afa1580156123c8573d6000803e3d6000fd5b505050506040513d6000823e3d601f19601f820116820180604052508101906123f191906148bd565b5114612429576040517f1c1d2b4c00000000000000000000000000000000000000000000000000000000815260040160405180910390fd5b600d60009054906101000a900473ffffffffffffffffffffffffffffffffffffffff1673ffffffffffffffffffffffffffffffffffffffff166384936ac08585856040518463ffffffff1660e01b815260040161248893929190614942565b600060405180830381600087803b1580156124a257600080fd5b505af11580156124b6573d6000803e3d6000fd5b5050505050505050565b6000600b6000838152602001908152602001600020805490509050919050565b600460009054906101000a900473ffffffffffffffffffffffffffffffffffffffff1681565b600e60009054906101000a900473ffffffffffffffffffffffffffffffffffffffff1681565b600160009054906101000a900473ffffffffffffffffffffffffffffffffffffffff1681565b600a6020528060005260406000206000915054906101000a900473ffffffffffffffffffffffffffffffffffffffff1681565b600260009054906101000a900473ffffffffffffffffffffffffffffffffffffffff1681565b600d60009054906101000a900473ffffffffffffffffffffffffffffffffffffffff1681565b6000601160008481526020019081526020016000209050600e60009054906101000a900473ffffffffffffffffffffffffffffffffffffffff1673ffffffffffffffffffffffffffffffffffffffff16631a179451338360050160009054906101000a900473ffffffffffffffffffffffffffffffffffffffff166040518363ffffffff1660e01b81526004016126699291906140dd565b602060405180830381865afa158015612686573d6000803e3d6000fd5b505050506040513d601f19601f820116820180604052508101906126aa919061411b565b6126e0576040517fc19f17a900000000000000000000000000000000000000000000000000000000815260040160405180910390fd5b600d60009054906101000a900473ffffffffffffffffffffffffffffffffffffffff1673ffffffffffffffffffffffffffffffffffffffff1663933a6f0d84846040518363ffffffff1660e01b815260040161273d929190613de9565b600060405180830381600087803b15801561275757600080fd5b505af115801561276b573d6000803e3d6000fd5b50505050505050565b600080601160006010600087876000818110612793576127926143f4565b5b90506020020135815260200190815260200160002060000154815260200190815260200160002060060160009054906101000a900473ffffffffffffffffffffffffffffffffffffffff16905060005b84849050811015612ba157600060106000878785818110612807576128066143f4565b5b9050602002013581526020019081526020016000206040518060400160405290816000820154815260200160018201548152505090506000601160008360000151815260200190815260200160002090508060060160009054906101000a900473ffffffffffffffffffffffffffffffffffffffff1673ffffffffffffffffffffffffffffffffffffffff168473ffffffffffffffffffffffffffffffffffffffff16146128ea576040517f08c379a00000000000000000000000000000000000000000000000000000000081526004016128e1906149c0565b60405180910390fd5b8060060160149054906101000a900460ff1615612a28573373ffffffffffffffffffffffffffffffffffffffff16600d60009054906101000a900473ffffffffffffffffffffffffffffffffffffffff1673ffffffffffffffffffffffffffffffffffffffff16636352211e898987818110612969576129686143f4565b5b905060200201356040518263ffffffff1660e01b815260040161298c9190613acf565b602060405180830381865afa1580156129a9573d6000803e3d6000fd5b505050506040513d601f19601f820116820180604052508101906129cd91906144e8565b73ffffffffffffffffffffffffffffffffffffffff1614612a23576040517f08c379a0000000000000000000000000000000000000000000000000000000008152600401612a1a90614a2c565b60405180910390fd5b612ae3565b3373ffffffffffffffffffffffffffffffffffffffff16600a6000898987818110612a5657612a556143f4565b5b90506020020135815260200190815260200160002060009054906101000a900473ffffffffffffffffffffffffffffffffffffffff1673ffffffffffffffffffffffffffffffffffffffff1614612ae2576040517f08c379a0000000000000000000000000000000000000000000000000000000008152600401612ad990614a2c565b60405180910390fd5b5b600082602001511115612b9257816020015185612b009190614296565b9450600060106000898987818110612b1b57612b1a6143f4565b5b905060200201358152602001908152602001600020600101819055508160000151878785818110612b4f57612b4e6143f4565b5b905060200201357fb5fc8625ed5a401da04cf815ab8ba4ea3e4ee3fade469830de8392b54106aaf68460200151604051612b899190613acf565b60405180910390a35b505080806001019150506127e3565b5060008214612c2a578073ffffffffffffffffffffffffffffffffffffffff1663a9059cbb33846040518363ffffffff1660e01b8152600401612be5929190614515565b6020604051808303816000875af1158015612c04573d6000803e3d6000fd5b505050506040513d601f19601f82011682018060405250810190612c28919061411b565b505b50505050565b600360009054906101000a900473ffffffffffffffffffffffffffffffffffffffff1681565b600c6020528060005260406000206000915090505481565b60096020528160005260406000208181548110612c8a57600080fd5b90600052602060002001600091509150505481565b60116020528060005260406000206000915090508060000154908060010154908060020154908060030154908060040154908060050160009054906101000a900473ffffffffffffffffffffffffffffffffffffffff16908060050160149054906101000a900460ff16908060060160009054906101000a900473ffffffffffffffffffffffffffffffffffffffff16908060060160149054906101000a900460ff16905089565b60066020528060005260406000206000915090505481565b60005481565b600f5481565b60606000600b6000848152602001908152602001600020805480602002602001604051908101604052809291908181526020018280548015612dcc57602002820191906000526020600020905b815481526020019060010190808311612db8575b5050505050905080915050919050565b6000601160008381526020019081526020016000206040518061012001604052908160008201548152602001600182015481526020016002820154815260200160038201548152602001600482015481526020016005820160009054906101000a900473ffffffffffffffffffffffffffffffffffffffff1673ffffffffffffffffffffffffffffffffffffffff1673ffffffffffffffffffffffffffffffffffffffff1681526020016005820160149054906101000a900460ff161515151581526020016006820160009054906101000a900473ffffffffffffffffffffffffffffffffffffffff1673ffffffffffffffffffffffffffffffffffffffff1673ffffffffffffffffffffffffffffffffffffffff1681526020016006820160149054906101000a900460ff1615151515815250509050600e60009054906101000a900473ffffffffffffffffffffffffffffffffffffffff1673ffffffffffffffffffffffffffffffffffffffff16631a179451338360a001516040518363ffffffff1660e01b8152600401612f749291906140dd565b602060405180830381865afa158015612f91573d6000803e3d6000fd5b505050506040513d601f19601f82011682018060405250810190612fb5919061411b565b612feb576040517fc19f17a900000000000000000000000000000000000000000000000000000000815260040160405180910390fd5b6000600b6000848152602001908152602001600020805490509050816020015142118061301b5750808260000151145b61305a576040517f08c379a000000000000000000000000000000000000000000000000000000000815260040161305190614611565b60405180910390fd5b8160c001511561309f576040517f08c379a000000000000000000000000000000000000000000000000000000000815260040161309690614a98565b60405180910390fd5b600082608001518360600151836130b691906141f4565b6130c09190614254565b90506000612710600054836130d59190614254565b6130df919061446b565b905080600560008660e0015173ffffffffffffffffffffffffffffffffffffffff1673ffffffffffffffffffffffffffffffffffffffff16815260200190815260200160002060008282546131349190614296565b925050819055508360e0015173ffffffffffffffffffffffffffffffffffffffff1663a9059cbb600e60009054906101000a900473ffffffffffffffffffffffffffffffffffffffff1673ffffffffffffffffffffffffffffffffffffffff16637366ad268760a001518860e001516040518363ffffffff1660e01b81526004016131c09291906140dd565b602060405180830381865afa1580156131dd573d6000803e3d6000fd5b505050506040513d601f19601f8201168201806040525081019061320191906144e8565b838561320d91906143c0565b6040518363ffffffff1660e01b815260040161322a929190614515565b6020604051808303816000875af1158015613249573d6000803e3d6000fd5b505050506040513d601f19601f8201168201806040525081019061326d919061411b565b50600060116000878152602001908152602001600020905060018160050160146101000a81548160ff021916908315150217905550857fc8238ac10f9eb45287c62f15a3fc07d82e14337161270a251934c7e77b78ae59846040516132d29190613acf565b60405180910390a2505050505050565b600b60205281600052604060002081815481106132fe57600080fd5b90600052602060002001600091509150505481565b600260009054906101000a900473ffffffffffffffffffffffffffffffffffffffff1673ffffffffffffffffffffffffffffffffffffffff163373ffffffffffffffffffffffffffffffffffffffff16146133a3576040517f08c379a000000000000000000000000000000000000000000000000000000000815260040161339a906143a0565b60405180910390fd5b80600460006101000a81548173ffffffffffffffffffffffffffffffffffffffff021916908373ffffffffffffffffffffffffffffffffffffffff16021790555080600e60006101000a81548173ffffffffffffffffffffffffffffffffffffffff021916908373ffffffffffffffffffffffffffffffffffffffff16021790555050565b60005b825181101561347c5760006010600085848151811061344d5761344c6143f4565b5b60200260200101518152602001908152602001600020905082816001018190555050808060010191505061342b565b505050565b613517816040516024016134959190614afc565b6040516020818303038152906040527f41304fac000000000000000000000000000000000000000000000000000000007bffffffffffffffffffffffffffffffffffffffffffffffffffffffff19166020820180517bffffffffffffffffffffffffffffffffffffffffffffffffffffffff838183161783525050505061376b565b50565b6135b08160405160240161352e9190613acf565b6040516020818303038152906040527ff82c50f1000000000000000000000000000000000000000000000000000000007bffffffffffffffffffffffffffffffffffffffffffffffffffffffff19166020820180517bffffffffffffffffffffffffffffffffffffffffffffffffffffffff838183161783525050505061376b565b50565b600060126000848152602001908152602001600020604051806060016040529081600082015481526020016001820154815260200160028201548152505090506000601160008360000151815260200190815260200160002060030154905082600081518110613626576136256143f4565b5b602002602001015160126000868152602001908152602001600020600201819055506000818460008151811061365f5761365e6143f4565b5b602002602001015161367191906141f4565b8284602001516136819190614254565b61368b9190614296565b90506000600b60008560000151815260200190815260200160002082815481106136b8576136b76143f4565b5b906000526020600020015490506000836011600087600001518152602001908152602001600020600401546136ed9190614254565b9050600060106000848152602001908152602001600020905081816001018190555085600001517f8d4d788998b1cad4a78fe57b5e1b026284c9e71d242f78a5e4f1fac5f59288798760200151856001886137489190614296565b866040516137599493929190614b1e565b60405180910390a25050505050505050565b6137828161377a6137856137a6565b63ffffffff16565b50565b60006a636f6e736f6c652e6c6f679050600080835160208501845afa505050565b6137b1819050919050565b6137b9614b63565b565b6000604051905090565b600080fd5b600080fd5b6000819050919050565b6137e2816137cf565b81146137ed57600080fd5b50565b6000813590506137ff816137d9565b92915050565b600073ffffffffffffffffffffffffffffffffffffffff82169050919050565b600061383082613805565b9050919050565b61384081613825565b811461384b57600080fd5b50565b60008135905061385d81613837565b92915050565b60008115159050919050565b61387881613863565b811461388357600080fd5b50565b6000813590506138958161386f565b92915050565b600080600080600080600080610100898b0312156138bc576138bb6137c5565b5b60006138ca8b828c016137f0565b98505060206138db8b828c016137f0565b97505060406138ec8b828c016137f0565b96505060606138fd8b828c016137f0565b955050608061390e8b828c016137f0565b94505060a061391f8b828c0161384e565b93505060c06139308b828c0161384e565b92505060e06139418b828c01613886565b9150509295985092959890939650565b60008060408385031215613968576139676137c5565b5b60006139768582860161384e565b9250506020613987858286016137f0565b9150509250929050565b61399a81613825565b82525050565b60006020820190506139b56000830184613991565b92915050565b60006139c682613805565b9050919050565b6139d6816139bb565b81146139e157600080fd5b50565b6000813590506139f3816139cd565b92915050565b600060208284031215613a0f57613a0e6137c5565b5b6000613a1d848285016139e4565b91505092915050565b600060208284031215613a3c57613a3b6137c5565b5b6000613a4a848285016137f0565b91505092915050565b60008060408385031215613a6a57613a696137c5565b5b6000613a78858286016137f0565b9250506020613a89858286016137f0565b9150509250929050565b600060208284031215613aa957613aa86137c5565b5b6000613ab78482850161384e565b91505092915050565b613ac9816137cf565b82525050565b6000602082019050613ae46000830184613ac0565b92915050565b600080fd5b6000601f19601f8301169050919050565b7f4e487b7100000000000000000000000000000000000000000000000000000000600052604160045260246000fd5b613b3882613aef565b810181811067ffffffffffffffff82111715613b5757613b56613b00565b5b80604052505050565b6000613b6a6137bb565b9050613b768282613b2f565b919050565b600067ffffffffffffffff821115613b9657613b95613b00565b5b602082029050602081019050919050565b600080fd5b6000613bbf613bba84613b7b565b613b60565b90508083825260208201905060208402830185811115613be257613be1613ba7565b5b835b81811015613c0b5780613bf788826137f0565b845260208401935050602081019050613be4565b5050509392505050565b600082601f830112613c2a57613c29613aea565b5b8135613c3a848260208601613bac565b91505092915050565b60008060408385031215613c5a57613c596137c5565b5b6000613c68858286016137f0565b925050602083013567ffffffffffffffff811115613c8957613c886137ca565b5b613c9585828601613c15565b9150509250929050565b613ca881613863565b82525050565b6000602082019050613cc36000830184613c9f565b92915050565b60008060408385031215613ce057613cdf6137c5565b5b6000613cee8582860161384e565b9250506020613cff8582860161384e565b9150509250929050565b600081519050919050565b600082825260208201905092915050565b6000819050602082019050919050565b613d3e816137cf565b82525050565b6000613d508383613d35565b60208301905092915050565b6000602082019050919050565b6000613d7482613d09565b613d7e8185613d14565b9350613d8983613d25565b8060005b83811015613dba578151613da18882613d44565b9750613dac83613d5c565b925050600181019050613d8d565b5085935050505092915050565b60006020820190508181036000830152613de18184613d69565b905092915050565b6000604082019050613dfe6000830185613ac0565b613e0b6020830184613ac0565b9392505050565b600080fd5b60008083601f840112613e2d57613e2c613aea565b5b8235905067ffffffffffffffff811115613e4a57613e49613e12565b5b602083019150836001820283011115613e6657613e65613ba7565b5b9250929050565b600080600060408486031215613e8657613e856137c5565b5b6000613e94868287016137f0565b935050602084013567ffffffffffffffff811115613eb557613eb46137ca565b5b613ec186828701613e17565b92509250509250925092565b6000819050919050565b6000613ef2613eed613ee884613805565b613ecd565b613805565b9050919050565b6000613f0482613ed7565b9050919050565b6000613f1682613ef9565b9050919050565b613f2681613f0b565b82525050565b6000602082019050613f416000830184613f1d565b92915050565b613f50816139bb565b82525050565b6000602082019050613f6b6000830184613f47565b92915050565b6000613f7c82613ef9565b9050919050565b613f8c81613f71565b82525050565b6000602082019050613fa76000830184613f83565b92915050565b60008083601f840112613fc357613fc2613aea565b5b8235905067ffffffffffffffff811115613fe057613fdf613e12565b5b602083019150836020820283011115613ffc57613ffb613ba7565b5b9250929050565b6000806020838503121561401a576140196137c5565b5b600083013567ffffffffffffffff811115614038576140376137ca565b5b61404485828601613fad565b92509250509250929050565b600061012082019050614066600083018c613ac0565b614073602083018b613ac0565b614080604083018a613ac0565b61408d6060830189613ac0565b61409a6080830188613ac0565b6140a760a0830187613991565b6140b460c0830186613c9f565b6140c160e0830185613991565b6140cf610100830184613c9f565b9a9950505050505050505050565b60006040820190506140f26000830185613991565b6140ff6020830184613991565b9392505050565b6000815190506141158161386f565b92915050565b600060208284031215614131576141306137c5565b5b600061413f84828501614106565b91505092915050565b600082825260208201905092915050565b7f4e6f7420417070726f7665640000000000000000000000000000000000000000600082015250565b600061418f600c83614148565b915061419a82614159565b602082019050919050565b600060208201905081810360008301526141be81614182565b9050919050565b7f4e487b7100000000000000000000000000000000000000000000000000000000600052601260045260246000fd5b60006141ff826137cf565b915061420a836137cf565b92508261421a576142196141c5565b5b828206905092915050565b7f4e487b7100000000000000000000000000000000000000000000000000000000600052601160045260246000fd5b600061425f826137cf565b915061426a836137cf565b9250828202614278816137cf565b9150828204841483151761428f5761428e614225565b5b5092915050565b60006142a1826137cf565b91506142ac836137cf565b92508282019050808211156142c4576142c3614225565b5b92915050565b600060c0820190506142df6000830189613ac0565b6142ec6020830188613ac0565b6142f96040830187613ac0565b6143066060830186613ac0565b6143136080830185613ac0565b61432060a0830184613c9f565b979650505050505050565b60006040820190506143406000830185613ac0565b61434d6020830184613991565b9392505050565b7f4e6f744f776e6572000000000000000000000000000000000000000000000000600082015250565b600061438a600883614148565b915061439582614354565b602082019050919050565b600060208201905081810360008301526143b98161437d565b9050919050565b60006143cb826137cf565b91506143d6836137cf565b92508282039050818111156143ee576143ed614225565b5b92915050565b7f4e487b7100000000000000000000000000000000000000000000000000000000600052603260045260246000fd5b600061442e826137cf565b91507fffffffffffffffffffffffffffffffffffffffffffffffffffffffffffffffff82036144605761445f614225565b5b600182019050919050565b6000614476826137cf565b9150614481836137cf565b925082614491576144906141c5565b5b828204905092915050565b60006060820190506144b16000830186613991565b6144be6020830185613991565b6144cb6040830184613ac0565b949350505050565b6000815190506144e281613837565b92915050565b6000602082840312156144fe576144fd6137c5565b5b600061450c848285016144d3565b91505092915050565b600060408201905061452a6000830185613991565b6145376020830184613ac0565b9392505050565b60006080820190506145536000830187613991565b6145606020830186613ac0565b61456d6040830185613ac0565b61457a6060830184613ac0565b95945050505050565b600081519050614592816137d9565b92915050565b6000602082840312156145ae576145ad6137c5565b5b60006145bc84828501614583565b91505092915050565b7f496e656c696769626c6500000000000000000000000000000000000000000000600082015250565b60006145fb600a83614148565b9150614606826145c5565b602082019050919050565b6000602082019050818103600083015261462a816145ee565b9050919050565b6000819050919050565b61464481614631565b82525050565b600067ffffffffffffffff82169050919050565b6146678161464a565b82525050565b600061ffff82169050919050565b6146848161466d565b82525050565b600063ffffffff82169050919050565b6146a38161468a565b82525050565b6000819050919050565b60006146ce6146c96146c4846146a9565b613ecd565b61468a565b9050919050565b6146de816146b3565b82525050565b600060a0820190506146f9600083018861463b565b614706602083018761465e565b614713604083018661467b565b614720606083018561469a565b61472d60808301846146d5565b9695505050505050565b7f496e760000000000000000000000000000000000000000000000000000000000600082015250565b600061476d600383614148565b915061477882614737565b602082019050919050565b6000602082019050818103600083015261479c81614760565b9050919050565b60006147ae82613ef9565b9050919050565b6147be816147a3565b82525050565b60006040820190506147d960008301856147b5565b6147e66020830184613ac0565b9392505050565b600080fd5b600067ffffffffffffffff82111561480d5761480c613b00565b5b61481682613aef565b9050602081019050919050565b60005b83811015614841578082015181840152602081019050614826565b60008484015250505050565b600061486061485b846147f2565b613b60565b90508281526020810184848401111561487c5761487b6147ed565b5b614887848285614823565b509392505050565b600082601f8301126148a4576148a3613aea565b5b81516148b484826020860161484d565b91505092915050565b6000602082840312156148d3576148d26137c5565b5b600082015167ffffffffffffffff8111156148f1576148f06137ca565b5b6148fd8482850161488f565b91505092915050565b82818337600083830152505050565b60006149218385614148565b935061492e838584614906565b61493783613aef565b840190509392505050565b60006040820190506149576000830186613ac0565b818103602083015261496a818486614915565b9050949350505050565b7f496e76616c696400000000000000000000000000000000000000000000000000600082015250565b60006149aa600783614148565b91506149b582614974565b602082019050919050565b600060208201905081810360008301526149d98161499d565b9050919050565b7f4e6f74206f776e65640000000000000000000000000000000000000000000000600082015250565b6000614a16600983614148565b9150614a21826149e0565b602082019050919050565b60006020820190508181036000830152614a4581614a09565b9050919050565b7f416c72656164792052657475726e656400000000000000000000000000000000600082015250565b6000614a82601083614148565b9150614a8d82614a4c565b602082019050919050565b60006020820190508181036000830152614ab181614a75565b9050919050565b600081519050919050565b6000614ace82614ab8565b614ad88185614148565b9350614ae8818560208601614823565b614af181613aef565b840191505092915050565b60006020820190508181036000830152614b168184614ac3565b905092915050565b6000608082019050614b336000830187613ac0565b614b406020830186613ac0565b614b4d6040830185613ac0565b614b5a6060830184613ac0565b95945050505050565b7f4e487b7100000000000000000000000000000000000000000000000000000000600052605160045260246000fdfea26469706673582212206b3423531643898739e1c7370b5900f48e85f3a2508ae2a2582f66dfc4cfda4b64736f6c63430008180033",
  "devdoc": {
    "kind": "dev",
    "methods": {},
    "version": 1
  },
  "userdoc": {
    "kind": "user",
    "methods": {},
    "version": 1
  },
  "storageLayout": {
    "storage": [
      {
        "astId": 1611,
        "contract": "contracts/DrawingManagerv2.sol:DrawingManager",
        "label": "commission",
        "offset": 0,
        "slot": "0",
        "type": "t_uint256"
      },
      {
        "astId": 1613,
        "contract": "contracts/DrawingManagerv2.sol:DrawingManager",
        "label": "bank",
        "offset": 0,
        "slot": "1",
        "type": "t_address_payable"
      },
      {
        "astId": 1615,
        "contract": "contracts/DrawingManagerv2.sol:DrawingManager",
        "label": "owner",
        "offset": 0,
        "slot": "2",
        "type": "t_address"
      },
      {
        "astId": 1617,
        "contract": "contracts/DrawingManagerv2.sol:DrawingManager",
        "label": "receiptManagerAddress",
        "offset": 0,
        "slot": "3",
        "type": "t_address"
      },
      {
        "astId": 1619,
        "contract": "contracts/DrawingManagerv2.sol:DrawingManager",
        "label": "promotionsManagerAddress",
        "offset": 0,
        "slot": "4",
        "type": "t_address"
      },
      {
        "astId": 1623,
        "contract": "contracts/DrawingManagerv2.sol:DrawingManager",
        "label": "earnedCommissions",
        "offset": 0,
        "slot": "5",
        "type": "t_mapping(t_address,t_uint256)"
      },
      {
        "astId": 1627,
        "contract": "contracts/DrawingManagerv2.sol:DrawingManager",
        "label": "withdrawnCommissions",
        "offset": 0,
        "slot": "6",
        "type": "t_mapping(t_address,t_uint256)"
      },
      {
        "astId": 1633,
        "contract": "contracts/DrawingManagerv2.sol:DrawingManager",
        "label": "approvedOperators",
        "offset": 0,
        "slot": "7",
        "type": "t_mapping(t_address,t_mapping(t_address,t_bool))"
      },
      {
        "astId": 1638,
        "contract": "contracts/DrawingManagerv2.sol:DrawingManager",
        "label": "arrayOfApprovedOperators",
        "offset": 0,
        "slot": "8",
        "type": "t_mapping(t_address,t_array(t_address)dyn_storage)"
      },
      {
        "astId": 1643,
        "contract": "contracts/DrawingManagerv2.sol:DrawingManager",
        "label": "addressToPromotions",
        "offset": 0,
        "slot": "9",
        "type": "t_mapping(t_address,t_array(t_uint256)dyn_storage)"
      },
      {
        "astId": 1647,
        "contract": "contracts/DrawingManagerv2.sol:DrawingManager",
        "label": "unmintedReceiptsToOwners",
        "offset": 0,
        "slot": "10",
        "type": "t_mapping(t_uint256,t_address)"
      },
      {
        "astId": 1652,
        "contract": "contracts/DrawingManagerv2.sol:DrawingManager",
        "label": "promotionIDToReceiptIDs",
        "offset": 0,
        "slot": "11",
        "type": "t_mapping(t_uint256,t_array(t_uint256)dyn_storage)"
      },
      {
        "astId": 1656,
        "contract": "contracts/DrawingManagerv2.sol:DrawingManager",
        "label": "receiptIDToPromotionID",
        "offset": 0,
        "slot": "12",
        "type": "t_mapping(t_uint256,t_uint256)"
      },
      {
        "astId": 1659,
        "contract": "contracts/DrawingManagerv2.sol:DrawingManager",
        "label": "receiptManager",
        "offset": 0,
        "slot": "13",
        "type": "t_contract(IReceiptManager)10536"
      },
      {
        "astId": 1662,
        "contract": "contracts/DrawingManagerv2.sol:DrawingManager",
        "label": "promotionsManager",
        "offset": 0,
        "slot": "14",
        "type": "t_contract(IPromotionsManager)10478"
      },
      {
        "astId": 356,
        "contract": "contracts/DrawingManagerv2.sol:DrawingManager",
        "label": "drawingIDs",
        "offset": 0,
        "slot": "15",
        "type": "t_uint256"
      },
      {
        "astId": 364,
        "contract": "contracts/DrawingManagerv2.sol:DrawingManager",
        "label": "DrawingReceipts",
        "offset": 0,
        "slot": "16",
        "type": "t_mapping(t_uint256,t_struct(DrawingReceipt)346_storage)"
      },
      {
        "astId": 369,
        "contract": "contracts/DrawingManagerv2.sol:DrawingManager",
        "label": "Drawings",
        "offset": 0,
        "slot": "17",
        "type": "t_mapping(t_uint256,t_struct(Drawing)341_storage)"
      },
      {
        "astId": 374,
        "contract": "contracts/DrawingManagerv2.sol:DrawingManager",
        "label": "vrfRequestIDtoContext",
        "offset": 0,
        "slot": "18",
        "type": "t_mapping(t_uint256,t_struct(VRFRequestContext)353_storage)"
      },
      {
        "astId": 380,
        "contract": "contracts/DrawingManagerv2.sol:DrawingManager",
        "label": "drawingCohortsToVRFRequestID",
        "offset": 0,
        "slot": "19",
        "type": "t_mapping(t_uint256,t_mapping(t_uint256,t_uint256))"
      },
      {
        "astId": 392,
        "contract": "contracts/DrawingManagerv2.sol:DrawingManager",
        "label": "s_lastTimeStamp",
        "offset": 0,
        "slot": "20",
        "type": "t_uint256"
      }
    ],
    "types": {
      "t_address": {
        "encoding": "inplace",
        "label": "address",
        "numberOfBytes": "20"
      },
      "t_address_payable": {
        "encoding": "inplace",
        "label": "address payable",
        "numberOfBytes": "20"
      },
      "t_array(t_address)dyn_storage": {
        "base": "t_address",
        "encoding": "dynamic_array",
        "label": "address[]",
        "numberOfBytes": "32"
      },
      "t_array(t_uint256)dyn_storage": {
        "base": "t_uint256",
        "encoding": "dynamic_array",
        "label": "uint256[]",
        "numberOfBytes": "32"
      },
      "t_bool": {
        "encoding": "inplace",
        "label": "bool",
        "numberOfBytes": "1"
      },
      "t_contract(IPromotionsManager)10478": {
        "encoding": "inplace",
        "label": "contract IPromotionsManager",
        "numberOfBytes": "20"
      },
      "t_contract(IReceiptManager)10536": {
        "encoding": "inplace",
        "label": "contract IReceiptManager",
        "numberOfBytes": "20"
      },
      "t_mapping(t_address,t_array(t_address)dyn_storage)": {
        "encoding": "mapping",
        "key": "t_address",
        "label": "mapping(address => address[])",
        "numberOfBytes": "32",
        "value": "t_array(t_address)dyn_storage"
      },
      "t_mapping(t_address,t_array(t_uint256)dyn_storage)": {
        "encoding": "mapping",
        "key": "t_address",
        "label": "mapping(address => uint256[])",
        "numberOfBytes": "32",
        "value": "t_array(t_uint256)dyn_storage"
      },
      "t_mapping(t_address,t_bool)": {
        "encoding": "mapping",
        "key": "t_address",
        "label": "mapping(address => bool)",
        "numberOfBytes": "32",
        "value": "t_bool"
      },
      "t_mapping(t_address,t_mapping(t_address,t_bool))": {
        "encoding": "mapping",
        "key": "t_address",
        "label": "mapping(address => mapping(address => bool))",
        "numberOfBytes": "32",
        "value": "t_mapping(t_address,t_bool)"
      },
      "t_mapping(t_address,t_uint256)": {
        "encoding": "mapping",
        "key": "t_address",
        "label": "mapping(address => uint256)",
        "numberOfBytes": "32",
        "value": "t_uint256"
      },
      "t_mapping(t_uint256,t_address)": {
        "encoding": "mapping",
        "key": "t_uint256",
        "label": "mapping(uint256 => address)",
        "numberOfBytes": "32",
        "value": "t_address"
      },
      "t_mapping(t_uint256,t_array(t_uint256)dyn_storage)": {
        "encoding": "mapping",
        "key": "t_uint256",
        "label": "mapping(uint256 => uint256[])",
        "numberOfBytes": "32",
        "value": "t_array(t_uint256)dyn_storage"
      },
      "t_mapping(t_uint256,t_mapping(t_uint256,t_uint256))": {
        "encoding": "mapping",
        "key": "t_uint256",
        "label": "mapping(uint256 => mapping(uint256 => uint256))",
        "numberOfBytes": "32",
        "value": "t_mapping(t_uint256,t_uint256)"
      },
      "t_mapping(t_uint256,t_struct(Drawing)341_storage)": {
        "encoding": "mapping",
        "key": "t_uint256",
        "label": "mapping(uint256 => struct DrawingManager.Drawing)",
        "numberOfBytes": "32",
        "value": "t_struct(Drawing)341_storage"
      },
      "t_mapping(t_uint256,t_struct(DrawingReceipt)346_storage)": {
        "encoding": "mapping",
        "key": "t_uint256",
        "label": "mapping(uint256 => struct DrawingManager.DrawingReceipt)",
        "numberOfBytes": "32",
        "value": "t_struct(DrawingReceipt)346_storage"
      },
      "t_mapping(t_uint256,t_struct(VRFRequestContext)353_storage)": {
        "encoding": "mapping",
        "key": "t_uint256",
        "label": "mapping(uint256 => struct DrawingManager.VRFRequestContext)",
        "numberOfBytes": "32",
        "value": "t_struct(VRFRequestContext)353_storage"
      },
      "t_mapping(t_uint256,t_uint256)": {
        "encoding": "mapping",
        "key": "t_uint256",
        "label": "mapping(uint256 => uint256)",
        "numberOfBytes": "32",
        "value": "t_uint256"
      },
      "t_struct(Drawing)341_storage": {
        "encoding": "inplace",
        "label": "struct DrawingManager.Drawing",
        "members": [
          {
            "astId": 324,
            "contract": "contracts/DrawingManagerv2.sol:DrawingManager",
            "label": "maxSlots",
            "offset": 0,
            "slot": "0",
            "type": "t_uint256"
          },
          {
            "astId": 326,
            "contract": "contracts/DrawingManagerv2.sol:DrawingManager",
            "label": "endTime",
            "offset": 0,
            "slot": "1",
            "type": "t_uint256"
          },
          {
            "astId": 328,
            "contract": "contracts/DrawingManagerv2.sol:DrawingManager",
            "label": "price",
            "offset": 0,
            "slot": "2",
            "type": "t_uint256"
          },
          {
            "astId": 330,
            "contract": "contracts/DrawingManagerv2.sol:DrawingManager",
            "label": "cohortSize",
            "offset": 0,
            "slot": "3",
            "type": "t_uint256"
          },
          {
            "astId": 332,
            "contract": "contracts/DrawingManagerv2.sol:DrawingManager",
            "label": "rebateAmount",
            "offset": 0,
            "slot": "4",
            "type": "t_uint256"
          },
          {
            "astId": 334,
            "contract": "contracts/DrawingManagerv2.sol:DrawingManager",
            "label": "owner",
            "offset": 0,
            "slot": "5",
            "type": "t_address"
          },
          {
            "astId": 336,
            "contract": "contracts/DrawingManagerv2.sol:DrawingManager",
            "label": "returnedCustody",
            "offset": 20,
            "slot": "5",
            "type": "t_bool"
          },
          {
            "astId": 338,
            "contract": "contracts/DrawingManagerv2.sol:DrawingManager",
            "label": "erc20Token",
            "offset": 0,
            "slot": "6",
            "type": "t_address"
          },
          {
            "astId": 340,
            "contract": "contracts/DrawingManagerv2.sol:DrawingManager",
            "label": "mintsNFTs",
            "offset": 20,
            "slot": "6",
            "type": "t_bool"
          }
        ],
        "numberOfBytes": "224"
      },
      "t_struct(DrawingReceipt)346_storage": {
        "encoding": "inplace",
        "label": "struct DrawingManager.DrawingReceipt",
        "members": [
          {
            "astId": 343,
            "contract": "contracts/DrawingManagerv2.sol:DrawingManager",
            "label": "drawingID",
            "offset": 0,
            "slot": "0",
            "type": "t_uint256"
          },
          {
            "astId": 345,
            "contract": "contracts/DrawingManagerv2.sol:DrawingManager",
            "label": "redeemableAmount",
            "offset": 0,
            "slot": "1",
            "type": "t_uint256"
          }
        ],
        "numberOfBytes": "64"
      },
      "t_struct(VRFRequestContext)353_storage": {
        "encoding": "inplace",
        "label": "struct DrawingManager.VRFRequestContext",
        "members": [
          {
            "astId": 348,
            "contract": "contracts/DrawingManagerv2.sol:DrawingManager",
            "label": "drawingID",
            "offset": 0,
            "slot": "0",
            "type": "t_uint256"
          },
          {
            "astId": 350,
            "contract": "contracts/DrawingManagerv2.sol:DrawingManager",
            "label": "cohort",
            "offset": 0,
            "slot": "1",
            "type": "t_uint256"
          },
          {
            "astId": 352,
            "contract": "contracts/DrawingManagerv2.sol:DrawingManager",
            "label": "randomWord",
            "offset": 0,
            "slot": "2",
            "type": "t_uint256"
          }
        ],
        "numberOfBytes": "96"
      },
      "t_uint256": {
        "encoding": "inplace",
        "label": "uint256",
        "numberOfBytes": "32"
      }
    }
  }
}