{
  "address": "0x9E545E3C0baAB3E08CdfD552C960A1050f373042",
  "abi": [
    {
      "inputs": [],
      "stateMutability": "nonpayable",
      "type": "constructor"
    },
    {
      "inputs": [
        {
          "internalType": "address",
          "name": "sender",
          "type": "address"
        },
        {
          "internalType": "uint256",
          "name": "tokenId",
          "type": "uint256"
        },
        {
          "internalType": "address",
          "name": "owner",
          "type": "address"
        }
      ],
      "name": "ERC721IncorrectOwner",
      "type": "error"
    },
    {
      "inputs": [
        {
          "internalType": "address",
          "name": "operator",
          "type": "address"
        },
        {
          "internalType": "uint256",
          "name": "tokenId",
          "type": "uint256"
        }
      ],
      "name": "ERC721InsufficientApproval",
      "type": "error"
    },
    {
      "inputs": [
        {
          "internalType": "address",
          "name": "approver",
          "type": "address"
        }
      ],
      "name": "ERC721InvalidApprover",
      "type": "error"
    },
    {
      "inputs": [
        {
          "internalType": "address",
          "name": "operator",
          "type": "address"
        }
      ],
      "name": "ERC721InvalidOperator",
      "type": "error"
    },
    {
      "inputs": [
        {
          "internalType": "address",
          "name": "owner",
          "type": "address"
        }
      ],
      "name": "ERC721InvalidOwner",
      "type": "error"
    },
    {
      "inputs": [
        {
          "internalType": "address",
          "name": "receiver",
          "type": "address"
        }
      ],
      "name": "ERC721InvalidReceiver",
      "type": "error"
    },
    {
      "inputs": [
        {
          "internalType": "address",
          "name": "sender",
          "type": "address"
        }
      ],
      "name": "ERC721InvalidSender",
      "type": "error"
    },
    {
      "inputs": [
        {
          "internalType": "uint256",
          "name": "tokenId",
          "type": "uint256"
        }
      ],
      "name": "ERC721NonexistentToken",
      "type": "error"
    },
    {
      "inputs": [],
      "name": "NotApproved",
      "type": "error"
    },
    {
      "inputs": [],
      "name": "TokenDoesNotExist",
      "type": "error"
    },
    {
      "anonymous": false,
      "inputs": [
        {
          "indexed": true,
          "internalType": "address",
          "name": "owner",
          "type": "address"
        },
        {
          "indexed": true,
          "internalType": "address",
          "name": "approved",
          "type": "address"
        },
        {
          "indexed": true,
          "internalType": "uint256",
          "name": "tokenId",
          "type": "uint256"
        }
      ],
      "name": "Approval",
      "type": "event"
    },
    {
      "anonymous": false,
      "inputs": [
        {
          "indexed": true,
          "internalType": "address",
          "name": "owner",
          "type": "address"
        },
        {
          "indexed": true,
          "internalType": "address",
          "name": "operator",
          "type": "address"
        },
        {
          "indexed": false,
          "internalType": "bool",
          "name": "approved",
          "type": "bool"
        }
      ],
      "name": "ApprovalForAll",
      "type": "event"
    },
    {
      "anonymous": false,
      "inputs": [
        {
          "indexed": true,
          "internalType": "address",
          "name": "from",
          "type": "address"
        },
        {
          "indexed": true,
          "internalType": "address",
          "name": "to",
          "type": "address"
        },
        {
          "indexed": true,
          "internalType": "uint256",
          "name": "tokenId",
          "type": "uint256"
        }
      ],
      "name": "Transfer",
      "type": "event"
    },
    {
      "inputs": [
        {
          "internalType": "address",
          "name": "",
          "type": "address"
        }
      ],
      "name": "ISOs",
      "outputs": [
        {
          "internalType": "uint256",
          "name": "numTokens",
          "type": "uint256"
        },
        {
          "internalType": "uint256",
          "name": "revShare",
          "type": "uint256"
        },
        {
          "internalType": "uint256",
          "name": "price",
          "type": "uint256"
        },
        {
          "internalType": "uint256",
          "name": "minted",
          "type": "uint256"
        },
        {
          "internalType": "address",
          "name": "erc20Token",
          "type": "address"
        }
      ],
      "stateMutability": "view",
      "type": "function"
    },
    {
      "inputs": [
        {
          "internalType": "uint256",
          "name": "",
          "type": "uint256"
        }
      ],
      "name": "ShareContexts",
      "outputs": [
        {
          "internalType": "address",
          "name": "store",
          "type": "address"
        },
        {
          "internalType": "uint256",
          "name": "shareNumber",
          "type": "uint256"
        }
      ],
      "stateMutability": "view",
      "type": "function"
    },
    {
      "inputs": [
        {
          "internalType": "address",
          "name": "_toApprove",
          "type": "address"
        }
      ],
      "name": "addApprovedCaller",
      "outputs": [],
      "stateMutability": "nonpayable",
      "type": "function"
    },
    {
      "inputs": [
        {
          "internalType": "address",
          "name": "",
          "type": "address"
        },
        {
          "internalType": "uint256",
          "name": "",
          "type": "uint256"
        }
      ],
      "name": "addressToTokenIDs",
      "outputs": [
        {
          "internalType": "uint256",
          "name": "",
          "type": "uint256"
        }
      ],
      "stateMutability": "view",
      "type": "function"
    },
    {
      "inputs": [],
      "name": "allowISOs",
      "outputs": [],
      "stateMutability": "nonpayable",
      "type": "function"
    },
    {
      "inputs": [
        {
          "internalType": "address",
          "name": "to",
          "type": "address"
        },
        {
          "internalType": "uint256",
          "name": "tokenId",
          "type": "uint256"
        }
      ],
      "name": "approve",
      "outputs": [],
      "stateMutability": "nonpayable",
      "type": "function"
    },
    {
      "inputs": [
        {
          "internalType": "uint256",
          "name": "",
          "type": "uint256"
        }
      ],
      "name": "approvedCallers",
      "outputs": [
        {
          "internalType": "address",
          "name": "",
          "type": "address"
        }
      ],
      "stateMutability": "view",
      "type": "function"
    },
    {
      "inputs": [
        {
          "internalType": "address",
          "name": "owner",
          "type": "address"
        }
      ],
      "name": "balanceOf",
      "outputs": [
        {
          "internalType": "uint256",
          "name": "",
          "type": "uint256"
        }
      ],
      "stateMutability": "view",
      "type": "function"
    },
    {
      "inputs": [
        {
          "internalType": "address",
          "name": "store",
          "type": "address"
        },
        {
          "internalType": "uint256",
          "name": "numShares",
          "type": "uint256"
        }
      ],
      "name": "buyISO",
      "outputs": [],
      "stateMutability": "nonpayable",
      "type": "function"
    },
    {
      "inputs": [],
      "name": "contractOwner",
      "outputs": [
        {
          "internalType": "address",
          "name": "",
          "type": "address"
        }
      ],
      "stateMutability": "view",
      "type": "function"
    },
    {
      "inputs": [
        {
          "internalType": "uint256",
          "name": "_numTokens",
          "type": "uint256"
        },
        {
          "internalType": "uint256",
          "name": "_revShare",
          "type": "uint256"
        },
        {
          "internalType": "uint256",
          "name": "_price",
          "type": "uint256"
        },
        {
          "internalType": "address",
          "name": "_erc20Token",
          "type": "address"
        }
      ],
      "name": "createISO",
      "outputs": [],
      "stateMutability": "nonpayable",
      "type": "function"
    },
    {
      "inputs": [
        {
          "internalType": "address",
          "name": "",
          "type": "address"
        }
      ],
      "name": "customURIRoot",
      "outputs": [
        {
          "internalType": "string",
          "name": "",
          "type": "string"
        }
      ],
      "stateMutability": "view",
      "type": "function"
    },
    {
      "inputs": [],
      "name": "defaultURIRoot",
      "outputs": [
        {
          "internalType": "string",
          "name": "",
          "type": "string"
        }
      ],
      "stateMutability": "view",
      "type": "function"
    },
    {
      "inputs": [
        {
          "internalType": "uint256",
          "name": "tokenId",
          "type": "uint256"
        }
      ],
      "name": "getApproved",
      "outputs": [
        {
          "internalType": "address",
          "name": "",
          "type": "address"
        }
      ],
      "stateMutability": "view",
      "type": "function"
    },
    {
      "inputs": [],
      "name": "getApprovedCallers",
      "outputs": [
        {
          "internalType": "address[]",
          "name": "",
          "type": "address[]"
        }
      ],
      "stateMutability": "view",
      "type": "function"
    },
    {
      "inputs": [
        {
          "internalType": "address",
          "name": "owner",
          "type": "address"
        },
        {
          "internalType": "address",
          "name": "operator",
          "type": "address"
        }
      ],
      "name": "isApprovedForAll",
      "outputs": [
        {
          "internalType": "bool",
          "name": "",
          "type": "bool"
        }
      ],
      "stateMutability": "view",
      "type": "function"
    },
    {
      "inputs": [],
      "name": "merchantManager",
      "outputs": [
        {
          "internalType": "contract IMerchantManager",
          "name": "",
          "type": "address"
        }
      ],
      "stateMutability": "view",
      "type": "function"
    },
    {
      "inputs": [],
      "name": "merchantManagerAddress",
      "outputs": [
        {
          "internalType": "address",
          "name": "",
          "type": "address"
        }
      ],
      "stateMutability": "view",
      "type": "function"
    },
    {
      "inputs": [],
      "name": "name",
      "outputs": [
        {
          "internalType": "string",
          "name": "",
          "type": "string"
        }
      ],
      "stateMutability": "view",
      "type": "function"
    },
    {
      "inputs": [
        {
          "internalType": "uint256",
          "name": "tokenId",
          "type": "uint256"
        }
      ],
      "name": "ownerOf",
      "outputs": [
        {
          "internalType": "address",
          "name": "",
          "type": "address"
        }
      ],
      "stateMutability": "view",
      "type": "function"
    },
    {
      "inputs": [
        {
          "internalType": "address",
          "name": "store",
          "type": "address"
        },
        {
          "internalType": "uint256",
          "name": "toStore",
          "type": "uint256"
        },
        {
          "internalType": "uint256",
          "name": "commission",
          "type": "uint256"
        },
        {
          "internalType": "uint256",
          "name": "custodyAmount",
          "type": "uint256"
        },
        {
          "internalType": "address",
          "name": "erc20Token",
          "type": "address"
        },
        {
          "internalType": "address",
          "name": "payor",
          "type": "address"
        }
      ],
      "name": "payStore",
      "outputs": [],
      "stateMutability": "nonpayable",
      "type": "function"
    },
    {
      "inputs": [
        {
          "internalType": "uint256[]",
          "name": "tokenIDArray",
          "type": "uint256[]"
        },
        {
          "internalType": "address[]",
          "name": "erc20Tokens",
          "type": "address[]"
        }
      ],
      "name": "redeemDividends",
      "outputs": [],
      "stateMutability": "nonpayable",
      "type": "function"
    },
    {
      "inputs": [
        {
          "internalType": "address",
          "name": "_toRemove",
          "type": "address"
        }
      ],
      "name": "removeApprovedCaller",
      "outputs": [],
      "stateMutability": "nonpayable",
      "type": "function"
    },
    {
      "inputs": [
        {
          "internalType": "address",
          "name": "",
          "type": "address"
        }
      ],
      "name": "royaltyBasisPoints",
      "outputs": [
        {
          "internalType": "uint16",
          "name": "",
          "type": "uint16"
        }
      ],
      "stateMutability": "view",
      "type": "function"
    },
    {
      "inputs": [
        {
          "internalType": "uint256",
          "name": "tokenID",
          "type": "uint256"
        },
        {
          "internalType": "uint256",
          "name": "salePrice",
          "type": "uint256"
        }
      ],
      "name": "royaltyInfo",
      "outputs": [
        {
          "internalType": "address",
          "name": "receiver",
          "type": "address"
        },
        {
          "internalType": "uint256",
          "name": "royaltyAmount",
          "type": "uint256"
        }
      ],
      "stateMutability": "view",
      "type": "function"
    },
    {
      "inputs": [
        {
          "internalType": "address",
          "name": "",
          "type": "address"
        }
      ],
      "name": "royaltyReceiver",
      "outputs": [
        {
          "internalType": "address",
          "name": "",
          "type": "address"
        }
      ],
      "stateMutability": "view",
      "type": "function"
    },
    {
      "inputs": [
        {
          "internalType": "address",
          "name": "from",
          "type": "address"
        },
        {
          "internalType": "address",
          "name": "to",
          "type": "address"
        },
        {
          "internalType": "uint256",
          "name": "tokenId",
          "type": "uint256"
        }
      ],
      "name": "safeTransferFrom",
      "outputs": [],
      "stateMutability": "nonpayable",
      "type": "function"
    },
    {
      "inputs": [
        {
          "internalType": "address",
          "name": "from",
          "type": "address"
        },
        {
          "internalType": "address",
          "name": "to",
          "type": "address"
        },
        {
          "internalType": "uint256",
          "name": "tokenId",
          "type": "uint256"
        },
        {
          "internalType": "bytes",
          "name": "data",
          "type": "bytes"
        }
      ],
      "name": "safeTransferFrom",
      "outputs": [],
      "stateMutability": "nonpayable",
      "type": "function"
    },
    {
      "inputs": [
        {
          "internalType": "address",
          "name": "operator",
          "type": "address"
        },
        {
          "internalType": "bool",
          "name": "approved",
          "type": "bool"
        }
      ],
      "name": "setApprovalForAll",
      "outputs": [],
      "stateMutability": "nonpayable",
      "type": "function"
    },
    {
      "inputs": [
        {
          "internalType": "string",
          "name": "newRoot",
          "type": "string"
        },
        {
          "internalType": "address",
          "name": "store",
          "type": "address"
        }
      ],
      "name": "setCustomURIRoot",
      "outputs": [],
      "stateMutability": "nonpayable",
      "type": "function"
    },
    {
      "inputs": [
        {
          "internalType": "address payable",
          "name": "newOwner",
          "type": "address"
        }
      ],
      "name": "setOwner",
      "outputs": [],
      "stateMutability": "nonpayable",
      "type": "function"
    },
    {
      "inputs": [
        {
          "internalType": "address",
          "name": "_merchantManagerAddress",
          "type": "address"
        }
      ],
      "name": "setPromotionsManager",
      "outputs": [],
      "stateMutability": "nonpayable",
      "type": "function"
    },
    {
      "inputs": [
        {
          "internalType": "uint16",
          "name": "basisPoints",
          "type": "uint16"
        },
        {
          "internalType": "address",
          "name": "store",
          "type": "address"
        }
      ],
      "name": "setRoyalty",
      "outputs": [],
      "stateMutability": "nonpayable",
      "type": "function"
    },
    {
      "inputs": [
        {
          "internalType": "bytes4",
          "name": "interfaceId",
          "type": "bytes4"
        }
      ],
      "name": "supportsInterface",
      "outputs": [
        {
          "internalType": "bool",
          "name": "",
          "type": "bool"
        }
      ],
      "stateMutability": "view",
      "type": "function"
    },
    {
      "inputs": [],
      "name": "symbol",
      "outputs": [
        {
          "internalType": "string",
          "name": "",
          "type": "string"
        }
      ],
      "stateMutability": "view",
      "type": "function"
    },
    {
      "inputs": [
        {
          "internalType": "uint256",
          "name": "tokenID",
          "type": "uint256"
        }
      ],
      "name": "tokenURI",
      "outputs": [
        {
          "internalType": "string",
          "name": "",
          "type": "string"
        }
      ],
      "stateMutability": "view",
      "type": "function"
    },
    {
      "inputs": [
        {
          "internalType": "address",
          "name": "from",
          "type": "address"
        },
        {
          "internalType": "address",
          "name": "to",
          "type": "address"
        },
        {
          "internalType": "uint256",
          "name": "tokenId",
          "type": "uint256"
        }
      ],
      "name": "transferFrom",
      "outputs": [],
      "stateMutability": "nonpayable",
      "type": "function"
    }
  ],
  "transactionHash": "0x560340a47a794de19e315c810dfb9d9a5a23a00a56989fd6aa733274a53ba883",
  "args": [],
  "numDeployments": 1,
  "solcInputHash": "8189e57a09356806dcc9d43da62e3641",
  "bytecode": "0x60806040526000600b60006101000a81548160ff0219169083151502179055506040518060400160405280600b81526020017f616d617a6f6e2e636f6d2f000000000000000000000000000000000000000000815250600d9081620000659190620003c7565b503480156200007357600080fd5b506040518060400160405280600981526020017f49534f546f6b656e7300000000000000000000000000000000000000000000008152506040518060400160405280600381526020017f49534f00000000000000000000000000000000000000000000000000000000008152508160009081620000f19190620003c7565b508060019081620001039190620003c7565b50505033600660006101000a81548173ffffffffffffffffffffffffffffffffffffffff021916908373ffffffffffffffffffffffffffffffffffffffff160217905550620004ae565b600081519050919050565b7f4e487b7100000000000000000000000000000000000000000000000000000000600052604160045260246000fd5b7f4e487b7100000000000000000000000000000000000000000000000000000000600052602260045260246000fd5b60006002820490506001821680620001cf57607f821691505b602082108103620001e557620001e462000187565b5b50919050565b60008190508160005260206000209050919050565b60006020601f8301049050919050565b600082821b905092915050565b6000600883026200024f7fffffffffffffffffffffffffffffffffffffffffffffffffffffffffffffffff8262000210565b6200025b868362000210565b95508019841693508086168417925050509392505050565b6000819050919050565b6000819050919050565b6000620002a8620002a26200029c8462000273565b6200027d565b62000273565b9050919050565b6000819050919050565b620002c48362000287565b620002dc620002d382620002af565b8484546200021d565b825550505050565b600090565b620002f3620002e4565b62000300818484620002b9565b505050565b5b8181101562000328576200031c600082620002e9565b60018101905062000306565b5050565b601f82111562000377576200034181620001eb565b6200034c8462000200565b810160208510156200035c578190505b620003746200036b8562000200565b83018262000305565b50505b505050565b600082821c905092915050565b60006200039c600019846008026200037c565b1980831691505092915050565b6000620003b7838362000389565b9150826002028217905092915050565b620003d2826200014d565b67ffffffffffffffff811115620003ee57620003ed62000158565b5b620003fa8254620001b6565b620004078282856200032c565b600060209050601f8311600181146200043f57600084156200042a578287015190505b620004368582620003a9565b865550620004a6565b601f1984166200044f86620001eb565b60005b82811015620004795784890151825560018201915060208501945060208101905062000452565b8683101562000499578489015162000495601f89168262000389565b8355505b6001600288020188555050505b505050505050565b6151ee80620004be6000396000f3fe608060405234801561001057600080fd5b50600436106102265760003560e01c806378ac640111610130578063ba35d804116100b8578063e3d904a01161007c578063e3d904a0146106ad578063e76c66c5146106cb578063e985e9c5146106e7578063ecf017c514610717578063f7dbfa531461073557610226565b8063ba35d804146105f7578063ba71a67a14610627578063c87b56dd14610643578063ce606ee014610673578063d2bf5aa51461069157610226565b8063a22cb465116100ff578063a22cb46514610557578063ab5cb85a14610573578063ac0cd2fe1461058f578063b567d2fb146105bf578063b88d4fde146105db57610226565b806378ac6401146104b75780638235bb2a146104d557806395d651551461050957806395d89b411461053957610226565b80633bce3ca1116101b3578063489044071161018257806348904407146103ec5780635bf77a5a1461041d5780635c7eced7146104395780636352211e1461045757806370a082311461048757610226565b80633bce3ca11461037a5780633c03d50c1461039657806342842e0e146103a0578063444e4488146103bc57610226565b8063081812fc116101fa578063081812fc146102c5578063095ea7b3146102f557806313af40351461031157806323b872dd1461032d5780632a55205a1461034957610226565b80628d4b571461022b57806301ffc9a71461025b5780630608bdf81461028b57806306fdde03146102a7575b600080fd5b61024560048036038101906102409190613861565b610751565b60405161025291906138b0565b60405180910390f35b61027560048036038101906102709190613923565b610782565b604051610282919061396b565b60405180910390f35b6102a560048036038101906102a091906139c0565b610794565b005b6102af61090f565b6040516102bc9190613a90565b60405180910390f35b6102df60048036038101906102da9190613ab2565b6109a1565b6040516102ec9190613aee565b60405180910390f35b61030f600480360381019061030a9190613861565b6109bd565b005b61032b60048036038101906103269190613b47565b6109d3565b005b61034760048036038101906103429190613b74565b610aa7565b005b610363600480360381019061035e9190613bc7565b610ba9565b604051610371929190613c07565b60405180910390f35b610394600480360381019061038f9190613861565b610c82565b005b61039e61106f565b005b6103ba60048036038101906103b59190613b74565b61111c565b005b6103d660048036038101906103d19190613c30565b61113c565b6040516103e39190613c6c565b60405180910390f35b61040660048036038101906104019190613ab2565b61115d565b604051610414929190613c07565b60405180910390f35b61043760048036038101906104329190613c30565b6111a1565b005b6104416113f7565b60405161044e9190613a90565b60405180910390f35b610471600480360381019061046c9190613ab2565b611485565b60405161047e9190613aee565b60405180910390f35b6104a1600480360381019061049c9190613c30565b611497565b6040516104ae91906138b0565b60405180910390f35b6104bf611551565b6040516104cc9190613ce6565b60405180910390f35b6104ef60048036038101906104ea9190613c30565b611577565b604051610500959493929190613d01565b60405180910390f35b610523600480360381019061051e9190613ab2565b6115cd565b6040516105309190613aee565b60405180910390f35b61054161160c565b60405161054e9190613a90565b60405180910390f35b610571600480360381019061056c9190613d80565b61169e565b005b61058d60048036038101906105889190613c30565b6116b4565b005b6105a960048036038101906105a49190613c30565b6118e9565b6040516105b69190613a90565b60405180910390f35b6105d960048036038101906105d49190613e7b565b611989565b005b6105f560048036038101906105f0919061402c565b611cac565b005b610611600480360381019061060c9190613c30565b611cc9565b60405161061e9190613aee565b60405180910390f35b610641600480360381019061063c91906140af565b611cfc565b005b61065d60048036038101906106589190613ab2565b611ea5565b60405161066a9190613a90565b60405180910390f35b61067b6120b1565b6040516106889190613aee565b60405180910390f35b6106ab60048036038101906106a6919061416c565b6120d7565b005b6106b561228d565b6040516106c29190613aee565b60405180910390f35b6106e560048036038101906106e091906141cc565b6122b3565b005b61070160048036038101906106fc9190614259565b61283a565b60405161070e919061396b565b60405180910390f35b61071f6128ce565b60405161072c9190614357565b60405180910390f35b61074f600480360381019061074a9190613c30565b61295c565b005b6008602052816000526040600020818154811061076d57600080fd5b90600052602060002001600091509150505481565b600061078d82612a71565b9050919050565b600b60019054906101000a900473ffffffffffffffffffffffffffffffffffffffff1673ffffffffffffffffffffffffffffffffffffffff16631a17945133836040518363ffffffff1660e01b81526004016107f1929190614379565b602060405180830381865afa15801561080e573d6000803e3d6000fd5b505050506040513d601f19601f8201168201806040525081019061083291906143b7565b610868576040517fc19f17a900000000000000000000000000000000000000000000000000000000815260040160405180910390fd5b6127108261ffff1611156108b1576040517f08c379a00000000000000000000000000000000000000000000000000000000081526004016108a890614430565b60405180910390fd5b81601060008373ffffffffffffffffffffffffffffffffffffffff1673ffffffffffffffffffffffffffffffffffffffff16815260200190815260200160002060006101000a81548161ffff021916908361ffff1602179055505050565b60606000805461091e9061447f565b80601f016020809104026020016040519081016040528092919081815260200182805461094a9061447f565b80156109975780601f1061096c57610100808354040283529160200191610997565b820191906000526020600020905b81548152906001019060200180831161097a57829003601f168201915b5050505050905090565b60006109ac82612b53565b506109b682612bdb565b9050919050565b6109cf82826109ca612c18565b612c20565b5050565b600660009054906101000a900473ffffffffffffffffffffffffffffffffffffffff1673ffffffffffffffffffffffffffffffffffffffff163373ffffffffffffffffffffffffffffffffffffffff1614610a63576040517f08c379a0000000000000000000000000000000000000000000000000000000008152600401610a5a906144fc565b60405180910390fd5b80600660006101000a81548173ffffffffffffffffffffffffffffffffffffffff021916908373ffffffffffffffffffffffffffffffffffffffff16021790555050565b600073ffffffffffffffffffffffffffffffffffffffff168273ffffffffffffffffffffffffffffffffffffffff1603610b195760006040517f64a0ae92000000000000000000000000000000000000000000000000000000008152600401610b109190613aee565b60405180910390fd5b6000610b2d8383610b28612c18565b612c32565b90508373ffffffffffffffffffffffffffffffffffffffff168173ffffffffffffffffffffffffffffffffffffffff1614610ba3578382826040517f64283d7b000000000000000000000000000000000000000000000000000000008152600401610b9a9392919061451c565b60405180910390fd5b50505050565b6000806000600960008681526020019081526020016000209050612710601060008360000160009054906101000a900473ffffffffffffffffffffffffffffffffffffffff1673ffffffffffffffffffffffffffffffffffffffff1673ffffffffffffffffffffffffffffffffffffffff16815260200190815260200160002060009054906101000a900461ffff1661ffff1685610c479190614582565b610c5191906145f3565b91508060000160009054906101000a900473ffffffffffffffffffffffffffffffffffffffff169250509250929050565b60011515600b60009054906101000a900460ff16151514610cd8576040517f08c379a0000000000000000000000000000000000000000000000000000000008152600401610ccf90614670565b60405180910390fd5b6000600760008473ffffffffffffffffffffffffffffffffffffffff1673ffffffffffffffffffffffffffffffffffffffff16815260200190815260200160002090506000816000015411610d62576040517f08c379a0000000000000000000000000000000000000000000000000000000008152600401610d59906146dc565b60405180910390fd5b60008211610da5576040517f08c379a0000000000000000000000000000000000000000000000000000000008152600401610d9c90614748565b60405180910390fd5b8060000154828260030154610dba9190614768565b1115610dd75780600301548160000154610dd4919061479c565b91505b6000816002015483610de99190614582565b905082826002015482610dfc91906145f3565b14610e3c576040517f08c379a0000000000000000000000000000000000000000000000000000000008152600401610e339061481c565b60405180910390fd5b8160050160009054906101000a900473ffffffffffffffffffffffffffffffffffffffff1673ffffffffffffffffffffffffffffffffffffffff166323b872dd3386846040518463ffffffff1660e01b8152600401610e9d9392919061483c565b6020604051808303816000875af1158015610ebc573d6000803e3d6000fd5b505050506040513d601f19601f82011682018060405250810190610ee091906143b7565b506000600a54905060005b848110156110335760008183610f019190614768565b9050610f0d3382612e4c565b600860008873ffffffffffffffffffffffffffffffffffffffff1673ffffffffffffffffffffffffffffffffffffffff168152602001908152602001600020819080600181540180825580915050600190039060005260206000200160009091909190915055600860008873ffffffffffffffffffffffffffffffffffffffff1673ffffffffffffffffffffffffffffffffffffffff168152602001908152602001600020805490506009600083815260200190815260200160002060010181905550866009600083815260200190815260200160002060000160006101000a81548173ffffffffffffffffffffffffffffffffffffffff021916908373ffffffffffffffffffffffffffffffffffffffff160217905550508080600101915050610eeb565b5083600a60008282546110469190614768565b92505081905550838360030160008282546110619190614768565b925050819055505050505050565b600660009054906101000a900473ffffffffffffffffffffffffffffffffffffffff1673ffffffffffffffffffffffffffffffffffffffff163373ffffffffffffffffffffffffffffffffffffffff16146110ff576040517f08c379a00000000000000000000000000000000000000000000000000000000081526004016110f6906144fc565b60405180910390fd5b6001600b60006101000a81548160ff021916908315150217905550565b61113783838360405180602001604052806000815250611cac565b505050565b60106020528060005260406000206000915054906101000a900461ffff1681565b60096020528060005260406000206000915090508060000160009054906101000a900473ffffffffffffffffffffffffffffffffffffffff16908060010154905082565b600660009054906101000a900473ffffffffffffffffffffffffffffffffffffffff1673ffffffffffffffffffffffffffffffffffffffff163373ffffffffffffffffffffffffffffffffffffffff1614611231576040517f08c379a0000000000000000000000000000000000000000000000000000000008152600401611228906144fc565b60405180910390fd5b60005b6011805490508110156113b8578173ffffffffffffffffffffffffffffffffffffffff166011828154811061126c5761126b614873565b5b9060005260206000200160009054906101000a900473ffffffffffffffffffffffffffffffffffffffff1673ffffffffffffffffffffffffffffffffffffffff16036113ab57601160016011805490506112c6919061479c565b815481106112d7576112d6614873565b5b9060005260206000200160009054906101000a900473ffffffffffffffffffffffffffffffffffffffff166011828154811061131657611315614873565b5b9060005260206000200160006101000a81548173ffffffffffffffffffffffffffffffffffffffff021916908373ffffffffffffffffffffffffffffffffffffffff16021790555060118054806113705761136f6148a2565b5b6001900381819060005260206000200160006101000a81549073ffffffffffffffffffffffffffffffffffffffff02191690559055506113f4565b8080600101915050611234565b506040517f08c379a00000000000000000000000000000000000000000000000000000000081526004016113eb90614943565b60405180910390fd5b50565b600d80546114049061447f565b80601f01602080910402602001604051908101604052809291908181526020018280546114309061447f565b801561147d5780601f106114525761010080835404028352916020019161147d565b820191906000526020600020905b81548152906001019060200180831161146057829003601f168201915b505050505081565b600061149082612b53565b9050919050565b60008073ffffffffffffffffffffffffffffffffffffffff168273ffffffffffffffffffffffffffffffffffffffff160361150a5760006040517f89c62b640000000000000000000000000000000000000000000000000000000081526004016115019190613aee565b60405180910390fd5b600360008373ffffffffffffffffffffffffffffffffffffffff1673ffffffffffffffffffffffffffffffffffffffff168152602001908152602001600020549050919050565b600b60019054906101000a900473ffffffffffffffffffffffffffffffffffffffff1681565b60076020528060005260406000206000915090508060000154908060010154908060020154908060030154908060050160009054906101000a900473ffffffffffffffffffffffffffffffffffffffff16905085565b601181815481106115dd57600080fd5b906000526020600020016000915054906101000a900473ffffffffffffffffffffffffffffffffffffffff1681565b60606001805461161b9061447f565b80601f01602080910402602001604051908101604052809291908181526020018280546116479061447f565b80156116945780601f1061166957610100808354040283529160200191611694565b820191906000526020600020905b81548152906001019060200180831161167757829003601f168201915b5050505050905090565b6116b06116a9612c18565b8383612f45565b5050565b600660009054906101000a900473ffffffffffffffffffffffffffffffffffffffff1673ffffffffffffffffffffffffffffffffffffffff163373ffffffffffffffffffffffffffffffffffffffff1614611744576040517f08c379a000000000000000000000000000000000000000000000000000000000815260040161173b906144fc565b60405180910390fd5b600073ffffffffffffffffffffffffffffffffffffffff168173ffffffffffffffffffffffffffffffffffffffff16036117b3576040517f08c379a00000000000000000000000000000000000000000000000000000000081526004016117aa906149af565b60405180910390fd5b6000601180549050905060005b81811015611881578273ffffffffffffffffffffffffffffffffffffffff16601182815481106117f3576117f2614873565b5b9060005260206000200160009054906101000a900473ffffffffffffffffffffffffffffffffffffffff1673ffffffffffffffffffffffffffffffffffffffff1603611874576040517f08c379a000000000000000000000000000000000000000000000000000000000815260040161186b90614a1b565b60405180910390fd5b80806001019150506117c0565b506011829080600181540180825580915050600190039060005260206000200160009091909190916101000a81548173ffffffffffffffffffffffffffffffffffffffff021916908373ffffffffffffffffffffffffffffffffffffffff1602179055505050565b600e60205280600052604060002060009150905080546119089061447f565b80601f01602080910402602001604051908101604052809291908181526020018280546119349061447f565b80156119815780601f1061195657610100808354040283529160200191611981565b820191906000526020600020905b81548152906001019060200180831161196457829003601f168201915b505050505081565b60005b84849050811015611ca55760008585838181106119ac576119ab614873565b5b9050602002013590503373ffffffffffffffffffffffffffffffffffffffff166119d582611485565b73ffffffffffffffffffffffffffffffffffffffff1614611a2b576040517f08c379a0000000000000000000000000000000000000000000000000000000008152600401611a2290614a87565b60405180910390fd5b60006009600083815260200190815260200160002090506000600760008360000160009054906101000a900473ffffffffffffffffffffffffffffffffffffffff1673ffffffffffffffffffffffffffffffffffffffff1673ffffffffffffffffffffffffffffffffffffffff168152602001908152602001600020905060005b86869050811015611c94576000878783818110611acc57611acb614873565b5b9050602002016020810190611ae19190613c30565b905060008460020160008373ffffffffffffffffffffffffffffffffffffffff1673ffffffffffffffffffffffffffffffffffffffff168152602001908152602001600020548460040160008473ffffffffffffffffffffffffffffffffffffffff1673ffffffffffffffffffffffffffffffffffffffff16815260200190815260200160002054611b73919061479c565b90506000811115611c85578173ffffffffffffffffffffffffffffffffffffffff1663a9059cbb33836040518363ffffffff1660e01b8152600401611bb9929190613c07565b6020604051808303816000875af1158015611bd8573d6000803e3d6000fd5b505050506040513d601f19601f82011682018060405250810190611bfc91906143b7565b508360040160008373ffffffffffffffffffffffffffffffffffffffff1673ffffffffffffffffffffffffffffffffffffffff168152602001908152602001600020548560020160008473ffffffffffffffffffffffffffffffffffffffff1673ffffffffffffffffffffffffffffffffffffffff168152602001908152602001600020819055505b50508080600101915050611aac565b50505050808060010191505061198c565b5050505050565b611cb7848484610aa7565b611cc3848484846130b4565b50505050565b600f6020528060005260406000206000915054906101000a900473ffffffffffffffffffffffffffffffffffffffff1681565b60011515600b60009054906101000a900460ff16151514611d52576040517f08c379a0000000000000000000000000000000000000000000000000000000008152600401611d4990614670565b60405180910390fd5b6000600760003373ffffffffffffffffffffffffffffffffffffffff1673ffffffffffffffffffffffffffffffffffffffff1681526020019081526020016000206000015414611dd7576040517f08c379a0000000000000000000000000000000000000000000000000000000008152600401611dce90614af3565b60405180910390fd5b600084118015611df457506127108385611df19190614582565b11155b611dfd57600080fd5b6000600760003373ffffffffffffffffffffffffffffffffffffffff1673ffffffffffffffffffffffffffffffffffffffff1681526020019081526020016000209050848160000181905550838160010181905550828160020181905550818160050160006101000a81548173ffffffffffffffffffffffffffffffffffffffff021916908373ffffffffffffffffffffffffffffffffffffffff1602179055505050505050565b60606000600960008481526020019081526020016000209050600073ffffffffffffffffffffffffffffffffffffffff168160000160009054906101000a900473ffffffffffffffffffffffffffffffffffffffff1673ffffffffffffffffffffffffffffffffffffffff1603611f48576040517fceea21b600000000000000000000000000000000000000000000000000000000815260040160405180910390fd5b6000600e60008360000160009054906101000a900473ffffffffffffffffffffffffffffffffffffffff1673ffffffffffffffffffffffffffffffffffffffff1673ffffffffffffffffffffffffffffffffffffffff1681526020019081526020016000208054611fb89061447f565b80601f0160208091040260200160405190810160405280929190818152602001828054611fe49061447f565b80156120315780601f1061200657610100808354040283529160200191612031565b820191906000526020600020905b81548152906001019060200180831161201457829003601f168201915b50505050509050600081510361207957600d612050836001015461326b565b604051602001612061929190614c7f565b604051602081830303815290604052925050506120ac565b80612087836001015461326b565b604051602001612098929190614cb9565b604051602081830303815290604052925050505b919050565b600660009054906101000a900473ffffffffffffffffffffffffffffffffffffffff1681565b600b60019054906101000a900473ffffffffffffffffffffffffffffffffffffffff1673ffffffffffffffffffffffffffffffffffffffff16631a17945133836040518363ffffffff1660e01b8152600401612134929190614379565b602060405180830381865afa158015612151573d6000803e3d6000fd5b505050506040513d601f19601f8201168201806040525081019061217591906143b7565b6121ab576040517fc19f17a900000000000000000000000000000000000000000000000000000000815260040160405180910390fd5b6000600e60008373ffffffffffffffffffffffffffffffffffffffff1673ffffffffffffffffffffffffffffffffffffffff16815260200190815260200160002080546121f79061447f565b905014612239576040517f08c379a000000000000000000000000000000000000000000000000000000000815260040161223090614d3f565b60405180910390fd5b8282600e60008473ffffffffffffffffffffffffffffffffffffffff1673ffffffffffffffffffffffffffffffffffffffff1681526020019081526020016000209182612287929190614ef7565b50505050565b600c60009054906101000a900473ffffffffffffffffffffffffffffffffffffffff1681565b6000805b60118054905081101561234b573373ffffffffffffffffffffffffffffffffffffffff16601182815481106122ef576122ee614873565b5b9060005260206000200160009054906101000a900473ffffffffffffffffffffffffffffffffffffffff1673ffffffffffffffffffffffffffffffffffffffff160361233e576001915061234b565b80806001019150506122b7565b508061238c576040517f08c379a000000000000000000000000000000000000000000000000000000000815260040161238390615013565b60405180910390fd5b6000600760008973ffffffffffffffffffffffffffffffffffffffff1673ffffffffffffffffffffffffffffffffffffffff1681526020019081526020016000206000015414806123ea5750600b60009054906101000a900460ff16155b15612501578273ffffffffffffffffffffffffffffffffffffffff166323b872dd8389896040518463ffffffff1660e01b815260040161242c9392919061483c565b6020604051808303816000875af115801561244b573d6000803e3d6000fd5b505050506040513d601f19601f8201168201806040525081019061246f91906143b7565b508273ffffffffffffffffffffffffffffffffffffffff166323b872dd8333878961249a9190614768565b6040518463ffffffff1660e01b81526004016124b89392919061483c565b6020604051808303816000875af11580156124d7573d6000803e3d6000fd5b505050506040513d601f19601f820116820180604052508101906124fb91906143b7565b50612831565b6000612710600760008a73ffffffffffffffffffffffffffffffffffffffff1673ffffffffffffffffffffffffffffffffffffffff16815260200190815260200160002060010154886125549190614582565b61255e91906145f3565b90506000600760008a73ffffffffffffffffffffffffffffffffffffffff1673ffffffffffffffffffffffffffffffffffffffff16815260200190815260200160002060000154826125b09190614582565b886125bb919061479c565b90508473ffffffffffffffffffffffffffffffffffffffff166323b872dd858b846040518463ffffffff1660e01b81526004016125fa9392919061483c565b6020604051808303816000875af1158015612619573d6000803e3d6000fd5b505050506040513d601f19601f8201168201806040525081019061263d91906143b7565b508473ffffffffffffffffffffffffffffffffffffffff166323b872dd8530600760008e73ffffffffffffffffffffffffffffffffffffffff1673ffffffffffffffffffffffffffffffffffffffff16815260200190815260200160002060000154866126aa9190614582565b6040518463ffffffff1660e01b81526004016126c89392919061483c565b6020604051808303816000875af11580156126e7573d6000803e3d6000fd5b505050506040513d601f19601f8201168201806040525081019061270b91906143b7565b508473ffffffffffffffffffffffffffffffffffffffff166323b872dd85338a8a6127369190614768565b6040518463ffffffff1660e01b81526004016127549392919061483c565b6020604051808303816000875af1158015612773573d6000803e3d6000fd5b505050506040513d601f19601f8201168201806040525081019061279791906143b7565b5081600760008b73ffffffffffffffffffffffffffffffffffffffff1673ffffffffffffffffffffffffffffffffffffffff16815260200190815260200160002060040160008773ffffffffffffffffffffffffffffffffffffffff1673ffffffffffffffffffffffffffffffffffffffff16815260200190815260200160002060008282546128279190614768565b9250508190555050505b50505050505050565b6000600560008473ffffffffffffffffffffffffffffffffffffffff1673ffffffffffffffffffffffffffffffffffffffff16815260200190815260200160002060008373ffffffffffffffffffffffffffffffffffffffff1673ffffffffffffffffffffffffffffffffffffffff16815260200190815260200160002060009054906101000a900460ff16905092915050565b6060601180548060200260200160405190810160405280929190818152602001828054801561295257602002820191906000526020600020905b8160009054906101000a900473ffffffffffffffffffffffffffffffffffffffff1673ffffffffffffffffffffffffffffffffffffffff1681526020019060010190808311612908575b5050505050905090565b600660009054906101000a900473ffffffffffffffffffffffffffffffffffffffff1673ffffffffffffffffffffffffffffffffffffffff163373ffffffffffffffffffffffffffffffffffffffff16146129ec576040517f08c379a00000000000000000000000000000000000000000000000000000000081526004016129e3906144fc565b60405180910390fd5b80600c60006101000a81548173ffffffffffffffffffffffffffffffffffffffff021916908373ffffffffffffffffffffffffffffffffffffffff16021790555080600b60016101000a81548173ffffffffffffffffffffffffffffffffffffffff021916908373ffffffffffffffffffffffffffffffffffffffff16021790555050565b60007f80ac58cd000000000000000000000000000000000000000000000000000000007bffffffffffffffffffffffffffffffffffffffffffffffffffffffff1916827bffffffffffffffffffffffffffffffffffffffffffffffffffffffff19161480612b3c57507f5b5e139f000000000000000000000000000000000000000000000000000000007bffffffffffffffffffffffffffffffffffffffffffffffffffffffff1916827bffffffffffffffffffffffffffffffffffffffffffffffffffffffff1916145b80612b4c5750612b4b826133c8565b5b9050919050565b600080612b5f83613432565b9050600073ffffffffffffffffffffffffffffffffffffffff168173ffffffffffffffffffffffffffffffffffffffff1603612bd257826040517f7e273289000000000000000000000000000000000000000000000000000000008152600401612bc991906138b0565b60405180910390fd5b80915050919050565b60006004600083815260200190815260200160002060009054906101000a900473ffffffffffffffffffffffffffffffffffffffff169050919050565b600033905090565b612c2d838383600161346f565b505050565b600080612c3e84613432565b9050600073ffffffffffffffffffffffffffffffffffffffff168373ffffffffffffffffffffffffffffffffffffffff1614612c8057612c7f818486613634565b5b600073ffffffffffffffffffffffffffffffffffffffff168173ffffffffffffffffffffffffffffffffffffffff1614612d1157612cc260008560008061346f565b6001600360008373ffffffffffffffffffffffffffffffffffffffff1673ffffffffffffffffffffffffffffffffffffffff168152602001908152602001600020600082825403925050819055505b600073ffffffffffffffffffffffffffffffffffffffff168573ffffffffffffffffffffffffffffffffffffffff1614612d94576001600360008773ffffffffffffffffffffffffffffffffffffffff1673ffffffffffffffffffffffffffffffffffffffff168152602001908152602001600020600082825401925050819055505b846002600086815260200190815260200160002060006101000a81548173ffffffffffffffffffffffffffffffffffffffff021916908373ffffffffffffffffffffffffffffffffffffffff160217905550838573ffffffffffffffffffffffffffffffffffffffff168273ffffffffffffffffffffffffffffffffffffffff167fddf252ad1be2c89b69c2b068fc378daa952ba7f163c4a11628f55a4df523b3ef60405160405180910390a4809150509392505050565b600073ffffffffffffffffffffffffffffffffffffffff168273ffffffffffffffffffffffffffffffffffffffff1603612ebe5760006040517f64a0ae92000000000000000000000000000000000000000000000000000000008152600401612eb59190613aee565b60405180910390fd5b6000612ecc83836000612c32565b9050600073ffffffffffffffffffffffffffffffffffffffff168173ffffffffffffffffffffffffffffffffffffffff1614612f405760006040517f73c6ac6e000000000000000000000000000000000000000000000000000000008152600401612f379190613aee565b60405180910390fd5b505050565b600073ffffffffffffffffffffffffffffffffffffffff168273ffffffffffffffffffffffffffffffffffffffff1603612fb657816040517f5b08ba18000000000000000000000000000000000000000000000000000000008152600401612fad9190613aee565b60405180910390fd5b80600560008573ffffffffffffffffffffffffffffffffffffffff1673ffffffffffffffffffffffffffffffffffffffff16815260200190815260200160002060008473ffffffffffffffffffffffffffffffffffffffff1673ffffffffffffffffffffffffffffffffffffffff16815260200190815260200160002060006101000a81548160ff0219169083151502179055508173ffffffffffffffffffffffffffffffffffffffff168373ffffffffffffffffffffffffffffffffffffffff167f17307eab39ab6107e8899845ad3d59bd9653f200f220920489ca2b5937696c31836040516130a7919061396b565b60405180910390a3505050565b60008373ffffffffffffffffffffffffffffffffffffffff163b1115613265578273ffffffffffffffffffffffffffffffffffffffff1663150b7a026130f8612c18565b8685856040518563ffffffff1660e01b815260040161311a9493929190615088565b6020604051808303816000875af192505050801561315657506040513d601f19601f8201168201806040525081019061315391906150e9565b60015b6131da573d8060008114613186576040519150601f19603f3d011682016040523d82523d6000602084013e61318b565b606091505b5060008151036131d257836040517f64a0ae920000000000000000000000000000000000000000000000000000000081526004016131c99190613aee565b60405180910390fd5b805181602001fd5b63150b7a0260e01b7bffffffffffffffffffffffffffffffffffffffffffffffffffffffff1916817bffffffffffffffffffffffffffffffffffffffffffffffffffffffff19161461326357836040517f64a0ae9200000000000000000000000000000000000000000000000000000000815260040161325a9190613aee565b60405180910390fd5b505b50505050565b6060600082036132b2576040518060400160405280600181526020017f300000000000000000000000000000000000000000000000000000000000000081525090506133c3565b600082905060005b600082146132e45780806132cd90615116565b915050600a826132dd91906145f3565b91506132ba565b60008167ffffffffffffffff811115613300576132ff613f01565b5b6040519080825280601f01601f1916602001820160405280156133325781602001600182028036833780820191505090505b5090505b600085146133bc57600a8561334b919061515e565b60306133579190614768565b60f81b81836133659061518f565b9350838151811061337957613378614873565b5b60200101907effffffffffffffffffffffffffffffffffffffffffffffffffffffffffffff1916908160001a905350600a856133b591906145f3565b9450613336565b8093505050505b919050565b60007f01ffc9a7000000000000000000000000000000000000000000000000000000007bffffffffffffffffffffffffffffffffffffffffffffffffffffffff1916827bffffffffffffffffffffffffffffffffffffffffffffffffffffffff1916149050919050565b60006002600083815260200190815260200160002060009054906101000a900473ffffffffffffffffffffffffffffffffffffffff169050919050565b80806134a85750600073ffffffffffffffffffffffffffffffffffffffff168273ffffffffffffffffffffffffffffffffffffffff1614155b156135dc5760006134b884612b53565b9050600073ffffffffffffffffffffffffffffffffffffffff168373ffffffffffffffffffffffffffffffffffffffff161415801561352357508273ffffffffffffffffffffffffffffffffffffffff168173ffffffffffffffffffffffffffffffffffffffff1614155b80156135365750613534818461283a565b155b1561357857826040517fa9fbf51f00000000000000000000000000000000000000000000000000000000815260040161356f9190613aee565b60405180910390fd5b81156135da57838573ffffffffffffffffffffffffffffffffffffffff168273ffffffffffffffffffffffffffffffffffffffff167f8c5be1e5ebec7d5bd14f71427d1e84f3dd0314c0f7b2291e5b200ac8c7c3b92560405160405180910390a45b505b836004600085815260200190815260200160002060006101000a81548173ffffffffffffffffffffffffffffffffffffffff021916908373ffffffffffffffffffffffffffffffffffffffff16021790555050505050565b61363f8383836136f8565b6136f357600073ffffffffffffffffffffffffffffffffffffffff168373ffffffffffffffffffffffffffffffffffffffff16036136b457806040517f7e2732890000000000000000000000000000000000000000000000000000000081526004016136ab91906138b0565b60405180910390fd5b81816040517f177e802f0000000000000000000000000000000000000000000000000000000081526004016136ea929190613c07565b60405180910390fd5b505050565b60008073ffffffffffffffffffffffffffffffffffffffff168373ffffffffffffffffffffffffffffffffffffffff16141580156137b057508273ffffffffffffffffffffffffffffffffffffffff168473ffffffffffffffffffffffffffffffffffffffff1614806137715750613770848461283a565b5b806137af57508273ffffffffffffffffffffffffffffffffffffffff1661379783612bdb565b73ffffffffffffffffffffffffffffffffffffffff16145b5b90509392505050565b6000604051905090565b600080fd5b600080fd5b600073ffffffffffffffffffffffffffffffffffffffff82169050919050565b60006137f8826137cd565b9050919050565b613808816137ed565b811461381357600080fd5b50565b600081359050613825816137ff565b92915050565b6000819050919050565b61383e8161382b565b811461384957600080fd5b50565b60008135905061385b81613835565b92915050565b60008060408385031215613878576138776137c3565b5b600061388685828601613816565b92505060206138978582860161384c565b9150509250929050565b6138aa8161382b565b82525050565b60006020820190506138c560008301846138a1565b92915050565b60007fffffffff0000000000000000000000000000000000000000000000000000000082169050919050565b613900816138cb565b811461390b57600080fd5b50565b60008135905061391d816138f7565b92915050565b600060208284031215613939576139386137c3565b5b60006139478482850161390e565b91505092915050565b60008115159050919050565b61396581613950565b82525050565b6000602082019050613980600083018461395c565b92915050565b600061ffff82169050919050565b61399d81613986565b81146139a857600080fd5b50565b6000813590506139ba81613994565b92915050565b600080604083850312156139d7576139d66137c3565b5b60006139e5858286016139ab565b92505060206139f685828601613816565b9150509250929050565b600081519050919050565b600082825260208201905092915050565b60005b83811015613a3a578082015181840152602081019050613a1f565b60008484015250505050565b6000601f19601f8301169050919050565b6000613a6282613a00565b613a6c8185613a0b565b9350613a7c818560208601613a1c565b613a8581613a46565b840191505092915050565b60006020820190508181036000830152613aaa8184613a57565b905092915050565b600060208284031215613ac857613ac76137c3565b5b6000613ad68482850161384c565b91505092915050565b613ae8816137ed565b82525050565b6000602082019050613b036000830184613adf565b92915050565b6000613b14826137cd565b9050919050565b613b2481613b09565b8114613b2f57600080fd5b50565b600081359050613b4181613b1b565b92915050565b600060208284031215613b5d57613b5c6137c3565b5b6000613b6b84828501613b32565b91505092915050565b600080600060608486031215613b8d57613b8c6137c3565b5b6000613b9b86828701613816565b9350506020613bac86828701613816565b9250506040613bbd8682870161384c565b9150509250925092565b60008060408385031215613bde57613bdd6137c3565b5b6000613bec8582860161384c565b9250506020613bfd8582860161384c565b9150509250929050565b6000604082019050613c1c6000830185613adf565b613c2960208301846138a1565b9392505050565b600060208284031215613c4657613c456137c3565b5b6000613c5484828501613816565b91505092915050565b613c6681613986565b82525050565b6000602082019050613c816000830184613c5d565b92915050565b6000819050919050565b6000613cac613ca7613ca2846137cd565b613c87565b6137cd565b9050919050565b6000613cbe82613c91565b9050919050565b6000613cd082613cb3565b9050919050565b613ce081613cc5565b82525050565b6000602082019050613cfb6000830184613cd7565b92915050565b600060a082019050613d1660008301886138a1565b613d2360208301876138a1565b613d3060408301866138a1565b613d3d60608301856138a1565b613d4a6080830184613adf565b9695505050505050565b613d5d81613950565b8114613d6857600080fd5b50565b600081359050613d7a81613d54565b92915050565b60008060408385031215613d9757613d966137c3565b5b6000613da585828601613816565b9250506020613db685828601613d6b565b9150509250929050565b600080fd5b600080fd5b600080fd5b60008083601f840112613de557613de4613dc0565b5b8235905067ffffffffffffffff811115613e0257613e01613dc5565b5b602083019150836020820283011115613e1e57613e1d613dca565b5b9250929050565b60008083601f840112613e3b57613e3a613dc0565b5b8235905067ffffffffffffffff811115613e5857613e57613dc5565b5b602083019150836020820283011115613e7457613e73613dca565b5b9250929050565b60008060008060408587031215613e9557613e946137c3565b5b600085013567ffffffffffffffff811115613eb357613eb26137c8565b5b613ebf87828801613dcf565b9450945050602085013567ffffffffffffffff811115613ee257613ee16137c8565b5b613eee87828801613e25565b925092505092959194509250565b600080fd5b7f4e487b7100000000000000000000000000000000000000000000000000000000600052604160045260246000fd5b613f3982613a46565b810181811067ffffffffffffffff82111715613f5857613f57613f01565b5b80604052505050565b6000613f6b6137b9565b9050613f778282613f30565b919050565b600067ffffffffffffffff821115613f9757613f96613f01565b5b613fa082613a46565b9050602081019050919050565b82818337600083830152505050565b6000613fcf613fca84613f7c565b613f61565b905082815260208101848484011115613feb57613fea613efc565b5b613ff6848285613fad565b509392505050565b600082601f83011261401357614012613dc0565b5b8135614023848260208601613fbc565b91505092915050565b60008060008060808587031215614046576140456137c3565b5b600061405487828801613816565b945050602061406587828801613816565b93505060406140768782880161384c565b925050606085013567ffffffffffffffff811115614097576140966137c8565b5b6140a387828801613ffe565b91505092959194509250565b600080600080608085870312156140c9576140c86137c3565b5b60006140d78782880161384c565b94505060206140e88782880161384c565b93505060406140f98782880161384c565b925050606061410a87828801613816565b91505092959194509250565b60008083601f84011261412c5761412b613dc0565b5b8235905067ffffffffffffffff81111561414957614148613dc5565b5b60208301915083600182028301111561416557614164613dca565b5b9250929050565b600080600060408486031215614185576141846137c3565b5b600084013567ffffffffffffffff8111156141a3576141a26137c8565b5b6141af86828701614116565b935093505060206141c286828701613816565b9150509250925092565b60008060008060008060c087890312156141e9576141e86137c3565b5b60006141f789828a01613816565b965050602061420889828a0161384c565b955050604061421989828a0161384c565b945050606061422a89828a0161384c565b935050608061423b89828a01613816565b92505060a061424c89828a01613816565b9150509295509295509295565b600080604083850312156142705761426f6137c3565b5b600061427e85828601613816565b925050602061428f85828601613816565b9150509250929050565b600081519050919050565b600082825260208201905092915050565b6000819050602082019050919050565b6142ce816137ed565b82525050565b60006142e083836142c5565b60208301905092915050565b6000602082019050919050565b600061430482614299565b61430e81856142a4565b9350614319836142b5565b8060005b8381101561434a57815161433188826142d4565b975061433c836142ec565b92505060018101905061431d565b5085935050505092915050565b6000602082019050818103600083015261437181846142f9565b905092915050565b600060408201905061438e6000830185613adf565b61439b6020830184613adf565b9392505050565b6000815190506143b181613d54565b92915050565b6000602082840312156143cd576143cc6137c3565b5b60006143db848285016143a2565b91505092915050565b7f496e76616c696400000000000000000000000000000000000000000000000000600082015250565b600061441a600783613a0b565b9150614425826143e4565b602082019050919050565b600060208201905081810360008301526144498161440d565b9050919050565b7f4e487b7100000000000000000000000000000000000000000000000000000000600052602260045260246000fd5b6000600282049050600182168061449757607f821691505b6020821081036144aa576144a9614450565b5b50919050565b7f4e6f7420417574686f72697a6564000000000000000000000000000000000000600082015250565b60006144e6600e83613a0b565b91506144f1826144b0565b602082019050919050565b60006020820190508181036000830152614515816144d9565b9050919050565b60006060820190506145316000830186613adf565b61453e60208301856138a1565b61454b6040830184613adf565b949350505050565b7f4e487b7100000000000000000000000000000000000000000000000000000000600052601160045260246000fd5b600061458d8261382b565b91506145988361382b565b92508282026145a68161382b565b915082820484148315176145bd576145bc614553565b5b5092915050565b7f4e487b7100000000000000000000000000000000000000000000000000000000600052601260045260246000fd5b60006145fe8261382b565b91506146098361382b565b925082614619576146186145c4565b5b828204905092915050565b7f49534f73206e6f7420616c6c6f77656400000000000000000000000000000000600082015250565b600061465a601083613a0b565b915061466582614624565b602082019050919050565b600060208201905081810360008301526146898161464d565b9050919050565b7f49534f20646f65736e2774206578697374000000000000000000000000000000600082015250565b60006146c6601183613a0b565b91506146d182614690565b602082019050919050565b600060208201905081810360008301526146f5816146b9565b9050919050565b7f43616e6e6f742062757920302073686172657300000000000000000000000000600082015250565b6000614732601383613a0b565b915061473d826146fc565b602082019050919050565b6000602082019050818103600083015261476181614725565b9050919050565b60006147738261382b565b915061477e8361382b565b925082820190508082111561479657614795614553565b5b92915050565b60006147a78261382b565b91506147b28361382b565b92508282039050818111156147ca576147c9614553565b5b92915050565b7f4f766572666c6f77206465746563746564000000000000000000000000000000600082015250565b6000614806601183613a0b565b9150614811826147d0565b602082019050919050565b60006020820190508181036000830152614835816147f9565b9050919050565b60006060820190506148516000830186613adf565b61485e6020830185613adf565b61486b60408301846138a1565b949350505050565b7f4e487b7100000000000000000000000000000000000000000000000000000000600052603260045260246000fd5b7f4e487b7100000000000000000000000000000000000000000000000000000000600052603160045260246000fd5b7f41646472657373206e6f7420666f756e6420696e20617070726f76656420636160008201527f6c6c6572732e0000000000000000000000000000000000000000000000000000602082015250565b600061492d602683613a0b565b9150614938826148d1565b604082019050919050565b6000602082019050818103600083015261495c81614920565b9050919050565b7f43616e6e6f7420617070726f766520746865207a65726f206164647265737300600082015250565b6000614999601f83613a0b565b91506149a482614963565b602082019050919050565b600060208201905081810360008301526149c88161498c565b9050919050565b7f4164647265737320697320616c726561647920617070726f7665640000000000600082015250565b6000614a05601b83613a0b565b9150614a10826149cf565b602082019050919050565b60006020820190508181036000830152614a34816149f8565b9050919050565b7f4e6f74206f776e6572206f6620746f6b656e0000000000000000000000000000600082015250565b6000614a71601283613a0b565b9150614a7c82614a3b565b602082019050919050565b60006020820190508181036000830152614aa081614a64565b9050919050565b7f616c72656164792049534f000000000000000000000000000000000000000000600082015250565b6000614add600b83613a0b565b9150614ae882614aa7565b602082019050919050565b60006020820190508181036000830152614b0c81614ad0565b9050919050565b600081905092915050565b60008190508160005260206000209050919050565b60008154614b408161447f565b614b4a8186614b13565b94506001821660008114614b655760018114614b7a57614bad565b60ff1983168652811515820286019350614bad565b614b8385614b1e565b60005b83811015614ba557815481890152600182019150602081019050614b86565b838801955050505b50505092915050565b7f2f00000000000000000000000000000000000000000000000000000000000000600082015250565b6000614bec600183614b13565b9150614bf782614bb6565b600182019050919050565b6000614c0d82613a00565b614c178185614b13565b9350614c27818560208601613a1c565b80840191505092915050565b7f2e6a736f6e000000000000000000000000000000000000000000000000000000600082015250565b6000614c69600583614b13565b9150614c7482614c33565b600582019050919050565b6000614c8b8285614b33565b9150614c9682614bdf565b9150614ca28284614c02565b9150614cad82614c5c565b91508190509392505050565b6000614cc58285614c02565b9150614cd082614bdf565b9150614cdc8284614c02565b9150614ce782614c5c565b91508190509392505050565b7f4172656164792053657400000000000000000000000000000000000000000000600082015250565b6000614d29600a83613a0b565b9150614d3482614cf3565b602082019050919050565b60006020820190508181036000830152614d5881614d1c565b9050919050565b600082905092915050565b60006020601f8301049050919050565b600082821b905092915050565b600060088302614db77fffffffffffffffffffffffffffffffffffffffffffffffffffffffffffffffff82614d7a565b614dc18683614d7a565b95508019841693508086168417925050509392505050565b6000614df4614def614dea8461382b565b613c87565b61382b565b9050919050565b6000819050919050565b614e0e83614dd9565b614e22614e1a82614dfb565b848454614d87565b825550505050565b600090565b614e37614e2a565b614e42818484614e05565b505050565b5b81811015614e6657614e5b600082614e2f565b600181019050614e48565b5050565b601f821115614eab57614e7c81614b1e565b614e8584614d6a565b81016020851015614e94578190505b614ea8614ea085614d6a565b830182614e47565b50505b505050565b600082821c905092915050565b6000614ece60001984600802614eb0565b1980831691505092915050565b6000614ee78383614ebd565b9150826002028217905092915050565b614f018383614d5f565b67ffffffffffffffff811115614f1a57614f19613f01565b5b614f24825461447f565b614f2f828285614e6a565b6000601f831160018114614f5e5760008415614f4c578287013590505b614f568582614edb565b865550614fbe565b601f198416614f6c86614b1e565b60005b82811015614f9457848901358255600182019150602085019450602081019050614f6f565b86831015614fb15784890135614fad601f891682614ebd565b8355505b6001600288020188555050505b50505050505050565b7f4e6f7420616e20617070726f7665642063616c6c657200000000000000000000600082015250565b6000614ffd601683613a0b565b915061500882614fc7565b602082019050919050565b6000602082019050818103600083015261502c81614ff0565b9050919050565b600081519050919050565b600082825260208201905092915050565b600061505a82615033565b615064818561503e565b9350615074818560208601613a1c565b61507d81613a46565b840191505092915050565b600060808201905061509d6000830187613adf565b6150aa6020830186613adf565b6150b760408301856138a1565b81810360608301526150c9818461504f565b905095945050505050565b6000815190506150e3816138f7565b92915050565b6000602082840312156150ff576150fe6137c3565b5b600061510d848285016150d4565b91505092915050565b60006151218261382b565b91507fffffffffffffffffffffffffffffffffffffffffffffffffffffffffffffffff820361515357615152614553565b5b600182019050919050565b60006151698261382b565b91506151748361382b565b925082615184576151836145c4565b5b828206905092915050565b600061519a8261382b565b9150600082036151ad576151ac614553565b5b60018203905091905056fea2646970667358221220262ccfcc4a9f3367858ca6bc8c8719f04f247038c86d0aaf60712c85e33dca6a64736f6c63430008180033",
  "devdoc": {
    "errors": {
      "ERC721IncorrectOwner(address,uint256,address)": [
        {
          "details": "Indicates an error related to the ownership over a particular token. Used in transfers.",
          "params": {
            "owner": "Address of the current owner of a token.",
            "sender": "Address whose tokens are being transferred.",
            "tokenId": "Identifier number of a token."
          }
        }
      ],
      "ERC721InsufficientApproval(address,uint256)": [
        {
          "details": "Indicates a failure with the `operator`s approval. Used in transfers.",
          "params": {
            "operator": "Address that may be allowed to operate on tokens without being their owner.",
            "tokenId": "Identifier number of a token."
          }
        }
      ],
      "ERC721InvalidApprover(address)": [
        {
          "details": "Indicates a failure with the `approver` of a token to be approved. Used in approvals.",
          "params": {
            "approver": "Address initiating an approval operation."
          }
        }
      ],
      "ERC721InvalidOperator(address)": [
        {
          "details": "Indicates a failure with the `operator` to be approved. Used in approvals.",
          "params": {
            "operator": "Address that may be allowed to operate on tokens without being their owner."
          }
        }
      ],
      "ERC721InvalidOwner(address)": [
        {
          "details": "Indicates that an address can't be an owner. For example, `address(0)` is a forbidden owner in EIP-20. Used in balance queries.",
          "params": {
            "owner": "Address of the current owner of a token."
          }
        }
      ],
      "ERC721InvalidReceiver(address)": [
        {
          "details": "Indicates a failure with the token `receiver`. Used in transfers.",
          "params": {
            "receiver": "Address to which tokens are being transferred."
          }
        }
      ],
      "ERC721InvalidSender(address)": [
        {
          "details": "Indicates a failure with the token `sender`. Used in transfers.",
          "params": {
            "sender": "Address whose tokens are being transferred."
          }
        }
      ],
      "ERC721NonexistentToken(uint256)": [
        {
          "details": "Indicates a `tokenId` whose `owner` is the zero address.",
          "params": {
            "tokenId": "Identifier number of a token."
          }
        }
      ]
    },
    "events": {
      "Approval(address,address,uint256)": {
        "details": "Emitted when `owner` enables `approved` to manage the `tokenId` token."
      },
      "ApprovalForAll(address,address,bool)": {
        "details": "Emitted when `owner` enables or disables (`approved`) `operator` to manage all of its assets."
      },
      "Transfer(address,address,uint256)": {
        "details": "Emitted when `tokenId` token is transferred from `from` to `to`."
      }
    },
    "kind": "dev",
    "methods": {
      "approve(address,uint256)": {
        "details": "See {IERC721-approve}."
      },
      "balanceOf(address)": {
        "details": "See {IERC721-balanceOf}."
      },
      "getApproved(uint256)": {
        "details": "See {IERC721-getApproved}."
      },
      "isApprovedForAll(address,address)": {
        "details": "See {IERC721-isApprovedForAll}."
      },
      "name()": {
        "details": "See {IERC721Metadata-name}."
      },
      "ownerOf(uint256)": {
        "details": "See {IERC721-ownerOf}."
      },
      "safeTransferFrom(address,address,uint256)": {
        "details": "See {IERC721-safeTransferFrom}."
      },
      "safeTransferFrom(address,address,uint256,bytes)": {
        "details": "See {IERC721-safeTransferFrom}."
      },
      "setApprovalForAll(address,bool)": {
        "details": "See {IERC721-setApprovalForAll}."
      },
      "symbol()": {
        "details": "See {IERC721Metadata-symbol}."
      },
      "transferFrom(address,address,uint256)": {
        "details": "See {IERC721-transferFrom}."
      }
    },
    "version": 1
  },
  "userdoc": {
    "kind": "user",
    "methods": {},
    "version": 1
  },
  "storageLayout": {
    "storage": [
      {
        "astId": 772,
        "contract": "contracts/Protocol Contracts/ISOManagerv2.sol:ISOManager",
        "label": "_name",
        "offset": 0,
        "slot": "0",
        "type": "t_string_storage"
      },
      {
        "astId": 774,
        "contract": "contracts/Protocol Contracts/ISOManagerv2.sol:ISOManager",
        "label": "_symbol",
        "offset": 0,
        "slot": "1",
        "type": "t_string_storage"
      },
      {
        "astId": 778,
        "contract": "contracts/Protocol Contracts/ISOManagerv2.sol:ISOManager",
        "label": "_owners",
        "offset": 0,
        "slot": "2",
        "type": "t_mapping(t_uint256,t_address)"
      },
      {
        "astId": 782,
        "contract": "contracts/Protocol Contracts/ISOManagerv2.sol:ISOManager",
        "label": "_balances",
        "offset": 0,
        "slot": "3",
        "type": "t_mapping(t_address,t_uint256)"
      },
      {
        "astId": 786,
        "contract": "contracts/Protocol Contracts/ISOManagerv2.sol:ISOManager",
        "label": "_tokenApprovals",
        "offset": 0,
        "slot": "4",
        "type": "t_mapping(t_uint256,t_address)"
      },
      {
        "astId": 792,
        "contract": "contracts/Protocol Contracts/ISOManagerv2.sol:ISOManager",
        "label": "_operatorApprovals",
        "offset": 0,
        "slot": "5",
        "type": "t_mapping(t_address,t_mapping(t_address,t_bool))"
      },
      {
        "astId": 5186,
        "contract": "contracts/Protocol Contracts/ISOManagerv2.sol:ISOManager",
        "label": "contractOwner",
        "offset": 0,
        "slot": "6",
        "type": "t_address"
      },
      {
        "astId": 5218,
        "contract": "contracts/Protocol Contracts/ISOManagerv2.sol:ISOManager",
        "label": "ISOs",
        "offset": 0,
        "slot": "7",
        "type": "t_mapping(t_address,t_struct(ISO)5204_storage)"
      },
      {
        "astId": 5223,
        "contract": "contracts/Protocol Contracts/ISOManagerv2.sol:ISOManager",
        "label": "addressToTokenIDs",
        "offset": 0,
        "slot": "8",
        "type": "t_mapping(t_address,t_array(t_uint256)dyn_storage)"
      },
      {
        "astId": 5228,
        "contract": "contracts/Protocol Contracts/ISOManagerv2.sol:ISOManager",
        "label": "ShareContexts",
        "offset": 0,
        "slot": "9",
        "type": "t_mapping(t_uint256,t_struct(ShareContext)5213_storage)"
      },
      {
        "astId": 5230,
        "contract": "contracts/Protocol Contracts/ISOManagerv2.sol:ISOManager",
        "label": "tokenIDs",
        "offset": 0,
        "slot": "10",
        "type": "t_uint256"
      },
      {
        "astId": 5233,
        "contract": "contracts/Protocol Contracts/ISOManagerv2.sol:ISOManager",
        "label": "openISOs",
        "offset": 0,
        "slot": "11",
        "type": "t_bool"
      },
      {
        "astId": 5236,
        "contract": "contracts/Protocol Contracts/ISOManagerv2.sol:ISOManager",
        "label": "merchantManager",
        "offset": 1,
        "slot": "11",
        "type": "t_contract(IMerchantManager)9992"
      },
      {
        "astId": 5238,
        "contract": "contracts/Protocol Contracts/ISOManagerv2.sol:ISOManager",
        "label": "merchantManagerAddress",
        "offset": 0,
        "slot": "12",
        "type": "t_address"
      },
      {
        "astId": 5241,
        "contract": "contracts/Protocol Contracts/ISOManagerv2.sol:ISOManager",
        "label": "defaultURIRoot",
        "offset": 0,
        "slot": "13",
        "type": "t_string_storage"
      },
      {
        "astId": 5245,
        "contract": "contracts/Protocol Contracts/ISOManagerv2.sol:ISOManager",
        "label": "customURIRoot",
        "offset": 0,
        "slot": "14",
        "type": "t_mapping(t_address,t_string_storage)"
      },
      {
        "astId": 5249,
        "contract": "contracts/Protocol Contracts/ISOManagerv2.sol:ISOManager",
        "label": "royaltyReceiver",
        "offset": 0,
        "slot": "15",
        "type": "t_mapping(t_address,t_address)"
      },
      {
        "astId": 5253,
        "contract": "contracts/Protocol Contracts/ISOManagerv2.sol:ISOManager",
        "label": "royaltyBasisPoints",
        "offset": 0,
        "slot": "16",
        "type": "t_mapping(t_address,t_uint16)"
      },
      {
        "astId": 5256,
        "contract": "contracts/Protocol Contracts/ISOManagerv2.sol:ISOManager",
        "label": "approvedCallers",
        "offset": 0,
        "slot": "17",
        "type": "t_array(t_address)dyn_storage"
      }
    ],
    "types": {
      "t_address": {
        "encoding": "inplace",
        "label": "address",
        "numberOfBytes": "20"
      },
      "t_array(t_address)dyn_storage": {
        "base": "t_address",
        "encoding": "dynamic_array",
        "label": "address[]",
        "numberOfBytes": "32"
      },
      "t_array(t_uint256)dyn_storage": {
        "base": "t_uint256",
        "encoding": "dynamic_array",
        "label": "uint256[]",
        "numberOfBytes": "32"
      },
      "t_bool": {
        "encoding": "inplace",
        "label": "bool",
        "numberOfBytes": "1"
      },
      "t_contract(IMerchantManager)9992": {
        "encoding": "inplace",
        "label": "contract IMerchantManager",
        "numberOfBytes": "20"
      },
      "t_mapping(t_address,t_address)": {
        "encoding": "mapping",
        "key": "t_address",
        "label": "mapping(address => address)",
        "numberOfBytes": "32",
        "value": "t_address"
      },
      "t_mapping(t_address,t_array(t_uint256)dyn_storage)": {
        "encoding": "mapping",
        "key": "t_address",
        "label": "mapping(address => uint256[])",
        "numberOfBytes": "32",
        "value": "t_array(t_uint256)dyn_storage"
      },
      "t_mapping(t_address,t_bool)": {
        "encoding": "mapping",
        "key": "t_address",
        "label": "mapping(address => bool)",
        "numberOfBytes": "32",
        "value": "t_bool"
      },
      "t_mapping(t_address,t_mapping(t_address,t_bool))": {
        "encoding": "mapping",
        "key": "t_address",
        "label": "mapping(address => mapping(address => bool))",
        "numberOfBytes": "32",
        "value": "t_mapping(t_address,t_bool)"
      },
      "t_mapping(t_address,t_string_storage)": {
        "encoding": "mapping",
        "key": "t_address",
        "label": "mapping(address => string)",
        "numberOfBytes": "32",
        "value": "t_string_storage"
      },
      "t_mapping(t_address,t_struct(ISO)5204_storage)": {
        "encoding": "mapping",
        "key": "t_address",
        "label": "mapping(address => struct ISOManager.ISO)",
        "numberOfBytes": "32",
        "value": "t_struct(ISO)5204_storage"
      },
      "t_mapping(t_address,t_uint16)": {
        "encoding": "mapping",
        "key": "t_address",
        "label": "mapping(address => uint16)",
        "numberOfBytes": "32",
        "value": "t_uint16"
      },
      "t_mapping(t_address,t_uint256)": {
        "encoding": "mapping",
        "key": "t_address",
        "label": "mapping(address => uint256)",
        "numberOfBytes": "32",
        "value": "t_uint256"
      },
      "t_mapping(t_uint256,t_address)": {
        "encoding": "mapping",
        "key": "t_uint256",
        "label": "mapping(uint256 => address)",
        "numberOfBytes": "32",
        "value": "t_address"
      },
      "t_mapping(t_uint256,t_struct(ShareContext)5213_storage)": {
        "encoding": "mapping",
        "key": "t_uint256",
        "label": "mapping(uint256 => struct ISOManager.ShareContext)",
        "numberOfBytes": "32",
        "value": "t_struct(ShareContext)5213_storage"
      },
      "t_string_storage": {
        "encoding": "bytes",
        "label": "string",
        "numberOfBytes": "32"
      },
      "t_struct(ISO)5204_storage": {
        "encoding": "inplace",
        "label": "struct ISOManager.ISO",
        "members": [
          {
            "astId": 5191,
            "contract": "contracts/Protocol Contracts/ISOManagerv2.sol:ISOManager",
            "label": "numTokens",
            "offset": 0,
            "slot": "0",
            "type": "t_uint256"
          },
          {
            "astId": 5193,
            "contract": "contracts/Protocol Contracts/ISOManagerv2.sol:ISOManager",
            "label": "revShare",
            "offset": 0,
            "slot": "1",
            "type": "t_uint256"
          },
          {
            "astId": 5195,
            "contract": "contracts/Protocol Contracts/ISOManagerv2.sol:ISOManager",
            "label": "price",
            "offset": 0,
            "slot": "2",
            "type": "t_uint256"
          },
          {
            "astId": 5197,
            "contract": "contracts/Protocol Contracts/ISOManagerv2.sol:ISOManager",
            "label": "minted",
            "offset": 0,
            "slot": "3",
            "type": "t_uint256"
          },
          {
            "astId": 5201,
            "contract": "contracts/Protocol Contracts/ISOManagerv2.sol:ISOManager",
            "label": "redeemableAmounts",
            "offset": 0,
            "slot": "4",
            "type": "t_mapping(t_address,t_uint256)"
          },
          {
            "astId": 5203,
            "contract": "contracts/Protocol Contracts/ISOManagerv2.sol:ISOManager",
            "label": "erc20Token",
            "offset": 0,
            "slot": "5",
            "type": "t_address"
          }
        ],
        "numberOfBytes": "192"
      },
      "t_struct(ShareContext)5213_storage": {
        "encoding": "inplace",
        "label": "struct ISOManager.ShareContext",
        "members": [
          {
            "astId": 5206,
            "contract": "contracts/Protocol Contracts/ISOManagerv2.sol:ISOManager",
            "label": "store",
            "offset": 0,
            "slot": "0",
            "type": "t_address"
          },
          {
            "astId": 5208,
            "contract": "contracts/Protocol Contracts/ISOManagerv2.sol:ISOManager",
            "label": "shareNumber",
            "offset": 0,
            "slot": "1",
            "type": "t_uint256"
          },
          {
            "astId": 5212,
            "contract": "contracts/Protocol Contracts/ISOManagerv2.sol:ISOManager",
            "label": "redeemedAmounts",
            "offset": 0,
            "slot": "2",
            "type": "t_mapping(t_address,t_uint256)"
          }
        ],
        "numberOfBytes": "96"
      },
      "t_uint16": {
        "encoding": "inplace",
        "label": "uint16",
        "numberOfBytes": "2"
      },
      "t_uint256": {
        "encoding": "inplace",
        "label": "uint256",
        "numberOfBytes": "32"
      }
    }
  }
}