{
  "address": "0xc3e53F4d16Ae77Db1c982e75a937B9f60FE63690",
  "abi": [
    {
      "inputs": [],
      "stateMutability": "nonpayable",
      "type": "constructor"
    },
    {
      "anonymous": false,
      "inputs": [
        {
          "indexed": true,
          "internalType": "address",
          "name": "parentAccount",
          "type": "address"
        },
        {
          "indexed": true,
          "internalType": "address",
          "name": "approvedAdministrator",
          "type": "address"
        }
      ],
      "name": "AdministratorApproved",
      "type": "event"
    },
    {
      "anonymous": false,
      "inputs": [
        {
          "indexed": true,
          "internalType": "address",
          "name": "parentAccount",
          "type": "address"
        },
        {
          "indexed": true,
          "internalType": "address",
          "name": "removedAdministrator",
          "type": "address"
        }
      ],
      "name": "AdministratorRemoved",
      "type": "event"
    },
    {
      "anonymous": false,
      "inputs": [
        {
          "indexed": true,
          "internalType": "address",
          "name": "parentAccount",
          "type": "address"
        },
        {
          "indexed": true,
          "internalType": "address",
          "name": "approvedOperator",
          "type": "address"
        }
      ],
      "name": "OperatorApproved",
      "type": "event"
    },
    {
      "anonymous": false,
      "inputs": [
        {
          "indexed": true,
          "internalType": "address",
          "name": "parentAccount",
          "type": "address"
        },
        {
          "indexed": true,
          "internalType": "address",
          "name": "removedOperator",
          "type": "address"
        }
      ],
      "name": "OperatorRemoved",
      "type": "event"
    },
    {
      "anonymous": false,
      "inputs": [
        {
          "indexed": true,
          "internalType": "address",
          "name": "parentAccount",
          "type": "address"
        },
        {
          "indexed": true,
          "internalType": "address",
          "name": "erc20Token",
          "type": "address"
        },
        {
          "indexed": false,
          "internalType": "address",
          "name": "newReceiverAccount",
          "type": "address"
        }
      ],
      "name": "ReceiverAccountUpdated",
      "type": "event"
    },
    {
      "inputs": [
        {
          "internalType": "address",
          "name": "approvedAdministrator",
          "type": "address"
        },
        {
          "internalType": "bool",
          "name": "addOperator",
          "type": "bool"
        }
      ],
      "name": "approveAdministrator",
      "outputs": [],
      "stateMutability": "nonpayable",
      "type": "function"
    },
    {
      "inputs": [
        {
          "internalType": "address",
          "name": "approvedOperator",
          "type": "address"
        },
        {
          "internalType": "address",
          "name": "parentAccount",
          "type": "address"
        }
      ],
      "name": "approveOperator",
      "outputs": [],
      "stateMutability": "nonpayable",
      "type": "function"
    },
    {
      "inputs": [
        {
          "internalType": "address",
          "name": "",
          "type": "address"
        },
        {
          "internalType": "address",
          "name": "",
          "type": "address"
        }
      ],
      "name": "approvedAdministrators",
      "outputs": [
        {
          "internalType": "bool",
          "name": "",
          "type": "bool"
        }
      ],
      "stateMutability": "view",
      "type": "function"
    },
    {
      "inputs": [
        {
          "internalType": "address",
          "name": "",
          "type": "address"
        },
        {
          "internalType": "address",
          "name": "",
          "type": "address"
        }
      ],
      "name": "approvedOperators",
      "outputs": [
        {
          "internalType": "bool",
          "name": "",
          "type": "bool"
        }
      ],
      "stateMutability": "view",
      "type": "function"
    },
    {
      "inputs": [
        {
          "internalType": "address",
          "name": "",
          "type": "address"
        },
        {
          "internalType": "uint256",
          "name": "",
          "type": "uint256"
        }
      ],
      "name": "arrayOfApprovedAdministrators",
      "outputs": [
        {
          "internalType": "address",
          "name": "",
          "type": "address"
        }
      ],
      "stateMutability": "view",
      "type": "function"
    },
    {
      "inputs": [
        {
          "internalType": "address",
          "name": "",
          "type": "address"
        },
        {
          "internalType": "uint256",
          "name": "",
          "type": "uint256"
        }
      ],
      "name": "arrayOfApprovedOperators",
      "outputs": [
        {
          "internalType": "address",
          "name": "",
          "type": "address"
        }
      ],
      "stateMutability": "view",
      "type": "function"
    },
    {
      "inputs": [],
      "name": "contractOwner",
      "outputs": [
        {
          "internalType": "address",
          "name": "",
          "type": "address"
        }
      ],
      "stateMutability": "view",
      "type": "function"
    },
    {
      "inputs": [
        {
          "internalType": "address",
          "name": "masterAccount",
          "type": "address"
        }
      ],
      "name": "getApprovedAdministrators",
      "outputs": [
        {
          "internalType": "address[]",
          "name": "",
          "type": "address[]"
        }
      ],
      "stateMutability": "view",
      "type": "function"
    },
    {
      "inputs": [
        {
          "internalType": "address",
          "name": "masterAccount",
          "type": "address"
        }
      ],
      "name": "getApprovedOperators",
      "outputs": [
        {
          "internalType": "address[]",
          "name": "",
          "type": "address[]"
        }
      ],
      "stateMutability": "view",
      "type": "function"
    },
    {
      "inputs": [
        {
          "internalType": "address",
          "name": "userAddress",
          "type": "address"
        },
        {
          "internalType": "address",
          "name": "tokenAddress",
          "type": "address"
        }
      ],
      "name": "getReceiverAddress",
      "outputs": [
        {
          "internalType": "address",
          "name": "",
          "type": "address"
        }
      ],
      "stateMutability": "view",
      "type": "function"
    },
    {
      "inputs": [
        {
          "internalType": "address",
          "name": "administrator",
          "type": "address"
        },
        {
          "internalType": "address",
          "name": "parentAccount",
          "type": "address"
        }
      ],
      "name": "isApprovedAdministrator",
      "outputs": [
        {
          "internalType": "bool",
          "name": "",
          "type": "bool"
        }
      ],
      "stateMutability": "view",
      "type": "function"
    },
    {
      "inputs": [
        {
          "internalType": "address",
          "name": "operator",
          "type": "address"
        },
        {
          "internalType": "address",
          "name": "parentAccount",
          "type": "address"
        }
      ],
      "name": "isApprovedOperator",
      "outputs": [
        {
          "internalType": "bool",
          "name": "",
          "type": "bool"
        }
      ],
      "stateMutability": "view",
      "type": "function"
    },
    {
      "inputs": [
        {
          "internalType": "address",
          "name": "",
          "type": "address"
        },
        {
          "internalType": "address",
          "name": "",
          "type": "address"
        }
      ],
      "name": "receiverAccounts",
      "outputs": [
        {
          "internalType": "address",
          "name": "",
          "type": "address"
        }
      ],
      "stateMutability": "view",
      "type": "function"
    },
    {
      "inputs": [
        {
          "internalType": "address",
          "name": "toRemove",
          "type": "address"
        },
        {
          "internalType": "bool",
          "name": "removeAsOperator",
          "type": "bool"
        }
      ],
      "name": "removeAdministrator",
      "outputs": [],
      "stateMutability": "nonpayable",
      "type": "function"
    },
    {
      "inputs": [
        {
          "internalType": "address",
          "name": "toRemove",
          "type": "address"
        },
        {
          "internalType": "address",
          "name": "parentAccount",
          "type": "address"
        }
      ],
      "name": "removeOperator",
      "outputs": [],
      "stateMutability": "nonpayable",
      "type": "function"
    },
    {
      "inputs": [
        {
          "internalType": "address",
          "name": "newOwner",
          "type": "address"
        }
      ],
      "name": "setOwner",
      "outputs": [],
      "stateMutability": "nonpayable",
      "type": "function"
    },
    {
      "inputs": [
        {
          "internalType": "address",
          "name": "tokenAddress",
          "type": "address"
        },
        {
          "internalType": "address",
          "name": "receiverAddress",
          "type": "address"
        }
      ],
      "name": "updateReceiverAddress",
      "outputs": [],
      "stateMutability": "nonpayable",
      "type": "function"
    }
  ],
  "transactionHash": "0xbedb89c8263d2ac52615a01ecf90b6bbaede8eac268d447b6085d59d1f0ebde7",
  "args": [],
  "numDeployments": 1,
  "solcInputHash": "8189e57a09356806dcc9d43da62e3641",
  "bytecode": "0x608060405234801561001057600080fd5b50336000806101000a81548173ffffffffffffffffffffffffffffffffffffffff021916908373ffffffffffffffffffffffffffffffffffffffff16021790555061215c806100606000396000f3fe608060405234801561001057600080fd5b506004361061010b5760003560e01c806340b61fe9116100a25780636b3a990f116100715780636b3a990f14610300578063714a094a1461031c5780637366ad261461034c578063ce119d221461037c578063ce606ee0146103985761010b565b806340b61fe91461027c578063438e91c61461029857806364b39fbe146102b4578063676d82a4146102d05761010b565b80631a179451116100de5780631a179451146101bc57806334d82220146101ec57806338d70ed81461021c5780633ce40f941461024c5761010b565b8063039551f41461011057806309ad7f2a1461014057806312388fe41461017057806313af4035146101a0575b600080fd5b61012a60048036038101906101259190611b07565b6103b6565b6040516101379190611b56565b60405180910390f35b61015a60048036038101906101559190611b71565b610404565b6040516101679190611c5c565b60405180910390f35b61018a60048036038101906101859190611b07565b6104d1565b6040516101979190611b56565b60405180910390f35b6101ba60048036038101906101b59190611b71565b61051f565b005b6101d660048036038101906101d19190611c7e565b6105f0565b6040516101e39190611cd9565b60405180910390f35b61020660048036038101906102019190611c7e565b6106ba565b6040516102139190611cd9565b60405180910390f35b61023660048036038101906102319190611c7e565b6106e9565b6040516102439190611cd9565b60405180910390f35b61026660048036038101906102619190611c7e565b610718565b6040516102739190611cd9565b60405180910390f35b61029660048036038101906102919190611c7e565b6107e2565b005b6102b260048036038101906102ad9190611c7e565b610c62565b005b6102ce60048036038101906102c99190611d20565b61102c565b005b6102ea60048036038101906102e59190611c7e565b611309565b6040516102f79190611b56565b60405180910390f35b61031a60048036038101906103159190611d20565b61134b565b005b61033660048036038101906103319190611b71565b61176f565b6040516103439190611c5c565b60405180910390f35b61036660048036038101906103619190611c7e565b61183c565b6040516103739190611b56565b60405180910390f35b61039660048036038101906103919190611c7e565b611926565b005b6103a0611a4a565b6040516103ad9190611b56565b60405180910390f35b600260205281600052604060002081815481106103d257600080fd5b906000526020600020016000915091509054906101000a900473ffffffffffffffffffffffffffffffffffffffff1681565b6060600460008373ffffffffffffffffffffffffffffffffffffffff1673ffffffffffffffffffffffffffffffffffffffff1681526020019081526020016000208054806020026020016040519081016040528092919081815260200182805480156104c557602002820191906000526020600020905b8160009054906101000a900473ffffffffffffffffffffffffffffffffffffffff1673ffffffffffffffffffffffffffffffffffffffff168152602001906001019080831161047b575b50505050509050919050565b600460205281600052604060002081815481106104ed57600080fd5b906000526020600020016000915091509054906101000a900473ffffffffffffffffffffffffffffffffffffffff1681565b60008054906101000a900473ffffffffffffffffffffffffffffffffffffffff1673ffffffffffffffffffffffffffffffffffffffff163373ffffffffffffffffffffffffffffffffffffffff16146105ad576040517f08c379a00000000000000000000000000000000000000000000000000000000081526004016105a490611dbd565b60405180910390fd5b806000806101000a81548173ffffffffffffffffffffffffffffffffffffffff021916908373ffffffffffffffffffffffffffffffffffffffff16021790555050565b6000600160008373ffffffffffffffffffffffffffffffffffffffff1673ffffffffffffffffffffffffffffffffffffffff16815260200190815260200160002060008473ffffffffffffffffffffffffffffffffffffffff1673ffffffffffffffffffffffffffffffffffffffff16815260200190815260200160002060009054906101000a900460ff16806106b257508173ffffffffffffffffffffffffffffffffffffffff168373ffffffffffffffffffffffffffffffffffffffff16145b905092915050565b60016020528160005260406000206020528060005260406000206000915091509054906101000a900460ff1681565b60036020528160005260406000206020528060005260406000206000915091509054906101000a900460ff1681565b6000600360008373ffffffffffffffffffffffffffffffffffffffff1673ffffffffffffffffffffffffffffffffffffffff16815260200190815260200160002060008473ffffffffffffffffffffffffffffffffffffffff1673ffffffffffffffffffffffffffffffffffffffff16815260200190815260200160002060009054906101000a900460ff16806107da57508173ffffffffffffffffffffffffffffffffffffffff168373ffffffffffffffffffffffffffffffffffffffff16145b905092915050565b600160008273ffffffffffffffffffffffffffffffffffffffff1673ffffffffffffffffffffffffffffffffffffffff16815260200190815260200160002060008373ffffffffffffffffffffffffffffffffffffffff1673ffffffffffffffffffffffffffffffffffffffff16815260200190815260200160002060009054906101000a900460ff166108ab576040517f08c379a00000000000000000000000000000000000000000000000000000000081526004016108a290611e29565b60405180910390fd5b3373ffffffffffffffffffffffffffffffffffffffff168173ffffffffffffffffffffffffffffffffffffffff16148061096b5750600360008273ffffffffffffffffffffffffffffffffffffffff1673ffffffffffffffffffffffffffffffffffffffff16815260200190815260200160002060003373ffffffffffffffffffffffffffffffffffffffff1673ffffffffffffffffffffffffffffffffffffffff16815260200190815260200160002060009054906101000a900460ff165b6109aa576040517f08c379a00000000000000000000000000000000000000000000000000000000081526004016109a190611e95565b60405180910390fd5b6000600160008373ffffffffffffffffffffffffffffffffffffffff1673ffffffffffffffffffffffffffffffffffffffff16815260200190815260200160002060008473ffffffffffffffffffffffffffffffffffffffff1673ffffffffffffffffffffffffffffffffffffffff16815260200190815260200160002060006101000a81548160ff0219169083151502179055506000600260008373ffffffffffffffffffffffffffffffffffffffff1673ffffffffffffffffffffffffffffffffffffffff168152602001908152602001600020905060005b8180549050811015610c02578373ffffffffffffffffffffffffffffffffffffffff16828281548110610abb57610aba611eb5565b5b9060005260206000200160009054906101000a900473ffffffffffffffffffffffffffffffffffffffff1673ffffffffffffffffffffffffffffffffffffffff1603610bf5578160018380549050610b139190611f13565b81548110610b2457610b23611eb5565b5b9060005260206000200160009054906101000a900473ffffffffffffffffffffffffffffffffffffffff16828281548110610b6257610b61611eb5565b5b9060005260206000200160006101000a81548173ffffffffffffffffffffffffffffffffffffffff021916908373ffffffffffffffffffffffffffffffffffffffff16021790555081805480610bbb57610bba611f47565b5b6001900381819060005260206000200160006101000a81549073ffffffffffffffffffffffffffffffffffffffff02191690559055610c02565b8080600101915050610a85565b508273ffffffffffffffffffffffffffffffffffffffff168273ffffffffffffffffffffffffffffffffffffffff167f17d7f044d47e4fae1701f86266d0a674db3f792671bd1b974ace77a09af1c82760405160405180910390a3505050565b600073ffffffffffffffffffffffffffffffffffffffff168273ffffffffffffffffffffffffffffffffffffffff1603610cd1576040517f08c379a0000000000000000000000000000000000000000000000000000000008152600401610cc890611fc2565b60405180910390fd5b600160008273ffffffffffffffffffffffffffffffffffffffff1673ffffffffffffffffffffffffffffffffffffffff16815260200190815260200160002060008373ffffffffffffffffffffffffffffffffffffffff1673ffffffffffffffffffffffffffffffffffffffff16815260200190815260200160002060009054906101000a900460ff1615610d9b576040517f08c379a0000000000000000000000000000000000000000000000000000000008152600401610d929061202e565b60405180910390fd5b3373ffffffffffffffffffffffffffffffffffffffff168173ffffffffffffffffffffffffffffffffffffffff161480610e5b5750600360008273ffffffffffffffffffffffffffffffffffffffff1673ffffffffffffffffffffffffffffffffffffffff16815260200190815260200160002060003373ffffffffffffffffffffffffffffffffffffffff1673ffffffffffffffffffffffffffffffffffffffff16815260200190815260200160002060009054906101000a900460ff165b610e9a576040517f08c379a0000000000000000000000000000000000000000000000000000000008152600401610e9190611e95565b60405180910390fd5b60018060008373ffffffffffffffffffffffffffffffffffffffff1673ffffffffffffffffffffffffffffffffffffffff16815260200190815260200160002060008473ffffffffffffffffffffffffffffffffffffffff1673ffffffffffffffffffffffffffffffffffffffff16815260200190815260200160002060006101000a81548160ff021916908315150217905550600260008273ffffffffffffffffffffffffffffffffffffffff1673ffffffffffffffffffffffffffffffffffffffff168152602001908152602001600020829080600181540180825580915050600190039060005260206000200160009091909190916101000a81548173ffffffffffffffffffffffffffffffffffffffff021916908373ffffffffffffffffffffffffffffffffffffffff1602179055508173ffffffffffffffffffffffffffffffffffffffff168173ffffffffffffffffffffffffffffffffffffffff167f92b270b94fd320d925800c308edf63e09be8dc4b4b10cc01ab08277a43d63e2760405160405180910390a35050565b600073ffffffffffffffffffffffffffffffffffffffff168273ffffffffffffffffffffffffffffffffffffffff160361109b576040517f08c379a000000000000000000000000000000000000000000000000000000000815260040161109290611fc2565b60405180910390fd5b600360003373ffffffffffffffffffffffffffffffffffffffff1673ffffffffffffffffffffffffffffffffffffffff16815260200190815260200160002060008373ffffffffffffffffffffffffffffffffffffffff1673ffffffffffffffffffffffffffffffffffffffff16815260200190815260200160002060009054906101000a900460ff1615611165576040517f08c379a000000000000000000000000000000000000000000000000000000000815260040161115c9061209a565b60405180910390fd5b6001600360003373ffffffffffffffffffffffffffffffffffffffff1673ffffffffffffffffffffffffffffffffffffffff16815260200190815260200160002060008473ffffffffffffffffffffffffffffffffffffffff1673ffffffffffffffffffffffffffffffffffffffff16815260200190815260200160002060006101000a81548160ff021916908315150217905550600460003373ffffffffffffffffffffffffffffffffffffffff1673ffffffffffffffffffffffffffffffffffffffff168152602001908152602001600020829080600181540180825580915050600190039060005260206000200160009091909190916101000a81548173ffffffffffffffffffffffffffffffffffffffff021916908373ffffffffffffffffffffffffffffffffffffffff1602179055508173ffffffffffffffffffffffffffffffffffffffff163373ffffffffffffffffffffffffffffffffffffffff167f5f8647367ac879c6b913ce47f27920449c7ea97770818384b83f27c8155b30b960405160405180910390a38015611305576113048233610c62565b5b5050565b60056020528160005260406000206020528060005260406000206000915091509054906101000a900473ffffffffffffffffffffffffffffffffffffffff1681565b600360003373ffffffffffffffffffffffffffffffffffffffff1673ffffffffffffffffffffffffffffffffffffffff16815260200190815260200160002060008373ffffffffffffffffffffffffffffffffffffffff1673ffffffffffffffffffffffffffffffffffffffff16815260200190815260200160002060009054906101000a900460ff16611414576040517f08c379a000000000000000000000000000000000000000000000000000000000815260040161140b90612106565b60405180910390fd5b6000600360003373ffffffffffffffffffffffffffffffffffffffff1673ffffffffffffffffffffffffffffffffffffffff16815260200190815260200160002060008473ffffffffffffffffffffffffffffffffffffffff1673ffffffffffffffffffffffffffffffffffffffff16815260200190815260200160002060006101000a81548160ff0219169083151502179055506000600460003373ffffffffffffffffffffffffffffffffffffffff1673ffffffffffffffffffffffffffffffffffffffff168152602001908152602001600020905060005b818054905081101561166c578373ffffffffffffffffffffffffffffffffffffffff1682828154811061152557611524611eb5565b5b9060005260206000200160009054906101000a900473ffffffffffffffffffffffffffffffffffffffff1673ffffffffffffffffffffffffffffffffffffffff160361165f57816001838054905061157d9190611f13565b8154811061158e5761158d611eb5565b5b9060005260206000200160009054906101000a900473ffffffffffffffffffffffffffffffffffffffff168282815481106115cc576115cb611eb5565b5b9060005260206000200160006101000a81548173ffffffffffffffffffffffffffffffffffffffff021916908373ffffffffffffffffffffffffffffffffffffffff1602179055508180548061162557611624611f47565b5b6001900381819060005260206000200160006101000a81549073ffffffffffffffffffffffffffffffffffffffff0219169055905561166c565b80806001019150506114ef565b508273ffffffffffffffffffffffffffffffffffffffff163373ffffffffffffffffffffffffffffffffffffffff167f427e024ace7a7942bc6f60715750c0c5f36943fb5b21734a3d4bedddefd2f84e60405160405180910390a381801561175a5750600160003373ffffffffffffffffffffffffffffffffffffffff1673ffffffffffffffffffffffffffffffffffffffff16815260200190815260200160002060008473ffffffffffffffffffffffffffffffffffffffff1673ffffffffffffffffffffffffffffffffffffffff16815260200190815260200160002060009054906101000a900460ff165b1561176a5761176983336107e2565b5b505050565b6060600260008373ffffffffffffffffffffffffffffffffffffffff1673ffffffffffffffffffffffffffffffffffffffff16815260200190815260200160002080548060200260200160405190810160405280929190818152602001828054801561183057602002820191906000526020600020905b8160009054906101000a900473ffffffffffffffffffffffffffffffffffffffff1673ffffffffffffffffffffffffffffffffffffffff16815260200190600101908083116117e6575b50505050509050919050565b600080600560008573ffffffffffffffffffffffffffffffffffffffff1673ffffffffffffffffffffffffffffffffffffffff16815260200190815260200160002060008473ffffffffffffffffffffffffffffffffffffffff1673ffffffffffffffffffffffffffffffffffffffff16815260200190815260200160002060009054906101000a900473ffffffffffffffffffffffffffffffffffffffff169050600073ffffffffffffffffffffffffffffffffffffffff168173ffffffffffffffffffffffffffffffffffffffff160361191b5783915050611920565b809150505b92915050565b80600560003373ffffffffffffffffffffffffffffffffffffffff1673ffffffffffffffffffffffffffffffffffffffff16815260200190815260200160002060008473ffffffffffffffffffffffffffffffffffffffff1673ffffffffffffffffffffffffffffffffffffffff16815260200190815260200160002060006101000a81548173ffffffffffffffffffffffffffffffffffffffff021916908373ffffffffffffffffffffffffffffffffffffffff1602179055508173ffffffffffffffffffffffffffffffffffffffff163373ffffffffffffffffffffffffffffffffffffffff167f4f3fb2e41ecf27745a29e35d1a483d774c493d5c19e2645bf1654ebd79b14a0e83604051611a3e9190611b56565b60405180910390a35050565b60008054906101000a900473ffffffffffffffffffffffffffffffffffffffff1681565b600080fd5b600073ffffffffffffffffffffffffffffffffffffffff82169050919050565b6000611a9e82611a73565b9050919050565b611aae81611a93565b8114611ab957600080fd5b50565b600081359050611acb81611aa5565b92915050565b6000819050919050565b611ae481611ad1565b8114611aef57600080fd5b50565b600081359050611b0181611adb565b92915050565b60008060408385031215611b1e57611b1d611a6e565b5b6000611b2c85828601611abc565b9250506020611b3d85828601611af2565b9150509250929050565b611b5081611a93565b82525050565b6000602082019050611b6b6000830184611b47565b92915050565b600060208284031215611b8757611b86611a6e565b5b6000611b9584828501611abc565b91505092915050565b600081519050919050565b600082825260208201905092915050565b6000819050602082019050919050565b611bd381611a93565b82525050565b6000611be58383611bca565b60208301905092915050565b6000602082019050919050565b6000611c0982611b9e565b611c138185611ba9565b9350611c1e83611bba565b8060005b83811015611c4f578151611c368882611bd9565b9750611c4183611bf1565b925050600181019050611c22565b5085935050505092915050565b60006020820190508181036000830152611c768184611bfe565b905092915050565b60008060408385031215611c9557611c94611a6e565b5b6000611ca385828601611abc565b9250506020611cb485828601611abc565b9150509250929050565b60008115159050919050565b611cd381611cbe565b82525050565b6000602082019050611cee6000830184611cca565b92915050565b611cfd81611cbe565b8114611d0857600080fd5b50565b600081359050611d1a81611cf4565b92915050565b60008060408385031215611d3757611d36611a6e565b5b6000611d4585828601611abc565b9250506020611d5685828601611d0b565b9150509250929050565b600082825260208201905092915050565b7f4e6f74204f776e65720000000000000000000000000000000000000000000000600082015250565b6000611da7600983611d60565b9150611db282611d71565b602082019050919050565b60006020820190508181036000830152611dd681611d9a565b9050919050565b7f4f70657261746f72206e6f7420617070726f7665642e00000000000000000000600082015250565b6000611e13601683611d60565b9150611e1e82611ddd565b602082019050919050565b60006020820190508181036000830152611e4281611e06565b9050919050565b7f4e6f7420617070726f7665642061646d696e6973747261746f72000000000000600082015250565b6000611e7f601a83611d60565b9150611e8a82611e49565b602082019050919050565b60006020820190508181036000830152611eae81611e72565b9050919050565b7f4e487b7100000000000000000000000000000000000000000000000000000000600052603260045260246000fd5b7f4e487b7100000000000000000000000000000000000000000000000000000000600052601160045260246000fd5b6000611f1e82611ad1565b9150611f2983611ad1565b9250828203905081811115611f4157611f40611ee4565b5b92915050565b7f4e487b7100000000000000000000000000000000000000000000000000000000600052603160045260246000fd5b7f43616e6e6f7420617070726f7665207a65726f20616464726573732e00000000600082015250565b6000611fac601c83611d60565b9150611fb782611f76565b602082019050919050565b60006020820190508181036000830152611fdb81611f9f565b9050919050565b7f4f70657261746f7220616c726561647920617070726f7665642e000000000000600082015250565b6000612018601a83611d60565b915061202382611fe2565b602082019050919050565b600060208201905081810360008301526120478161200b565b9050919050565b7f41646d696e20616c726561647920617070726f7665642e000000000000000000600082015250565b6000612084601783611d60565b915061208f8261204e565b602082019050919050565b600060208201905081810360008301526120b381612077565b9050919050565b7f41646d696e6973747261746f72206e6f7420617070726f7665642e0000000000600082015250565b60006120f0601b83611d60565b91506120fb826120ba565b602082019050919050565b6000602082019050818103600083015261211f816120e3565b905091905056fea26469706673582212204a2fbe5cf77bf626b70134f26391dc6b4645944b8af7075a80634129d2a9425364736f6c63430008180033",
  "devdoc": {
    "kind": "dev",
    "methods": {},
    "version": 1
  },
  "userdoc": {
    "kind": "user",
    "methods": {},
    "version": 1
  },
  "storageLayout": {
    "storage": [
      {
        "astId": 6250,
        "contract": "contracts/Protocol Contracts/MerchantManager.sol:MerchantManager",
        "label": "contractOwner",
        "offset": 0,
        "slot": "0",
        "type": "t_address"
      },
      {
        "astId": 6256,
        "contract": "contracts/Protocol Contracts/MerchantManager.sol:MerchantManager",
        "label": "approvedOperators",
        "offset": 0,
        "slot": "1",
        "type": "t_mapping(t_address,t_mapping(t_address,t_bool))"
      },
      {
        "astId": 6261,
        "contract": "contracts/Protocol Contracts/MerchantManager.sol:MerchantManager",
        "label": "arrayOfApprovedOperators",
        "offset": 0,
        "slot": "2",
        "type": "t_mapping(t_address,t_array(t_address)dyn_storage)"
      },
      {
        "astId": 6267,
        "contract": "contracts/Protocol Contracts/MerchantManager.sol:MerchantManager",
        "label": "approvedAdministrators",
        "offset": 0,
        "slot": "3",
        "type": "t_mapping(t_address,t_mapping(t_address,t_bool))"
      },
      {
        "astId": 6272,
        "contract": "contracts/Protocol Contracts/MerchantManager.sol:MerchantManager",
        "label": "arrayOfApprovedAdministrators",
        "offset": 0,
        "slot": "4",
        "type": "t_mapping(t_address,t_array(t_address)dyn_storage)"
      },
      {
        "astId": 6278,
        "contract": "contracts/Protocol Contracts/MerchantManager.sol:MerchantManager",
        "label": "receiverAccounts",
        "offset": 0,
        "slot": "5",
        "type": "t_mapping(t_address,t_mapping(t_address,t_address))"
      }
    ],
    "types": {
      "t_address": {
        "encoding": "inplace",
        "label": "address",
        "numberOfBytes": "20"
      },
      "t_array(t_address)dyn_storage": {
        "base": "t_address",
        "encoding": "dynamic_array",
        "label": "address[]",
        "numberOfBytes": "32"
      },
      "t_bool": {
        "encoding": "inplace",
        "label": "bool",
        "numberOfBytes": "1"
      },
      "t_mapping(t_address,t_address)": {
        "encoding": "mapping",
        "key": "t_address",
        "label": "mapping(address => address)",
        "numberOfBytes": "32",
        "value": "t_address"
      },
      "t_mapping(t_address,t_array(t_address)dyn_storage)": {
        "encoding": "mapping",
        "key": "t_address",
        "label": "mapping(address => address[])",
        "numberOfBytes": "32",
        "value": "t_array(t_address)dyn_storage"
      },
      "t_mapping(t_address,t_bool)": {
        "encoding": "mapping",
        "key": "t_address",
        "label": "mapping(address => bool)",
        "numberOfBytes": "32",
        "value": "t_bool"
      },
      "t_mapping(t_address,t_mapping(t_address,t_address))": {
        "encoding": "mapping",
        "key": "t_address",
        "label": "mapping(address => mapping(address => address))",
        "numberOfBytes": "32",
        "value": "t_mapping(t_address,t_address)"
      },
      "t_mapping(t_address,t_mapping(t_address,t_bool))": {
        "encoding": "mapping",
        "key": "t_address",
        "label": "mapping(address => mapping(address => bool))",
        "numberOfBytes": "32",
        "value": "t_mapping(t_address,t_bool)"
      }
    }
  }
}