{
  "address": "0xc3e53F4d16Ae77Db1c982e75a937B9f60FE63690",
  "abi": [
    {
      "anonymous": false,
      "inputs": [
        {
          "indexed": true,
          "internalType": "address",
          "name": "parentAccount",
          "type": "address"
        },
        {
          "indexed": true,
          "internalType": "address",
          "name": "approvedAdministrator",
          "type": "address"
        }
      ],
      "name": "AdministratorApproved",
      "type": "event"
    },
    {
      "anonymous": false,
      "inputs": [
        {
          "indexed": true,
          "internalType": "address",
          "name": "parentAccount",
          "type": "address"
        },
        {
          "indexed": true,
          "internalType": "address",
          "name": "removedAdministrator",
          "type": "address"
        }
      ],
      "name": "AdministratorRemoved",
      "type": "event"
    },
    {
      "anonymous": false,
      "inputs": [
        {
          "indexed": true,
          "internalType": "address",
          "name": "parentAccount",
          "type": "address"
        },
        {
          "indexed": true,
          "internalType": "address",
          "name": "approvedOperator",
          "type": "address"
        }
      ],
      "name": "OperatorApproved",
      "type": "event"
    },
    {
      "anonymous": false,
      "inputs": [
        {
          "indexed": true,
          "internalType": "address",
          "name": "parentAccount",
          "type": "address"
        },
        {
          "indexed": true,
          "internalType": "address",
          "name": "removedOperator",
          "type": "address"
        }
      ],
      "name": "OperatorRemoved",
      "type": "event"
    },
    {
      "inputs": [
        {
          "internalType": "address",
          "name": "approvedAdministrator",
          "type": "address"
        },
        {
          "internalType": "bool",
          "name": "addOperator",
          "type": "bool"
        }
      ],
      "name": "approveAdministrator",
      "outputs": [],
      "stateMutability": "nonpayable",
      "type": "function"
    },
    {
      "inputs": [
        {
          "internalType": "address",
          "name": "approvedOperator",
          "type": "address"
        },
        {
          "internalType": "address",
          "name": "parentAccount",
          "type": "address"
        }
      ],
      "name": "approveOperator",
      "outputs": [],
      "stateMutability": "nonpayable",
      "type": "function"
    },
    {
      "inputs": [
        {
          "internalType": "address",
          "name": "",
          "type": "address"
        },
        {
          "internalType": "address",
          "name": "",
          "type": "address"
        }
      ],
      "name": "approvedAdministrators",
      "outputs": [
        {
          "internalType": "bool",
          "name": "",
          "type": "bool"
        }
      ],
      "stateMutability": "view",
      "type": "function"
    },
    {
      "inputs": [
        {
          "internalType": "address",
          "name": "",
          "type": "address"
        },
        {
          "internalType": "address",
          "name": "",
          "type": "address"
        }
      ],
      "name": "approvedOperators",
      "outputs": [
        {
          "internalType": "bool",
          "name": "",
          "type": "bool"
        }
      ],
      "stateMutability": "view",
      "type": "function"
    },
    {
      "inputs": [
        {
          "internalType": "address",
          "name": "",
          "type": "address"
        },
        {
          "internalType": "uint256",
          "name": "",
          "type": "uint256"
        }
      ],
      "name": "arrayOfApprovedAdministrators",
      "outputs": [
        {
          "internalType": "address",
          "name": "",
          "type": "address"
        }
      ],
      "stateMutability": "view",
      "type": "function"
    },
    {
      "inputs": [
        {
          "internalType": "address",
          "name": "",
          "type": "address"
        },
        {
          "internalType": "uint256",
          "name": "",
          "type": "uint256"
        }
      ],
      "name": "arrayOfApprovedOperators",
      "outputs": [
        {
          "internalType": "address",
          "name": "",
          "type": "address"
        }
      ],
      "stateMutability": "view",
      "type": "function"
    },
    {
      "inputs": [
        {
          "internalType": "address",
          "name": "masterAccount",
          "type": "address"
        }
      ],
      "name": "getApprovedAdministrators",
      "outputs": [
        {
          "internalType": "address[]",
          "name": "",
          "type": "address[]"
        }
      ],
      "stateMutability": "view",
      "type": "function"
    },
    {
      "inputs": [
        {
          "internalType": "address",
          "name": "masterAccount",
          "type": "address"
        }
      ],
      "name": "getApprovedOperators",
      "outputs": [
        {
          "internalType": "address[]",
          "name": "",
          "type": "address[]"
        }
      ],
      "stateMutability": "view",
      "type": "function"
    },
    {
      "inputs": [
        {
          "internalType": "address",
          "name": "userAddress",
          "type": "address"
        },
        {
          "internalType": "address",
          "name": "tokenAddress",
          "type": "address"
        }
      ],
      "name": "getReceiverAddress",
      "outputs": [
        {
          "internalType": "address",
          "name": "",
          "type": "address"
        }
      ],
      "stateMutability": "view",
      "type": "function"
    },
    {
      "inputs": [
        {
          "internalType": "address",
          "name": "operator",
          "type": "address"
        },
        {
          "internalType": "address",
          "name": "parentAccount",
          "type": "address"
        }
      ],
      "name": "isApprovedOperator",
      "outputs": [
        {
          "internalType": "bool",
          "name": "",
          "type": "bool"
        }
      ],
      "stateMutability": "view",
      "type": "function"
    },
    {
      "inputs": [
        {
          "internalType": "address",
          "name": "",
          "type": "address"
        },
        {
          "internalType": "address",
          "name": "",
          "type": "address"
        }
      ],
      "name": "receiverAccounts",
      "outputs": [
        {
          "internalType": "address",
          "name": "",
          "type": "address"
        }
      ],
      "stateMutability": "view",
      "type": "function"
    },
    {
      "inputs": [
        {
          "internalType": "address",
          "name": "toRemove",
          "type": "address"
        },
        {
          "internalType": "bool",
          "name": "removeAsOperator",
          "type": "bool"
        }
      ],
      "name": "removeAdministrator",
      "outputs": [],
      "stateMutability": "nonpayable",
      "type": "function"
    },
    {
      "inputs": [
        {
          "internalType": "address",
          "name": "toRemove",
          "type": "address"
        },
        {
          "internalType": "address",
          "name": "parentAccount",
          "type": "address"
        }
      ],
      "name": "removeOperator",
      "outputs": [],
      "stateMutability": "nonpayable",
      "type": "function"
    },
    {
      "inputs": [
        {
          "internalType": "address",
          "name": "tokenAddress",
          "type": "address"
        },
        {
          "internalType": "address",
          "name": "receiverAddress",
          "type": "address"
        }
      ],
      "name": "updateReceiverAddress",
      "outputs": [],
      "stateMutability": "nonpayable",
      "type": "function"
    }
  ],
  "transactionHash": "0xf52f33ce30f530e531dd4656154570aa3215d43d384db6d45d44aa7b48d2473e",
  "args": [],
  "numDeployments": 1,
  "solcInputHash": "861e589794e1892fc73a7a98a3fc5c0d",
  "bytecode": "0x608060405234801561001057600080fd5b50611e3c806100206000396000f3fe608060405234801561001057600080fd5b50600436106100ea5760003560e01c8063438e91c61161008c5780636b3a990f116100665780636b3a990f14610293578063714a094a146102af5780637366ad26146102df578063ce119d221461030f576100ea565b8063438e91c61461022b57806364b39fbe14610247578063676d82a414610263576100ea565b80631a179451116100c85780631a1794511461017f57806334d82220146101af57806338d70ed8146101df57806340b61fe91461020f576100ea565b8063039551f4146100ef57806309ad7f2a1461011f57806312388fe41461014f575b600080fd5b61010960048036038101906101049190611853565b61032b565b60405161011691906118a2565b60405180910390f35b610139600480360381019061013491906118bd565b610379565b60405161014691906119a8565b60405180910390f35b61016960048036038101906101649190611853565b610446565b60405161017691906118a2565b60405180910390f35b610199600480360381019061019491906119ca565b610494565b6040516101a69190611a25565b60405180910390f35b6101c960048036038101906101c491906119ca565b61055d565b6040516101d69190611a25565b60405180910390f35b6101f960048036038101906101f491906119ca565b61058c565b6040516102069190611a25565b60405180910390f35b610229600480360381019061022491906119ca565b6105bb565b005b610245600480360381019061024091906119ca565b610a39565b005b610261600480360381019061025c9190611a6c565b610e02565b005b61027d600480360381019061027891906119ca565b6110df565b60405161028a91906118a2565b60405180910390f35b6102ad60048036038101906102a89190611a6c565b611121565b005b6102c960048036038101906102c491906118bd565b611544565b6040516102d691906119a8565b60405180910390f35b6102f960048036038101906102f491906119ca565b611611565b60405161030691906118a2565b60405180910390f35b610329600480360381019061032491906119ca565b6116fb565b005b6001602052816000526040600020818154811061034757600080fd5b906000526020600020016000915091509054906101000a900473ffffffffffffffffffffffffffffffffffffffff1681565b6060600360008373ffffffffffffffffffffffffffffffffffffffff1673ffffffffffffffffffffffffffffffffffffffff16815260200190815260200160002080548060200260200160405190810160405280929190818152602001828054801561043a57602002820191906000526020600020905b8160009054906101000a900473ffffffffffffffffffffffffffffffffffffffff1673ffffffffffffffffffffffffffffffffffffffff16815260200190600101908083116103f0575b50505050509050919050565b6003602052816000526040600020818154811061046257600080fd5b906000526020600020016000915091509054906101000a900473ffffffffffffffffffffffffffffffffffffffff1681565b60008060008373ffffffffffffffffffffffffffffffffffffffff1673ffffffffffffffffffffffffffffffffffffffff16815260200190815260200160002060008473ffffffffffffffffffffffffffffffffffffffff1673ffffffffffffffffffffffffffffffffffffffff16815260200190815260200160002060009054906101000a900460ff168061055557508173ffffffffffffffffffffffffffffffffffffffff168373ffffffffffffffffffffffffffffffffffffffff16145b905092915050565b60006020528160005260406000206020528060005260406000206000915091509054906101000a900460ff1681565b60026020528160005260406000206020528060005260406000206000915091509054906101000a900460ff1681565b6000808273ffffffffffffffffffffffffffffffffffffffff1673ffffffffffffffffffffffffffffffffffffffff16815260200190815260200160002060008373ffffffffffffffffffffffffffffffffffffffff1673ffffffffffffffffffffffffffffffffffffffff16815260200190815260200160002060009054906101000a900460ff16610683576040517f08c379a000000000000000000000000000000000000000000000000000000000815260040161067a90611b09565b60405180910390fd5b3373ffffffffffffffffffffffffffffffffffffffff168173ffffffffffffffffffffffffffffffffffffffff1614806107435750600260008273ffffffffffffffffffffffffffffffffffffffff1673ffffffffffffffffffffffffffffffffffffffff16815260200190815260200160002060003373ffffffffffffffffffffffffffffffffffffffff1673ffffffffffffffffffffffffffffffffffffffff16815260200190815260200160002060009054906101000a900460ff165b610782576040517f08c379a000000000000000000000000000000000000000000000000000000000815260040161077990611b75565b60405180910390fd5b60008060008373ffffffffffffffffffffffffffffffffffffffff1673ffffffffffffffffffffffffffffffffffffffff16815260200190815260200160002060008473ffffffffffffffffffffffffffffffffffffffff1673ffffffffffffffffffffffffffffffffffffffff16815260200190815260200160002060006101000a81548160ff0219169083151502179055506000600160008373ffffffffffffffffffffffffffffffffffffffff1673ffffffffffffffffffffffffffffffffffffffff168152602001908152602001600020905060005b81805490508110156109d9578373ffffffffffffffffffffffffffffffffffffffff1682828154811061089257610891611b95565b5b9060005260206000200160009054906101000a900473ffffffffffffffffffffffffffffffffffffffff1673ffffffffffffffffffffffffffffffffffffffff16036109cc5781600183805490506108ea9190611bf3565b815481106108fb576108fa611b95565b5b9060005260206000200160009054906101000a900473ffffffffffffffffffffffffffffffffffffffff1682828154811061093957610938611b95565b5b9060005260206000200160006101000a81548173ffffffffffffffffffffffffffffffffffffffff021916908373ffffffffffffffffffffffffffffffffffffffff1602179055508180548061099257610991611c27565b5b6001900381819060005260206000200160006101000a81549073ffffffffffffffffffffffffffffffffffffffff021916905590556109d9565b808060010191505061085c565b508273ffffffffffffffffffffffffffffffffffffffff168273ffffffffffffffffffffffffffffffffffffffff167f17d7f044d47e4fae1701f86266d0a674db3f792671bd1b974ace77a09af1c82760405160405180910390a3505050565b600073ffffffffffffffffffffffffffffffffffffffff168273ffffffffffffffffffffffffffffffffffffffff1603610aa8576040517f08c379a0000000000000000000000000000000000000000000000000000000008152600401610a9f90611ca2565b60405180910390fd5b6000808273ffffffffffffffffffffffffffffffffffffffff1673ffffffffffffffffffffffffffffffffffffffff16815260200190815260200160002060008373ffffffffffffffffffffffffffffffffffffffff1673ffffffffffffffffffffffffffffffffffffffff16815260200190815260200160002060009054906101000a900460ff1615610b71576040517f08c379a0000000000000000000000000000000000000000000000000000000008152600401610b6890611d0e565b60405180910390fd5b3373ffffffffffffffffffffffffffffffffffffffff168173ffffffffffffffffffffffffffffffffffffffff161480610c315750600260008273ffffffffffffffffffffffffffffffffffffffff1673ffffffffffffffffffffffffffffffffffffffff16815260200190815260200160002060003373ffffffffffffffffffffffffffffffffffffffff1673ffffffffffffffffffffffffffffffffffffffff16815260200190815260200160002060009054906101000a900460ff165b610c70576040517f08c379a0000000000000000000000000000000000000000000000000000000008152600401610c6790611b75565b60405180910390fd5b60016000808373ffffffffffffffffffffffffffffffffffffffff1673ffffffffffffffffffffffffffffffffffffffff16815260200190815260200160002060008473ffffffffffffffffffffffffffffffffffffffff1673ffffffffffffffffffffffffffffffffffffffff16815260200190815260200160002060006101000a81548160ff021916908315150217905550600160008273ffffffffffffffffffffffffffffffffffffffff1673ffffffffffffffffffffffffffffffffffffffff168152602001908152602001600020829080600181540180825580915050600190039060005260206000200160009091909190916101000a81548173ffffffffffffffffffffffffffffffffffffffff021916908373ffffffffffffffffffffffffffffffffffffffff1602179055508173ffffffffffffffffffffffffffffffffffffffff168173ffffffffffffffffffffffffffffffffffffffff167f92b270b94fd320d925800c308edf63e09be8dc4b4b10cc01ab08277a43d63e2760405160405180910390a35050565b600073ffffffffffffffffffffffffffffffffffffffff168273ffffffffffffffffffffffffffffffffffffffff1603610e71576040517f08c379a0000000000000000000000000000000000000000000000000000000008152600401610e6890611ca2565b60405180910390fd5b600260003373ffffffffffffffffffffffffffffffffffffffff1673ffffffffffffffffffffffffffffffffffffffff16815260200190815260200160002060008373ffffffffffffffffffffffffffffffffffffffff1673ffffffffffffffffffffffffffffffffffffffff16815260200190815260200160002060009054906101000a900460ff1615610f3b576040517f08c379a0000000000000000000000000000000000000000000000000000000008152600401610f3290611d7a565b60405180910390fd5b6001600260003373ffffffffffffffffffffffffffffffffffffffff1673ffffffffffffffffffffffffffffffffffffffff16815260200190815260200160002060008473ffffffffffffffffffffffffffffffffffffffff1673ffffffffffffffffffffffffffffffffffffffff16815260200190815260200160002060006101000a81548160ff021916908315150217905550600360003373ffffffffffffffffffffffffffffffffffffffff1673ffffffffffffffffffffffffffffffffffffffff168152602001908152602001600020829080600181540180825580915050600190039060005260206000200160009091909190916101000a81548173ffffffffffffffffffffffffffffffffffffffff021916908373ffffffffffffffffffffffffffffffffffffffff1602179055508173ffffffffffffffffffffffffffffffffffffffff163373ffffffffffffffffffffffffffffffffffffffff167f5f8647367ac879c6b913ce47f27920449c7ea97770818384b83f27c8155b30b960405160405180910390a380156110db576110da8233610a39565b5b5050565b60046020528160005260406000206020528060005260406000206000915091509054906101000a900473ffffffffffffffffffffffffffffffffffffffff1681565b600260003373ffffffffffffffffffffffffffffffffffffffff1673ffffffffffffffffffffffffffffffffffffffff16815260200190815260200160002060008373ffffffffffffffffffffffffffffffffffffffff1673ffffffffffffffffffffffffffffffffffffffff16815260200190815260200160002060009054906101000a900460ff166111ea576040517f08c379a00000000000000000000000000000000000000000000000000000000081526004016111e190611de6565b60405180910390fd5b6000600260003373ffffffffffffffffffffffffffffffffffffffff1673ffffffffffffffffffffffffffffffffffffffff16815260200190815260200160002060008473ffffffffffffffffffffffffffffffffffffffff1673ffffffffffffffffffffffffffffffffffffffff16815260200190815260200160002060006101000a81548160ff0219169083151502179055506000600360003373ffffffffffffffffffffffffffffffffffffffff1673ffffffffffffffffffffffffffffffffffffffff168152602001908152602001600020905060005b8180549050811015611442578373ffffffffffffffffffffffffffffffffffffffff168282815481106112fb576112fa611b95565b5b9060005260206000200160009054906101000a900473ffffffffffffffffffffffffffffffffffffffff1673ffffffffffffffffffffffffffffffffffffffff16036114355781600183805490506113539190611bf3565b8154811061136457611363611b95565b5b9060005260206000200160009054906101000a900473ffffffffffffffffffffffffffffffffffffffff168282815481106113a2576113a1611b95565b5b9060005260206000200160006101000a81548173ffffffffffffffffffffffffffffffffffffffff021916908373ffffffffffffffffffffffffffffffffffffffff160217905550818054806113fb576113fa611c27565b5b6001900381819060005260206000200160006101000a81549073ffffffffffffffffffffffffffffffffffffffff02191690559055611442565b80806001019150506112c5565b508273ffffffffffffffffffffffffffffffffffffffff163373ffffffffffffffffffffffffffffffffffffffff167f427e024ace7a7942bc6f60715750c0c5f36943fb5b21734a3d4bedddefd2f84e60405160405180910390a381801561152f57506000803373ffffffffffffffffffffffffffffffffffffffff1673ffffffffffffffffffffffffffffffffffffffff16815260200190815260200160002060008473ffffffffffffffffffffffffffffffffffffffff1673ffffffffffffffffffffffffffffffffffffffff16815260200190815260200160002060009054906101000a900460ff165b1561153f5761153e83336105bb565b5b505050565b6060600160008373ffffffffffffffffffffffffffffffffffffffff1673ffffffffffffffffffffffffffffffffffffffff16815260200190815260200160002080548060200260200160405190810160405280929190818152602001828054801561160557602002820191906000526020600020905b8160009054906101000a900473ffffffffffffffffffffffffffffffffffffffff1673ffffffffffffffffffffffffffffffffffffffff16815260200190600101908083116115bb575b50505050509050919050565b600080600460008573ffffffffffffffffffffffffffffffffffffffff1673ffffffffffffffffffffffffffffffffffffffff16815260200190815260200160002060008473ffffffffffffffffffffffffffffffffffffffff1673ffffffffffffffffffffffffffffffffffffffff16815260200190815260200160002060009054906101000a900473ffffffffffffffffffffffffffffffffffffffff169050600073ffffffffffffffffffffffffffffffffffffffff168173ffffffffffffffffffffffffffffffffffffffff16036116f057839150506116f5565b809150505b92915050565b80600460003373ffffffffffffffffffffffffffffffffffffffff1673ffffffffffffffffffffffffffffffffffffffff16815260200190815260200160002060008473ffffffffffffffffffffffffffffffffffffffff1673ffffffffffffffffffffffffffffffffffffffff16815260200190815260200160002060006101000a81548173ffffffffffffffffffffffffffffffffffffffff021916908373ffffffffffffffffffffffffffffffffffffffff1602179055505050565b600080fd5b600073ffffffffffffffffffffffffffffffffffffffff82169050919050565b60006117ea826117bf565b9050919050565b6117fa816117df565b811461180557600080fd5b50565b600081359050611817816117f1565b92915050565b6000819050919050565b6118308161181d565b811461183b57600080fd5b50565b60008135905061184d81611827565b92915050565b6000806040838503121561186a576118696117ba565b5b600061187885828601611808565b92505060206118898582860161183e565b9150509250929050565b61189c816117df565b82525050565b60006020820190506118b76000830184611893565b92915050565b6000602082840312156118d3576118d26117ba565b5b60006118e184828501611808565b91505092915050565b600081519050919050565b600082825260208201905092915050565b6000819050602082019050919050565b61191f816117df565b82525050565b60006119318383611916565b60208301905092915050565b6000602082019050919050565b6000611955826118ea565b61195f81856118f5565b935061196a83611906565b8060005b8381101561199b5781516119828882611925565b975061198d8361193d565b92505060018101905061196e565b5085935050505092915050565b600060208201905081810360008301526119c2818461194a565b905092915050565b600080604083850312156119e1576119e06117ba565b5b60006119ef85828601611808565b9250506020611a0085828601611808565b9150509250929050565b60008115159050919050565b611a1f81611a0a565b82525050565b6000602082019050611a3a6000830184611a16565b92915050565b611a4981611a0a565b8114611a5457600080fd5b50565b600081359050611a6681611a40565b92915050565b60008060408385031215611a8357611a826117ba565b5b6000611a9185828601611808565b9250506020611aa285828601611a57565b9150509250929050565b600082825260208201905092915050565b7f4f70657261746f72206e6f7420617070726f7665642e00000000000000000000600082015250565b6000611af3601683611aac565b9150611afe82611abd565b602082019050919050565b60006020820190508181036000830152611b2281611ae6565b9050919050565b7f4e6f7420617070726f7665642061646d696e6973747261746f72000000000000600082015250565b6000611b5f601a83611aac565b9150611b6a82611b29565b602082019050919050565b60006020820190508181036000830152611b8e81611b52565b9050919050565b7f4e487b7100000000000000000000000000000000000000000000000000000000600052603260045260246000fd5b7f4e487b7100000000000000000000000000000000000000000000000000000000600052601160045260246000fd5b6000611bfe8261181d565b9150611c098361181d565b9250828203905081811115611c2157611c20611bc4565b5b92915050565b7f4e487b7100000000000000000000000000000000000000000000000000000000600052603160045260246000fd5b7f43616e6e6f7420617070726f7665207a65726f20616464726573732e00000000600082015250565b6000611c8c601c83611aac565b9150611c9782611c56565b602082019050919050565b60006020820190508181036000830152611cbb81611c7f565b9050919050565b7f4f70657261746f7220616c726561647920617070726f7665642e000000000000600082015250565b6000611cf8601a83611aac565b9150611d0382611cc2565b602082019050919050565b60006020820190508181036000830152611d2781611ceb565b9050919050565b7f41646d696e20616c726561647920617070726f7665642e000000000000000000600082015250565b6000611d64601783611aac565b9150611d6f82611d2e565b602082019050919050565b60006020820190508181036000830152611d9381611d57565b9050919050565b7f41646d696e6973747261746f72206e6f7420617070726f7665642e0000000000600082015250565b6000611dd0601b83611aac565b9150611ddb82611d9a565b602082019050919050565b60006020820190508181036000830152611dff81611dc3565b905091905056fea2646970667358221220c7cd22d0ad02912ddeac463e823bc29ef5f4ad02533c523c34450b90d8ecd2f264736f6c63430008180033",
  "devdoc": {
    "kind": "dev",
    "methods": {},
    "version": 1
  },
  "userdoc": {
    "kind": "user",
    "methods": {},
    "version": 1
  },
  "storageLayout": {
    "storage": [
      {
        "astId": 1915,
        "contract": "contracts/PromotionsManager.sol:PromotionsManager",
        "label": "approvedOperators",
        "offset": 0,
        "slot": "0",
        "type": "t_mapping(t_address,t_mapping(t_address,t_bool))"
      },
      {
        "astId": 1920,
        "contract": "contracts/PromotionsManager.sol:PromotionsManager",
        "label": "arrayOfApprovedOperators",
        "offset": 0,
        "slot": "1",
        "type": "t_mapping(t_address,t_array(t_address)dyn_storage)"
      },
      {
        "astId": 1926,
        "contract": "contracts/PromotionsManager.sol:PromotionsManager",
        "label": "approvedAdministrators",
        "offset": 0,
        "slot": "2",
        "type": "t_mapping(t_address,t_mapping(t_address,t_bool))"
      },
      {
        "astId": 1931,
        "contract": "contracts/PromotionsManager.sol:PromotionsManager",
        "label": "arrayOfApprovedAdministrators",
        "offset": 0,
        "slot": "3",
        "type": "t_mapping(t_address,t_array(t_address)dyn_storage)"
      },
      {
        "astId": 1937,
        "contract": "contracts/PromotionsManager.sol:PromotionsManager",
        "label": "receiverAccounts",
        "offset": 0,
        "slot": "4",
        "type": "t_mapping(t_address,t_mapping(t_address,t_address))"
      }
    ],
    "types": {
      "t_address": {
        "encoding": "inplace",
        "label": "address",
        "numberOfBytes": "20"
      },
      "t_array(t_address)dyn_storage": {
        "base": "t_address",
        "encoding": "dynamic_array",
        "label": "address[]",
        "numberOfBytes": "32"
      },
      "t_bool": {
        "encoding": "inplace",
        "label": "bool",
        "numberOfBytes": "1"
      },
      "t_mapping(t_address,t_address)": {
        "encoding": "mapping",
        "key": "t_address",
        "label": "mapping(address => address)",
        "numberOfBytes": "32",
        "value": "t_address"
      },
      "t_mapping(t_address,t_array(t_address)dyn_storage)": {
        "encoding": "mapping",
        "key": "t_address",
        "label": "mapping(address => address[])",
        "numberOfBytes": "32",
        "value": "t_array(t_address)dyn_storage"
      },
      "t_mapping(t_address,t_bool)": {
        "encoding": "mapping",
        "key": "t_address",
        "label": "mapping(address => bool)",
        "numberOfBytes": "32",
        "value": "t_bool"
      },
      "t_mapping(t_address,t_mapping(t_address,t_address))": {
        "encoding": "mapping",
        "key": "t_address",
        "label": "mapping(address => mapping(address => address))",
        "numberOfBytes": "32",
        "value": "t_mapping(t_address,t_address)"
      },
      "t_mapping(t_address,t_mapping(t_address,t_bool))": {
        "encoding": "mapping",
        "key": "t_address",
        "label": "mapping(address => mapping(address => bool))",
        "numberOfBytes": "32",
        "value": "t_mapping(t_address,t_bool)"
      }
    }
  }
}