{
  "address": "0xE6E340D132b5f46d1e472DebcD681B2aBc16e57E",
  "abi": [
    {
      "inputs": [
        {
          "internalType": "address",
          "name": "_signer",
          "type": "address"
        }
      ],
      "stateMutability": "nonpayable",
      "type": "constructor"
    },
    {
      "inputs": [],
      "name": "ECDSAInvalidSignature",
      "type": "error"
    },
    {
      "inputs": [
        {
          "internalType": "uint256",
          "name": "length",
          "type": "uint256"
        }
      ],
      "name": "ECDSAInvalidSignatureLength",
      "type": "error"
    },
    {
      "inputs": [
        {
          "internalType": "bytes32",
          "name": "s",
          "type": "bytes32"
        }
      ],
      "name": "ECDSAInvalidSignatureS",
      "type": "error"
    },
    {
      "inputs": [],
      "name": "InvalidShortString",
      "type": "error"
    },
    {
      "inputs": [],
      "name": "ReentrancyGuardReentrantCall",
      "type": "error"
    },
    {
      "inputs": [
        {
          "internalType": "string",
          "name": "str",
          "type": "string"
        }
      ],
      "name": "StringTooLong",
      "type": "error"
    },
    {
      "anonymous": false,
      "inputs": [],
      "name": "EIP712DomainChanged",
      "type": "event"
    },
    {
      "anonymous": false,
      "inputs": [
        {
          "indexed": true,
          "internalType": "address",
          "name": "buyer",
          "type": "address"
        },
        {
          "indexed": true,
          "internalType": "uint256",
          "name": "orderNo",
          "type": "uint256"
        },
        {
          "components": [
            {
              "internalType": "uint256",
              "name": "skuId",
              "type": "uint256"
            },
            {
              "internalType": "uint256",
              "name": "quantity",
              "type": "uint256"
            },
            {
              "internalType": "uint256",
              "name": "unitPrice",
              "type": "uint256"
            },
            {
              "internalType": "address",
              "name": "priceToken",
              "type": "address"
            },
            {
              "internalType": "uint256",
              "name": "priceVersion",
              "type": "uint256"
            },
            {
              "internalType": "uint256",
              "name": "inventory",
              "type": "uint256"
            },
            {
              "internalType": "uint256",
              "name": "inventoryVersion",
              "type": "uint256"
            },
            {
              "internalType": "uint256",
              "name": "promotionID",
              "type": "uint256"
            }
          ],
          "indexed": false,
          "internalType": "struct Proxy.PurchaseItem[]",
          "name": "items",
          "type": "tuple[]"
        }
      ],
      "name": "Purchased",
      "type": "event"
    },
    {
      "anonymous": false,
      "inputs": [
        {
          "indexed": true,
          "internalType": "uint256",
          "name": "skuId",
          "type": "uint256"
        },
        {
          "indexed": false,
          "internalType": "uint256",
          "name": "newPrice",
          "type": "uint256"
        },
        {
          "indexed": false,
          "internalType": "uint256",
          "name": "priceVersion",
          "type": "uint256"
        },
        {
          "indexed": false,
          "internalType": "uint256",
          "name": "newInventory",
          "type": "uint256"
        },
        {
          "indexed": false,
          "internalType": "uint256",
          "name": "inventoryVersion",
          "type": "uint256"
        }
      ],
      "name": "SkuUpdated",
      "type": "event"
    },
    {
      "inputs": [
        {
          "internalType": "uint256",
          "name": "_initialID",
          "type": "uint256"
        },
        {
          "internalType": "address",
          "name": "_promotionAddress",
          "type": "address"
        }
      ],
      "name": "approvePromotions",
      "outputs": [],
      "stateMutability": "nonpayable",
      "type": "function"
    },
    {
      "inputs": [
        {
          "internalType": "address",
          "name": "",
          "type": "address"
        },
        {
          "internalType": "address",
          "name": "",
          "type": "address"
        }
      ],
      "name": "approvedAdministrators",
      "outputs": [
        {
          "internalType": "bool",
          "name": "",
          "type": "bool"
        }
      ],
      "stateMutability": "view",
      "type": "function"
    },
    {
      "inputs": [
        {
          "internalType": "address",
          "name": "",
          "type": "address"
        },
        {
          "internalType": "address",
          "name": "",
          "type": "address"
        }
      ],
      "name": "approvedOperators",
      "outputs": [
        {
          "internalType": "bool",
          "name": "",
          "type": "bool"
        }
      ],
      "stateMutability": "view",
      "type": "function"
    },
    {
      "inputs": [
        {
          "internalType": "uint256",
          "name": "",
          "type": "uint256"
        }
      ],
      "name": "approvedPromotions",
      "outputs": [
        {
          "internalType": "address",
          "name": "",
          "type": "address"
        }
      ],
      "stateMutability": "view",
      "type": "function"
    },
    {
      "inputs": [
        {
          "internalType": "address",
          "name": "",
          "type": "address"
        },
        {
          "internalType": "uint256",
          "name": "",
          "type": "uint256"
        }
      ],
      "name": "arrayOfApprovedAdministrators",
      "outputs": [
        {
          "internalType": "address",
          "name": "",
          "type": "address"
        }
      ],
      "stateMutability": "view",
      "type": "function"
    },
    {
      "inputs": [
        {
          "internalType": "address",
          "name": "",
          "type": "address"
        },
        {
          "internalType": "uint256",
          "name": "",
          "type": "uint256"
        }
      ],
      "name": "arrayOfApprovedOperators",
      "outputs": [
        {
          "internalType": "address",
          "name": "",
          "type": "address"
        }
      ],
      "stateMutability": "view",
      "type": "function"
    },
    {
      "inputs": [
        {
          "components": [
            {
              "internalType": "uint256",
              "name": "skuId",
              "type": "uint256"
            },
            {
              "internalType": "uint256",
              "name": "quantity",
              "type": "uint256"
            },
            {
              "internalType": "uint256",
              "name": "unitPrice",
              "type": "uint256"
            },
            {
              "internalType": "address",
              "name": "priceToken",
              "type": "address"
            },
            {
              "internalType": "uint256",
              "name": "priceVersion",
              "type": "uint256"
            },
            {
              "internalType": "uint256",
              "name": "inventory",
              "type": "uint256"
            },
            {
              "internalType": "uint256",
              "name": "inventoryVersion",
              "type": "uint256"
            },
            {
              "internalType": "uint256",
              "name": "promotionID",
              "type": "uint256"
            }
          ],
          "internalType": "struct Proxy.PurchaseItem[]",
          "name": "items",
          "type": "tuple[]"
        },
        {
          "internalType": "uint256",
          "name": "payExpire",
          "type": "uint256"
        },
        {
          "internalType": "uint256",
          "name": "orderNo",
          "type": "uint256"
        },
        {
          "internalType": "bytes",
          "name": "signature",
          "type": "bytes"
        }
      ],
      "name": "buyWithBatchHash",
      "outputs": [],
      "stateMutability": "payable",
      "type": "function"
    },
    {
      "inputs": [],
      "name": "contractOwner",
      "outputs": [
        {
          "internalType": "address",
          "name": "",
          "type": "address"
        }
      ],
      "stateMutability": "view",
      "type": "function"
    },
    {
      "inputs": [],
      "name": "eip712Domain",
      "outputs": [
        {
          "internalType": "bytes1",
          "name": "fields",
          "type": "bytes1"
        },
        {
          "internalType": "string",
          "name": "name",
          "type": "string"
        },
        {
          "internalType": "string",
          "name": "version",
          "type": "string"
        },
        {
          "internalType": "uint256",
          "name": "chainId",
          "type": "uint256"
        },
        {
          "internalType": "address",
          "name": "verifyingContract",
          "type": "address"
        },
        {
          "internalType": "bytes32",
          "name": "salt",
          "type": "bytes32"
        },
        {
          "internalType": "uint256[]",
          "name": "extensions",
          "type": "uint256[]"
        }
      ],
      "stateMutability": "view",
      "type": "function"
    },
    {
      "inputs": [],
      "name": "getAllApprovedPromotions",
      "outputs": [
        {
          "internalType": "address[]",
          "name": "",
          "type": "address[]"
        }
      ],
      "stateMutability": "view",
      "type": "function"
    },
    {
      "inputs": [
        {
          "internalType": "uint256",
          "name": "skuId",
          "type": "uint256"
        }
      ],
      "name": "getSku",
      "outputs": [
        {
          "components": [
            {
              "internalType": "uint256",
              "name": "price",
              "type": "uint256"
            },
            {
              "internalType": "uint256",
              "name": "priceVersion",
              "type": "uint256"
            },
            {
              "internalType": "uint256",
              "name": "inventory",
              "type": "uint256"
            },
            {
              "internalType": "uint256",
              "name": "inventoryVersion",
              "type": "uint256"
            }
          ],
          "internalType": "struct Proxy.SkuState",
          "name": "",
          "type": "tuple"
        }
      ],
      "stateMutability": "view",
      "type": "function"
    },
    {
      "inputs": [
        {
          "components": [
            {
              "internalType": "uint256",
              "name": "skuId",
              "type": "uint256"
            },
            {
              "internalType": "uint256",
              "name": "quantity",
              "type": "uint256"
            },
            {
              "internalType": "uint256",
              "name": "unitPrice",
              "type": "uint256"
            },
            {
              "internalType": "address",
              "name": "priceToken",
              "type": "address"
            },
            {
              "internalType": "uint256",
              "name": "priceVersion",
              "type": "uint256"
            },
            {
              "internalType": "uint256",
              "name": "inventory",
              "type": "uint256"
            },
            {
              "internalType": "uint256",
              "name": "inventoryVersion",
              "type": "uint256"
            },
            {
              "internalType": "uint256",
              "name": "promotionID",
              "type": "uint256"
            }
          ],
          "internalType": "struct Proxy.PurchaseItem[]",
          "name": "items",
          "type": "tuple[]"
        }
      ],
      "name": "hashPurchaseItems",
      "outputs": [
        {
          "internalType": "bytes32",
          "name": "",
          "type": "bytes32"
        }
      ],
      "stateMutability": "pure",
      "type": "function"
    },
    {
      "inputs": [
        {
          "internalType": "uint256",
          "name": "",
          "type": "uint256"
        }
      ],
      "name": "initialPromotionIDs",
      "outputs": [
        {
          "internalType": "uint256",
          "name": "",
          "type": "uint256"
        }
      ],
      "stateMutability": "view",
      "type": "function"
    },
    {
      "inputs": [
        {
          "internalType": "address",
          "name": "",
          "type": "address"
        },
        {
          "internalType": "address",
          "name": "",
          "type": "address"
        }
      ],
      "name": "receiverAccounts",
      "outputs": [
        {
          "internalType": "address",
          "name": "",
          "type": "address"
        }
      ],
      "stateMutability": "view",
      "type": "function"
    },
    {
      "inputs": [
        {
          "internalType": "address",
          "name": "newOwner",
          "type": "address"
        }
      ],
      "name": "setOwner",
      "outputs": [],
      "stateMutability": "nonpayable",
      "type": "function"
    },
    {
      "inputs": [
        {
          "internalType": "address",
          "name": "_signer",
          "type": "address"
        }
      ],
      "name": "setSystemSigner",
      "outputs": [],
      "stateMutability": "nonpayable",
      "type": "function"
    },
    {
      "inputs": [
        {
          "internalType": "uint256",
          "name": "",
          "type": "uint256"
        }
      ],
      "name": "skus",
      "outputs": [
        {
          "internalType": "uint256",
          "name": "price",
          "type": "uint256"
        },
        {
          "internalType": "uint256",
          "name": "priceVersion",
          "type": "uint256"
        },
        {
          "internalType": "uint256",
          "name": "inventory",
          "type": "uint256"
        },
        {
          "internalType": "uint256",
          "name": "inventoryVersion",
          "type": "uint256"
        }
      ],
      "stateMutability": "view",
      "type": "function"
    },
    {
      "inputs": [],
      "name": "systemSigner",
      "outputs": [
        {
          "internalType": "address",
          "name": "",
          "type": "address"
        }
      ],
      "stateMutability": "view",
      "type": "function"
    },
    {
      "inputs": [
        {
          "internalType": "uint256",
          "name": "skuId",
          "type": "uint256"
        },
        {
          "internalType": "uint256",
          "name": "newPrice",
          "type": "uint256"
        },
        {
          "internalType": "uint256",
          "name": "priceVersion",
          "type": "uint256"
        },
        {
          "internalType": "uint256",
          "name": "newInventory",
          "type": "uint256"
        },
        {
          "internalType": "uint256",
          "name": "inventoryVersion",
          "type": "uint256"
        },
        {
          "internalType": "uint256",
          "name": "expireTime",
          "type": "uint256"
        },
        {
          "internalType": "address",
          "name": "updater",
          "type": "address"
        },
        {
          "internalType": "bytes",
          "name": "signature",
          "type": "bytes"
        }
      ],
      "name": "updateSkuWithSig",
      "outputs": [],
      "stateMutability": "nonpayable",
      "type": "function"
    },
    {
      "inputs": [
        {
          "internalType": "bytes32",
          "name": "",
          "type": "bytes32"
        }
      ],
      "name": "usedHashes",
      "outputs": [
        {
          "internalType": "bool",
          "name": "",
          "type": "bool"
        }
      ],
      "stateMutability": "view",
      "type": "function"
    },
    {
      "inputs": [
        {
          "internalType": "uint256",
          "name": "",
          "type": "uint256"
        }
      ],
      "name": "usedOrderNo",
      "outputs": [
        {
          "internalType": "bool",
          "name": "",
          "type": "bool"
        }
      ],
      "stateMutability": "view",
      "type": "function"
    }
  ],
  "transactionHash": "0xe76a6991f18a4533b7ac30d973b92310ece33a4497f0c74a5f9dca57ebfff1a0",
  "args": [
    "0xf39Fd6e51aad88F6F4ce6aB8827279cffFb92266"
  ],
  "numDeployments": 1,
  "solcInputHash": "2f65572559b14528c94d5dcf73c7a96a",
  "bytecode": "0x6101606040523480156200001257600080fd5b5060405162004224380380620042248339818101604052810190620000389190620003ed565b6040518060400160405280600481526020017f53686f70000000000000000000000000000000000000000000000000000000008152506040518060400160405280600181526020017f31000000000000000000000000000000000000000000000000000000000000008152506001600081905550620000c26001836200025760201b90919060201c565b6101208181525050620000e06002826200025760201b90919060201c565b6101408181525050818051906020012060e08181525050808051906020012061010081815250504660a081815250506200011f620002af60201b60201c565b608081815250503073ffffffffffffffffffffffffffffffffffffffff1660c08173ffffffffffffffffffffffffffffffffffffffff16815250505050600073ffffffffffffffffffffffffffffffffffffffff168173ffffffffffffffffffffffffffffffffffffffff1603620001ce576040517f08c379a0000000000000000000000000000000000000000000000000000000008152600401620001c59062000480565b60405180910390fd5b80600e60006101000a81548173ffffffffffffffffffffffffffffffffffffffff021916908373ffffffffffffffffffffffffffffffffffffffff16021790555033600360006101000a81548173ffffffffffffffffffffffffffffffffffffffff021916908373ffffffffffffffffffffffffffffffffffffffff16021790555050620009e1565b60006020835110156200027d5762000275836200030c60201b60201c565b9050620002a9565b826200028f836200037960201b60201c565b6000019081620002a091906200071c565b5060ff60001b90505b92915050565b60007f8b73c3c69bb8fe3d512ecc4cf759cc79239f7b179b0ffacaa9a75d522b39400f60e051610100514630604051602001620002f195949392919062000840565b60405160208183030381529060405280519060200120905090565b600080829050601f815111156200035c57826040517f305a27a90000000000000000000000000000000000000000000000000000000081526004016200035391906200091b565b60405180910390fd5b8051816200036a9062000971565b60001c1760001b915050919050565b6000819050919050565b600080fd5b600073ffffffffffffffffffffffffffffffffffffffff82169050919050565b6000620003b58262000388565b9050919050565b620003c781620003a8565b8114620003d357600080fd5b50565b600081519050620003e781620003bc565b92915050565b60006020828403121562000406576200040562000383565b5b60006200041684828501620003d6565b91505092915050565b600082825260208201905092915050565b7f696e76616c6964207369676e6572000000000000000000000000000000000000600082015250565b600062000468600e836200041f565b9150620004758262000430565b602082019050919050565b600060208201905081810360008301526200049b8162000459565b9050919050565b600081519050919050565b7f4e487b7100000000000000000000000000000000000000000000000000000000600052604160045260246000fd5b7f4e487b7100000000000000000000000000000000000000000000000000000000600052602260045260246000fd5b600060028204905060018216806200052457607f821691505b6020821081036200053a5762000539620004dc565b5b50919050565b60008190508160005260206000209050919050565b60006020601f8301049050919050565b600082821b905092915050565b600060088302620005a47fffffffffffffffffffffffffffffffffffffffffffffffffffffffffffffffff8262000565565b620005b0868362000565565b95508019841693508086168417925050509392505050565b6000819050919050565b6000819050919050565b6000620005fd620005f7620005f184620005c8565b620005d2565b620005c8565b9050919050565b6000819050919050565b6200061983620005dc565b62000631620006288262000604565b84845462000572565b825550505050565b600090565b6200064862000639565b620006558184846200060e565b505050565b5b818110156200067d57620006716000826200063e565b6001810190506200065b565b5050565b601f821115620006cc57620006968162000540565b620006a18462000555565b81016020851015620006b1578190505b620006c9620006c08562000555565b8301826200065a565b50505b505050565b600082821c905092915050565b6000620006f160001984600802620006d1565b1980831691505092915050565b60006200070c8383620006de565b9150826002028217905092915050565b6200072782620004a2565b67ffffffffffffffff811115620007435762000742620004ad565b5b6200074f82546200050b565b6200075c82828562000681565b600060209050601f8311600181146200079457600084156200077f578287015190505b6200078b8582620006fe565b865550620007fb565b601f198416620007a48662000540565b60005b82811015620007ce57848901518255600182019150602085019450602081019050620007a7565b86831015620007ee5784890151620007ea601f891682620006de565b8355505b6001600288020188555050505b505050505050565b6000819050919050565b620008188162000803565b82525050565b6200082981620005c8565b82525050565b6200083a81620003a8565b82525050565b600060a0820190506200085760008301886200080d565b6200086660208301876200080d565b6200087560408301866200080d565b6200088460608301856200081e565b6200089360808301846200082f565b9695505050505050565b60005b83811015620008bd578082015181840152602081019050620008a0565b60008484015250505050565b6000601f19601f8301169050919050565b6000620008e782620004a2565b620008f381856200041f565b9350620009058185602086016200089d565b6200091081620008c9565b840191505092915050565b60006020820190508181036000830152620009378184620008da565b905092915050565b600081519050919050565b6000819050602082019050919050565b600062000968825162000803565b80915050919050565b60006200097e826200093f565b826200098a846200094a565b905062000997816200095a565b92506020821015620009da57620009d57fffffffffffffffffffffffffffffffffffffffffffffffffffffffffffffffff8360200360080262000565565b831692505b5050919050565b60805160a05160c05160e0516101005161012051610140516137e862000a3c6000396000611a07015260006119cc01526000611f7f01526000611f5e01526000611c1101526000611c6701526000611c9001526137e86000f3fe60806040526004361061012a5760003560e01c80637f0d4fb7116100ab578063b85f3bf01161006f578063b85f3bf01461046d578063c2d40357146104aa578063ce606ee0146104e7578063cf2b120214610512578063f2e1efa11461053b578063f88c4892146105575761012a565b80637f0d4fb71461034857806384b0196e146103855780638783346a146103b6578063a1c6ae19146103f3578063aef18bf7146104305761012a565b806334d82220116100f257806334d822201461022657806335007f0e1461026357806338d70ed8146102a35780633a886a4d146102e0578063676d82a41461030b5761012a565b8063039551f41461012f57806312388fe41461016c57806313af4035146101a957806314f22387146101d257806332613df5146101fb575b600080fd5b34801561013b57600080fd5b50610156600480360381019061015191906121d9565b610580565b6040516101639190612228565b60405180910390f35b34801561017857600080fd5b50610193600480360381019061018e91906121d9565b6105ce565b6040516101a09190612228565b60405180910390f35b3480156101b557600080fd5b506101d060048036038101906101cb9190612243565b61061c565b005b3480156101de57600080fd5b506101f960048036038101906101f49190612243565b6106f0565b005b34801561020757600080fd5b50610210610833565b60405161021d9190612228565b60405180910390f35b34801561023257600080fd5b5061024d60048036038101906102489190612270565b610859565b60405161025a91906122cb565b60405180910390f35b34801561026f57600080fd5b5061028a600480360381019061028591906122e6565b610888565b60405161029a9493929190612322565b60405180910390f35b3480156102af57600080fd5b506102ca60048036038101906102c59190612270565b6108b8565b6040516102d791906122cb565b60405180910390f35b3480156102ec57600080fd5b506102f56108e7565b6040516103029190612425565b60405180910390f35b34801561031757600080fd5b50610332600480360381019061032d9190612270565b610975565b60405161033f9190612228565b60405180910390f35b34801561035457600080fd5b5061036f600480360381019061036a91906122e6565b6109b7565b60405161037c9190612447565b60405180910390f35b34801561039157600080fd5b5061039a6109db565b6040516103ad9796959493929190612604565b60405180910390f35b3480156103c257600080fd5b506103dd60048036038101906103d891906122e6565b610a85565b6040516103ea9190612228565b60405180910390f35b3480156103ff57600080fd5b5061041a600480360381019061041591906122e6565b610ac4565b60405161042791906126dd565b60405180910390f35b34801561043c57600080fd5b5061045760048036038101906104529190612724565b610b19565b60405161046491906122cb565b60405180910390f35b34801561047957600080fd5b50610494600480360381019061048f91906122e6565b610b39565b6040516104a191906122cb565b60405180910390f35b3480156104b657600080fd5b506104d160048036038101906104cc91906127b7565b610b59565b6040516104de9190612804565b60405180910390f35b3480156104f357600080fd5b506104fc610c37565b6040516105099190612228565b60405180910390f35b34801561051e57600080fd5b5061053960048036038101906105349190612875565b610c5d565b005b6105556004803603810190610550919061294b565b61101d565b005b34801561056357600080fd5b5061057e600480360381019061057991906129f2565b611654565b005b6005602052816000526040600020818154811061059c57600080fd5b906000526020600020016000915091509054906101000a900473ffffffffffffffffffffffffffffffffffffffff1681565b600760205281600052604060002081815481106105ea57600080fd5b906000526020600020016000915091509054906101000a900473ffffffffffffffffffffffffffffffffffffffff1681565b600360009054906101000a900473ffffffffffffffffffffffffffffffffffffffff1673ffffffffffffffffffffffffffffffffffffffff163373ffffffffffffffffffffffffffffffffffffffff16146106ac576040517f08c379a00000000000000000000000000000000000000000000000000000000081526004016106a390612a7e565b60405180910390fd5b80600360006101000a81548173ffffffffffffffffffffffffffffffffffffffff021916908373ffffffffffffffffffffffffffffffffffffffff16021790555050565b600360009054906101000a900473ffffffffffffffffffffffffffffffffffffffff1673ffffffffffffffffffffffffffffffffffffffff163373ffffffffffffffffffffffffffffffffffffffff1614610780576040517f08c379a000000000000000000000000000000000000000000000000000000000815260040161077790612a7e565b60405180910390fd5b600073ffffffffffffffffffffffffffffffffffffffff168173ffffffffffffffffffffffffffffffffffffffff16036107ef576040517f08c379a00000000000000000000000000000000000000000000000000000000081526004016107e690612aea565b60405180910390fd5b80600e60006101000a81548173ffffffffffffffffffffffffffffffffffffffff021916908373ffffffffffffffffffffffffffffffffffffffff16021790555050565b600e60009054906101000a900473ffffffffffffffffffffffffffffffffffffffff1681565b60046020528160005260406000206020528060005260406000206000915091509054906101000a900460ff1681565b600b6020528060005260406000206000915090508060000154908060010154908060020154908060030154905084565b60066020528160005260406000206020528060005260406000206000915091509054906101000a900460ff1681565b6060600a80548060200260200160405190810160405280929190818152602001828054801561096b57602002820191906000526020600020905b8160009054906101000a900473ffffffffffffffffffffffffffffffffffffffff1673ffffffffffffffffffffffffffffffffffffffff1681526020019060010190808311610921575b5050505050905090565b60086020528160005260406000206020528060005260406000206000915091509054906101000a900473ffffffffffffffffffffffffffffffffffffffff1681565b600981815481106109c757600080fd5b906000526020600020016000915090505481565b6000606080600080600060606109ef6119c3565b6109f76119fe565b46306000801b600067ffffffffffffffff811115610a1857610a17612b0a565b5b604051908082528060200260200182016040528015610a465781602001602082028036833780820191505090505b507f0f00000000000000000000000000000000000000000000000000000000000000959493929190965096509650965096509650965090919293949596565b600a8181548110610a9557600080fd5b906000526020600020016000915054906101000a900473ffffffffffffffffffffffffffffffffffffffff1681565b610acc612113565b600b60008381526020019081526020016000206040518060800160405290816000820154815260200160018201548152602001600282015481526020016003820154815250509050919050565b600d6020528060005260406000206000915054906101000a900460ff1681565b600c6020528060005260406000206000915054906101000a900460ff1681565b6000808383905067ffffffffffffffff811115610b7957610b78612b0a565b5b604051908082528060200260200182016040528015610ba75781602001602082028036833780820191505090505b50905060005b84849050811015610c0657610bda858583818110610bce57610bcd612b39565b5b90506101000201611a39565b828281518110610bed57610bec612b39565b5b6020026020010181815250508080600101915050610bad565b5080604051602001610c189190612c20565b6040516020818303038152906040528051906020012091505092915050565b600360009054906101000a900473ffffffffffffffffffffffffffffffffffffffff1681565b8273ffffffffffffffffffffffffffffffffffffffff163373ffffffffffffffffffffffffffffffffffffffff1614610ccb576040517f08c379a0000000000000000000000000000000000000000000000000000000008152600401610cc290612c83565b60405180910390fd5b83421115610d0e576040517f08c379a0000000000000000000000000000000000000000000000000000000008152600401610d0590612cef565b60405180910390fd5b60007f8058e1123f055dd4e813dd95e63abf022a823c53f4ee75967a693e97cdfecd368a8a8a8a8a8a8a604051602001610d4f989796959493929190612d0f565b6040516020818303038152906040528051906020012090506000610d7282611ac7565b9050600e60009054906101000a900473ffffffffffffffffffffffffffffffffffffffff1673ffffffffffffffffffffffffffffffffffffffff16610dfb8286868080601f016020809104026020016040519081016040528093929190818152602001838380828437600081840152601f19601f82011690508083019250505050505050611ae1565b73ffffffffffffffffffffffffffffffffffffffff1614610e51576040517f08c379a0000000000000000000000000000000000000000000000000000000008152600401610e4890612dd9565b60405180910390fd5b600d600082815260200190815260200160002060009054906101000a900460ff1615610eb2576040517f08c379a0000000000000000000000000000000000000000000000000000000008152600401610ea990612e45565b60405180910390fd5b6001600d600083815260200190815260200160002060006101000a81548160ff0219169083151502179055506000600b60008d8152602001908152602001600020905080600101548a1015610f3c576040517f08c379a0000000000000000000000000000000000000000000000000000000008152600401610f3390612eb1565b60405180910390fd5b8060030154881015610f83576040517f08c379a0000000000000000000000000000000000000000000000000000000008152600401610f7a90612f1d565b60405180910390fd5b80600101548a1115610fa2578a81600001819055508981600101819055505b8060030154881115610fc1578881600201819055508781600301819055505b8b7f2b092840ce5167ca3607754fd32cf828341f11d58c79dcae6a0051a17459119882600001548360010154846002015485600301546040516110079493929190612322565b60405180910390a2505050505050505050505050565b611025611b0d565b83421115611068576040517f08c379a000000000000000000000000000000000000000000000000000000000815260040161105f90612f89565b60405180910390fd5b600086869050116110ae576040517f08c379a00000000000000000000000000000000000000000000000000000000081526004016110a590612ff5565b60405180910390fd5b600c600084815260200190815260200160002060009054906101000a900460ff161561110f576040517f08c379a000000000000000000000000000000000000000000000000000000000815260040161110690613061565b60405180910390fd5b600061111b8787610b59565b905060007f381abef6f07c6d7a174e78e58e22dcfb2bccc5ed73079967f6ffc5a16b918ec486863385604051602001611158959493929190613081565b604051602081830303815290604052805190602001209050600061117b82611ac7565b9050600e60009054906101000a900473ffffffffffffffffffffffffffffffffffffffff1673ffffffffffffffffffffffffffffffffffffffff166112048287878080601f016020809104026020016040519081016040528093929190818152602001838380828437600081840152601f19601f82011690508083019250505050505050611ae1565b73ffffffffffffffffffffffffffffffffffffffff161461125a576040517f08c379a000000000000000000000000000000000000000000000000000000000815260040161125190612dd9565b60405180910390fd5b60005b898990508110156115c357368a8a8381811061127c5761127b612b39565b5b9050610100020190506000600b60008360000135815260200190815260200160002090508060010154826080013510156112eb576040517f08c379a00000000000000000000000000000000000000000000000000000000081526004016112e290613120565b60405180910390fd5b80600101548260800135111561131a578160400135816000018190555081608001358160010181905550611365565b8160400135816000015414611364576040517f08c379a000000000000000000000000000000000000000000000000000000000815260040161135b9061318c565b60405180910390fd5b5b80600301548260c0013510156113b0576040517f08c379a00000000000000000000000000000000000000000000000000000000081526004016113a7906131f8565b60405180910390fd5b8160200135816002015410156113fb576040517f08c379a00000000000000000000000000000000000000000000000000000000081526004016113f290613264565b60405180910390fd5b80600301548260c0013511156114355781602001358260a0013561141f91906132b3565b81600201819055508160c0013581600301819055505b600960008154811061144a57611449612b39565b5b90600052602060002001548260e00135101561149b576040517f08c379a000000000000000000000000000000000000000000000000000000000815260040161149290613333565b60405180910390fd5b600060016009805490506114af91906132b3565b90505b6000811180156114e357508260e00135600982815481106114d6576114d5612b39565b5b9060005260206000200154115b156114f6578080600190039150506114b2565b6000600a828154811061150c5761150b612b39565b5b9060005260206000200160009054906101000a900473ffffffffffffffffffffffffffffffffffffffff1690508073ffffffffffffffffffffffffffffffffffffffff16634950345c8560e0013585600001548e336040518563ffffffff1660e01b81526004016115809493929190613353565b600060405180830381600087803b15801561159a57600080fd5b505af11580156115ae573d6000803e3d6000fd5b5050505050505050808060010191505061125d565b506001600c600088815260200190815260200160002060006101000a81548160ff021916908315150217905550853373ffffffffffffffffffffffffffffffffffffffff167fb51d8f109b7e2b51135f2d8f1b45fd957374e8d8296083a13c9bc5375cd420e88b8b604051611639929190613552565b60405180910390a350505061164c611b53565b505050505050565b600360009054906101000a900473ffffffffffffffffffffffffffffffffffffffff1673ffffffffffffffffffffffffffffffffffffffff163373ffffffffffffffffffffffffffffffffffffffff16146116e4576040517f08c379a00000000000000000000000000000000000000000000000000000000081526004016116db90612a7e565b60405180910390fd5b6000600990506000600a905060008280549050905060005b8181101561176e578584828154811061171857611717612b39565b5b906000526020600020015403611763576040517f08c379a000000000000000000000000000000000000000000000000000000000815260040161175a906135c2565b60405180910390fd5b8060010190506116fc565b50600081905060005b828110156117b7578685828154811061179357611792612b39565b5b906000526020600020015411156117ac578091506117b7565b806001019050611777565b5083600090806001815401808255809150506001900390600052602060002001600090919091909150558260009080600181540180825580915050600190039060005260206000200160009091909190916101000a81548173ffffffffffffffffffffffffffffffffffffffff021916908373ffffffffffffffffffffffffffffffffffffffff16021790555060008290505b8181111561193c5784600182038154811061186857611867612b39565b5b906000526020600020015485828154811061188657611885612b39565b5b90600052602060002001819055508360018203815481106118aa576118a9612b39565b5b9060005260206000200160009054906101000a900473ffffffffffffffffffffffffffffffffffffffff168482815481106118e8576118e7612b39565b5b9060005260206000200160006101000a81548173ffffffffffffffffffffffffffffffffffffffff021916908373ffffffffffffffffffffffffffffffffffffffff1602179055508060019003905061184a565b508584828154811061195157611950612b39565b5b90600052602060002001819055508483828154811061197357611972612b39565b5b9060005260206000200160006101000a81548173ffffffffffffffffffffffffffffffffffffffff021916908373ffffffffffffffffffffffffffffffffffffffff160217905550505050505050565b60606119f960017f0000000000000000000000000000000000000000000000000000000000000000611b5d90919063ffffffff16565b905090565b6060611a3460027f0000000000000000000000000000000000000000000000000000000000000000611b5d90919063ffffffff16565b905090565b60007f7f11064311a4d79e89d4a8af1d912adacf3c11181103e65f43a84f383af7842b826000013583602001358460400135856060016020810190611a7e9190612243565b86608001358760a001358860c001358960e00135604051602001611aaa999897969594939291906135e2565b604051602081830303815290604052805190602001209050919050565b6000611ada611ad4611c0d565b83611cc4565b9050919050565b600080600080611af18686611d05565b925092509250611b018282611d61565b82935050505092915050565b600260005403611b49576040517f3ee5aeb500000000000000000000000000000000000000000000000000000000815260040160405180910390fd5b6002600081905550565b6001600081905550565b606060ff60001b8314611b7a57611b7383611ec5565b9050611c07565b818054611b869061369e565b80601f0160208091040260200160405190810160405280929190818152602001828054611bb29061369e565b8015611bff5780601f10611bd457610100808354040283529160200191611bff565b820191906000526020600020905b815481529060010190602001808311611be257829003601f168201915b505050505090505b92915050565b60007f000000000000000000000000000000000000000000000000000000000000000073ffffffffffffffffffffffffffffffffffffffff163073ffffffffffffffffffffffffffffffffffffffff16148015611c8957507f000000000000000000000000000000000000000000000000000000000000000046145b15611cb6577f00000000000000000000000000000000000000000000000000000000000000009050611cc1565b611cbe611f39565b90505b90565b60006040517f190100000000000000000000000000000000000000000000000000000000000081528360028201528260228201526042812091505092915050565b60008060006041845103611d4a5760008060006020870151925060408701519150606087015160001a9050611d3c88828585611fcf565b955095509550505050611d5a565b60006002855160001b9250925092505b9250925092565b60006003811115611d7557611d746136cf565b5b826003811115611d8857611d876136cf565b5b0315611ec15760016003811115611da257611da16136cf565b5b826003811115611db557611db46136cf565b5b03611dec576040517ff645eedf00000000000000000000000000000000000000000000000000000000815260040160405180910390fd5b60026003811115611e0057611dff6136cf565b5b826003811115611e1357611e126136cf565b5b03611e58578060001c6040517ffce698f7000000000000000000000000000000000000000000000000000000008152600401611e4f9190612447565b60405180910390fd5b600380811115611e6b57611e6a6136cf565b5b826003811115611e7e57611e7d6136cf565b5b03611ec057806040517fd78bce0c000000000000000000000000000000000000000000000000000000008152600401611eb79190612804565b60405180910390fd5b5b5050565b60606000611ed2836120c3565b90506000602067ffffffffffffffff811115611ef157611ef0612b0a565b5b6040519080825280601f01601f191660200182016040528015611f235781602001600182028036833780820191505090505b5090508181528360208201528092505050919050565b60007f8b73c3c69bb8fe3d512ecc4cf759cc79239f7b179b0ffacaa9a75d522b39400f7f00000000000000000000000000000000000000000000000000000000000000007f00000000000000000000000000000000000000000000000000000000000000004630604051602001611fb49594939291906136fe565b60405160208183030381529060405280519060200120905090565b60008060007f7fffffffffffffffffffffffffffffff5d576e7357a4501ddfe92f46681b20a08460001c111561200f5760006003859250925092506120b9565b600060018888888860405160008152602001604052604051612034949392919061376d565b6020604051602081039080840390855afa158015612056573d6000803e3d6000fd5b505050602060405103519050600073ffffffffffffffffffffffffffffffffffffffff168173ffffffffffffffffffffffffffffffffffffffff16036120aa57600060016000801b935093509350506120b9565b8060008060001b935093509350505b9450945094915050565b60008060ff8360001c169050601f81111561210a576040517fb3512b0c00000000000000000000000000000000000000000000000000000000815260040160405180910390fd5b80915050919050565b6040518060800160405280600081526020016000815260200160008152602001600081525090565b600080fd5b600080fd5b600073ffffffffffffffffffffffffffffffffffffffff82169050919050565b600061217082612145565b9050919050565b61218081612165565b811461218b57600080fd5b50565b60008135905061219d81612177565b92915050565b6000819050919050565b6121b6816121a3565b81146121c157600080fd5b50565b6000813590506121d3816121ad565b92915050565b600080604083850312156121f0576121ef61213b565b5b60006121fe8582860161218e565b925050602061220f858286016121c4565b9150509250929050565b61222281612165565b82525050565b600060208201905061223d6000830184612219565b92915050565b6000602082840312156122595761225861213b565b5b60006122678482850161218e565b91505092915050565b600080604083850312156122875761228661213b565b5b60006122958582860161218e565b92505060206122a68582860161218e565b9150509250929050565b60008115159050919050565b6122c5816122b0565b82525050565b60006020820190506122e060008301846122bc565b92915050565b6000602082840312156122fc576122fb61213b565b5b600061230a848285016121c4565b91505092915050565b61231c816121a3565b82525050565b60006080820190506123376000830187612313565b6123446020830186612313565b6123516040830185612313565b61235e6060830184612313565b95945050505050565b600081519050919050565b600082825260208201905092915050565b6000819050602082019050919050565b61239c81612165565b82525050565b60006123ae8383612393565b60208301905092915050565b6000602082019050919050565b60006123d282612367565b6123dc8185612372565b93506123e783612383565b8060005b838110156124185781516123ff88826123a2565b975061240a836123ba565b9250506001810190506123eb565b5085935050505092915050565b6000602082019050818103600083015261243f81846123c7565b905092915050565b600060208201905061245c6000830184612313565b92915050565b60007fff0000000000000000000000000000000000000000000000000000000000000082169050919050565b61249781612462565b82525050565b600081519050919050565b600082825260208201905092915050565b60005b838110156124d75780820151818401526020810190506124bc565b60008484015250505050565b6000601f19601f8301169050919050565b60006124ff8261249d565b61250981856124a8565b93506125198185602086016124b9565b612522816124e3565b840191505092915050565b6000819050919050565b6125408161252d565b82525050565b600081519050919050565b600082825260208201905092915050565b6000819050602082019050919050565b61257b816121a3565b82525050565b600061258d8383612572565b60208301905092915050565b6000602082019050919050565b60006125b182612546565b6125bb8185612551565b93506125c683612562565b8060005b838110156125f75781516125de8882612581565b97506125e983612599565b9250506001810190506125ca565b5085935050505092915050565b600060e082019050612619600083018a61248e565b818103602083015261262b81896124f4565b9050818103604083015261263f81886124f4565b905061264e6060830187612313565b61265b6080830186612219565b61266860a0830185612537565b81810360c083015261267a81846125a6565b905098975050505050505050565b60808201600082015161269e6000850182612572565b5060208201516126b16020850182612572565b5060408201516126c46040850182612572565b5060608201516126d76060850182612572565b50505050565b60006080820190506126f26000830184612688565b92915050565b6127018161252d565b811461270c57600080fd5b50565b60008135905061271e816126f8565b92915050565b60006020828403121561273a5761273961213b565b5b60006127488482850161270f565b91505092915050565b600080fd5b600080fd5b600080fd5b60008083601f84011261277657612775612751565b5b8235905067ffffffffffffffff81111561279357612792612756565b5b602083019150836101008202830111156127b0576127af61275b565b5b9250929050565b600080602083850312156127ce576127cd61213b565b5b600083013567ffffffffffffffff8111156127ec576127eb612140565b5b6127f885828601612760565b92509250509250929050565b60006020820190506128196000830184612537565b92915050565b60008083601f84011261283557612834612751565b5b8235905067ffffffffffffffff81111561285257612851612756565b5b60208301915083600182028301111561286e5761286d61275b565b5b9250929050565b60008060008060008060008060006101008a8c0312156128985761289761213b565b5b60006128a68c828d016121c4565b99505060206128b78c828d016121c4565b98505060406128c88c828d016121c4565b97505060606128d98c828d016121c4565b96505060806128ea8c828d016121c4565b95505060a06128fb8c828d016121c4565b94505060c061290c8c828d0161218e565b93505060e08a013567ffffffffffffffff81111561292d5761292c612140565b5b6129398c828d0161281f565b92509250509295985092959850929598565b600080600080600080608087890312156129685761296761213b565b5b600087013567ffffffffffffffff81111561298657612985612140565b5b61299289828a01612760565b965096505060206129a589828a016121c4565b94505060406129b689828a016121c4565b935050606087013567ffffffffffffffff8111156129d7576129d6612140565b5b6129e389828a0161281f565b92509250509295509295509295565b60008060408385031215612a0957612a0861213b565b5b6000612a17858286016121c4565b9250506020612a288582860161218e565b9150509250929050565b7f4e6f74204f776e65720000000000000000000000000000000000000000000000600082015250565b6000612a686009836124a8565b9150612a7382612a32565b602082019050919050565b60006020820190508181036000830152612a9781612a5b565b9050919050565b7f696e76616c6964207369676e6572000000000000000000000000000000000000600082015250565b6000612ad4600e836124a8565b9150612adf82612a9e565b602082019050919050565b60006020820190508181036000830152612b0381612ac7565b9050919050565b7f4e487b7100000000000000000000000000000000000000000000000000000000600052604160045260246000fd5b7f4e487b7100000000000000000000000000000000000000000000000000000000600052603260045260246000fd5b600081519050919050565b600081905092915050565b6000819050602082019050919050565b612b978161252d565b82525050565b6000612ba98383612b8e565b60208301905092915050565b6000602082019050919050565b6000612bcd82612b68565b612bd78185612b73565b9350612be283612b7e565b8060005b83811015612c13578151612bfa8882612b9d565b9750612c0583612bb5565b925050600181019050612be6565b5085935050505092915050565b6000612c2c8284612bc2565b915081905092915050565b7f63616c6c6572206e6f7420617574686f72697a65640000000000000000000000600082015250565b6000612c6d6015836124a8565b9150612c7882612c37565b602082019050919050565b60006020820190508181036000830152612c9c81612c60565b9050919050565b7f7369676e61747572652065787069726564000000000000000000000000000000600082015250565b6000612cd96011836124a8565b9150612ce482612ca3565b602082019050919050565b60006020820190508181036000830152612d0881612ccc565b9050919050565b600061010082019050612d25600083018b612537565b612d32602083018a612313565b612d3f6040830189612313565b612d4c6060830188612313565b612d596080830187612313565b612d6660a0830186612313565b612d7360c0830185612313565b612d8060e0830184612219565b9998505050505050505050565b7f696e76616c6964207369676e6174757265000000000000000000000000000000600082015250565b6000612dc36011836124a8565b9150612dce82612d8d565b602082019050919050565b60006020820190508181036000830152612df281612db6565b9050919050565b7f7369676e6174757265207265706c617965640000000000000000000000000000600082015250565b6000612e2f6012836124a8565b9150612e3a82612df9565b602082019050919050565b60006020820190508181036000830152612e5e81612e22565b9050919050565b7f7374616c652070726963652076657273696f6e00000000000000000000000000600082015250565b6000612e9b6013836124a8565b9150612ea682612e65565b602082019050919050565b60006020820190508181036000830152612eca81612e8e565b9050919050565b7f7374616c6520696e76656e746f72792076657273696f6e000000000000000000600082015250565b6000612f076017836124a8565b9150612f1282612ed1565b602082019050919050565b60006020820190508181036000830152612f3681612efa565b9050919050565b7f6578706972656400000000000000000000000000000000000000000000000000600082015250565b6000612f736007836124a8565b9150612f7e82612f3d565b602082019050919050565b60006020820190508181036000830152612fa281612f66565b9050919050565b7f656d707479206261746368000000000000000000000000000000000000000000600082015250565b6000612fdf600b836124a8565b9150612fea82612fa9565b602082019050919050565b6000602082019050818103600083015261300e81612fd2565b9050919050565b7f6f726465724e6f20757365640000000000000000000000000000000000000000600082015250565b600061304b600c836124a8565b915061305682613015565b602082019050919050565b6000602082019050818103600083015261307a8161303e565b9050919050565b600060a0820190506130966000830188612537565b6130a36020830187612313565b6130b06040830186612313565b6130bd6060830185612219565b6130ca6080830184612537565b9695505050505050565b7f7374616c65207072696365000000000000000000000000000000000000000000600082015250565b600061310a600b836124a8565b9150613115826130d4565b602082019050919050565b60006020820190508181036000830152613139816130fd565b9050919050565b7f7072696365206d69736d61746368000000000000000000000000000000000000600082015250565b6000613176600e836124a8565b915061318182613140565b602082019050919050565b600060208201905081810360008301526131a581613169565b9050919050565b7f7374616c6520696e76656e746f72790000000000000000000000000000000000600082015250565b60006131e2600f836124a8565b91506131ed826131ac565b602082019050919050565b60006020820190508181036000830152613211816131d5565b9050919050565b7f696e73756666696369656e742073746f636b0000000000000000000000000000600082015250565b600061324e6012836124a8565b915061325982613218565b602082019050919050565b6000602082019050818103600083015261327d81613241565b9050919050565b7f4e487b7100000000000000000000000000000000000000000000000000000000600052601160045260246000fd5b60006132be826121a3565b91506132c9836121a3565b92508282039050818111156132e1576132e0613284565b5b92915050565b7f496e76616c69642070726f6d6f74696f6e204944000000000000000000000000600082015250565b600061331d6014836124a8565b9150613328826132e7565b602082019050919050565b6000602082019050818103600083015261334c81613310565b9050919050565b60006080820190506133686000830187612313565b6133756020830186612313565b6133826040830185612313565b61338f6060830184612219565b95945050505050565b600082825260208201905092915050565b6000819050919050565b60006133c260208401846121c4565b905092915050565b60006133d9602084018461218e565b905092915050565b61010082016133f360008301836133b3565b6134006000850182612572565b5061340e60208301836133b3565b61341b6020850182612572565b5061342960408301836133b3565b6134366040850182612572565b5061344460608301836133ca565b6134516060850182612393565b5061345f60808301836133b3565b61346c6080850182612572565b5061347a60a08301836133b3565b61348760a0850182612572565b5061349560c08301836133b3565b6134a260c0850182612572565b506134b060e08301836133b3565b6134bd60e0850182612572565b50505050565b60006134cf83836133e1565b6101008301905092915050565b600082905092915050565b600061010082019050919050565b60006135018385613398565b935061350c826133a9565b8060005b858110156135455761352282846134dc565b61352c88826134c3565b9750613537836134e7565b925050600181019050613510565b5085925050509392505050565b6000602082019050818103600083015261356d8184866134f5565b90509392505050565b7f4475706c69636174652070726f6d6f74696f6e20494400000000000000000000600082015250565b60006135ac6016836124a8565b91506135b782613576565b602082019050919050565b600060208201905081810360008301526135db8161359f565b9050919050565b6000610120820190506135f8600083018c612537565b613605602083018b612313565b613612604083018a612313565b61361f6060830189612313565b61362c6080830188612219565b61363960a0830187612313565b61364660c0830186612313565b61365360e0830185612313565b613661610100830184612313565b9a9950505050505050505050565b7f4e487b7100000000000000000000000000000000000000000000000000000000600052602260045260246000fd5b600060028204905060018216806136b657607f821691505b6020821081036136c9576136c861366f565b5b50919050565b7f4e487b7100000000000000000000000000000000000000000000000000000000600052602160045260246000fd5b600060a0820190506137136000830188612537565b6137206020830187612537565b61372d6040830186612537565b61373a6060830185612313565b6137476080830184612219565b9695505050505050565b600060ff82169050919050565b61376781613751565b82525050565b60006080820190506137826000830187612537565b61378f602083018661375e565b61379c6040830185612537565b6137a96060830184612537565b9594505050505056fea26469706673582212209ab7131e33e8c3d36bb70c4c41cca3260856d637ec1bcd0cef40d74bd9b56ab164736f6c63430008180033",
  "devdoc": {
    "errors": {
      "ECDSAInvalidSignature()": [
        {
          "details": "The signature derives the `address(0)`."
        }
      ],
      "ECDSAInvalidSignatureLength(uint256)": [
        {
          "details": "The signature has an invalid length."
        }
      ],
      "ECDSAInvalidSignatureS(bytes32)": [
        {
          "details": "The signature has an S value that is in the upper half order."
        }
      ],
      "ReentrancyGuardReentrantCall()": [
        {
          "details": "Unauthorized reentrant call."
        }
      ]
    },
    "events": {
      "EIP712DomainChanged()": {
        "details": "MAY be emitted to signal that the domain could have changed."
      }
    },
    "kind": "dev",
    "methods": {
      "buyWithBatchHash((uint256,uint256,uint256,address,uint256,uint256,uint256,uint256)[],uint256,uint256,bytes)": {
        "params": {
          "items": "Array of purchase items",
          "orderNo": "Unique order number to prevent replay",
          "payExpire": "Expiration timestamp for payment",
          "signature": "EIP-712 signature from system signer"
        }
      },
      "constructor": {
        "params": {
          "_signer": "The authorized system signer"
        }
      },
      "eip712Domain()": {
        "details": "See {IERC-5267}."
      },
      "getSku(uint256)": {
        "params": {
          "skuId": "SKU ID"
        },
        "returns": {
          "_0": "SkuState struct containing price, inventory, and version info"
        }
      },
      "hashPurchaseItems((uint256,uint256,uint256,address,uint256,uint256,uint256,uint256)[])": {
        "params": {
          "items": "Array of PurchaseItem structs"
        },
        "returns": {
          "_0": "bytes32 The cumulative hash of all items"
        }
      },
      "updateSkuWithSig(uint256,uint256,uint256,uint256,uint256,uint256,address,bytes)": {
        "params": {
          "expireTime": "Signature expiration timestamp",
          "inventoryVersion": "Inventory version",
          "newInventory": "New inventory amount",
          "newPrice": "New unit price",
          "priceVersion": "Price version",
          "signature": "EIP-712 signature from system signer",
          "skuId": "SKU ID",
          "updater": "Address authorized to perform the update"
        }
      }
    },
    "version": 1
  },
  "userdoc": {
    "events": {
      "Purchased(address,uint256,(uint256,uint256,uint256,address,uint256,uint256,uint256,uint256)[])": {
        "notice": "Event emitted on a purchase"
      },
      "SkuUpdated(uint256,uint256,uint256,uint256,uint256)": {
        "notice": "Event emitted when a SKU is updated"
      }
    },
    "kind": "user",
    "methods": {
      "buyWithBatchHash((uint256,uint256,uint256,address,uint256,uint256,uint256,uint256)[],uint256,uint256,bytes)": {
        "notice": "Batch purchase using a single EIP-712 signature"
      },
      "getSku(uint256)": {
        "notice": "Get SKU state"
      },
      "hashPurchaseItems((uint256,uint256,uint256,address,uint256,uint256,uint256,uint256)[])": {
        "notice": "Constructs a hash for an array of PurchaseItem structs"
      },
      "skus(uint256)": {
        "notice": "SKU mapping"
      },
      "systemSigner()": {
        "notice": "System signer address for EIP-712 signatures"
      },
      "updateSkuWithSig(uint256,uint256,uint256,uint256,uint256,uint256,address,bytes)": {
        "notice": "Update SKU using a system signature"
      },
      "usedHashes(bytes32)": {
        "notice": "Used struct hashes to prevent signature replay"
      },
      "usedOrderNo(uint256)": {
        "notice": "Used order numbers to prevent replay attacks"
      }
    },
    "version": 1
  },
  "storageLayout": {
    "storage": [
      {
        "astId": 692,
        "contract": "contracts/Protocol Contracts/Proxy.sol:Proxy",
        "label": "_status",
        "offset": 0,
        "slot": "0",
        "type": "t_uint256"
      },
      {
        "astId": 1717,
        "contract": "contracts/Protocol Contracts/Proxy.sol:Proxy",
        "label": "_nameFallback",
        "offset": 0,
        "slot": "1",
        "type": "t_string_storage"
      },
      {
        "astId": 1719,
        "contract": "contracts/Protocol Contracts/Proxy.sol:Proxy",
        "label": "_versionFallback",
        "offset": 0,
        "slot": "2",
        "type": "t_string_storage"
      },
      {
        "astId": 3172,
        "contract": "contracts/Protocol Contracts/Proxy.sol:Proxy",
        "label": "contractOwner",
        "offset": 0,
        "slot": "3",
        "type": "t_address"
      },
      {
        "astId": 3178,
        "contract": "contracts/Protocol Contracts/Proxy.sol:Proxy",
        "label": "approvedOperators",
        "offset": 0,
        "slot": "4",
        "type": "t_mapping(t_address,t_mapping(t_address,t_bool))"
      },
      {
        "astId": 3183,
        "contract": "contracts/Protocol Contracts/Proxy.sol:Proxy",
        "label": "arrayOfApprovedOperators",
        "offset": 0,
        "slot": "5",
        "type": "t_mapping(t_address,t_array(t_address)dyn_storage)"
      },
      {
        "astId": 3189,
        "contract": "contracts/Protocol Contracts/Proxy.sol:Proxy",
        "label": "approvedAdministrators",
        "offset": 0,
        "slot": "6",
        "type": "t_mapping(t_address,t_mapping(t_address,t_bool))"
      },
      {
        "astId": 3194,
        "contract": "contracts/Protocol Contracts/Proxy.sol:Proxy",
        "label": "arrayOfApprovedAdministrators",
        "offset": 0,
        "slot": "7",
        "type": "t_mapping(t_address,t_array(t_address)dyn_storage)"
      },
      {
        "astId": 3200,
        "contract": "contracts/Protocol Contracts/Proxy.sol:Proxy",
        "label": "receiverAccounts",
        "offset": 0,
        "slot": "8",
        "type": "t_mapping(t_address,t_mapping(t_address,t_address))"
      },
      {
        "astId": 3203,
        "contract": "contracts/Protocol Contracts/Proxy.sol:Proxy",
        "label": "initialPromotionIDs",
        "offset": 0,
        "slot": "9",
        "type": "t_array(t_uint256)dyn_storage"
      },
      {
        "astId": 3206,
        "contract": "contracts/Protocol Contracts/Proxy.sol:Proxy",
        "label": "approvedPromotions",
        "offset": 0,
        "slot": "10",
        "type": "t_array(t_address)dyn_storage"
      },
      {
        "astId": 3245,
        "contract": "contracts/Protocol Contracts/Proxy.sol:Proxy",
        "label": "skus",
        "offset": 0,
        "slot": "11",
        "type": "t_mapping(t_uint256,t_struct(SkuState)3216_storage)"
      },
      {
        "astId": 3250,
        "contract": "contracts/Protocol Contracts/Proxy.sol:Proxy",
        "label": "usedOrderNo",
        "offset": 0,
        "slot": "12",
        "type": "t_mapping(t_uint256,t_bool)"
      },
      {
        "astId": 3255,
        "contract": "contracts/Protocol Contracts/Proxy.sol:Proxy",
        "label": "usedHashes",
        "offset": 0,
        "slot": "13",
        "type": "t_mapping(t_bytes32,t_bool)"
      },
      {
        "astId": 3258,
        "contract": "contracts/Protocol Contracts/Proxy.sol:Proxy",
        "label": "systemSigner",
        "offset": 0,
        "slot": "14",
        "type": "t_address"
      }
    ],
    "types": {
      "t_address": {
        "encoding": "inplace",
        "label": "address",
        "numberOfBytes": "20"
      },
      "t_array(t_address)dyn_storage": {
        "base": "t_address",
        "encoding": "dynamic_array",
        "label": "address[]",
        "numberOfBytes": "32"
      },
      "t_array(t_uint256)dyn_storage": {
        "base": "t_uint256",
        "encoding": "dynamic_array",
        "label": "uint256[]",
        "numberOfBytes": "32"
      },
      "t_bool": {
        "encoding": "inplace",
        "label": "bool",
        "numberOfBytes": "1"
      },
      "t_bytes32": {
        "encoding": "inplace",
        "label": "bytes32",
        "numberOfBytes": "32"
      },
      "t_mapping(t_address,t_address)": {
        "encoding": "mapping",
        "key": "t_address",
        "label": "mapping(address => address)",
        "numberOfBytes": "32",
        "value": "t_address"
      },
      "t_mapping(t_address,t_array(t_address)dyn_storage)": {
        "encoding": "mapping",
        "key": "t_address",
        "label": "mapping(address => address[])",
        "numberOfBytes": "32",
        "value": "t_array(t_address)dyn_storage"
      },
      "t_mapping(t_address,t_bool)": {
        "encoding": "mapping",
        "key": "t_address",
        "label": "mapping(address => bool)",
        "numberOfBytes": "32",
        "value": "t_bool"
      },
      "t_mapping(t_address,t_mapping(t_address,t_address))": {
        "encoding": "mapping",
        "key": "t_address",
        "label": "mapping(address => mapping(address => address))",
        "numberOfBytes": "32",
        "value": "t_mapping(t_address,t_address)"
      },
      "t_mapping(t_address,t_mapping(t_address,t_bool))": {
        "encoding": "mapping",
        "key": "t_address",
        "label": "mapping(address => mapping(address => bool))",
        "numberOfBytes": "32",
        "value": "t_mapping(t_address,t_bool)"
      },
      "t_mapping(t_bytes32,t_bool)": {
        "encoding": "mapping",
        "key": "t_bytes32",
        "label": "mapping(bytes32 => bool)",
        "numberOfBytes": "32",
        "value": "t_bool"
      },
      "t_mapping(t_uint256,t_bool)": {
        "encoding": "mapping",
        "key": "t_uint256",
        "label": "mapping(uint256 => bool)",
        "numberOfBytes": "32",
        "value": "t_bool"
      },
      "t_mapping(t_uint256,t_struct(SkuState)3216_storage)": {
        "encoding": "mapping",
        "key": "t_uint256",
        "label": "mapping(uint256 => struct Proxy.SkuState)",
        "numberOfBytes": "32",
        "value": "t_struct(SkuState)3216_storage"
      },
      "t_string_storage": {
        "encoding": "bytes",
        "label": "string",
        "numberOfBytes": "32"
      },
      "t_struct(SkuState)3216_storage": {
        "encoding": "inplace",
        "label": "struct Proxy.SkuState",
        "members": [
          {
            "astId": 3209,
            "contract": "contracts/Protocol Contracts/Proxy.sol:Proxy",
            "label": "price",
            "offset": 0,
            "slot": "0",
            "type": "t_uint256"
          },
          {
            "astId": 3211,
            "contract": "contracts/Protocol Contracts/Proxy.sol:Proxy",
            "label": "priceVersion",
            "offset": 0,
            "slot": "1",
            "type": "t_uint256"
          },
          {
            "astId": 3213,
            "contract": "contracts/Protocol Contracts/Proxy.sol:Proxy",
            "label": "inventory",
            "offset": 0,
            "slot": "2",
            "type": "t_uint256"
          },
          {
            "astId": 3215,
            "contract": "contracts/Protocol Contracts/Proxy.sol:Proxy",
            "label": "inventoryVersion",
            "offset": 0,
            "slot": "3",
            "type": "t_uint256"
          }
        ],
        "numberOfBytes": "128"
      },
      "t_uint256": {
        "encoding": "inplace",
        "label": "uint256",
        "numberOfBytes": "32"
      }
    }
  }
}