{
  "address": "0x84eA74d481Ee0A5332c457a4d796187F6Ba67fEB",
  "abi": [
    {
      "inputs": [],
      "stateMutability": "nonpayable",
      "type": "constructor"
    },
    {
      "inputs": [
        {
          "internalType": "address",
          "name": "sender",
          "type": "address"
        },
        {
          "internalType": "uint256",
          "name": "tokenId",
          "type": "uint256"
        },
        {
          "internalType": "address",
          "name": "owner",
          "type": "address"
        }
      ],
      "name": "ERC721IncorrectOwner",
      "type": "error"
    },
    {
      "inputs": [
        {
          "internalType": "address",
          "name": "operator",
          "type": "address"
        },
        {
          "internalType": "uint256",
          "name": "tokenId",
          "type": "uint256"
        }
      ],
      "name": "ERC721InsufficientApproval",
      "type": "error"
    },
    {
      "inputs": [
        {
          "internalType": "address",
          "name": "approver",
          "type": "address"
        }
      ],
      "name": "ERC721InvalidApprover",
      "type": "error"
    },
    {
      "inputs": [
        {
          "internalType": "address",
          "name": "operator",
          "type": "address"
        }
      ],
      "name": "ERC721InvalidOperator",
      "type": "error"
    },
    {
      "inputs": [
        {
          "internalType": "address",
          "name": "owner",
          "type": "address"
        }
      ],
      "name": "ERC721InvalidOwner",
      "type": "error"
    },
    {
      "inputs": [
        {
          "internalType": "address",
          "name": "receiver",
          "type": "address"
        }
      ],
      "name": "ERC721InvalidReceiver",
      "type": "error"
    },
    {
      "inputs": [
        {
          "internalType": "address",
          "name": "sender",
          "type": "address"
        }
      ],
      "name": "ERC721InvalidSender",
      "type": "error"
    },
    {
      "inputs": [
        {
          "internalType": "uint256",
          "name": "tokenId",
          "type": "uint256"
        }
      ],
      "name": "ERC721NonexistentToken",
      "type": "error"
    },
    {
      "inputs": [],
      "name": "TokenDoesNotExist",
      "type": "error"
    },
    {
      "anonymous": false,
      "inputs": [
        {
          "indexed": true,
          "internalType": "address",
          "name": "owner",
          "type": "address"
        },
        {
          "indexed": true,
          "internalType": "address",
          "name": "approved",
          "type": "address"
        },
        {
          "indexed": true,
          "internalType": "uint256",
          "name": "tokenId",
          "type": "uint256"
        }
      ],
      "name": "Approval",
      "type": "event"
    },
    {
      "anonymous": false,
      "inputs": [
        {
          "indexed": true,
          "internalType": "address",
          "name": "owner",
          "type": "address"
        },
        {
          "indexed": true,
          "internalType": "address",
          "name": "operator",
          "type": "address"
        },
        {
          "indexed": false,
          "internalType": "bool",
          "name": "approved",
          "type": "bool"
        }
      ],
      "name": "ApprovalForAll",
      "type": "event"
    },
    {
      "anonymous": false,
      "inputs": [
        {
          "indexed": true,
          "internalType": "address",
          "name": "from",
          "type": "address"
        },
        {
          "indexed": true,
          "internalType": "address",
          "name": "to",
          "type": "address"
        },
        {
          "indexed": true,
          "internalType": "uint256",
          "name": "tokenId",
          "type": "uint256"
        }
      ],
      "name": "Transfer",
      "type": "event"
    },
    {
      "inputs": [
        {
          "internalType": "address",
          "name": "_toApprove",
          "type": "address"
        }
      ],
      "name": "addApprovedCaller",
      "outputs": [],
      "stateMutability": "nonpayable",
      "type": "function"
    },
    {
      "inputs": [
        {
          "internalType": "address",
          "name": "to",
          "type": "address"
        },
        {
          "internalType": "uint256",
          "name": "tokenId",
          "type": "uint256"
        }
      ],
      "name": "approve",
      "outputs": [],
      "stateMutability": "nonpayable",
      "type": "function"
    },
    {
      "inputs": [
        {
          "internalType": "uint256",
          "name": "",
          "type": "uint256"
        }
      ],
      "name": "approvedCallers",
      "outputs": [
        {
          "internalType": "address",
          "name": "",
          "type": "address"
        }
      ],
      "stateMutability": "view",
      "type": "function"
    },
    {
      "inputs": [
        {
          "internalType": "address",
          "name": "owner",
          "type": "address"
        }
      ],
      "name": "balanceOf",
      "outputs": [
        {
          "internalType": "uint256",
          "name": "",
          "type": "uint256"
        }
      ],
      "stateMutability": "view",
      "type": "function"
    },
    {
      "inputs": [],
      "name": "contractOwner",
      "outputs": [
        {
          "internalType": "address",
          "name": "",
          "type": "address"
        }
      ],
      "stateMutability": "view",
      "type": "function"
    },
    {
      "inputs": [
        {
          "internalType": "uint256",
          "name": "",
          "type": "uint256"
        }
      ],
      "name": "customURIRoot",
      "outputs": [
        {
          "internalType": "string",
          "name": "",
          "type": "string"
        }
      ],
      "stateMutability": "view",
      "type": "function"
    },
    {
      "inputs": [],
      "name": "defaultURIRoot",
      "outputs": [
        {
          "internalType": "string",
          "name": "",
          "type": "string"
        }
      ],
      "stateMutability": "view",
      "type": "function"
    },
    {
      "inputs": [
        {
          "internalType": "uint256",
          "name": "tokenId",
          "type": "uint256"
        }
      ],
      "name": "getApproved",
      "outputs": [
        {
          "internalType": "address",
          "name": "",
          "type": "address"
        }
      ],
      "stateMutability": "view",
      "type": "function"
    },
    {
      "inputs": [],
      "name": "getApprovedCallers",
      "outputs": [
        {
          "internalType": "address[]",
          "name": "",
          "type": "address[]"
        }
      ],
      "stateMutability": "view",
      "type": "function"
    },
    {
      "inputs": [
        {
          "internalType": "uint256",
          "name": "numOrders",
          "type": "uint256"
        }
      ],
      "name": "incrementReceiptIDs",
      "outputs": [
        {
          "internalType": "uint256",
          "name": "",
          "type": "uint256"
        }
      ],
      "stateMutability": "nonpayable",
      "type": "function"
    },
    {
      "inputs": [
        {
          "internalType": "address",
          "name": "owner",
          "type": "address"
        },
        {
          "internalType": "address",
          "name": "operator",
          "type": "address"
        }
      ],
      "name": "isApprovedForAll",
      "outputs": [
        {
          "internalType": "bool",
          "name": "",
          "type": "bool"
        }
      ],
      "stateMutability": "view",
      "type": "function"
    },
    {
      "inputs": [
        {
          "internalType": "address",
          "name": "to",
          "type": "address"
        },
        {
          "internalType": "uint256",
          "name": "promotionID",
          "type": "uint256"
        },
        {
          "internalType": "uint256",
          "name": "participantNumber",
          "type": "uint256"
        },
        {
          "internalType": "uint256",
          "name": "numTokens",
          "type": "uint256"
        }
      ],
      "name": "mintReceipts",
      "outputs": [
        {
          "internalType": "uint256",
          "name": "",
          "type": "uint256"
        }
      ],
      "stateMutability": "nonpayable",
      "type": "function"
    },
    {
      "inputs": [
        {
          "internalType": "uint256",
          "name": "promotionID",
          "type": "uint256"
        },
        {
          "internalType": "string",
          "name": "newURIRoot",
          "type": "string"
        }
      ],
      "name": "modifyPromotionURI",
      "outputs": [],
      "stateMutability": "nonpayable",
      "type": "function"
    },
    {
      "inputs": [],
      "name": "name",
      "outputs": [
        {
          "internalType": "string",
          "name": "",
          "type": "string"
        }
      ],
      "stateMutability": "view",
      "type": "function"
    },
    {
      "inputs": [
        {
          "internalType": "uint256",
          "name": "tokenId",
          "type": "uint256"
        }
      ],
      "name": "ownerOf",
      "outputs": [
        {
          "internalType": "address",
          "name": "",
          "type": "address"
        }
      ],
      "stateMutability": "view",
      "type": "function"
    },
    {
      "inputs": [
        {
          "internalType": "uint256",
          "name": "",
          "type": "uint256"
        }
      ],
      "name": "promotionOwners",
      "outputs": [
        {
          "internalType": "address",
          "name": "",
          "type": "address"
        }
      ],
      "stateMutability": "view",
      "type": "function"
    },
    {
      "inputs": [],
      "name": "receiptIDs",
      "outputs": [
        {
          "internalType": "uint256",
          "name": "",
          "type": "uint256"
        }
      ],
      "stateMutability": "view",
      "type": "function"
    },
    {
      "inputs": [
        {
          "internalType": "address",
          "name": "_toRemove",
          "type": "address"
        }
      ],
      "name": "removeApprovedCaller",
      "outputs": [],
      "stateMutability": "nonpayable",
      "type": "function"
    },
    {
      "inputs": [
        {
          "internalType": "uint256",
          "name": "",
          "type": "uint256"
        }
      ],
      "name": "royaltyBasisPoints",
      "outputs": [
        {
          "internalType": "uint16",
          "name": "",
          "type": "uint16"
        }
      ],
      "stateMutability": "view",
      "type": "function"
    },
    {
      "inputs": [
        {
          "internalType": "uint256",
          "name": "tokenId",
          "type": "uint256"
        },
        {
          "internalType": "uint256",
          "name": "salePrice",
          "type": "uint256"
        }
      ],
      "name": "royaltyInfo",
      "outputs": [
        {
          "internalType": "address",
          "name": "receiver",
          "type": "address"
        },
        {
          "internalType": "uint256",
          "name": "royaltyAmount",
          "type": "uint256"
        }
      ],
      "stateMutability": "view",
      "type": "function"
    },
    {
      "inputs": [
        {
          "internalType": "uint256",
          "name": "",
          "type": "uint256"
        }
      ],
      "name": "royaltyReceiver",
      "outputs": [
        {
          "internalType": "address",
          "name": "",
          "type": "address"
        }
      ],
      "stateMutability": "view",
      "type": "function"
    },
    {
      "inputs": [
        {
          "internalType": "address",
          "name": "from",
          "type": "address"
        },
        {
          "internalType": "address",
          "name": "to",
          "type": "address"
        },
        {
          "internalType": "uint256",
          "name": "tokenId",
          "type": "uint256"
        }
      ],
      "name": "safeTransferFrom",
      "outputs": [],
      "stateMutability": "nonpayable",
      "type": "function"
    },
    {
      "inputs": [
        {
          "internalType": "address",
          "name": "from",
          "type": "address"
        },
        {
          "internalType": "address",
          "name": "to",
          "type": "address"
        },
        {
          "internalType": "uint256",
          "name": "tokenId",
          "type": "uint256"
        },
        {
          "internalType": "bytes",
          "name": "data",
          "type": "bytes"
        }
      ],
      "name": "safeTransferFrom",
      "outputs": [],
      "stateMutability": "nonpayable",
      "type": "function"
    },
    {
      "inputs": [
        {
          "internalType": "address",
          "name": "operator",
          "type": "address"
        },
        {
          "internalType": "bool",
          "name": "approved",
          "type": "bool"
        }
      ],
      "name": "setApprovalForAll",
      "outputs": [],
      "stateMutability": "nonpayable",
      "type": "function"
    },
    {
      "inputs": [
        {
          "internalType": "string",
          "name": "_newRoot",
          "type": "string"
        }
      ],
      "name": "setDefaultURIRoot",
      "outputs": [],
      "stateMutability": "nonpayable",
      "type": "function"
    },
    {
      "inputs": [
        {
          "internalType": "address payable",
          "name": "newOwner",
          "type": "address"
        }
      ],
      "name": "setOwner",
      "outputs": [],
      "stateMutability": "nonpayable",
      "type": "function"
    },
    {
      "inputs": [
        {
          "internalType": "uint256",
          "name": "promotionID",
          "type": "uint256"
        },
        {
          "internalType": "address",
          "name": "promotionOwner",
          "type": "address"
        }
      ],
      "name": "setPromotionOwner",
      "outputs": [],
      "stateMutability": "nonpayable",
      "type": "function"
    },
    {
      "inputs": [
        {
          "internalType": "uint256",
          "name": "promotionID",
          "type": "uint256"
        },
        {
          "internalType": "uint16",
          "name": "basisPoints",
          "type": "uint16"
        }
      ],
      "name": "setRoyalty",
      "outputs": [],
      "stateMutability": "nonpayable",
      "type": "function"
    },
    {
      "inputs": [
        {
          "internalType": "bytes4",
          "name": "interfaceId",
          "type": "bytes4"
        }
      ],
      "name": "supportsInterface",
      "outputs": [
        {
          "internalType": "bool",
          "name": "",
          "type": "bool"
        }
      ],
      "stateMutability": "view",
      "type": "function"
    },
    {
      "inputs": [],
      "name": "symbol",
      "outputs": [
        {
          "internalType": "string",
          "name": "",
          "type": "string"
        }
      ],
      "stateMutability": "view",
      "type": "function"
    },
    {
      "inputs": [
        {
          "internalType": "uint256",
          "name": "",
          "type": "uint256"
        }
      ],
      "name": "tokenContexts",
      "outputs": [
        {
          "internalType": "uint256",
          "name": "promotionID",
          "type": "uint256"
        },
        {
          "internalType": "uint256",
          "name": "participantNumber",
          "type": "uint256"
        }
      ],
      "stateMutability": "view",
      "type": "function"
    },
    {
      "inputs": [
        {
          "internalType": "uint256",
          "name": "tokenID",
          "type": "uint256"
        }
      ],
      "name": "tokenURI",
      "outputs": [
        {
          "internalType": "string",
          "name": "",
          "type": "string"
        }
      ],
      "stateMutability": "view",
      "type": "function"
    },
    {
      "inputs": [
        {
          "internalType": "address",
          "name": "from",
          "type": "address"
        },
        {
          "internalType": "address",
          "name": "to",
          "type": "address"
        },
        {
          "internalType": "uint256",
          "name": "tokenId",
          "type": "uint256"
        }
      ],
      "name": "transferFrom",
      "outputs": [],
      "stateMutability": "nonpayable",
      "type": "function"
    }
  ],
  "transactionHash": "0xa55ab1768a9aadb02d07bd0b66c4a77588e2d2abfc532248ca7a6891726d56d8",
  "args": [],
  "numDeployments": 1,
  "solcInputHash": "8189e57a09356806dcc9d43da62e3641",
  "bytecode": "0x60806040526040518060400160405280600b81526020017f616d617a6f6e2e636f6d2f000000000000000000000000000000000000000000815250600890816200004a9190620003ac565b503480156200005857600080fd5b506040518060400160405280600a81526020017f526563656970744e4654000000000000000000000000000000000000000000008152506040518060400160405280600381526020017f52505400000000000000000000000000000000000000000000000000000000008152508160009081620000d69190620003ac565b508060019081620000e89190620003ac565b50505033600760006101000a81548173ffffffffffffffffffffffffffffffffffffffff021916908373ffffffffffffffffffffffffffffffffffffffff16021790555062000493565b600081519050919050565b7f4e487b7100000000000000000000000000000000000000000000000000000000600052604160045260246000fd5b7f4e487b7100000000000000000000000000000000000000000000000000000000600052602260045260246000fd5b60006002820490506001821680620001b457607f821691505b602082108103620001ca57620001c96200016c565b5b50919050565b60008190508160005260206000209050919050565b60006020601f8301049050919050565b600082821b905092915050565b600060088302620002347fffffffffffffffffffffffffffffffffffffffffffffffffffffffffffffffff82620001f5565b620002408683620001f5565b95508019841693508086168417925050509392505050565b6000819050919050565b6000819050919050565b60006200028d62000287620002818462000258565b62000262565b62000258565b9050919050565b6000819050919050565b620002a9836200026c565b620002c1620002b88262000294565b84845462000202565b825550505050565b600090565b620002d8620002c9565b620002e58184846200029e565b505050565b5b818110156200030d5762000301600082620002ce565b600181019050620002eb565b5050565b601f8211156200035c576200032681620001d0565b6200033184620001e5565b8101602085101562000341578190505b620003596200035085620001e5565b830182620002ea565b50505b505050565b600082821c905092915050565b6000620003816000198460080262000361565b1980831691505092915050565b60006200039c83836200036e565b9150826002028217905092915050565b620003b78262000132565b67ffffffffffffffff811115620003d357620003d26200013d565b5b620003df82546200019b565b620003ec82828562000311565b600060209050601f8311600181146200042457600084156200040f578287015190505b6200041b85826200038e565b8655506200048b565b601f1984166200043486620001d0565b60005b828110156200045e5784890151825560018201915060208501945060208101905062000437565b868310156200047e57848901516200047a601f8916826200036e565b8355505b6001600288020188555050505b505050505050565b613e5780620004a36000396000f3fe608060405234801561001057600080fd5b50600436106101fa5760003560e01c80636352211e1161011a578063c87b56dd116100ad578063d65c430e1161007c578063d65c430e14610608578063e985e9c514610639578063ecf017c514610669578063f165cb0714610687578063f7e5d8c6146106b7576101fa565b8063c87b56dd1461056e578063ce606ee01461059e578063d25cdf1d146105bc578063d36595e7146105d8576101fa565b806395d89b41116100e957806395d89b41146104fc578063a22cb4651461051a578063ab5cb85a14610536578063b88d4fde14610552576101fa565b80636352211e1461045057806370a082311461048057806384936ac0146104b057806395d65155146104cc576101fa565b80631d4922b81161019257806342842e0e1161016157806342842e0e146103ca5780635bf77a5a146103e65780635c7eced7146104025780635cd2dd5e14610420576101fa565b80631d4922b81461033157806323b872dd146103615780632a55205a1461037d57806335b20baf146103ae576101fa565b8063095ea7b3116101ce578063095ea7b3146102ad57806311e3d8d7146102c9578063135a0ce9146102e557806313af403514610315576101fa565b80629308a1146101ff57806301ffc9a71461022f57806306fdde031461025f578063081812fc1461027d575b600080fd5b61021960048036038101906102149190612a27565b6106d5565b6040516102269190612a9d565b60405180910390f35b61024960048036038101906102449190612b10565b610870565b6040516102569190612b58565b60405180910390f35b610267610882565b6040516102749190612c03565b60405180910390f35b61029760048036038101906102929190612c25565b610914565b6040516102a49190612c61565b60405180910390f35b6102c760048036038101906102c29190612c7c565b610930565b005b6102e360048036038101906102de9190612cf6565b610946565b005b6102ff60048036038101906102fa9190612c25565b610a9b565b60405161030c9190612c03565b60405180910390f35b61032f600480360381019061032a9190612d74565b610b3b565b005b61034b60048036038101906103469190612c25565b610c0f565b6040516103589190612a9d565b60405180910390f35b61037b60048036038101906103769190612da1565b610d24565b005b61039760048036038101906103929190612df4565b610e26565b6040516103a5929190612e34565b60405180910390f35b6103c860048036038101906103c39190612e5d565b610ed8565b005b6103e460048036038101906103df9190612da1565b611008565b005b61040060048036038101906103fb9190612e9d565b611028565b005b61040a61127e565b6040516104179190612c03565b60405180910390f35b61043a60048036038101906104359190612c25565b61130c565b6040516104479190612c61565b60405180910390f35b61046a60048036038101906104659190612c25565b61133f565b6040516104779190612c61565b60405180910390f35b61049a60048036038101906104959190612e9d565b611351565b6040516104a79190612a9d565b60405180910390f35b6104ca60048036038101906104c59190612f2f565b61140b565b005b6104e660048036038101906104e19190612c25565b61150d565b6040516104f39190612c61565b60405180910390f35b61050461154c565b6040516105119190612c03565b60405180910390f35b610534600480360381019061052f9190612fbb565b6115de565b005b610550600480360381019061054b9190612e9d565b6115f4565b005b61056c6004803603810190610567919061312b565b611829565b005b61058860048036038101906105839190612c25565b611846565b6040516105959190612c03565b60405180910390f35b6105a66119cb565b6040516105b39190612c61565b60405180910390f35b6105d660048036038101906105d191906131ae565b6119f1565b005b6105f260048036038101906105ed9190612c25565b611a97565b6040516105ff919061320a565b60405180910390f35b610622600480360381019061061d9190612c25565b611ab8565b604051610630929190613225565b60405180910390f35b610653600480360381019061064e919061324e565b611adc565b6040516106609190612b58565b60405180910390f35b610671611b70565b60405161067e919061334c565b60405180910390f35b6106a1600480360381019061069c9190612c25565b611bfe565b6040516106ae9190612c61565b60405180910390f35b6106bf611c31565b6040516106cc9190612a9d565b60405180910390f35b6000806000905060005b600c80549050811015610773573373ffffffffffffffffffffffffffffffffffffffff16600c82815481106107175761071661336e565b5b9060005260206000200160009054906101000a900473ffffffffffffffffffffffffffffffffffffffff1673ffffffffffffffffffffffffffffffffffffffff16036107665760019150610773565b80806001019150506106df565b50806107b4576040517f08c379a00000000000000000000000000000000000000000000000000000000081526004016107ab906133e9565b60405180910390fd5b60006001600b546107c59190613438565b905060005b84811015610849576107e78882846107e29190613438565b611c37565b604051806040016040528088815260200182886108049190613438565b8152506006600083856108179190613438565b8152602001908152602001600020600082015181600001556020820151816001015590505080806001019150506107ca565b5083600b600082825461085c9190613438565b925050819055508092505050949350505050565b600061087b82611d30565b9050919050565b6060600080546108919061349b565b80601f01602080910402602001604051908101604052809291908181526020018280546108bd9061349b565b801561090a5780601f106108df5761010080835404028352916020019161090a565b820191906000526020600020905b8154815290600101906020018083116108ed57829003601f168201915b5050505050905090565b600061091f82611e12565b5061092982611e9a565b9050919050565b610942828261093d611ed7565b611edf565b5050565b6000805b600c805490508110156109de573373ffffffffffffffffffffffffffffffffffffffff16600c82815481106109825761098161336e565b5b9060005260206000200160009054906101000a900473ffffffffffffffffffffffffffffffffffffffff1673ffffffffffffffffffffffffffffffffffffffff16036109d157600191506109de565b808060010191505061094a565b5080610a1f576040517f08c379a0000000000000000000000000000000000000000000000000000000008152600401610a16906133e9565b60405180910390fd5b6127108261ffff161115610a68576040517f08c379a0000000000000000000000000000000000000000000000000000000008152600401610a5f90613518565b60405180910390fd5b81600d600085815260200190815260200160002060006101000a81548161ffff021916908361ffff160217905550505050565b60096020528060005260406000206000915090508054610aba9061349b565b80601f0160208091040260200160405190810160405280929190818152602001828054610ae69061349b565b8015610b335780601f10610b0857610100808354040283529160200191610b33565b820191906000526020600020905b815481529060010190602001808311610b1657829003601f168201915b505050505081565b600760009054906101000a900473ffffffffffffffffffffffffffffffffffffffff1673ffffffffffffffffffffffffffffffffffffffff163373ffffffffffffffffffffffffffffffffffffffff1614610bcb576040517f08c379a0000000000000000000000000000000000000000000000000000000008152600401610bc290613584565b60405180910390fd5b80600760006101000a81548173ffffffffffffffffffffffffffffffffffffffff021916908373ffffffffffffffffffffffffffffffffffffffff16021790555050565b6000806000905060005b600c80549050811015610cad573373ffffffffffffffffffffffffffffffffffffffff16600c8281548110610c5157610c5061336e565b5b9060005260206000200160009054906101000a900473ffffffffffffffffffffffffffffffffffffffff1673ffffffffffffffffffffffffffffffffffffffff1603610ca05760019150610cad565b8080600101915050610c19565b5080610cee576040517f08c379a0000000000000000000000000000000000000000000000000000000008152600401610ce5906133e9565b60405180910390fd5b60006001600b54610cff9190613438565b905083600b6000828254610d139190613438565b925050819055508092505050919050565b600073ffffffffffffffffffffffffffffffffffffffff168273ffffffffffffffffffffffffffffffffffffffff1603610d965760006040517f64a0ae92000000000000000000000000000000000000000000000000000000008152600401610d8d9190612c61565b60405180910390fd5b6000610daa8383610da5611ed7565b611ef1565b90508373ffffffffffffffffffffffffffffffffffffffff168173ffffffffffffffffffffffffffffffffffffffff1614610e20578382826040517f64283d7b000000000000000000000000000000000000000000000000000000008152600401610e17939291906135a4565b60405180910390fd5b50505050565b60008060006006600086815260200190815260200160002060000154905060008103610e59576000809250925050610ed1565b600e600082815260200190815260200160002060009054906101000a900473ffffffffffffffffffffffffffffffffffffffff169250612710600d600083815260200190815260200160002060009054906101000a900461ffff1661ffff1685610ec391906135db565b610ecd919061364c565b9150505b9250929050565b6000805b600c80549050811015610f70573373ffffffffffffffffffffffffffffffffffffffff16600c8281548110610f1457610f1361336e565b5b9060005260206000200160009054906101000a900473ffffffffffffffffffffffffffffffffffffffff1673ffffffffffffffffffffffffffffffffffffffff1603610f635760019150610f70565b8080600101915050610edc565b5080610fb1576040517f08c379a0000000000000000000000000000000000000000000000000000000008152600401610fa8906133e9565b60405180910390fd5b81600e600085815260200190815260200160002060006101000a81548173ffffffffffffffffffffffffffffffffffffffff021916908373ffffffffffffffffffffffffffffffffffffffff160217905550505050565b61102383838360405180602001604052806000815250611829565b505050565b600760009054906101000a900473ffffffffffffffffffffffffffffffffffffffff1673ffffffffffffffffffffffffffffffffffffffff163373ffffffffffffffffffffffffffffffffffffffff16146110b8576040517f08c379a00000000000000000000000000000000000000000000000000000000081526004016110af90613584565b60405180910390fd5b60005b600c8054905081101561123f578173ffffffffffffffffffffffffffffffffffffffff16600c82815481106110f3576110f261336e565b5b9060005260206000200160009054906101000a900473ffffffffffffffffffffffffffffffffffffffff1673ffffffffffffffffffffffffffffffffffffffff160361123257600c6001600c8054905061114d919061367d565b8154811061115e5761115d61336e565b5b9060005260206000200160009054906101000a900473ffffffffffffffffffffffffffffffffffffffff16600c828154811061119d5761119c61336e565b5b9060005260206000200160006101000a81548173ffffffffffffffffffffffffffffffffffffffff021916908373ffffffffffffffffffffffffffffffffffffffff160217905550600c8054806111f7576111f66136b1565b5b6001900381819060005260206000200160006101000a81549073ffffffffffffffffffffffffffffffffffffffff021916905590555061127b565b80806001019150506110bb565b506040517f08c379a000000000000000000000000000000000000000000000000000000000815260040161127290613752565b60405180910390fd5b50565b6008805461128b9061349b565b80601f01602080910402602001604051908101604052809291908181526020018280546112b79061349b565b80156113045780601f106112d957610100808354040283529160200191611304565b820191906000526020600020905b8154815290600101906020018083116112e757829003601f168201915b505050505081565b600a6020528060005260406000206000915054906101000a900473ffffffffffffffffffffffffffffffffffffffff1681565b600061134a82611e12565b9050919050565b60008073ffffffffffffffffffffffffffffffffffffffff168273ffffffffffffffffffffffffffffffffffffffff16036113c45760006040517f89c62b640000000000000000000000000000000000000000000000000000000081526004016113bb9190612c61565b60405180910390fd5b600360008373ffffffffffffffffffffffffffffffffffffffff1673ffffffffffffffffffffffffffffffffffffffff168152602001908152602001600020549050919050565b6000805b600c805490508110156114a3573373ffffffffffffffffffffffffffffffffffffffff16600c82815481106114475761144661336e565b5b9060005260206000200160009054906101000a900473ffffffffffffffffffffffffffffffffffffffff1673ffffffffffffffffffffffffffffffffffffffff160361149657600191506114a3565b808060010191505061140f565b50806114e4576040517f08c379a00000000000000000000000000000000000000000000000000000000081526004016114db906133e9565b60405180910390fd5b8282600960008781526020019081526020016000209182611506929190613929565b5050505050565b600c818154811061151d57600080fd5b906000526020600020016000915054906101000a900473ffffffffffffffffffffffffffffffffffffffff1681565b60606001805461155b9061349b565b80601f01602080910402602001604051908101604052809291908181526020018280546115879061349b565b80156115d45780601f106115a9576101008083540402835291602001916115d4565b820191906000526020600020905b8154815290600101906020018083116115b757829003601f168201915b5050505050905090565b6115f06115e9611ed7565b838361210b565b5050565b600760009054906101000a900473ffffffffffffffffffffffffffffffffffffffff1673ffffffffffffffffffffffffffffffffffffffff163373ffffffffffffffffffffffffffffffffffffffff1614611684576040517f08c379a000000000000000000000000000000000000000000000000000000000815260040161167b90613584565b60405180910390fd5b600073ffffffffffffffffffffffffffffffffffffffff168173ffffffffffffffffffffffffffffffffffffffff16036116f3576040517f08c379a00000000000000000000000000000000000000000000000000000000081526004016116ea90613a45565b60405180910390fd5b6000600c80549050905060005b818110156117c1578273ffffffffffffffffffffffffffffffffffffffff16600c82815481106117335761173261336e565b5b9060005260206000200160009054906101000a900473ffffffffffffffffffffffffffffffffffffffff1673ffffffffffffffffffffffffffffffffffffffff16036117b4576040517f08c379a00000000000000000000000000000000000000000000000000000000081526004016117ab90613ab1565b60405180910390fd5b8080600101915050611700565b50600c829080600181540180825580915050600190039060005260206000200160009091909190916101000a81548173ffffffffffffffffffffffffffffffffffffffff021916908373ffffffffffffffffffffffffffffffffffffffff1602179055505050565b611834848484610d24565b6118408484848461227a565b50505050565b6060600060066000848152602001908152602001600020600001549050600060066000858152602001908152602001600020600101549050600082036118b8576040517fceea21b600000000000000000000000000000000000000000000000000000000815260040160405180910390fd5b60006009600084815260200190815260200160002080546118d89061349b565b80601f01602080910402602001604051908101604052809291908181526020018280546119049061349b565b80156119515780601f1061192657610100808354040283529160200191611951565b820191906000526020600020905b81548152906001019060200180831161193457829003601f168201915b50505050509050600081510361199657600861196c83612431565b60405160200161197d929190613c28565b60405160208183030381529060405293505050506119c6565b806119a083612431565b6040516020016119b1929190613c62565b60405160208183030381529060405293505050505b919050565b600760009054906101000a900473ffffffffffffffffffffffffffffffffffffffff1681565b600760009054906101000a900473ffffffffffffffffffffffffffffffffffffffff1673ffffffffffffffffffffffffffffffffffffffff163373ffffffffffffffffffffffffffffffffffffffff1614611a81576040517f08c379a0000000000000000000000000000000000000000000000000000000008152600401611a7890613584565b60405180910390fd5b818160089182611a92929190613929565b505050565b600d6020528060005260406000206000915054906101000a900461ffff1681565b60066020528060005260406000206000915090508060000154908060010154905082565b6000600560008473ffffffffffffffffffffffffffffffffffffffff1673ffffffffffffffffffffffffffffffffffffffff16815260200190815260200160002060008373ffffffffffffffffffffffffffffffffffffffff1673ffffffffffffffffffffffffffffffffffffffff16815260200190815260200160002060009054906101000a900460ff16905092915050565b6060600c805480602002602001604051908101604052809291908181526020018280548015611bf457602002820191906000526020600020905b8160009054906101000a900473ffffffffffffffffffffffffffffffffffffffff1673ffffffffffffffffffffffffffffffffffffffff1681526020019060010190808311611baa575b5050505050905090565b600e6020528060005260406000206000915054906101000a900473ffffffffffffffffffffffffffffffffffffffff1681565b600b5481565b600073ffffffffffffffffffffffffffffffffffffffff168273ffffffffffffffffffffffffffffffffffffffff1603611ca95760006040517f64a0ae92000000000000000000000000000000000000000000000000000000008152600401611ca09190612c61565b60405180910390fd5b6000611cb783836000611ef1565b9050600073ffffffffffffffffffffffffffffffffffffffff168173ffffffffffffffffffffffffffffffffffffffff1614611d2b5760006040517f73c6ac6e000000000000000000000000000000000000000000000000000000008152600401611d229190612c61565b60405180910390fd5b505050565b60007f80ac58cd000000000000000000000000000000000000000000000000000000007bffffffffffffffffffffffffffffffffffffffffffffffffffffffff1916827bffffffffffffffffffffffffffffffffffffffffffffffffffffffff19161480611dfb57507f5b5e139f000000000000000000000000000000000000000000000000000000007bffffffffffffffffffffffffffffffffffffffffffffffffffffffff1916827bffffffffffffffffffffffffffffffffffffffffffffffffffffffff1916145b80611e0b5750611e0a8261258e565b5b9050919050565b600080611e1e836125f8565b9050600073ffffffffffffffffffffffffffffffffffffffff168173ffffffffffffffffffffffffffffffffffffffff1603611e9157826040517f7e273289000000000000000000000000000000000000000000000000000000008152600401611e889190612a9d565b60405180910390fd5b80915050919050565b60006004600083815260200190815260200160002060009054906101000a900473ffffffffffffffffffffffffffffffffffffffff169050919050565b600033905090565b611eec8383836001612635565b505050565b600080611efd846125f8565b9050600073ffffffffffffffffffffffffffffffffffffffff168373ffffffffffffffffffffffffffffffffffffffff1614611f3f57611f3e8184866127fa565b5b600073ffffffffffffffffffffffffffffffffffffffff168173ffffffffffffffffffffffffffffffffffffffff1614611fd057611f81600085600080612635565b6001600360008373ffffffffffffffffffffffffffffffffffffffff1673ffffffffffffffffffffffffffffffffffffffff168152602001908152602001600020600082825403925050819055505b600073ffffffffffffffffffffffffffffffffffffffff168573ffffffffffffffffffffffffffffffffffffffff1614612053576001600360008773ffffffffffffffffffffffffffffffffffffffff1673ffffffffffffffffffffffffffffffffffffffff168152602001908152602001600020600082825401925050819055505b846002600086815260200190815260200160002060006101000a81548173ffffffffffffffffffffffffffffffffffffffff021916908373ffffffffffffffffffffffffffffffffffffffff160217905550838573ffffffffffffffffffffffffffffffffffffffff168273ffffffffffffffffffffffffffffffffffffffff167fddf252ad1be2c89b69c2b068fc378daa952ba7f163c4a11628f55a4df523b3ef60405160405180910390a4809150509392505050565b600073ffffffffffffffffffffffffffffffffffffffff168273ffffffffffffffffffffffffffffffffffffffff160361217c57816040517f5b08ba180000000000000000000000000000000000000000000000000000000081526004016121739190612c61565b60405180910390fd5b80600560008573ffffffffffffffffffffffffffffffffffffffff1673ffffffffffffffffffffffffffffffffffffffff16815260200190815260200160002060008473ffffffffffffffffffffffffffffffffffffffff1673ffffffffffffffffffffffffffffffffffffffff16815260200190815260200160002060006101000a81548160ff0219169083151502179055508173ffffffffffffffffffffffffffffffffffffffff168373ffffffffffffffffffffffffffffffffffffffff167f17307eab39ab6107e8899845ad3d59bd9653f200f220920489ca2b5937696c318360405161226d9190612b58565b60405180910390a3505050565b60008373ffffffffffffffffffffffffffffffffffffffff163b111561242b578273ffffffffffffffffffffffffffffffffffffffff1663150b7a026122be611ed7565b8685856040518563ffffffff1660e01b81526004016122e09493929190613cf1565b6020604051808303816000875af192505050801561231c57506040513d601f19601f820116820180604052508101906123199190613d52565b60015b6123a0573d806000811461234c576040519150601f19603f3d011682016040523d82523d6000602084013e612351565b606091505b50600081510361239857836040517f64a0ae9200000000000000000000000000000000000000000000000000000000815260040161238f9190612c61565b60405180910390fd5b805181602001fd5b63150b7a0260e01b7bffffffffffffffffffffffffffffffffffffffffffffffffffffffff1916817bffffffffffffffffffffffffffffffffffffffffffffffffffffffff19161461242957836040517f64a0ae920000000000000000000000000000000000000000000000000000000081526004016124209190612c61565b60405180910390fd5b505b50505050565b606060008203612478576040518060400160405280600181526020017f30000000000000000000000000000000000000000000000000000000000000008152509050612589565b600082905060005b600082146124aa57808061249390613d7f565b915050600a826124a3919061364c565b9150612480565b60008167ffffffffffffffff8111156124c6576124c5613000565b5b6040519080825280601f01601f1916602001820160405280156124f85781602001600182028036833780820191505090505b5090505b6000851461258257600a856125119190613dc7565b603061251d9190613438565b60f81b818361252b90613df8565b9350838151811061253f5761253e61336e565b5b60200101907effffffffffffffffffffffffffffffffffffffffffffffffffffffffffffff1916908160001a905350600a8561257b919061364c565b94506124fc565b8093505050505b919050565b60007f01ffc9a7000000000000000000000000000000000000000000000000000000007bffffffffffffffffffffffffffffffffffffffffffffffffffffffff1916827bffffffffffffffffffffffffffffffffffffffffffffffffffffffff1916149050919050565b60006002600083815260200190815260200160002060009054906101000a900473ffffffffffffffffffffffffffffffffffffffff169050919050565b808061266e5750600073ffffffffffffffffffffffffffffffffffffffff168273ffffffffffffffffffffffffffffffffffffffff1614155b156127a257600061267e84611e12565b9050600073ffffffffffffffffffffffffffffffffffffffff168373ffffffffffffffffffffffffffffffffffffffff16141580156126e957508273ffffffffffffffffffffffffffffffffffffffff168173ffffffffffffffffffffffffffffffffffffffff1614155b80156126fc57506126fa8184611adc565b155b1561273e57826040517fa9fbf51f0000000000000000000000000000000000000000000000000000000081526004016127359190612c61565b60405180910390fd5b81156127a057838573ffffffffffffffffffffffffffffffffffffffff168273ffffffffffffffffffffffffffffffffffffffff167f8c5be1e5ebec7d5bd14f71427d1e84f3dd0314c0f7b2291e5b200ac8c7c3b92560405160405180910390a45b505b836004600085815260200190815260200160002060006101000a81548173ffffffffffffffffffffffffffffffffffffffff021916908373ffffffffffffffffffffffffffffffffffffffff16021790555050505050565b6128058383836128be565b6128b957600073ffffffffffffffffffffffffffffffffffffffff168373ffffffffffffffffffffffffffffffffffffffff160361287a57806040517f7e2732890000000000000000000000000000000000000000000000000000000081526004016128719190612a9d565b60405180910390fd5b81816040517f177e802f0000000000000000000000000000000000000000000000000000000081526004016128b0929190612e34565b60405180910390fd5b505050565b60008073ffffffffffffffffffffffffffffffffffffffff168373ffffffffffffffffffffffffffffffffffffffff161415801561297657508273ffffffffffffffffffffffffffffffffffffffff168473ffffffffffffffffffffffffffffffffffffffff16148061293757506129368484611adc565b5b8061297557508273ffffffffffffffffffffffffffffffffffffffff1661295d83611e9a565b73ffffffffffffffffffffffffffffffffffffffff16145b5b90509392505050565b6000604051905090565b600080fd5b600080fd5b600073ffffffffffffffffffffffffffffffffffffffff82169050919050565b60006129be82612993565b9050919050565b6129ce816129b3565b81146129d957600080fd5b50565b6000813590506129eb816129c5565b92915050565b6000819050919050565b612a04816129f1565b8114612a0f57600080fd5b50565b600081359050612a21816129fb565b92915050565b60008060008060808587031215612a4157612a40612989565b5b6000612a4f878288016129dc565b9450506020612a6087828801612a12565b9350506040612a7187828801612a12565b9250506060612a8287828801612a12565b91505092959194509250565b612a97816129f1565b82525050565b6000602082019050612ab26000830184612a8e565b92915050565b60007fffffffff0000000000000000000000000000000000000000000000000000000082169050919050565b612aed81612ab8565b8114612af857600080fd5b50565b600081359050612b0a81612ae4565b92915050565b600060208284031215612b2657612b25612989565b5b6000612b3484828501612afb565b91505092915050565b60008115159050919050565b612b5281612b3d565b82525050565b6000602082019050612b6d6000830184612b49565b92915050565b600081519050919050565b600082825260208201905092915050565b60005b83811015612bad578082015181840152602081019050612b92565b60008484015250505050565b6000601f19601f8301169050919050565b6000612bd582612b73565b612bdf8185612b7e565b9350612bef818560208601612b8f565b612bf881612bb9565b840191505092915050565b60006020820190508181036000830152612c1d8184612bca565b905092915050565b600060208284031215612c3b57612c3a612989565b5b6000612c4984828501612a12565b91505092915050565b612c5b816129b3565b82525050565b6000602082019050612c766000830184612c52565b92915050565b60008060408385031215612c9357612c92612989565b5b6000612ca1858286016129dc565b9250506020612cb285828601612a12565b9150509250929050565b600061ffff82169050919050565b612cd381612cbc565b8114612cde57600080fd5b50565b600081359050612cf081612cca565b92915050565b60008060408385031215612d0d57612d0c612989565b5b6000612d1b85828601612a12565b9250506020612d2c85828601612ce1565b9150509250929050565b6000612d4182612993565b9050919050565b612d5181612d36565b8114612d5c57600080fd5b50565b600081359050612d6e81612d48565b92915050565b600060208284031215612d8a57612d89612989565b5b6000612d9884828501612d5f565b91505092915050565b600080600060608486031215612dba57612db9612989565b5b6000612dc8868287016129dc565b9350506020612dd9868287016129dc565b9250506040612dea86828701612a12565b9150509250925092565b60008060408385031215612e0b57612e0a612989565b5b6000612e1985828601612a12565b9250506020612e2a85828601612a12565b9150509250929050565b6000604082019050612e496000830185612c52565b612e566020830184612a8e565b9392505050565b60008060408385031215612e7457612e73612989565b5b6000612e8285828601612a12565b9250506020612e93858286016129dc565b9150509250929050565b600060208284031215612eb357612eb2612989565b5b6000612ec1848285016129dc565b91505092915050565b600080fd5b600080fd5b600080fd5b60008083601f840112612eef57612eee612eca565b5b8235905067ffffffffffffffff811115612f0c57612f0b612ecf565b5b602083019150836001820283011115612f2857612f27612ed4565b5b9250929050565b600080600060408486031215612f4857612f47612989565b5b6000612f5686828701612a12565b935050602084013567ffffffffffffffff811115612f7757612f7661298e565b5b612f8386828701612ed9565b92509250509250925092565b612f9881612b3d565b8114612fa357600080fd5b50565b600081359050612fb581612f8f565b92915050565b60008060408385031215612fd257612fd1612989565b5b6000612fe0858286016129dc565b9250506020612ff185828601612fa6565b9150509250929050565b600080fd5b7f4e487b7100000000000000000000000000000000000000000000000000000000600052604160045260246000fd5b61303882612bb9565b810181811067ffffffffffffffff8211171561305757613056613000565b5b80604052505050565b600061306a61297f565b9050613076828261302f565b919050565b600067ffffffffffffffff82111561309657613095613000565b5b61309f82612bb9565b9050602081019050919050565b82818337600083830152505050565b60006130ce6130c98461307b565b613060565b9050828152602081018484840111156130ea576130e9612ffb565b5b6130f58482856130ac565b509392505050565b600082601f83011261311257613111612eca565b5b81356131228482602086016130bb565b91505092915050565b6000806000806080858703121561314557613144612989565b5b6000613153878288016129dc565b9450506020613164878288016129dc565b935050604061317587828801612a12565b925050606085013567ffffffffffffffff8111156131965761319561298e565b5b6131a2878288016130fd565b91505092959194509250565b600080602083850312156131c5576131c4612989565b5b600083013567ffffffffffffffff8111156131e3576131e261298e565b5b6131ef85828601612ed9565b92509250509250929050565b61320481612cbc565b82525050565b600060208201905061321f60008301846131fb565b92915050565b600060408201905061323a6000830185612a8e565b6132476020830184612a8e565b9392505050565b6000806040838503121561326557613264612989565b5b6000613273858286016129dc565b9250506020613284858286016129dc565b9150509250929050565b600081519050919050565b600082825260208201905092915050565b6000819050602082019050919050565b6132c3816129b3565b82525050565b60006132d583836132ba565b60208301905092915050565b6000602082019050919050565b60006132f98261328e565b6133038185613299565b935061330e836132aa565b8060005b8381101561333f57815161332688826132c9565b9750613331836132e1565b925050600181019050613312565b5085935050505092915050565b6000602082019050818103600083015261336681846132ee565b905092915050565b7f4e487b7100000000000000000000000000000000000000000000000000000000600052603260045260246000fd5b7f4e6f7420616e20617070726f7665642063616c6c657200000000000000000000600082015250565b60006133d3601683612b7e565b91506133de8261339d565b602082019050919050565b60006020820190508181036000830152613402816133c6565b9050919050565b7f4e487b7100000000000000000000000000000000000000000000000000000000600052601160045260246000fd5b6000613443826129f1565b915061344e836129f1565b925082820190508082111561346657613465613409565b5b92915050565b7f4e487b7100000000000000000000000000000000000000000000000000000000600052602260045260246000fd5b600060028204905060018216806134b357607f821691505b6020821081036134c6576134c561346c565b5b50919050565b7f496e76616c696400000000000000000000000000000000000000000000000000600082015250565b6000613502600783612b7e565b915061350d826134cc565b602082019050919050565b60006020820190508181036000830152613531816134f5565b9050919050565b7f4e6f7420417574686f72697a6564000000000000000000000000000000000000600082015250565b600061356e600e83612b7e565b915061357982613538565b602082019050919050565b6000602082019050818103600083015261359d81613561565b9050919050565b60006060820190506135b96000830186612c52565b6135c66020830185612a8e565b6135d36040830184612c52565b949350505050565b60006135e6826129f1565b91506135f1836129f1565b92508282026135ff816129f1565b9150828204841483151761361657613615613409565b5b5092915050565b7f4e487b7100000000000000000000000000000000000000000000000000000000600052601260045260246000fd5b6000613657826129f1565b9150613662836129f1565b9250826136725761367161361d565b5b828204905092915050565b6000613688826129f1565b9150613693836129f1565b92508282039050818111156136ab576136aa613409565b5b92915050565b7f4e487b7100000000000000000000000000000000000000000000000000000000600052603160045260246000fd5b7f41646472657373206e6f7420666f756e6420696e20617070726f76656420636160008201527f6c6c6572732e0000000000000000000000000000000000000000000000000000602082015250565b600061373c602683612b7e565b9150613747826136e0565b604082019050919050565b6000602082019050818103600083015261376b8161372f565b9050919050565b600082905092915050565b60008190508160005260206000209050919050565b60006020601f8301049050919050565b600082821b905092915050565b6000600883026137df7fffffffffffffffffffffffffffffffffffffffffffffffffffffffffffffffff826137a2565b6137e986836137a2565b95508019841693508086168417925050509392505050565b6000819050919050565b600061382661382161381c846129f1565b613801565b6129f1565b9050919050565b6000819050919050565b6138408361380b565b61385461384c8261382d565b8484546137af565b825550505050565b600090565b61386961385c565b613874818484613837565b505050565b5b818110156138985761388d600082613861565b60018101905061387a565b5050565b601f8211156138dd576138ae8161377d565b6138b784613792565b810160208510156138c6578190505b6138da6138d285613792565b830182613879565b50505b505050565b600082821c905092915050565b6000613900600019846008026138e2565b1980831691505092915050565b600061391983836138ef565b9150826002028217905092915050565b6139338383613772565b67ffffffffffffffff81111561394c5761394b613000565b5b613956825461349b565b61396182828561389c565b6000601f831160018114613990576000841561397e578287013590505b613988858261390d565b8655506139f0565b601f19841661399e8661377d565b60005b828110156139c6578489013582556001820191506020850194506020810190506139a1565b868310156139e357848901356139df601f8916826138ef565b8355505b6001600288020188555050505b50505050505050565b7f43616e6e6f7420617070726f766520746865207a65726f206164647265737300600082015250565b6000613a2f601f83612b7e565b9150613a3a826139f9565b602082019050919050565b60006020820190508181036000830152613a5e81613a22565b9050919050565b7f4164647265737320697320616c726561647920617070726f7665640000000000600082015250565b6000613a9b601b83612b7e565b9150613aa682613a65565b602082019050919050565b60006020820190508181036000830152613aca81613a8e565b9050919050565b600081905092915050565b60008154613ae98161349b565b613af38186613ad1565b94506001821660008114613b0e5760018114613b2357613b56565b60ff1983168652811515820286019350613b56565b613b2c8561377d565b60005b83811015613b4e57815481890152600182019150602081019050613b2f565b838801955050505b50505092915050565b7f2f00000000000000000000000000000000000000000000000000000000000000600082015250565b6000613b95600183613ad1565b9150613ba082613b5f565b600182019050919050565b6000613bb682612b73565b613bc08185613ad1565b9350613bd0818560208601612b8f565b80840191505092915050565b7f2e6a736f6e000000000000000000000000000000000000000000000000000000600082015250565b6000613c12600583613ad1565b9150613c1d82613bdc565b600582019050919050565b6000613c348285613adc565b9150613c3f82613b88565b9150613c4b8284613bab565b9150613c5682613c05565b91508190509392505050565b6000613c6e8285613bab565b9150613c7982613b88565b9150613c858284613bab565b9150613c9082613c05565b91508190509392505050565b600081519050919050565b600082825260208201905092915050565b6000613cc382613c9c565b613ccd8185613ca7565b9350613cdd818560208601612b8f565b613ce681612bb9565b840191505092915050565b6000608082019050613d066000830187612c52565b613d136020830186612c52565b613d206040830185612a8e565b8181036060830152613d328184613cb8565b905095945050505050565b600081519050613d4c81612ae4565b92915050565b600060208284031215613d6857613d67612989565b5b6000613d7684828501613d3d565b91505092915050565b6000613d8a826129f1565b91507fffffffffffffffffffffffffffffffffffffffffffffffffffffffffffffffff8203613dbc57613dbb613409565b5b600182019050919050565b6000613dd2826129f1565b9150613ddd836129f1565b925082613ded57613dec61361d565b5b828206905092915050565b6000613e03826129f1565b915060008203613e1657613e15613409565b5b60018203905091905056fea26469706673582212209f6718d36661aa870195334bb08fae302c6cb7e38f2fd62cf7366fedd45a0f5d64736f6c63430008180033",
  "devdoc": {
    "errors": {
      "ERC721IncorrectOwner(address,uint256,address)": [
        {
          "details": "Indicates an error related to the ownership over a particular token. Used in transfers.",
          "params": {
            "owner": "Address of the current owner of a token.",
            "sender": "Address whose tokens are being transferred.",
            "tokenId": "Identifier number of a token."
          }
        }
      ],
      "ERC721InsufficientApproval(address,uint256)": [
        {
          "details": "Indicates a failure with the `operator`s approval. Used in transfers.",
          "params": {
            "operator": "Address that may be allowed to operate on tokens without being their owner.",
            "tokenId": "Identifier number of a token."
          }
        }
      ],
      "ERC721InvalidApprover(address)": [
        {
          "details": "Indicates a failure with the `approver` of a token to be approved. Used in approvals.",
          "params": {
            "approver": "Address initiating an approval operation."
          }
        }
      ],
      "ERC721InvalidOperator(address)": [
        {
          "details": "Indicates a failure with the `operator` to be approved. Used in approvals.",
          "params": {
            "operator": "Address that may be allowed to operate on tokens without being their owner."
          }
        }
      ],
      "ERC721InvalidOwner(address)": [
        {
          "details": "Indicates that an address can't be an owner. For example, `address(0)` is a forbidden owner in EIP-20. Used in balance queries.",
          "params": {
            "owner": "Address of the current owner of a token."
          }
        }
      ],
      "ERC721InvalidReceiver(address)": [
        {
          "details": "Indicates a failure with the token `receiver`. Used in transfers.",
          "params": {
            "receiver": "Address to which tokens are being transferred."
          }
        }
      ],
      "ERC721InvalidSender(address)": [
        {
          "details": "Indicates a failure with the token `sender`. Used in transfers.",
          "params": {
            "sender": "Address whose tokens are being transferred."
          }
        }
      ],
      "ERC721NonexistentToken(uint256)": [
        {
          "details": "Indicates a `tokenId` whose `owner` is the zero address.",
          "params": {
            "tokenId": "Identifier number of a token."
          }
        }
      ]
    },
    "events": {
      "Approval(address,address,uint256)": {
        "details": "Emitted when `owner` enables `approved` to manage the `tokenId` token."
      },
      "ApprovalForAll(address,address,bool)": {
        "details": "Emitted when `owner` enables or disables (`approved`) `operator` to manage all of its assets."
      },
      "Transfer(address,address,uint256)": {
        "details": "Emitted when `tokenId` token is transferred from `from` to `to`."
      }
    },
    "kind": "dev",
    "methods": {
      "approve(address,uint256)": {
        "details": "See {IERC721-approve}."
      },
      "balanceOf(address)": {
        "details": "See {IERC721-balanceOf}."
      },
      "getApproved(uint256)": {
        "details": "See {IERC721-getApproved}."
      },
      "isApprovedForAll(address,address)": {
        "details": "See {IERC721-isApprovedForAll}."
      },
      "name()": {
        "details": "See {IERC721Metadata-name}."
      },
      "ownerOf(uint256)": {
        "details": "See {IERC721-ownerOf}."
      },
      "royaltyInfo(uint256,uint256)": {
        "details": "Returns how much royalty is owed and to whom, based on a sale price that may be denominated in any unit of exchange. The royalty amount is denominated and should be paid in that same unit of exchange."
      },
      "safeTransferFrom(address,address,uint256)": {
        "details": "See {IERC721-safeTransferFrom}."
      },
      "safeTransferFrom(address,address,uint256,bytes)": {
        "details": "See {IERC721-safeTransferFrom}."
      },
      "setApprovalForAll(address,bool)": {
        "details": "See {IERC721-setApprovalForAll}."
      },
      "symbol()": {
        "details": "See {IERC721Metadata-symbol}."
      },
      "transferFrom(address,address,uint256)": {
        "details": "See {IERC721-transferFrom}."
      }
    },
    "version": 1
  },
  "userdoc": {
    "kind": "user",
    "methods": {},
    "version": 1
  },
  "storageLayout": {
    "storage": [
      {
        "astId": 772,
        "contract": "contracts/Protocol Contracts/ReceiptManagerv4.sol:ReceiptManager",
        "label": "_name",
        "offset": 0,
        "slot": "0",
        "type": "t_string_storage"
      },
      {
        "astId": 774,
        "contract": "contracts/Protocol Contracts/ReceiptManagerv4.sol:ReceiptManager",
        "label": "_symbol",
        "offset": 0,
        "slot": "1",
        "type": "t_string_storage"
      },
      {
        "astId": 778,
        "contract": "contracts/Protocol Contracts/ReceiptManagerv4.sol:ReceiptManager",
        "label": "_owners",
        "offset": 0,
        "slot": "2",
        "type": "t_mapping(t_uint256,t_address)"
      },
      {
        "astId": 782,
        "contract": "contracts/Protocol Contracts/ReceiptManagerv4.sol:ReceiptManager",
        "label": "_balances",
        "offset": 0,
        "slot": "3",
        "type": "t_mapping(t_address,t_uint256)"
      },
      {
        "astId": 786,
        "contract": "contracts/Protocol Contracts/ReceiptManagerv4.sol:ReceiptManager",
        "label": "_tokenApprovals",
        "offset": 0,
        "slot": "4",
        "type": "t_mapping(t_uint256,t_address)"
      },
      {
        "astId": 792,
        "contract": "contracts/Protocol Contracts/ReceiptManagerv4.sol:ReceiptManager",
        "label": "_operatorApprovals",
        "offset": 0,
        "slot": "5",
        "type": "t_mapping(t_address,t_mapping(t_address,t_bool))"
      },
      {
        "astId": 7676,
        "contract": "contracts/Protocol Contracts/ReceiptManagerv4.sol:ReceiptManager",
        "label": "tokenContexts",
        "offset": 0,
        "slot": "6",
        "type": "t_mapping(t_uint256,t_struct(TokenContext)7671_storage)"
      },
      {
        "astId": 7678,
        "contract": "contracts/Protocol Contracts/ReceiptManagerv4.sol:ReceiptManager",
        "label": "contractOwner",
        "offset": 0,
        "slot": "7",
        "type": "t_address"
      },
      {
        "astId": 7681,
        "contract": "contracts/Protocol Contracts/ReceiptManagerv4.sol:ReceiptManager",
        "label": "defaultURIRoot",
        "offset": 0,
        "slot": "8",
        "type": "t_string_storage"
      },
      {
        "astId": 7685,
        "contract": "contracts/Protocol Contracts/ReceiptManagerv4.sol:ReceiptManager",
        "label": "customURIRoot",
        "offset": 0,
        "slot": "9",
        "type": "t_mapping(t_uint256,t_string_storage)"
      },
      {
        "astId": 7689,
        "contract": "contracts/Protocol Contracts/ReceiptManagerv4.sol:ReceiptManager",
        "label": "royaltyReceiver",
        "offset": 0,
        "slot": "10",
        "type": "t_mapping(t_uint256,t_address)"
      },
      {
        "astId": 7691,
        "contract": "contracts/Protocol Contracts/ReceiptManagerv4.sol:ReceiptManager",
        "label": "receiptIDs",
        "offset": 0,
        "slot": "11",
        "type": "t_uint256"
      },
      {
        "astId": 7694,
        "contract": "contracts/Protocol Contracts/ReceiptManagerv4.sol:ReceiptManager",
        "label": "approvedCallers",
        "offset": 0,
        "slot": "12",
        "type": "t_array(t_address)dyn_storage"
      },
      {
        "astId": 7698,
        "contract": "contracts/Protocol Contracts/ReceiptManagerv4.sol:ReceiptManager",
        "label": "royaltyBasisPoints",
        "offset": 0,
        "slot": "13",
        "type": "t_mapping(t_uint256,t_uint16)"
      },
      {
        "astId": 7702,
        "contract": "contracts/Protocol Contracts/ReceiptManagerv4.sol:ReceiptManager",
        "label": "promotionOwners",
        "offset": 0,
        "slot": "14",
        "type": "t_mapping(t_uint256,t_address)"
      }
    ],
    "types": {
      "t_address": {
        "encoding": "inplace",
        "label": "address",
        "numberOfBytes": "20"
      },
      "t_array(t_address)dyn_storage": {
        "base": "t_address",
        "encoding": "dynamic_array",
        "label": "address[]",
        "numberOfBytes": "32"
      },
      "t_bool": {
        "encoding": "inplace",
        "label": "bool",
        "numberOfBytes": "1"
      },
      "t_mapping(t_address,t_bool)": {
        "encoding": "mapping",
        "key": "t_address",
        "label": "mapping(address => bool)",
        "numberOfBytes": "32",
        "value": "t_bool"
      },
      "t_mapping(t_address,t_mapping(t_address,t_bool))": {
        "encoding": "mapping",
        "key": "t_address",
        "label": "mapping(address => mapping(address => bool))",
        "numberOfBytes": "32",
        "value": "t_mapping(t_address,t_bool)"
      },
      "t_mapping(t_address,t_uint256)": {
        "encoding": "mapping",
        "key": "t_address",
        "label": "mapping(address => uint256)",
        "numberOfBytes": "32",
        "value": "t_uint256"
      },
      "t_mapping(t_uint256,t_address)": {
        "encoding": "mapping",
        "key": "t_uint256",
        "label": "mapping(uint256 => address)",
        "numberOfBytes": "32",
        "value": "t_address"
      },
      "t_mapping(t_uint256,t_string_storage)": {
        "encoding": "mapping",
        "key": "t_uint256",
        "label": "mapping(uint256 => string)",
        "numberOfBytes": "32",
        "value": "t_string_storage"
      },
      "t_mapping(t_uint256,t_struct(TokenContext)7671_storage)": {
        "encoding": "mapping",
        "key": "t_uint256",
        "label": "mapping(uint256 => struct ReceiptManager.TokenContext)",
        "numberOfBytes": "32",
        "value": "t_struct(TokenContext)7671_storage"
      },
      "t_mapping(t_uint256,t_uint16)": {
        "encoding": "mapping",
        "key": "t_uint256",
        "label": "mapping(uint256 => uint16)",
        "numberOfBytes": "32",
        "value": "t_uint16"
      },
      "t_string_storage": {
        "encoding": "bytes",
        "label": "string",
        "numberOfBytes": "32"
      },
      "t_struct(TokenContext)7671_storage": {
        "encoding": "inplace",
        "label": "struct ReceiptManager.TokenContext",
        "members": [
          {
            "astId": 7668,
            "contract": "contracts/Protocol Contracts/ReceiptManagerv4.sol:ReceiptManager",
            "label": "promotionID",
            "offset": 0,
            "slot": "0",
            "type": "t_uint256"
          },
          {
            "astId": 7670,
            "contract": "contracts/Protocol Contracts/ReceiptManagerv4.sol:ReceiptManager",
            "label": "participantNumber",
            "offset": 0,
            "slot": "1",
            "type": "t_uint256"
          }
        ],
        "numberOfBytes": "64"
      },
      "t_uint16": {
        "encoding": "inplace",
        "label": "uint16",
        "numberOfBytes": "2"
      },
      "t_uint256": {
        "encoding": "inplace",
        "label": "uint256",
        "numberOfBytes": "32"
      }
    }
  }
}