{
  "address": "0xE6E340D132b5f46d1e472DebcD681B2aBc16e57E",
  "abi": [
    {
      "inputs": [],
      "stateMutability": "nonpayable",
      "type": "constructor"
    },
    {
      "inputs": [
        {
          "internalType": "address",
          "name": "sender",
          "type": "address"
        },
        {
          "internalType": "uint256",
          "name": "tokenId",
          "type": "uint256"
        },
        {
          "internalType": "address",
          "name": "owner",
          "type": "address"
        }
      ],
      "name": "ERC721IncorrectOwner",
      "type": "error"
    },
    {
      "inputs": [
        {
          "internalType": "address",
          "name": "operator",
          "type": "address"
        },
        {
          "internalType": "uint256",
          "name": "tokenId",
          "type": "uint256"
        }
      ],
      "name": "ERC721InsufficientApproval",
      "type": "error"
    },
    {
      "inputs": [
        {
          "internalType": "address",
          "name": "approver",
          "type": "address"
        }
      ],
      "name": "ERC721InvalidApprover",
      "type": "error"
    },
    {
      "inputs": [
        {
          "internalType": "address",
          "name": "operator",
          "type": "address"
        }
      ],
      "name": "ERC721InvalidOperator",
      "type": "error"
    },
    {
      "inputs": [
        {
          "internalType": "address",
          "name": "owner",
          "type": "address"
        }
      ],
      "name": "ERC721InvalidOwner",
      "type": "error"
    },
    {
      "inputs": [
        {
          "internalType": "address",
          "name": "receiver",
          "type": "address"
        }
      ],
      "name": "ERC721InvalidReceiver",
      "type": "error"
    },
    {
      "inputs": [
        {
          "internalType": "address",
          "name": "sender",
          "type": "address"
        }
      ],
      "name": "ERC721InvalidSender",
      "type": "error"
    },
    {
      "inputs": [
        {
          "internalType": "uint256",
          "name": "tokenId",
          "type": "uint256"
        }
      ],
      "name": "ERC721NonexistentToken",
      "type": "error"
    },
    {
      "inputs": [],
      "name": "TokenDoesNotExist",
      "type": "error"
    },
    {
      "anonymous": false,
      "inputs": [
        {
          "indexed": true,
          "internalType": "address",
          "name": "owner",
          "type": "address"
        },
        {
          "indexed": true,
          "internalType": "address",
          "name": "approved",
          "type": "address"
        },
        {
          "indexed": true,
          "internalType": "uint256",
          "name": "tokenId",
          "type": "uint256"
        }
      ],
      "name": "Approval",
      "type": "event"
    },
    {
      "anonymous": false,
      "inputs": [
        {
          "indexed": true,
          "internalType": "address",
          "name": "owner",
          "type": "address"
        },
        {
          "indexed": true,
          "internalType": "address",
          "name": "operator",
          "type": "address"
        },
        {
          "indexed": false,
          "internalType": "bool",
          "name": "approved",
          "type": "bool"
        }
      ],
      "name": "ApprovalForAll",
      "type": "event"
    },
    {
      "anonymous": false,
      "inputs": [
        {
          "indexed": true,
          "internalType": "address",
          "name": "from",
          "type": "address"
        },
        {
          "indexed": true,
          "internalType": "address",
          "name": "to",
          "type": "address"
        },
        {
          "indexed": true,
          "internalType": "uint256",
          "name": "tokenId",
          "type": "uint256"
        }
      ],
      "name": "Transfer",
      "type": "event"
    },
    {
      "inputs": [
        {
          "internalType": "address",
          "name": "_toApprove",
          "type": "address"
        }
      ],
      "name": "addApprovedCaller",
      "outputs": [],
      "stateMutability": "nonpayable",
      "type": "function"
    },
    {
      "inputs": [
        {
          "internalType": "address",
          "name": "to",
          "type": "address"
        },
        {
          "internalType": "uint256",
          "name": "tokenId",
          "type": "uint256"
        }
      ],
      "name": "approve",
      "outputs": [],
      "stateMutability": "nonpayable",
      "type": "function"
    },
    {
      "inputs": [
        {
          "internalType": "uint256",
          "name": "",
          "type": "uint256"
        }
      ],
      "name": "approvedCallers",
      "outputs": [
        {
          "internalType": "address",
          "name": "",
          "type": "address"
        }
      ],
      "stateMutability": "view",
      "type": "function"
    },
    {
      "inputs": [
        {
          "internalType": "address",
          "name": "owner",
          "type": "address"
        }
      ],
      "name": "balanceOf",
      "outputs": [
        {
          "internalType": "uint256",
          "name": "",
          "type": "uint256"
        }
      ],
      "stateMutability": "view",
      "type": "function"
    },
    {
      "inputs": [],
      "name": "contractOwner",
      "outputs": [
        {
          "internalType": "address",
          "name": "",
          "type": "address"
        }
      ],
      "stateMutability": "view",
      "type": "function"
    },
    {
      "inputs": [
        {
          "internalType": "uint256",
          "name": "",
          "type": "uint256"
        }
      ],
      "name": "customURIRoot",
      "outputs": [
        {
          "internalType": "string",
          "name": "",
          "type": "string"
        }
      ],
      "stateMutability": "view",
      "type": "function"
    },
    {
      "inputs": [],
      "name": "defaultURIRoot",
      "outputs": [
        {
          "internalType": "string",
          "name": "",
          "type": "string"
        }
      ],
      "stateMutability": "view",
      "type": "function"
    },
    {
      "inputs": [
        {
          "internalType": "uint256",
          "name": "tokenId",
          "type": "uint256"
        }
      ],
      "name": "getApproved",
      "outputs": [
        {
          "internalType": "address",
          "name": "",
          "type": "address"
        }
      ],
      "stateMutability": "view",
      "type": "function"
    },
    {
      "inputs": [],
      "name": "getApprovedCallers",
      "outputs": [
        {
          "internalType": "address[]",
          "name": "",
          "type": "address[]"
        }
      ],
      "stateMutability": "view",
      "type": "function"
    },
    {
      "inputs": [
        {
          "internalType": "uint256",
          "name": "numOrders",
          "type": "uint256"
        }
      ],
      "name": "incrementReceiptIDs",
      "outputs": [
        {
          "internalType": "uint256",
          "name": "",
          "type": "uint256"
        }
      ],
      "stateMutability": "nonpayable",
      "type": "function"
    },
    {
      "inputs": [
        {
          "internalType": "address",
          "name": "owner",
          "type": "address"
        },
        {
          "internalType": "address",
          "name": "operator",
          "type": "address"
        }
      ],
      "name": "isApprovedForAll",
      "outputs": [
        {
          "internalType": "bool",
          "name": "",
          "type": "bool"
        }
      ],
      "stateMutability": "view",
      "type": "function"
    },
    {
      "inputs": [
        {
          "internalType": "address",
          "name": "to",
          "type": "address"
        },
        {
          "internalType": "uint256",
          "name": "promotionID",
          "type": "uint256"
        },
        {
          "internalType": "uint256",
          "name": "participantNumber",
          "type": "uint256"
        },
        {
          "internalType": "uint256",
          "name": "numTokens",
          "type": "uint256"
        }
      ],
      "name": "mintReceipts",
      "outputs": [
        {
          "internalType": "uint256",
          "name": "",
          "type": "uint256"
        }
      ],
      "stateMutability": "nonpayable",
      "type": "function"
    },
    {
      "inputs": [
        {
          "internalType": "uint256",
          "name": "promotionID",
          "type": "uint256"
        },
        {
          "internalType": "string",
          "name": "newURIRoot",
          "type": "string"
        }
      ],
      "name": "modifyPromotionURI",
      "outputs": [],
      "stateMutability": "nonpayable",
      "type": "function"
    },
    {
      "inputs": [],
      "name": "name",
      "outputs": [
        {
          "internalType": "string",
          "name": "",
          "type": "string"
        }
      ],
      "stateMutability": "view",
      "type": "function"
    },
    {
      "inputs": [
        {
          "internalType": "uint256",
          "name": "tokenId",
          "type": "uint256"
        }
      ],
      "name": "ownerOf",
      "outputs": [
        {
          "internalType": "address",
          "name": "",
          "type": "address"
        }
      ],
      "stateMutability": "view",
      "type": "function"
    },
    {
      "inputs": [
        {
          "internalType": "uint256",
          "name": "",
          "type": "uint256"
        }
      ],
      "name": "promotionOwners",
      "outputs": [
        {
          "internalType": "address",
          "name": "",
          "type": "address"
        }
      ],
      "stateMutability": "view",
      "type": "function"
    },
    {
      "inputs": [],
      "name": "receiptIDs",
      "outputs": [
        {
          "internalType": "uint256",
          "name": "",
          "type": "uint256"
        }
      ],
      "stateMutability": "view",
      "type": "function"
    },
    {
      "inputs": [
        {
          "internalType": "address",
          "name": "_toRemove",
          "type": "address"
        }
      ],
      "name": "removeApprovedCaller",
      "outputs": [],
      "stateMutability": "nonpayable",
      "type": "function"
    },
    {
      "inputs": [
        {
          "internalType": "uint256",
          "name": "",
          "type": "uint256"
        }
      ],
      "name": "royaltyBasisPoints",
      "outputs": [
        {
          "internalType": "uint256",
          "name": "",
          "type": "uint256"
        }
      ],
      "stateMutability": "view",
      "type": "function"
    },
    {
      "inputs": [
        {
          "internalType": "uint256",
          "name": "tokenId",
          "type": "uint256"
        },
        {
          "internalType": "uint256",
          "name": "salePrice",
          "type": "uint256"
        }
      ],
      "name": "royaltyInfo",
      "outputs": [
        {
          "internalType": "address",
          "name": "receiver",
          "type": "address"
        },
        {
          "internalType": "uint256",
          "name": "royaltyAmount",
          "type": "uint256"
        }
      ],
      "stateMutability": "view",
      "type": "function"
    },
    {
      "inputs": [
        {
          "internalType": "uint256",
          "name": "",
          "type": "uint256"
        }
      ],
      "name": "royaltyReceiver",
      "outputs": [
        {
          "internalType": "address",
          "name": "",
          "type": "address"
        }
      ],
      "stateMutability": "view",
      "type": "function"
    },
    {
      "inputs": [
        {
          "internalType": "address",
          "name": "from",
          "type": "address"
        },
        {
          "internalType": "address",
          "name": "to",
          "type": "address"
        },
        {
          "internalType": "uint256",
          "name": "tokenId",
          "type": "uint256"
        }
      ],
      "name": "safeTransferFrom",
      "outputs": [],
      "stateMutability": "nonpayable",
      "type": "function"
    },
    {
      "inputs": [
        {
          "internalType": "address",
          "name": "from",
          "type": "address"
        },
        {
          "internalType": "address",
          "name": "to",
          "type": "address"
        },
        {
          "internalType": "uint256",
          "name": "tokenId",
          "type": "uint256"
        },
        {
          "internalType": "bytes",
          "name": "data",
          "type": "bytes"
        }
      ],
      "name": "safeTransferFrom",
      "outputs": [],
      "stateMutability": "nonpayable",
      "type": "function"
    },
    {
      "inputs": [
        {
          "internalType": "address",
          "name": "operator",
          "type": "address"
        },
        {
          "internalType": "bool",
          "name": "approved",
          "type": "bool"
        }
      ],
      "name": "setApprovalForAll",
      "outputs": [],
      "stateMutability": "nonpayable",
      "type": "function"
    },
    {
      "inputs": [
        {
          "internalType": "string",
          "name": "_newRoot",
          "type": "string"
        }
      ],
      "name": "setDefaultURIRoot",
      "outputs": [],
      "stateMutability": "nonpayable",
      "type": "function"
    },
    {
      "inputs": [
        {
          "internalType": "address payable",
          "name": "newOwner",
          "type": "address"
        }
      ],
      "name": "setOwner",
      "outputs": [],
      "stateMutability": "nonpayable",
      "type": "function"
    },
    {
      "inputs": [
        {
          "internalType": "uint256",
          "name": "promotionID",
          "type": "uint256"
        },
        {
          "internalType": "address",
          "name": "promotionOwner",
          "type": "address"
        }
      ],
      "name": "setPromotionOwner",
      "outputs": [],
      "stateMutability": "nonpayable",
      "type": "function"
    },
    {
      "inputs": [
        {
          "internalType": "uint256",
          "name": "promotionID",
          "type": "uint256"
        },
        {
          "internalType": "uint256",
          "name": "basisPoints",
          "type": "uint256"
        }
      ],
      "name": "setRoyalty",
      "outputs": [],
      "stateMutability": "nonpayable",
      "type": "function"
    },
    {
      "inputs": [
        {
          "internalType": "bytes4",
          "name": "interfaceId",
          "type": "bytes4"
        }
      ],
      "name": "supportsInterface",
      "outputs": [
        {
          "internalType": "bool",
          "name": "",
          "type": "bool"
        }
      ],
      "stateMutability": "view",
      "type": "function"
    },
    {
      "inputs": [],
      "name": "symbol",
      "outputs": [
        {
          "internalType": "string",
          "name": "",
          "type": "string"
        }
      ],
      "stateMutability": "view",
      "type": "function"
    },
    {
      "inputs": [
        {
          "internalType": "uint256",
          "name": "",
          "type": "uint256"
        }
      ],
      "name": "tokenContexts",
      "outputs": [
        {
          "internalType": "uint256",
          "name": "promotionID",
          "type": "uint256"
        },
        {
          "internalType": "uint256",
          "name": "participantNumber",
          "type": "uint256"
        }
      ],
      "stateMutability": "view",
      "type": "function"
    },
    {
      "inputs": [
        {
          "internalType": "uint256",
          "name": "tokenID",
          "type": "uint256"
        }
      ],
      "name": "tokenURI",
      "outputs": [
        {
          "internalType": "string",
          "name": "",
          "type": "string"
        }
      ],
      "stateMutability": "view",
      "type": "function"
    },
    {
      "inputs": [
        {
          "internalType": "address",
          "name": "from",
          "type": "address"
        },
        {
          "internalType": "address",
          "name": "to",
          "type": "address"
        },
        {
          "internalType": "uint256",
          "name": "tokenId",
          "type": "uint256"
        }
      ],
      "name": "transferFrom",
      "outputs": [],
      "stateMutability": "nonpayable",
      "type": "function"
    }
  ],
  "transactionHash": "0x61b79f1bbeeaabd3d68612fad1788a7d11ad8ca038281f98f5d3eeaff3ce00c1",
  "args": [],
  "numDeployments": 1,
  "solcInputHash": "94355181309715c7ea770d221f0b5898",
  "bytecode": "0x60806040526040518060400160405280600b81526020017f616d617a6f6e2e636f6d2f000000000000000000000000000000000000000000815250600890816200004a9190620003ac565b503480156200005857600080fd5b506040518060400160405280600a81526020017f526563656970744e4654000000000000000000000000000000000000000000008152506040518060400160405280600381526020017f52505400000000000000000000000000000000000000000000000000000000008152508160009081620000d69190620003ac565b508060019081620000e89190620003ac565b50505033600760006101000a81548173ffffffffffffffffffffffffffffffffffffffff021916908373ffffffffffffffffffffffffffffffffffffffff16021790555062000493565b600081519050919050565b7f4e487b7100000000000000000000000000000000000000000000000000000000600052604160045260246000fd5b7f4e487b7100000000000000000000000000000000000000000000000000000000600052602260045260246000fd5b60006002820490506001821680620001b457607f821691505b602082108103620001ca57620001c96200016c565b5b50919050565b60008190508160005260206000209050919050565b60006020601f8301049050919050565b600082821b905092915050565b600060088302620002347fffffffffffffffffffffffffffffffffffffffffffffffffffffffffffffffff82620001f5565b620002408683620001f5565b95508019841693508086168417925050509392505050565b6000819050919050565b6000819050919050565b60006200028d62000287620002818462000258565b62000262565b62000258565b9050919050565b6000819050919050565b620002a9836200026c565b620002c1620002b88262000294565b84845462000202565b825550505050565b600090565b620002d8620002c9565b620002e58184846200029e565b505050565b5b818110156200030d5762000301600082620002ce565b600181019050620002eb565b5050565b601f8211156200035c576200032681620001d0565b6200033184620001e5565b8101602085101562000341578190505b620003596200035085620001e5565b830182620002ea565b50505b505050565b600082821c905092915050565b6000620003816000198460080262000361565b1980831691505092915050565b60006200039c83836200036e565b9150826002028217905092915050565b620003b78262000132565b67ffffffffffffffff811115620003d357620003d26200013d565b5b620003df82546200019b565b620003ec82828562000311565b600060209050601f8311600181146200042457600084156200040f578287015190505b6200041b85826200038e565b8655506200048b565b601f1984166200043486620001d0565b60005b828110156200045e5784890151825560018201915060208501945060208101905062000437565b868310156200047e57848901516200047a601f8916826200036e565b8355505b6001600288020188555050505b505050505050565b613d7e80620004a36000396000f3fe608060405234801561001057600080fd5b50600436106101fa5760003560e01c806370a082311161011a578063c87b56dd116100ad578063d65c430e1161007c578063d65c430e14610608578063e985e9c514610639578063ecf017c514610669578063f165cb0714610687578063f7e5d8c6146106b7576101fa565b8063c87b56dd1461056e578063ce606ee01461059e578063d25cdf1d146105bc578063d36595e7146105d8576101fa565b806395d89b41116100e957806395d89b41146104fc578063a22cb4651461051a578063ab5cb85a14610536578063b88d4fde14610552576101fa565b806370a082311461046457806384936ac014610494578063933a6f0d146104b057806395d65155146104cc576101fa565b806323b872dd116101925780635bf77a5a116101615780635bf77a5a146103ca5780635c7eced7146103e65780635cd2dd5e146104045780636352211e14610434576101fa565b806323b872dd146103455780632a55205a1461036157806335b20baf1461039257806342842e0e146103ae576101fa565b8063095ea7b3116101ce578063095ea7b3146102ad578063135a0ce9146102c957806313af4035146102f95780631d4922b814610315576101fa565b80629308a1146101ff57806301ffc9a71461022f57806306fdde031461025f578063081812fc1461027d575b600080fd5b610219600480360381019061021491906129f2565b6106d5565b6040516102269190612a68565b60405180910390f35b61024960048036038101906102449190612adb565b610870565b6040516102569190612b23565b60405180910390f35b610267610882565b6040516102749190612bce565b60405180910390f35b61029760048036038101906102929190612bf0565b610914565b6040516102a49190612c2c565b60405180910390f35b6102c760048036038101906102c29190612c47565b610930565b005b6102e360048036038101906102de9190612bf0565b610946565b6040516102f09190612bce565b60405180910390f35b610313600480360381019061030e9190612cc5565b6109e6565b005b61032f600480360381019061032a9190612bf0565b610aba565b60405161033c9190612a68565b60405180910390f35b61035f600480360381019061035a9190612cf2565b610bcf565b005b61037b60048036038101906103769190612d45565b610cd1565b604051610389929190612d85565b60405180910390f35b6103ac60048036038101906103a79190612dae565b610d71565b005b6103c860048036038101906103c39190612cf2565b610ea1565b005b6103e460048036038101906103df9190612dee565b610ec1565b005b6103ee611117565b6040516103fb9190612bce565b60405180910390f35b61041e60048036038101906104199190612bf0565b6111a5565b60405161042b9190612c2c565b60405180910390f35b61044e60048036038101906104499190612bf0565b6111d8565b60405161045b9190612c2c565b60405180910390f35b61047e60048036038101906104799190612dee565b6111ea565b60405161048b9190612a68565b60405180910390f35b6104ae60048036038101906104a99190612e80565b6112a4565b005b6104ca60048036038101906104c59190612d45565b6113a6565b005b6104e660048036038101906104e19190612bf0565b6114e1565b6040516104f39190612c2c565b60405180910390f35b610504611520565b6040516105119190612bce565b60405180910390f35b610534600480360381019061052f9190612f0c565b6115b2565b005b610550600480360381019061054b9190612dee565b6115c8565b005b61056c6004803603810190610567919061307c565b6117fd565b005b61058860048036038101906105839190612bf0565b61181a565b6040516105959190612bce565b60405180910390f35b6105a661199f565b6040516105b39190612c2c565b60405180910390f35b6105d660048036038101906105d191906130ff565b6119c5565b005b6105f260048036038101906105ed9190612bf0565b611a6b565b6040516105ff9190612a68565b60405180910390f35b610622600480360381019061061d9190612bf0565b611a83565b60405161063092919061314c565b60405180910390f35b610653600480360381019061064e9190613175565b611aa7565b6040516106609190612b23565b60405180910390f35b610671611b3b565b60405161067e9190613273565b60405180910390f35b6106a1600480360381019061069c9190612bf0565b611bc9565b6040516106ae9190612c2c565b60405180910390f35b6106bf611bfc565b6040516106cc9190612a68565b60405180910390f35b6000806000905060005b600c80549050811015610773573373ffffffffffffffffffffffffffffffffffffffff16600c828154811061071757610716613295565b5b9060005260206000200160009054906101000a900473ffffffffffffffffffffffffffffffffffffffff1673ffffffffffffffffffffffffffffffffffffffff16036107665760019150610773565b80806001019150506106df565b50806107b4576040517f08c379a00000000000000000000000000000000000000000000000000000000081526004016107ab90613310565b60405180910390fd5b60006001600b546107c5919061335f565b905060005b84811015610849576107e78882846107e2919061335f565b611c02565b60405180604001604052808881526020018288610804919061335f565b815250600660008385610817919061335f565b8152602001908152602001600020600082015181600001556020820151816001015590505080806001019150506107ca565b5083600b600082825461085c919061335f565b925050819055508092505050949350505050565b600061087b82611cfb565b9050919050565b606060008054610891906133c2565b80601f01602080910402602001604051908101604052809291908181526020018280546108bd906133c2565b801561090a5780601f106108df5761010080835404028352916020019161090a565b820191906000526020600020905b8154815290600101906020018083116108ed57829003601f168201915b5050505050905090565b600061091f82611ddd565b5061092982611e65565b9050919050565b610942828261093d611ea2565b611eaa565b5050565b60096020528060005260406000206000915090508054610965906133c2565b80601f0160208091040260200160405190810160405280929190818152602001828054610991906133c2565b80156109de5780601f106109b3576101008083540402835291602001916109de565b820191906000526020600020905b8154815290600101906020018083116109c157829003601f168201915b505050505081565b600760009054906101000a900473ffffffffffffffffffffffffffffffffffffffff1673ffffffffffffffffffffffffffffffffffffffff163373ffffffffffffffffffffffffffffffffffffffff1614610a76576040517f08c379a0000000000000000000000000000000000000000000000000000000008152600401610a6d9061343f565b60405180910390fd5b80600760006101000a81548173ffffffffffffffffffffffffffffffffffffffff021916908373ffffffffffffffffffffffffffffffffffffffff16021790555050565b6000806000905060005b600c80549050811015610b58573373ffffffffffffffffffffffffffffffffffffffff16600c8281548110610afc57610afb613295565b5b9060005260206000200160009054906101000a900473ffffffffffffffffffffffffffffffffffffffff1673ffffffffffffffffffffffffffffffffffffffff1603610b4b5760019150610b58565b8080600101915050610ac4565b5080610b99576040517f08c379a0000000000000000000000000000000000000000000000000000000008152600401610b9090613310565b60405180910390fd5b60006001600b54610baa919061335f565b905083600b6000828254610bbe919061335f565b925050819055508092505050919050565b600073ffffffffffffffffffffffffffffffffffffffff168273ffffffffffffffffffffffffffffffffffffffff1603610c415760006040517f64a0ae92000000000000000000000000000000000000000000000000000000008152600401610c389190612c2c565b60405180910390fd5b6000610c558383610c50611ea2565b611ebc565b90508373ffffffffffffffffffffffffffffffffffffffff168173ffffffffffffffffffffffffffffffffffffffff1614610ccb578382826040517f64283d7b000000000000000000000000000000000000000000000000000000008152600401610cc29392919061345f565b60405180910390fd5b50505050565b60008060006006600086815260200190815260200160002060000154905060008103610d04576000809250925050610d6a565b600e600082815260200190815260200160002060009054906101000a900473ffffffffffffffffffffffffffffffffffffffff169250612710600d60008381526020019081526020016000205485610d5c9190613496565b610d669190613507565b9150505b9250929050565b6000805b600c80549050811015610e09573373ffffffffffffffffffffffffffffffffffffffff16600c8281548110610dad57610dac613295565b5b9060005260206000200160009054906101000a900473ffffffffffffffffffffffffffffffffffffffff1673ffffffffffffffffffffffffffffffffffffffff1603610dfc5760019150610e09565b8080600101915050610d75565b5080610e4a576040517f08c379a0000000000000000000000000000000000000000000000000000000008152600401610e4190613310565b60405180910390fd5b81600e600085815260200190815260200160002060006101000a81548173ffffffffffffffffffffffffffffffffffffffff021916908373ffffffffffffffffffffffffffffffffffffffff160217905550505050565b610ebc838383604051806020016040528060008152506117fd565b505050565b600760009054906101000a900473ffffffffffffffffffffffffffffffffffffffff1673ffffffffffffffffffffffffffffffffffffffff163373ffffffffffffffffffffffffffffffffffffffff1614610f51576040517f08c379a0000000000000000000000000000000000000000000000000000000008152600401610f489061343f565b60405180910390fd5b60005b600c805490508110156110d8578173ffffffffffffffffffffffffffffffffffffffff16600c8281548110610f8c57610f8b613295565b5b9060005260206000200160009054906101000a900473ffffffffffffffffffffffffffffffffffffffff1673ffffffffffffffffffffffffffffffffffffffff16036110cb57600c6001600c80549050610fe69190613538565b81548110610ff757610ff6613295565b5b9060005260206000200160009054906101000a900473ffffffffffffffffffffffffffffffffffffffff16600c828154811061103657611035613295565b5b9060005260206000200160006101000a81548173ffffffffffffffffffffffffffffffffffffffff021916908373ffffffffffffffffffffffffffffffffffffffff160217905550600c8054806110905761108f61356c565b5b6001900381819060005260206000200160006101000a81549073ffffffffffffffffffffffffffffffffffffffff0219169055905550611114565b8080600101915050610f54565b506040517f08c379a000000000000000000000000000000000000000000000000000000000815260040161110b9061360d565b60405180910390fd5b50565b60088054611124906133c2565b80601f0160208091040260200160405190810160405280929190818152602001828054611150906133c2565b801561119d5780601f106111725761010080835404028352916020019161119d565b820191906000526020600020905b81548152906001019060200180831161118057829003601f168201915b505050505081565b600a6020528060005260406000206000915054906101000a900473ffffffffffffffffffffffffffffffffffffffff1681565b60006111e382611ddd565b9050919050565b60008073ffffffffffffffffffffffffffffffffffffffff168273ffffffffffffffffffffffffffffffffffffffff160361125d5760006040517f89c62b640000000000000000000000000000000000000000000000000000000081526004016112549190612c2c565b60405180910390fd5b600360008373ffffffffffffffffffffffffffffffffffffffff1673ffffffffffffffffffffffffffffffffffffffff168152602001908152602001600020549050919050565b6000805b600c8054905081101561133c573373ffffffffffffffffffffffffffffffffffffffff16600c82815481106112e0576112df613295565b5b9060005260206000200160009054906101000a900473ffffffffffffffffffffffffffffffffffffffff1673ffffffffffffffffffffffffffffffffffffffff160361132f576001915061133c565b80806001019150506112a8565b508061137d576040517f08c379a000000000000000000000000000000000000000000000000000000000815260040161137490613310565b60405180910390fd5b828260096000878152602001908152602001600020918261139f9291906137e4565b5050505050565b6000805b600c8054905081101561143e573373ffffffffffffffffffffffffffffffffffffffff16600c82815481106113e2576113e1613295565b5b9060005260206000200160009054906101000a900473ffffffffffffffffffffffffffffffffffffffff1673ffffffffffffffffffffffffffffffffffffffff1603611431576001915061143e565b80806001019150506113aa565b508061147f576040517f08c379a000000000000000000000000000000000000000000000000000000000815260040161147690613310565b60405180910390fd5b6127108211156114c4576040517f08c379a00000000000000000000000000000000000000000000000000000000081526004016114bb90613900565b60405180910390fd5b81600d600085815260200190815260200160002081905550505050565b600c81815481106114f157600080fd5b906000526020600020016000915054906101000a900473ffffffffffffffffffffffffffffffffffffffff1681565b60606001805461152f906133c2565b80601f016020809104026020016040519081016040528092919081815260200182805461155b906133c2565b80156115a85780601f1061157d576101008083540402835291602001916115a8565b820191906000526020600020905b81548152906001019060200180831161158b57829003601f168201915b5050505050905090565b6115c46115bd611ea2565b83836120d6565b5050565b600760009054906101000a900473ffffffffffffffffffffffffffffffffffffffff1673ffffffffffffffffffffffffffffffffffffffff163373ffffffffffffffffffffffffffffffffffffffff1614611658576040517f08c379a000000000000000000000000000000000000000000000000000000000815260040161164f9061343f565b60405180910390fd5b600073ffffffffffffffffffffffffffffffffffffffff168173ffffffffffffffffffffffffffffffffffffffff16036116c7576040517f08c379a00000000000000000000000000000000000000000000000000000000081526004016116be9061396c565b60405180910390fd5b6000600c80549050905060005b81811015611795578273ffffffffffffffffffffffffffffffffffffffff16600c828154811061170757611706613295565b5b9060005260206000200160009054906101000a900473ffffffffffffffffffffffffffffffffffffffff1673ffffffffffffffffffffffffffffffffffffffff1603611788576040517f08c379a000000000000000000000000000000000000000000000000000000000815260040161177f906139d8565b60405180910390fd5b80806001019150506116d4565b50600c829080600181540180825580915050600190039060005260206000200160009091909190916101000a81548173ffffffffffffffffffffffffffffffffffffffff021916908373ffffffffffffffffffffffffffffffffffffffff1602179055505050565b611808848484610bcf565b61181484848484612245565b50505050565b60606000600660008481526020019081526020016000206000015490506000600660008581526020019081526020016000206001015490506000820361188c576040517fceea21b600000000000000000000000000000000000000000000000000000000815260040160405180910390fd5b60006009600084815260200190815260200160002080546118ac906133c2565b80601f01602080910402602001604051908101604052809291908181526020018280546118d8906133c2565b80156119255780601f106118fa57610100808354040283529160200191611925565b820191906000526020600020905b81548152906001019060200180831161190857829003601f168201915b50505050509050600081510361196a576008611940836123fc565b604051602001611951929190613b4f565b604051602081830303815290604052935050505061199a565b80611974836123fc565b604051602001611985929190613b89565b60405160208183030381529060405293505050505b919050565b600760009054906101000a900473ffffffffffffffffffffffffffffffffffffffff1681565b600760009054906101000a900473ffffffffffffffffffffffffffffffffffffffff1673ffffffffffffffffffffffffffffffffffffffff163373ffffffffffffffffffffffffffffffffffffffff1614611a55576040517f08c379a0000000000000000000000000000000000000000000000000000000008152600401611a4c9061343f565b60405180910390fd5b818160089182611a669291906137e4565b505050565b600d6020528060005260406000206000915090505481565b60066020528060005260406000206000915090508060000154908060010154905082565b6000600560008473ffffffffffffffffffffffffffffffffffffffff1673ffffffffffffffffffffffffffffffffffffffff16815260200190815260200160002060008373ffffffffffffffffffffffffffffffffffffffff1673ffffffffffffffffffffffffffffffffffffffff16815260200190815260200160002060009054906101000a900460ff16905092915050565b6060600c805480602002602001604051908101604052809291908181526020018280548015611bbf57602002820191906000526020600020905b8160009054906101000a900473ffffffffffffffffffffffffffffffffffffffff1673ffffffffffffffffffffffffffffffffffffffff1681526020019060010190808311611b75575b5050505050905090565b600e6020528060005260406000206000915054906101000a900473ffffffffffffffffffffffffffffffffffffffff1681565b600b5481565b600073ffffffffffffffffffffffffffffffffffffffff168273ffffffffffffffffffffffffffffffffffffffff1603611c745760006040517f64a0ae92000000000000000000000000000000000000000000000000000000008152600401611c6b9190612c2c565b60405180910390fd5b6000611c8283836000611ebc565b9050600073ffffffffffffffffffffffffffffffffffffffff168173ffffffffffffffffffffffffffffffffffffffff1614611cf65760006040517f73c6ac6e000000000000000000000000000000000000000000000000000000008152600401611ced9190612c2c565b60405180910390fd5b505050565b60007f80ac58cd000000000000000000000000000000000000000000000000000000007bffffffffffffffffffffffffffffffffffffffffffffffffffffffff1916827bffffffffffffffffffffffffffffffffffffffffffffffffffffffff19161480611dc657507f5b5e139f000000000000000000000000000000000000000000000000000000007bffffffffffffffffffffffffffffffffffffffffffffffffffffffff1916827bffffffffffffffffffffffffffffffffffffffffffffffffffffffff1916145b80611dd65750611dd582612559565b5b9050919050565b600080611de9836125c3565b9050600073ffffffffffffffffffffffffffffffffffffffff168173ffffffffffffffffffffffffffffffffffffffff1603611e5c57826040517f7e273289000000000000000000000000000000000000000000000000000000008152600401611e539190612a68565b60405180910390fd5b80915050919050565b60006004600083815260200190815260200160002060009054906101000a900473ffffffffffffffffffffffffffffffffffffffff169050919050565b600033905090565b611eb78383836001612600565b505050565b600080611ec8846125c3565b9050600073ffffffffffffffffffffffffffffffffffffffff168373ffffffffffffffffffffffffffffffffffffffff1614611f0a57611f098184866127c5565b5b600073ffffffffffffffffffffffffffffffffffffffff168173ffffffffffffffffffffffffffffffffffffffff1614611f9b57611f4c600085600080612600565b6001600360008373ffffffffffffffffffffffffffffffffffffffff1673ffffffffffffffffffffffffffffffffffffffff168152602001908152602001600020600082825403925050819055505b600073ffffffffffffffffffffffffffffffffffffffff168573ffffffffffffffffffffffffffffffffffffffff161461201e576001600360008773ffffffffffffffffffffffffffffffffffffffff1673ffffffffffffffffffffffffffffffffffffffff168152602001908152602001600020600082825401925050819055505b846002600086815260200190815260200160002060006101000a81548173ffffffffffffffffffffffffffffffffffffffff021916908373ffffffffffffffffffffffffffffffffffffffff160217905550838573ffffffffffffffffffffffffffffffffffffffff168273ffffffffffffffffffffffffffffffffffffffff167fddf252ad1be2c89b69c2b068fc378daa952ba7f163c4a11628f55a4df523b3ef60405160405180910390a4809150509392505050565b600073ffffffffffffffffffffffffffffffffffffffff168273ffffffffffffffffffffffffffffffffffffffff160361214757816040517f5b08ba1800000000000000000000000000000000000000000000000000000000815260040161213e9190612c2c565b60405180910390fd5b80600560008573ffffffffffffffffffffffffffffffffffffffff1673ffffffffffffffffffffffffffffffffffffffff16815260200190815260200160002060008473ffffffffffffffffffffffffffffffffffffffff1673ffffffffffffffffffffffffffffffffffffffff16815260200190815260200160002060006101000a81548160ff0219169083151502179055508173ffffffffffffffffffffffffffffffffffffffff168373ffffffffffffffffffffffffffffffffffffffff167f17307eab39ab6107e8899845ad3d59bd9653f200f220920489ca2b5937696c31836040516122389190612b23565b60405180910390a3505050565b60008373ffffffffffffffffffffffffffffffffffffffff163b11156123f6578273ffffffffffffffffffffffffffffffffffffffff1663150b7a02612289611ea2565b8685856040518563ffffffff1660e01b81526004016122ab9493929190613c18565b6020604051808303816000875af19250505080156122e757506040513d601f19601f820116820180604052508101906122e49190613c79565b60015b61236b573d8060008114612317576040519150601f19603f3d011682016040523d82523d6000602084013e61231c565b606091505b50600081510361236357836040517f64a0ae9200000000000000000000000000000000000000000000000000000000815260040161235a9190612c2c565b60405180910390fd5b805181602001fd5b63150b7a0260e01b7bffffffffffffffffffffffffffffffffffffffffffffffffffffffff1916817bffffffffffffffffffffffffffffffffffffffffffffffffffffffff1916146123f457836040517f64a0ae920000000000000000000000000000000000000000000000000000000081526004016123eb9190612c2c565b60405180910390fd5b505b50505050565b606060008203612443576040518060400160405280600181526020017f30000000000000000000000000000000000000000000000000000000000000008152509050612554565b600082905060005b6000821461247557808061245e90613ca6565b915050600a8261246e9190613507565b915061244b565b60008167ffffffffffffffff81111561249157612490612f51565b5b6040519080825280601f01601f1916602001820160405280156124c35781602001600182028036833780820191505090505b5090505b6000851461254d57600a856124dc9190613cee565b60306124e8919061335f565b60f81b81836124f690613d1f565b9350838151811061250a57612509613295565b5b60200101907effffffffffffffffffffffffffffffffffffffffffffffffffffffffffffff1916908160001a905350600a856125469190613507565b94506124c7565b8093505050505b919050565b60007f01ffc9a7000000000000000000000000000000000000000000000000000000007bffffffffffffffffffffffffffffffffffffffffffffffffffffffff1916827bffffffffffffffffffffffffffffffffffffffffffffffffffffffff1916149050919050565b60006002600083815260200190815260200160002060009054906101000a900473ffffffffffffffffffffffffffffffffffffffff169050919050565b80806126395750600073ffffffffffffffffffffffffffffffffffffffff168273ffffffffffffffffffffffffffffffffffffffff1614155b1561276d57600061264984611ddd565b9050600073ffffffffffffffffffffffffffffffffffffffff168373ffffffffffffffffffffffffffffffffffffffff16141580156126b457508273ffffffffffffffffffffffffffffffffffffffff168173ffffffffffffffffffffffffffffffffffffffff1614155b80156126c757506126c58184611aa7565b155b1561270957826040517fa9fbf51f0000000000000000000000000000000000000000000000000000000081526004016127009190612c2c565b60405180910390fd5b811561276b57838573ffffffffffffffffffffffffffffffffffffffff168273ffffffffffffffffffffffffffffffffffffffff167f8c5be1e5ebec7d5bd14f71427d1e84f3dd0314c0f7b2291e5b200ac8c7c3b92560405160405180910390a45b505b836004600085815260200190815260200160002060006101000a81548173ffffffffffffffffffffffffffffffffffffffff021916908373ffffffffffffffffffffffffffffffffffffffff16021790555050505050565b6127d0838383612889565b61288457600073ffffffffffffffffffffffffffffffffffffffff168373ffffffffffffffffffffffffffffffffffffffff160361284557806040517f7e27328900000000000000000000000000000000000000000000000000000000815260040161283c9190612a68565b60405180910390fd5b81816040517f177e802f00000000000000000000000000000000000000000000000000000000815260040161287b929190612d85565b60405180910390fd5b505050565b60008073ffffffffffffffffffffffffffffffffffffffff168373ffffffffffffffffffffffffffffffffffffffff161415801561294157508273ffffffffffffffffffffffffffffffffffffffff168473ffffffffffffffffffffffffffffffffffffffff16148061290257506129018484611aa7565b5b8061294057508273ffffffffffffffffffffffffffffffffffffffff1661292883611e65565b73ffffffffffffffffffffffffffffffffffffffff16145b5b90509392505050565b6000604051905090565b600080fd5b600080fd5b600073ffffffffffffffffffffffffffffffffffffffff82169050919050565b60006129898261295e565b9050919050565b6129998161297e565b81146129a457600080fd5b50565b6000813590506129b681612990565b92915050565b6000819050919050565b6129cf816129bc565b81146129da57600080fd5b50565b6000813590506129ec816129c6565b92915050565b60008060008060808587031215612a0c57612a0b612954565b5b6000612a1a878288016129a7565b9450506020612a2b878288016129dd565b9350506040612a3c878288016129dd565b9250506060612a4d878288016129dd565b91505092959194509250565b612a62816129bc565b82525050565b6000602082019050612a7d6000830184612a59565b92915050565b60007fffffffff0000000000000000000000000000000000000000000000000000000082169050919050565b612ab881612a83565b8114612ac357600080fd5b50565b600081359050612ad581612aaf565b92915050565b600060208284031215612af157612af0612954565b5b6000612aff84828501612ac6565b91505092915050565b60008115159050919050565b612b1d81612b08565b82525050565b6000602082019050612b386000830184612b14565b92915050565b600081519050919050565b600082825260208201905092915050565b60005b83811015612b78578082015181840152602081019050612b5d565b60008484015250505050565b6000601f19601f8301169050919050565b6000612ba082612b3e565b612baa8185612b49565b9350612bba818560208601612b5a565b612bc381612b84565b840191505092915050565b60006020820190508181036000830152612be88184612b95565b905092915050565b600060208284031215612c0657612c05612954565b5b6000612c14848285016129dd565b91505092915050565b612c268161297e565b82525050565b6000602082019050612c416000830184612c1d565b92915050565b60008060408385031215612c5e57612c5d612954565b5b6000612c6c858286016129a7565b9250506020612c7d858286016129dd565b9150509250929050565b6000612c928261295e565b9050919050565b612ca281612c87565b8114612cad57600080fd5b50565b600081359050612cbf81612c99565b92915050565b600060208284031215612cdb57612cda612954565b5b6000612ce984828501612cb0565b91505092915050565b600080600060608486031215612d0b57612d0a612954565b5b6000612d19868287016129a7565b9350506020612d2a868287016129a7565b9250506040612d3b868287016129dd565b9150509250925092565b60008060408385031215612d5c57612d5b612954565b5b6000612d6a858286016129dd565b9250506020612d7b858286016129dd565b9150509250929050565b6000604082019050612d9a6000830185612c1d565b612da76020830184612a59565b9392505050565b60008060408385031215612dc557612dc4612954565b5b6000612dd3858286016129dd565b9250506020612de4858286016129a7565b9150509250929050565b600060208284031215612e0457612e03612954565b5b6000612e12848285016129a7565b91505092915050565b600080fd5b600080fd5b600080fd5b60008083601f840112612e4057612e3f612e1b565b5b8235905067ffffffffffffffff811115612e5d57612e5c612e20565b5b602083019150836001820283011115612e7957612e78612e25565b5b9250929050565b600080600060408486031215612e9957612e98612954565b5b6000612ea7868287016129dd565b935050602084013567ffffffffffffffff811115612ec857612ec7612959565b5b612ed486828701612e2a565b92509250509250925092565b612ee981612b08565b8114612ef457600080fd5b50565b600081359050612f0681612ee0565b92915050565b60008060408385031215612f2357612f22612954565b5b6000612f31858286016129a7565b9250506020612f4285828601612ef7565b9150509250929050565b600080fd5b7f4e487b7100000000000000000000000000000000000000000000000000000000600052604160045260246000fd5b612f8982612b84565b810181811067ffffffffffffffff82111715612fa857612fa7612f51565b5b80604052505050565b6000612fbb61294a565b9050612fc78282612f80565b919050565b600067ffffffffffffffff821115612fe757612fe6612f51565b5b612ff082612b84565b9050602081019050919050565b82818337600083830152505050565b600061301f61301a84612fcc565b612fb1565b90508281526020810184848401111561303b5761303a612f4c565b5b613046848285612ffd565b509392505050565b600082601f83011261306357613062612e1b565b5b813561307384826020860161300c565b91505092915050565b6000806000806080858703121561309657613095612954565b5b60006130a4878288016129a7565b94505060206130b5878288016129a7565b93505060406130c6878288016129dd565b925050606085013567ffffffffffffffff8111156130e7576130e6612959565b5b6130f38782880161304e565b91505092959194509250565b6000806020838503121561311657613115612954565b5b600083013567ffffffffffffffff81111561313457613133612959565b5b61314085828601612e2a565b92509250509250929050565b60006040820190506131616000830185612a59565b61316e6020830184612a59565b9392505050565b6000806040838503121561318c5761318b612954565b5b600061319a858286016129a7565b92505060206131ab858286016129a7565b9150509250929050565b600081519050919050565b600082825260208201905092915050565b6000819050602082019050919050565b6131ea8161297e565b82525050565b60006131fc83836131e1565b60208301905092915050565b6000602082019050919050565b6000613220826131b5565b61322a81856131c0565b9350613235836131d1565b8060005b8381101561326657815161324d88826131f0565b975061325883613208565b925050600181019050613239565b5085935050505092915050565b6000602082019050818103600083015261328d8184613215565b905092915050565b7f4e487b7100000000000000000000000000000000000000000000000000000000600052603260045260246000fd5b7f4e6f7420616e20617070726f7665642063616c6c657200000000000000000000600082015250565b60006132fa601683612b49565b9150613305826132c4565b602082019050919050565b60006020820190508181036000830152613329816132ed565b9050919050565b7f4e487b7100000000000000000000000000000000000000000000000000000000600052601160045260246000fd5b600061336a826129bc565b9150613375836129bc565b925082820190508082111561338d5761338c613330565b5b92915050565b7f4e487b7100000000000000000000000000000000000000000000000000000000600052602260045260246000fd5b600060028204905060018216806133da57607f821691505b6020821081036133ed576133ec613393565b5b50919050565b7f4e6f7420417574686f72697a6564000000000000000000000000000000000000600082015250565b6000613429600e83612b49565b9150613434826133f3565b602082019050919050565b600060208201905081810360008301526134588161341c565b9050919050565b60006060820190506134746000830186612c1d565b6134816020830185612a59565b61348e6040830184612c1d565b949350505050565b60006134a1826129bc565b91506134ac836129bc565b92508282026134ba816129bc565b915082820484148315176134d1576134d0613330565b5b5092915050565b7f4e487b7100000000000000000000000000000000000000000000000000000000600052601260045260246000fd5b6000613512826129bc565b915061351d836129bc565b92508261352d5761352c6134d8565b5b828204905092915050565b6000613543826129bc565b915061354e836129bc565b925082820390508181111561356657613565613330565b5b92915050565b7f4e487b7100000000000000000000000000000000000000000000000000000000600052603160045260246000fd5b7f41646472657373206e6f7420666f756e6420696e20617070726f76656420636160008201527f6c6c6572732e0000000000000000000000000000000000000000000000000000602082015250565b60006135f7602683612b49565b91506136028261359b565b604082019050919050565b60006020820190508181036000830152613626816135ea565b9050919050565b600082905092915050565b60008190508160005260206000209050919050565b60006020601f8301049050919050565b600082821b905092915050565b60006008830261369a7fffffffffffffffffffffffffffffffffffffffffffffffffffffffffffffffff8261365d565b6136a4868361365d565b95508019841693508086168417925050509392505050565b6000819050919050565b60006136e16136dc6136d7846129bc565b6136bc565b6129bc565b9050919050565b6000819050919050565b6136fb836136c6565b61370f613707826136e8565b84845461366a565b825550505050565b600090565b613724613717565b61372f8184846136f2565b505050565b5b818110156137535761374860008261371c565b600181019050613735565b5050565b601f8211156137985761376981613638565b6137728461364d565b81016020851015613781578190505b61379561378d8561364d565b830182613734565b50505b505050565b600082821c905092915050565b60006137bb6000198460080261379d565b1980831691505092915050565b60006137d483836137aa565b9150826002028217905092915050565b6137ee838361362d565b67ffffffffffffffff81111561380757613806612f51565b5b61381182546133c2565b61381c828285613757565b6000601f83116001811461384b5760008415613839578287013590505b61384385826137c8565b8655506138ab565b601f19841661385986613638565b60005b828110156138815784890135825560018201915060208501945060208101905061385c565b8683101561389e578489013561389a601f8916826137aa565b8355505b6001600288020188555050505b50505050505050565b7f496e76616c696400000000000000000000000000000000000000000000000000600082015250565b60006138ea600783612b49565b91506138f5826138b4565b602082019050919050565b60006020820190508181036000830152613919816138dd565b9050919050565b7f43616e6e6f7420617070726f766520746865207a65726f206164647265737300600082015250565b6000613956601f83612b49565b915061396182613920565b602082019050919050565b6000602082019050818103600083015261398581613949565b9050919050565b7f4164647265737320697320616c726561647920617070726f7665640000000000600082015250565b60006139c2601b83612b49565b91506139cd8261398c565b602082019050919050565b600060208201905081810360008301526139f1816139b5565b9050919050565b600081905092915050565b60008154613a10816133c2565b613a1a81866139f8565b94506001821660008114613a355760018114613a4a57613a7d565b60ff1983168652811515820286019350613a7d565b613a5385613638565b60005b83811015613a7557815481890152600182019150602081019050613a56565b838801955050505b50505092915050565b7f2f00000000000000000000000000000000000000000000000000000000000000600082015250565b6000613abc6001836139f8565b9150613ac782613a86565b600182019050919050565b6000613add82612b3e565b613ae781856139f8565b9350613af7818560208601612b5a565b80840191505092915050565b7f2e6a736f6e000000000000000000000000000000000000000000000000000000600082015250565b6000613b396005836139f8565b9150613b4482613b03565b600582019050919050565b6000613b5b8285613a03565b9150613b6682613aaf565b9150613b728284613ad2565b9150613b7d82613b2c565b91508190509392505050565b6000613b958285613ad2565b9150613ba082613aaf565b9150613bac8284613ad2565b9150613bb782613b2c565b91508190509392505050565b600081519050919050565b600082825260208201905092915050565b6000613bea82613bc3565b613bf48185613bce565b9350613c04818560208601612b5a565b613c0d81612b84565b840191505092915050565b6000608082019050613c2d6000830187612c1d565b613c3a6020830186612c1d565b613c476040830185612a59565b8181036060830152613c598184613bdf565b905095945050505050565b600081519050613c7381612aaf565b92915050565b600060208284031215613c8f57613c8e612954565b5b6000613c9d84828501613c64565b91505092915050565b6000613cb1826129bc565b91507fffffffffffffffffffffffffffffffffffffffffffffffffffffffffffffffff8203613ce357613ce2613330565b5b600182019050919050565b6000613cf9826129bc565b9150613d04836129bc565b925082613d1457613d136134d8565b5b828206905092915050565b6000613d2a826129bc565b915060008203613d3d57613d3c613330565b5b60018203905091905056fea2646970667358221220b31407233007a5d20fc37751dca3b7b525d89748252690c7f22f1e2ae692dc5464736f6c63430008180033",
  "devdoc": {
    "errors": {
      "ERC721IncorrectOwner(address,uint256,address)": [
        {
          "details": "Indicates an error related to the ownership over a particular token. Used in transfers.",
          "params": {
            "owner": "Address of the current owner of a token.",
            "sender": "Address whose tokens are being transferred.",
            "tokenId": "Identifier number of a token."
          }
        }
      ],
      "ERC721InsufficientApproval(address,uint256)": [
        {
          "details": "Indicates a failure with the `operator`s approval. Used in transfers.",
          "params": {
            "operator": "Address that may be allowed to operate on tokens without being their owner.",
            "tokenId": "Identifier number of a token."
          }
        }
      ],
      "ERC721InvalidApprover(address)": [
        {
          "details": "Indicates a failure with the `approver` of a token to be approved. Used in approvals.",
          "params": {
            "approver": "Address initiating an approval operation."
          }
        }
      ],
      "ERC721InvalidOperator(address)": [
        {
          "details": "Indicates a failure with the `operator` to be approved. Used in approvals.",
          "params": {
            "operator": "Address that may be allowed to operate on tokens without being their owner."
          }
        }
      ],
      "ERC721InvalidOwner(address)": [
        {
          "details": "Indicates that an address can't be an owner. For example, `address(0)` is a forbidden owner in EIP-20. Used in balance queries.",
          "params": {
            "owner": "Address of the current owner of a token."
          }
        }
      ],
      "ERC721InvalidReceiver(address)": [
        {
          "details": "Indicates a failure with the token `receiver`. Used in transfers.",
          "params": {
            "receiver": "Address to which tokens are being transferred."
          }
        }
      ],
      "ERC721InvalidSender(address)": [
        {
          "details": "Indicates a failure with the token `sender`. Used in transfers.",
          "params": {
            "sender": "Address whose tokens are being transferred."
          }
        }
      ],
      "ERC721NonexistentToken(uint256)": [
        {
          "details": "Indicates a `tokenId` whose `owner` is the zero address.",
          "params": {
            "tokenId": "Identifier number of a token."
          }
        }
      ]
    },
    "events": {
      "Approval(address,address,uint256)": {
        "details": "Emitted when `owner` enables `approved` to manage the `tokenId` token."
      },
      "ApprovalForAll(address,address,bool)": {
        "details": "Emitted when `owner` enables or disables (`approved`) `operator` to manage all of its assets."
      },
      "Transfer(address,address,uint256)": {
        "details": "Emitted when `tokenId` token is transferred from `from` to `to`."
      }
    },
    "kind": "dev",
    "methods": {
      "approve(address,uint256)": {
        "details": "See {IERC721-approve}."
      },
      "balanceOf(address)": {
        "details": "See {IERC721-balanceOf}."
      },
      "getApproved(uint256)": {
        "details": "See {IERC721-getApproved}."
      },
      "isApprovedForAll(address,address)": {
        "details": "See {IERC721-isApprovedForAll}."
      },
      "name()": {
        "details": "See {IERC721Metadata-name}."
      },
      "ownerOf(uint256)": {
        "details": "See {IERC721-ownerOf}."
      },
      "royaltyInfo(uint256,uint256)": {
        "details": "Returns how much royalty is owed and to whom, based on a sale price that may be denominated in any unit of exchange. The royalty amount is denominated and should be paid in that same unit of exchange."
      },
      "safeTransferFrom(address,address,uint256)": {
        "details": "See {IERC721-safeTransferFrom}."
      },
      "safeTransferFrom(address,address,uint256,bytes)": {
        "details": "See {IERC721-safeTransferFrom}."
      },
      "setApprovalForAll(address,bool)": {
        "details": "See {IERC721-setApprovalForAll}."
      },
      "symbol()": {
        "details": "See {IERC721Metadata-symbol}."
      },
      "transferFrom(address,address,uint256)": {
        "details": "See {IERC721-transferFrom}."
      }
    },
    "version": 1
  },
  "userdoc": {
    "kind": "user",
    "methods": {},
    "version": 1
  },
  "storageLayout": {
    "storage": [
      {
        "astId": 421,
        "contract": "contracts/ReceiptManagerv4.sol:ReceiptManager",
        "label": "_name",
        "offset": 0,
        "slot": "0",
        "type": "t_string_storage"
      },
      {
        "astId": 423,
        "contract": "contracts/ReceiptManagerv4.sol:ReceiptManager",
        "label": "_symbol",
        "offset": 0,
        "slot": "1",
        "type": "t_string_storage"
      },
      {
        "astId": 427,
        "contract": "contracts/ReceiptManagerv4.sol:ReceiptManager",
        "label": "_owners",
        "offset": 0,
        "slot": "2",
        "type": "t_mapping(t_uint256,t_address)"
      },
      {
        "astId": 431,
        "contract": "contracts/ReceiptManagerv4.sol:ReceiptManager",
        "label": "_balances",
        "offset": 0,
        "slot": "3",
        "type": "t_mapping(t_address,t_uint256)"
      },
      {
        "astId": 435,
        "contract": "contracts/ReceiptManagerv4.sol:ReceiptManager",
        "label": "_tokenApprovals",
        "offset": 0,
        "slot": "4",
        "type": "t_mapping(t_uint256,t_address)"
      },
      {
        "astId": 441,
        "contract": "contracts/ReceiptManagerv4.sol:ReceiptManager",
        "label": "_operatorApprovals",
        "offset": 0,
        "slot": "5",
        "type": "t_mapping(t_address,t_mapping(t_address,t_bool))"
      },
      {
        "astId": 3556,
        "contract": "contracts/ReceiptManagerv4.sol:ReceiptManager",
        "label": "tokenContexts",
        "offset": 0,
        "slot": "6",
        "type": "t_mapping(t_uint256,t_struct(TokenContext)3551_storage)"
      },
      {
        "astId": 3558,
        "contract": "contracts/ReceiptManagerv4.sol:ReceiptManager",
        "label": "contractOwner",
        "offset": 0,
        "slot": "7",
        "type": "t_address"
      },
      {
        "astId": 3561,
        "contract": "contracts/ReceiptManagerv4.sol:ReceiptManager",
        "label": "defaultURIRoot",
        "offset": 0,
        "slot": "8",
        "type": "t_string_storage"
      },
      {
        "astId": 3565,
        "contract": "contracts/ReceiptManagerv4.sol:ReceiptManager",
        "label": "customURIRoot",
        "offset": 0,
        "slot": "9",
        "type": "t_mapping(t_uint256,t_string_storage)"
      },
      {
        "astId": 3569,
        "contract": "contracts/ReceiptManagerv4.sol:ReceiptManager",
        "label": "royaltyReceiver",
        "offset": 0,
        "slot": "10",
        "type": "t_mapping(t_uint256,t_address)"
      },
      {
        "astId": 3571,
        "contract": "contracts/ReceiptManagerv4.sol:ReceiptManager",
        "label": "receiptIDs",
        "offset": 0,
        "slot": "11",
        "type": "t_uint256"
      },
      {
        "astId": 3574,
        "contract": "contracts/ReceiptManagerv4.sol:ReceiptManager",
        "label": "approvedCallers",
        "offset": 0,
        "slot": "12",
        "type": "t_array(t_address)dyn_storage"
      },
      {
        "astId": 3578,
        "contract": "contracts/ReceiptManagerv4.sol:ReceiptManager",
        "label": "royaltyBasisPoints",
        "offset": 0,
        "slot": "13",
        "type": "t_mapping(t_uint256,t_uint256)"
      },
      {
        "astId": 3582,
        "contract": "contracts/ReceiptManagerv4.sol:ReceiptManager",
        "label": "promotionOwners",
        "offset": 0,
        "slot": "14",
        "type": "t_mapping(t_uint256,t_address)"
      }
    ],
    "types": {
      "t_address": {
        "encoding": "inplace",
        "label": "address",
        "numberOfBytes": "20"
      },
      "t_array(t_address)dyn_storage": {
        "base": "t_address",
        "encoding": "dynamic_array",
        "label": "address[]",
        "numberOfBytes": "32"
      },
      "t_bool": {
        "encoding": "inplace",
        "label": "bool",
        "numberOfBytes": "1"
      },
      "t_mapping(t_address,t_bool)": {
        "encoding": "mapping",
        "key": "t_address",
        "label": "mapping(address => bool)",
        "numberOfBytes": "32",
        "value": "t_bool"
      },
      "t_mapping(t_address,t_mapping(t_address,t_bool))": {
        "encoding": "mapping",
        "key": "t_address",
        "label": "mapping(address => mapping(address => bool))",
        "numberOfBytes": "32",
        "value": "t_mapping(t_address,t_bool)"
      },
      "t_mapping(t_address,t_uint256)": {
        "encoding": "mapping",
        "key": "t_address",
        "label": "mapping(address => uint256)",
        "numberOfBytes": "32",
        "value": "t_uint256"
      },
      "t_mapping(t_uint256,t_address)": {
        "encoding": "mapping",
        "key": "t_uint256",
        "label": "mapping(uint256 => address)",
        "numberOfBytes": "32",
        "value": "t_address"
      },
      "t_mapping(t_uint256,t_string_storage)": {
        "encoding": "mapping",
        "key": "t_uint256",
        "label": "mapping(uint256 => string)",
        "numberOfBytes": "32",
        "value": "t_string_storage"
      },
      "t_mapping(t_uint256,t_struct(TokenContext)3551_storage)": {
        "encoding": "mapping",
        "key": "t_uint256",
        "label": "mapping(uint256 => struct ReceiptManager.TokenContext)",
        "numberOfBytes": "32",
        "value": "t_struct(TokenContext)3551_storage"
      },
      "t_mapping(t_uint256,t_uint256)": {
        "encoding": "mapping",
        "key": "t_uint256",
        "label": "mapping(uint256 => uint256)",
        "numberOfBytes": "32",
        "value": "t_uint256"
      },
      "t_string_storage": {
        "encoding": "bytes",
        "label": "string",
        "numberOfBytes": "32"
      },
      "t_struct(TokenContext)3551_storage": {
        "encoding": "inplace",
        "label": "struct ReceiptManager.TokenContext",
        "members": [
          {
            "astId": 3548,
            "contract": "contracts/ReceiptManagerv4.sol:ReceiptManager",
            "label": "promotionID",
            "offset": 0,
            "slot": "0",
            "type": "t_uint256"
          },
          {
            "astId": 3550,
            "contract": "contracts/ReceiptManagerv4.sol:ReceiptManager",
            "label": "participantNumber",
            "offset": 0,
            "slot": "1",
            "type": "t_uint256"
          }
        ],
        "numberOfBytes": "64"
      },
      "t_uint256": {
        "encoding": "inplace",
        "label": "uint256",
        "numberOfBytes": "32"
      }
    }
  }
}