{
  "address": "0x84eA74d481Ee0A5332c457a4d796187F6Ba67fEB",
  "abi": [
    {
      "inputs": [
        {
          "internalType": "address",
          "name": "_receiptManagerAddress",
          "type": "address"
        },
        {
          "internalType": "address",
          "name": "_promotionsManagerAddress",
          "type": "address"
        }
      ],
      "stateMutability": "nonpayable",
      "type": "constructor"
    },
    {
      "inputs": [],
      "name": "InvalidConfig",
      "type": "error"
    },
    {
      "inputs": [],
      "name": "NotApproved",
      "type": "error"
    },
    {
      "inputs": [],
      "name": "NotCustomURI",
      "type": "error"
    },
    {
      "inputs": [],
      "name": "Promotion_Expired",
      "type": "error"
    },
    {
      "inputs": [],
      "name": "URIAlreadSet",
      "type": "error"
    },
    {
      "anonymous": false,
      "inputs": [
        {
          "indexed": true,
          "internalType": "uint256",
          "name": "promotionID",
          "type": "uint256"
        },
        {
          "indexed": false,
          "internalType": "uint256",
          "name": "numberOfParticipants",
          "type": "uint256"
        }
      ],
      "name": "SeedCancelled",
      "type": "event"
    },
    {
      "anonymous": false,
      "inputs": [
        {
          "indexed": true,
          "internalType": "address",
          "name": "owner",
          "type": "address"
        },
        {
          "indexed": true,
          "internalType": "uint256",
          "name": "promotionID",
          "type": "uint256"
        },
        {
          "indexed": true,
          "internalType": "address",
          "name": "erc20Token",
          "type": "address"
        },
        {
          "indexed": false,
          "internalType": "uint256",
          "name": "seeds",
          "type": "uint256"
        },
        {
          "indexed": false,
          "internalType": "uint256",
          "name": "maxSlots",
          "type": "uint256"
        },
        {
          "indexed": false,
          "internalType": "uint256",
          "name": "sharedAmount",
          "type": "uint256"
        },
        {
          "indexed": false,
          "internalType": "uint256",
          "name": "endTime",
          "type": "uint256"
        },
        {
          "indexed": false,
          "internalType": "bool",
          "name": "mintsNFTs",
          "type": "bool"
        }
      ],
      "name": "SeedCreated",
      "type": "event"
    },
    {
      "anonymous": false,
      "inputs": [
        {
          "indexed": true,
          "internalType": "uint256",
          "name": "tokenID",
          "type": "uint256"
        },
        {
          "indexed": true,
          "internalType": "uint256",
          "name": "promotionID",
          "type": "uint256"
        },
        {
          "indexed": false,
          "internalType": "uint256",
          "name": "redeemedAmount",
          "type": "uint256"
        }
      ],
      "name": "SeedReceiptRedeemed",
      "type": "event"
    },
    {
      "anonymous": false,
      "inputs": [
        {
          "indexed": true,
          "internalType": "address",
          "name": "joiner",
          "type": "address"
        },
        {
          "indexed": false,
          "internalType": "uint256",
          "name": "promotionID",
          "type": "uint256"
        },
        {
          "indexed": false,
          "internalType": "uint256",
          "name": "firstParticipantNumber",
          "type": "uint256"
        },
        {
          "indexed": false,
          "internalType": "uint256",
          "name": "firstTokenID",
          "type": "uint256"
        },
        {
          "indexed": false,
          "internalType": "bool",
          "name": "seeded",
          "type": "bool"
        },
        {
          "indexed": false,
          "internalType": "uint256",
          "name": "numTickets",
          "type": "uint256"
        }
      ],
      "name": "SeedReceiptsMinted",
      "type": "event"
    },
    {
      "inputs": [],
      "name": "MINIMUM_DURATION",
      "outputs": [
        {
          "internalType": "uint256",
          "name": "",
          "type": "uint256"
        }
      ],
      "stateMutability": "view",
      "type": "function"
    },
    {
      "inputs": [
        {
          "internalType": "uint256",
          "name": "",
          "type": "uint256"
        }
      ],
      "name": "SeedReceipts",
      "outputs": [
        {
          "internalType": "uint256",
          "name": "seedID",
          "type": "uint256"
        },
        {
          "internalType": "uint256",
          "name": "redeemedAmount",
          "type": "uint256"
        },
        {
          "internalType": "bool",
          "name": "seeded",
          "type": "bool"
        }
      ],
      "stateMutability": "view",
      "type": "function"
    },
    {
      "inputs": [
        {
          "internalType": "uint256",
          "name": "",
          "type": "uint256"
        }
      ],
      "name": "Seeds",
      "outputs": [
        {
          "internalType": "uint256",
          "name": "numSeeds",
          "type": "uint256"
        },
        {
          "internalType": "uint256",
          "name": "maxSlots",
          "type": "uint256"
        },
        {
          "internalType": "uint256",
          "name": "price",
          "type": "uint256"
        },
        {
          "internalType": "uint256",
          "name": "endTime",
          "type": "uint256"
        },
        {
          "internalType": "uint256",
          "name": "sharedAmount",
          "type": "uint256"
        },
        {
          "internalType": "address",
          "name": "owner",
          "type": "address"
        },
        {
          "internalType": "uint256",
          "name": "earnedAmount",
          "type": "uint256"
        },
        {
          "internalType": "address",
          "name": "erc20Token",
          "type": "address"
        },
        {
          "internalType": "bool",
          "name": "mintsNFTs",
          "type": "bool"
        }
      ],
      "stateMutability": "view",
      "type": "function"
    },
    {
      "inputs": [
        {
          "internalType": "address",
          "name": "",
          "type": "address"
        },
        {
          "internalType": "uint256",
          "name": "",
          "type": "uint256"
        }
      ],
      "name": "addressToPromotions",
      "outputs": [
        {
          "internalType": "uint256",
          "name": "",
          "type": "uint256"
        }
      ],
      "stateMutability": "view",
      "type": "function"
    },
    {
      "inputs": [
        {
          "internalType": "address",
          "name": "",
          "type": "address"
        },
        {
          "internalType": "address",
          "name": "",
          "type": "address"
        }
      ],
      "name": "approvedOperators",
      "outputs": [
        {
          "internalType": "bool",
          "name": "",
          "type": "bool"
        }
      ],
      "stateMutability": "view",
      "type": "function"
    },
    {
      "inputs": [
        {
          "internalType": "address",
          "name": "",
          "type": "address"
        },
        {
          "internalType": "uint256",
          "name": "",
          "type": "uint256"
        }
      ],
      "name": "arrayOfApprovedOperators",
      "outputs": [
        {
          "internalType": "address",
          "name": "",
          "type": "address"
        }
      ],
      "stateMutability": "view",
      "type": "function"
    },
    {
      "inputs": [
        {
          "internalType": "uint256",
          "name": "seedID",
          "type": "uint256"
        }
      ],
      "name": "cancelSeed",
      "outputs": [],
      "stateMutability": "nonpayable",
      "type": "function"
    },
    {
      "inputs": [],
      "name": "commission",
      "outputs": [
        {
          "internalType": "uint256",
          "name": "",
          "type": "uint256"
        }
      ],
      "stateMutability": "view",
      "type": "function"
    },
    {
      "inputs": [],
      "name": "contractOwner",
      "outputs": [
        {
          "internalType": "address",
          "name": "",
          "type": "address"
        }
      ],
      "stateMutability": "view",
      "type": "function"
    },
    {
      "inputs": [
        {
          "internalType": "uint256",
          "name": "_seeds",
          "type": "uint256"
        },
        {
          "internalType": "uint256",
          "name": "_maxSlots",
          "type": "uint256"
        },
        {
          "internalType": "uint256",
          "name": "_price",
          "type": "uint256"
        },
        {
          "internalType": "uint256",
          "name": "_duration",
          "type": "uint256"
        },
        {
          "internalType": "uint256",
          "name": "_sharedAmount",
          "type": "uint256"
        },
        {
          "internalType": "address",
          "name": "_owner",
          "type": "address"
        },
        {
          "internalType": "address",
          "name": "_erc20Token",
          "type": "address"
        },
        {
          "internalType": "bool",
          "name": "_mintsNFTs",
          "type": "bool"
        }
      ],
      "name": "createSeed",
      "outputs": [],
      "stateMutability": "nonpayable",
      "type": "function"
    },
    {
      "inputs": [
        {
          "internalType": "address",
          "name": "",
          "type": "address"
        }
      ],
      "name": "earnedCommissions",
      "outputs": [
        {
          "internalType": "uint256",
          "name": "",
          "type": "uint256"
        }
      ],
      "stateMutability": "view",
      "type": "function"
    },
    {
      "inputs": [
        {
          "internalType": "uint256",
          "name": "promotionID",
          "type": "uint256"
        }
      ],
      "name": "getNumberOfParticipants",
      "outputs": [
        {
          "internalType": "uint256",
          "name": "",
          "type": "uint256"
        }
      ],
      "stateMutability": "view",
      "type": "function"
    },
    {
      "inputs": [
        {
          "internalType": "uint256",
          "name": "promotionID",
          "type": "uint256"
        }
      ],
      "name": "getPromotionReceipts",
      "outputs": [
        {
          "internalType": "uint256[]",
          "name": "",
          "type": "uint256[]"
        }
      ],
      "stateMutability": "view",
      "type": "function"
    },
    {
      "inputs": [
        {
          "internalType": "address",
          "name": "promotionOwner",
          "type": "address"
        }
      ],
      "name": "getPromotionsByOwner",
      "outputs": [
        {
          "internalType": "uint256[]",
          "name": "",
          "type": "uint256[]"
        }
      ],
      "stateMutability": "view",
      "type": "function"
    },
    {
      "inputs": [
        {
          "internalType": "uint256",
          "name": "seedID",
          "type": "uint256"
        },
        {
          "internalType": "uint256",
          "name": "numOrders",
          "type": "uint256"
        }
      ],
      "name": "joinSeed",
      "outputs": [],
      "stateMutability": "nonpayable",
      "type": "function"
    },
    {
      "inputs": [
        {
          "internalType": "uint256",
          "name": "",
          "type": "uint256"
        },
        {
          "internalType": "uint256",
          "name": "",
          "type": "uint256"
        }
      ],
      "name": "promotionIDToReceiptIDs",
      "outputs": [
        {
          "internalType": "uint256",
          "name": "",
          "type": "uint256"
        }
      ],
      "stateMutability": "view",
      "type": "function"
    },
    {
      "inputs": [],
      "name": "promotionsManager",
      "outputs": [
        {
          "internalType": "contract IPromotionsManager",
          "name": "",
          "type": "address"
        }
      ],
      "stateMutability": "view",
      "type": "function"
    },
    {
      "inputs": [],
      "name": "promotionsManagerAddress",
      "outputs": [
        {
          "internalType": "address",
          "name": "",
          "type": "address"
        }
      ],
      "stateMutability": "view",
      "type": "function"
    },
    {
      "inputs": [
        {
          "internalType": "uint256",
          "name": "",
          "type": "uint256"
        }
      ],
      "name": "receiptIDToPromotionID",
      "outputs": [
        {
          "internalType": "uint256",
          "name": "",
          "type": "uint256"
        }
      ],
      "stateMutability": "view",
      "type": "function"
    },
    {
      "inputs": [],
      "name": "receiptManager",
      "outputs": [
        {
          "internalType": "contract IReceiptManager",
          "name": "",
          "type": "address"
        }
      ],
      "stateMutability": "view",
      "type": "function"
    },
    {
      "inputs": [],
      "name": "receiptManagerAddress",
      "outputs": [
        {
          "internalType": "address",
          "name": "",
          "type": "address"
        }
      ],
      "stateMutability": "view",
      "type": "function"
    },
    {
      "inputs": [
        {
          "internalType": "uint256[]",
          "name": "receiptIDs",
          "type": "uint256[]"
        }
      ],
      "name": "redeemSeedReceipts",
      "outputs": [],
      "stateMutability": "nonpayable",
      "type": "function"
    },
    {
      "inputs": [],
      "name": "seedIDs",
      "outputs": [
        {
          "internalType": "uint256",
          "name": "",
          "type": "uint256"
        }
      ],
      "stateMutability": "view",
      "type": "function"
    },
    {
      "inputs": [
        {
          "internalType": "uint256",
          "name": "newCommissionBPs",
          "type": "uint256"
        }
      ],
      "name": "setCommission",
      "outputs": [],
      "stateMutability": "nonpayable",
      "type": "function"
    },
    {
      "inputs": [
        {
          "internalType": "address payable",
          "name": "newOwner",
          "type": "address"
        }
      ],
      "name": "setOwner",
      "outputs": [],
      "stateMutability": "nonpayable",
      "type": "function"
    },
    {
      "inputs": [
        {
          "internalType": "uint256",
          "name": "promotionID",
          "type": "uint256"
        },
        {
          "internalType": "string",
          "name": "newURIRoot",
          "type": "string"
        }
      ],
      "name": "setPromotionURI",
      "outputs": [],
      "stateMutability": "nonpayable",
      "type": "function"
    },
    {
      "inputs": [
        {
          "internalType": "address",
          "name": "_promotionsManagerAddress",
          "type": "address"
        }
      ],
      "name": "setPromotionsManager",
      "outputs": [],
      "stateMutability": "nonpayable",
      "type": "function"
    },
    {
      "inputs": [
        {
          "internalType": "address",
          "name": "_receiptManagerAddress",
          "type": "address"
        }
      ],
      "name": "setReceiptManager",
      "outputs": [],
      "stateMutability": "nonpayable",
      "type": "function"
    },
    {
      "inputs": [
        {
          "internalType": "uint256",
          "name": "promotionID",
          "type": "uint256"
        },
        {
          "internalType": "uint256",
          "name": "basisPoints",
          "type": "uint256"
        }
      ],
      "name": "setRoyalty",
      "outputs": [],
      "stateMutability": "nonpayable",
      "type": "function"
    },
    {
      "inputs": [
        {
          "internalType": "uint256",
          "name": "",
          "type": "uint256"
        }
      ],
      "name": "unmintedReceiptsToOwners",
      "outputs": [
        {
          "internalType": "address",
          "name": "",
          "type": "address"
        }
      ],
      "stateMutability": "view",
      "type": "function"
    },
    {
      "inputs": [
        {
          "internalType": "address",
          "name": "erc20Token",
          "type": "address"
        }
      ],
      "name": "withdrawCommissions",
      "outputs": [],
      "stateMutability": "nonpayable",
      "type": "function"
    },
    {
      "inputs": [
        {
          "internalType": "address",
          "name": "",
          "type": "address"
        }
      ],
      "name": "withdrawnCommissions",
      "outputs": [
        {
          "internalType": "uint256",
          "name": "",
          "type": "uint256"
        }
      ],
      "stateMutability": "view",
      "type": "function"
    }
  ],
  "transactionHash": "0xb51deb6e324eddafa76ba2b0135450ea2fc1d595c972a6398d255ee13b2d4eca",
  "args": [
    "0xE6E340D132b5f46d1e472DebcD681B2aBc16e57E",
    "0xc3e53F4d16Ae77Db1c982e75a937B9f60FE63690"
  ],
  "numDeployments": 1,
  "solcInputHash": "4e9e6149be04f0c3dde4d2910f02c0c8",
  "bytecode": "0x608060405260c86000556064600e553480156200001b57600080fd5b5060405162003bd938038062003bd98339818101604052810190620000419190620001f8565b33600160006101000a81548173ffffffffffffffffffffffffffffffffffffffff021916908373ffffffffffffffffffffffffffffffffffffffff16021790555081600c60006101000a81548173ffffffffffffffffffffffffffffffffffffffff021916908373ffffffffffffffffffffffffffffffffffffffff16021790555081600260006101000a81548173ffffffffffffffffffffffffffffffffffffffff021916908373ffffffffffffffffffffffffffffffffffffffff16021790555080600360006101000a81548173ffffffffffffffffffffffffffffffffffffffff021916908373ffffffffffffffffffffffffffffffffffffffff16021790555080600d60006101000a81548173ffffffffffffffffffffffffffffffffffffffff021916908373ffffffffffffffffffffffffffffffffffffffff16021790555050506200023f565b600080fd5b600073ffffffffffffffffffffffffffffffffffffffff82169050919050565b6000620001c08262000193565b9050919050565b620001d281620001b3565b8114620001de57600080fd5b50565b600081519050620001f281620001c7565b92915050565b600080604083850312156200021257620002116200018e565b5b60006200022285828601620001e1565b92505060206200023585828601620001e1565b9150509250929050565b61398a806200024f6000396000f3fe608060405234801561001057600080fd5b50600436106101f05760003560e01c80638ec621c91161010f578063c8d4d0f8116100a2578063e148919111610071578063e1489191146105f9578063e9b08e1314610617578063ef5856c314610647578063f7dbfa5314610677576101f0565b8063c8d4d0f814610555578063ce606ee01461058d578063cfefaa4e146105ab578063d3aca872146105db576101f0565b8063a2d26ab7116100de578063a2d26ab7146104a7578063a3a92ad8146104c3578063c0628f1d146104f3578063c2b5dc6214610523576101f0565b80638ec621c9146104335780639165bdba1461044f578063933a6f0d1461046d578063a0bbde3214610489576101f0565b80633a810114116101875780636d03e728116101565780636d03e728146103ab578063709b1dbc146103c957806376640a5c146103e55780637aa88c7f14610403576101f0565b80633a8101141461031357806351f7a854146103435780635a31470d1461035f57806364ead1eb1461037b576101f0565b80632d28e89d116101c35780632d28e89d1461028d5780632ff71a69146102ab57806334d82220146102c7578063355e6b43146102f7576101f0565b8063039551f4146101f557806313af403514610225578063163403b21461024157806317a59ab01461025d575b600080fd5b61020f600480360381019061020a9190612a3e565b610693565b60405161021c9190612a8d565b60405180910390f35b61023f600480360381019061023a9190612ae6565b6106e1565b005b61025b60048036038101906102569190612b4b565b6107b5565b005b61027760048036038101906102729190612c01565b610b9c565b6040516102849190612c3d565b60405180910390f35b610295610bb4565b6040516102a29190612c3d565b60405180910390f35b6102c560048036038101906102c09190612c01565b610bba565b005b6102e160048036038101906102dc9190612c58565b610ccf565b6040516102ee9190612ca7565b60405180910390f35b610311600480360381019061030c9190612cc2565b610cfe565b005b61032d60048036038101906103289190612c01565b610ddd565b60405161033a9190612dad565b60405180910390f35b61035d60048036038101906103589190612c01565b610e74565b005b61037960048036038101906103749190612e34565b6110b4565b005b61039560048036038101906103909190612cc2565b61137d565b6040516103a29190612c3d565b60405180910390f35b6103b361139d565b6040516103c09190612a8d565b60405180910390f35b6103e360048036038101906103de9190612eea565b6113c3565b005b6103ed6118cf565b6040516103fa9190612f96565b60405180910390f35b61041d60048036038101906104189190612cc2565b6118f5565b60405161042a9190612a8d565b60405180910390f35b61044d60048036038101906104489190612fb1565b611928565b005b6104576121f0565b6040516104649190613012565b60405180910390f35b61048760048036038101906104829190612fb1565b612216565b005b6104916123b9565b60405161049e9190612a8d565b60405180910390f35b6104c160048036038101906104bc9190612cc2565b6123df565b005b6104dd60048036038101906104d89190612cc2565b612591565b6040516104ea9190612c3d565b60405180910390f35b61050d60048036038101906105089190612a3e565b6125a9565b60405161051a9190612c3d565b60405180910390f35b61053d60048036038101906105389190612cc2565b6125da565b60405161054c9392919061302d565b60405180910390f35b61056f600480360381019061056a9190612cc2565b612611565b60405161058499989796959493929190613064565b60405180910390f35b6105956126ac565b6040516105a29190612a8d565b60405180910390f35b6105c560048036038101906105c09190612c01565b6126d2565b6040516105d29190612c3d565b60405180910390f35b6105e36126ea565b6040516105f09190612c3d565b60405180910390f35b6106016126f0565b60405161060e9190612c3d565b60405180910390f35b610631600480360381019061062c9190612cc2565b6126f6565b60405161063e9190612dad565b60405180910390f35b610661600480360381019061065c9190612fb1565b612767565b60405161066e9190612c3d565b60405180910390f35b610691600480360381019061068c9190612c01565b612798565b005b600760205281600052604060002081815481106106af57600080fd5b906000526020600020016000915091509054906101000a900473ffffffffffffffffffffffffffffffffffffffff1681565b600160009054906101000a900473ffffffffffffffffffffffffffffffffffffffff1673ffffffffffffffffffffffffffffffffffffffff163373ffffffffffffffffffffffffffffffffffffffff1614610771576040517f08c379a00000000000000000000000000000000000000000000000000000000081526004016107689061314e565b60405180910390fd5b80600160006101000a81548173ffffffffffffffffffffffffffffffffffffffff021916908373ffffffffffffffffffffffffffffffffffffffff16021790555050565b82600d60009054906101000a900473ffffffffffffffffffffffffffffffffffffffff1673ffffffffffffffffffffffffffffffffffffffff16631a17945133836040518363ffffffff1660e01b815260040161081392919061316e565b602060405180830381865afa158015610830573d6000803e3d6000fd5b505050506040513d601f19601f8201168201806040525081019061085491906131ac565b610893576040517f08c379a000000000000000000000000000000000000000000000000000000000815260040161088a90613225565b60405180910390fd5b87891015806108a25750868510155b806108ae575061038486105b806108ba575060018811155b806108c55750600089145b806108d1575060018811155b15610908576040517f35be3ac800000000000000000000000000000000000000000000000000000000815260040160405180910390fd5b6000600f6000600e548152602001908152602001600020905089816000018190555088816001018190555087816002018190555086426109489190613274565b8160030181905550858160040181905550838160070160006101000a81548173ffffffffffffffffffffffffffffffffffffffff021916908373ffffffffffffffffffffffffffffffffffffffff160217905550848160050160006101000a81548173ffffffffffffffffffffffffffffffffffffffff021916908373ffffffffffffffffffffffffffffffffffffffff160217905550828160070160146101000a81548160ff0219169083151502179055508373ffffffffffffffffffffffffffffffffffffffff16600e548673ffffffffffffffffffffffffffffffffffffffff167f24429ab6e4cdad3b4cb2d66947e851734c9e80c3154e3650fa0da5c8319980688d8d8b428e610a5c9190613274565b8a604051610a6e9594939291906132a8565b60405180910390a4600860008673ffffffffffffffffffffffffffffffffffffffff1673ffffffffffffffffffffffffffffffffffffffff168152602001908152602001600020600e5490806001815401808255809150506001900390600052602060002001600090919091909150558215610b7657600c60009054906101000a900473ffffffffffffffffffffffffffffffffffffffff1673ffffffffffffffffffffffffffffffffffffffff166335b20baf600e54876040518363ffffffff1660e01b8152600401610b439291906132fb565b600060405180830381600087803b158015610b5d57600080fd5b505af1158015610b71573d6000803e3d6000fd5b505050505b6001600e6000828254610b899190613274565b9250508190555050505050505050505050565b60046020528060005260406000206000915090505481565b61038481565b600160009054906101000a900473ffffffffffffffffffffffffffffffffffffffff1673ffffffffffffffffffffffffffffffffffffffff163373ffffffffffffffffffffffffffffffffffffffff1614610c4a576040517f08c379a0000000000000000000000000000000000000000000000000000000008152600401610c419061314e565b60405180910390fd5b80600260006101000a81548173ffffffffffffffffffffffffffffffffffffffff021916908373ffffffffffffffffffffffffffffffffffffffff16021790555080600c60006101000a81548173ffffffffffffffffffffffffffffffffffffffff021916908373ffffffffffffffffffffffffffffffffffffffff16021790555050565b60066020528160005260406000206020528060005260406000206000915091509054906101000a900460ff1681565b600160009054906101000a900473ffffffffffffffffffffffffffffffffffffffff1673ffffffffffffffffffffffffffffffffffffffff163373ffffffffffffffffffffffffffffffffffffffff1614610d8e576040517f08c379a0000000000000000000000000000000000000000000000000000000008152600401610d859061314e565b60405180910390fd5b612710811115610dd3576040517f08c379a0000000000000000000000000000000000000000000000000000000008152600401610dca90613370565b60405180910390fd5b8060008190555050565b6060600860008373ffffffffffffffffffffffffffffffffffffffff1673ffffffffffffffffffffffffffffffffffffffff168152602001908152602001600020805480602002602001604051908101604052809291908181526020018280548015610e6857602002820191906000526020600020905b815481526020019060010190808311610e54575b50505050509050919050565b600160009054906101000a900473ffffffffffffffffffffffffffffffffffffffff1673ffffffffffffffffffffffffffffffffffffffff163373ffffffffffffffffffffffffffffffffffffffff1614610f04576040517f08c379a0000000000000000000000000000000000000000000000000000000008152600401610efb9061314e565b60405180910390fd5b8073ffffffffffffffffffffffffffffffffffffffff1663a9059cbb600160009054906101000a900473ffffffffffffffffffffffffffffffffffffffff16600560008573ffffffffffffffffffffffffffffffffffffffff1673ffffffffffffffffffffffffffffffffffffffff16815260200190815260200160002054600460008673ffffffffffffffffffffffffffffffffffffffff1673ffffffffffffffffffffffffffffffffffffffff16815260200190815260200160002054610fcd9190613390565b6040518363ffffffff1660e01b8152600401610fea9291906133c4565b6020604051808303816000875af1158015611009573d6000803e3d6000fd5b505050506040513d601f19601f8201168201806040525081019061102d91906131ac565b50600460008273ffffffffffffffffffffffffffffffffffffffff1673ffffffffffffffffffffffffffffffffffffffff16815260200190815260200160002054600560008373ffffffffffffffffffffffffffffffffffffffff1673ffffffffffffffffffffffffffffffffffffffff1681526020019081526020016000208190555050565b6000600f60008581526020019081526020016000209050600d60009054906101000a900473ffffffffffffffffffffffffffffffffffffffff1673ffffffffffffffffffffffffffffffffffffffff16631a179451338360050160009054906101000a900473ffffffffffffffffffffffffffffffffffffffff166040518363ffffffff1660e01b815260040161114c92919061316e565b602060405180830381865afa158015611169573d6000803e3d6000fd5b505050506040513d601f19601f8201168201806040525081019061118d91906131ac565b6111c3576040517fc19f17a900000000000000000000000000000000000000000000000000000000815260040160405180910390fd5b8060070160149054906101000a900460ff1661120b576040517f1fbb40b200000000000000000000000000000000000000000000000000000000815260040160405180910390fd5b6000600c60009054906101000a900473ffffffffffffffffffffffffffffffffffffffff1673ffffffffffffffffffffffffffffffffffffffff1663135a0ce9866040518263ffffffff1660e01b81526004016112689190612c3d565b600060405180830381865afa158015611285573d6000803e3d6000fd5b505050506040513d6000823e3d601f19601f820116820180604052508101906112ae9190613549565b51146112e6576040517f1c1d2b4c00000000000000000000000000000000000000000000000000000000815260040160405180910390fd5b600c60009054906101000a900473ffffffffffffffffffffffffffffffffffffffff1673ffffffffffffffffffffffffffffffffffffffff166384936ac08585856040518463ffffffff1660e01b8152600401611345939291906135ce565b600060405180830381600087803b15801561135f57600080fd5b505af1158015611373573d6000803e3d6000fd5b5050505050505050565b6000600a6000838152602001908152602001600020805490509050919050565b600360009054906101000a900473ffffffffffffffffffffffffffffffffffffffff1681565b600080600f600060106000878760008181106113e2576113e1613600565b5b90506020020135815260200190815260200160002060000154815260200190815260200160002060070160009054906101000a900473ffffffffffffffffffffffffffffffffffffffff16905060005b848490508110156118405760006010600087878581811061145657611455613600565b5b90506020020135815260200190815260200160002060405180606001604052908160008201548152602001600182015481526020016002820160009054906101000a900460ff16151515158152505090506000600f60008360000151815260200190815260200160002090508060070160009054906101000a900473ffffffffffffffffffffffffffffffffffffffff1673ffffffffffffffffffffffffffffffffffffffff168473ffffffffffffffffffffffffffffffffffffffff1614611554576040517f08c379a000000000000000000000000000000000000000000000000000000000815260040161154b9061367b565b60405180910390fd5b8060070160149054906101000a900460ff1615611692573373ffffffffffffffffffffffffffffffffffffffff16600c60009054906101000a900473ffffffffffffffffffffffffffffffffffffffff1673ffffffffffffffffffffffffffffffffffffffff16636352211e8989878181106115d3576115d2613600565b5b905060200201356040518263ffffffff1660e01b81526004016115f69190612c3d565b602060405180830381865afa158015611613573d6000803e3d6000fd5b505050506040513d601f19601f8201168201806040525081019061163791906136b0565b73ffffffffffffffffffffffffffffffffffffffff161461168d576040517f08c379a000000000000000000000000000000000000000000000000000000000815260040161168490613729565b60405180910390fd5b61174d565b3373ffffffffffffffffffffffffffffffffffffffff16600960008989878181106116c0576116bf613600565b5b90506020020135815260200190815260200160002060009054906101000a900473ffffffffffffffffffffffffffffffffffffffff1673ffffffffffffffffffffffffffffffffffffffff161461174c576040517f08c379a000000000000000000000000000000000000000000000000000000000815260040161174390613729565b60405180910390fd5b5b600115158260400151151503611831576000816000015482600601546117739190613778565b9050808360200151101561182f5760008360200151826117939190613390565b905081601060008b8b898181106117ad576117ac613600565b5b9050602002013581526020019081526020016000206001018190555080876117d59190613274565b965083600001518989878181106117ef576117ee613600565b5b905060200201357f112fb83fd3fa5d5f7813ce04bb6378298a45e2e19fd97cbf30a9dee11a8c8f0d836040516118259190612c3d565b60405180910390a3505b505b50508080600101915050611432565b50600082146118c9578073ffffffffffffffffffffffffffffffffffffffff1663a9059cbb33846040518363ffffffff1660e01b81526004016118849291906133c4565b6020604051808303816000875af11580156118a3573d6000803e3d6000fd5b505050506040513d601f19601f820116820180604052508101906118c791906131ac565b505b50505050565b600d60009054906101000a900473ffffffffffffffffffffffffffffffffffffffff1681565b60096020528060005260406000206000915054906101000a900473ffffffffffffffffffffffffffffffffffffffff1681565b6000600f60008481526020019081526020016000206040518061012001604052908160008201548152602001600182015481526020016002820154815260200160038201548152602001600482015481526020016005820160009054906101000a900473ffffffffffffffffffffffffffffffffffffffff1673ffffffffffffffffffffffffffffffffffffffff1673ffffffffffffffffffffffffffffffffffffffff168152602001600682015481526020016007820160009054906101000a900473ffffffffffffffffffffffffffffffffffffffff1673ffffffffffffffffffffffffffffffffffffffff1673ffffffffffffffffffffffffffffffffffffffff1681526020016007820160149054906101000a900460ff16151515158152505090506000600a6000858152602001908152602001600020805490509050816020015181101580611a7f5750428260600151105b15611ab6576040517faf061c0e00000000000000000000000000000000000000000000000000000000815260040160405180910390fd5b81602001518382611ac79190613274565b1115611ae057808260200151611add9190613390565b92505b600081836000015111611af4576000611b05565b818360000151611b049190613390565b5b90506000818511611b165784611b18565b815b905060008186611b289190613390565b9050600085610100015115611bed57600c60009054906101000a900473ffffffffffffffffffffffffffffffffffffffff1673ffffffffffffffffffffffffffffffffffffffff16629308a1338a600189611b839190613274565b8b6040518563ffffffff1660e01b8152600401611ba394939291906137a9565b6020604051808303816000875af1158015611bc2573d6000803e3d6000fd5b505050506040513d601f19601f82011682018060405250810190611be69190613803565b9050611c8e565b600c60009054906101000a900473ffffffffffffffffffffffffffffffffffffffff1673ffffffffffffffffffffffffffffffffffffffff16631d4922b8886040518263ffffffff1660e01b8152600401611c489190612c3d565b6020604051808303816000875af1158015611c67573d6000803e3d6000fd5b505050506040513d601f19601f82011682018060405250810190611c8b9190613803565b90505b60008314611cfa573373ffffffffffffffffffffffffffffffffffffffff167f3f7a6c5db8bf57b98c258359b47ba1019ee540680da9a55b2c5ab54655831c7689600188611cdc9190613274565b84600188604051611cf1959493929190613830565b60405180910390a25b60008214611d7c573373ffffffffffffffffffffffffffffffffffffffff167f3f7a6c5db8bf57b98c258359b47ba1019ee540680da9a55b2c5ab54655831c768985600189611d499190613274565b611d539190613274565b8685611d5f9190613274565b600087604051611d73959493929190613830565b60405180910390a25b60005b87811015611ea45760008183611d959190613274565b905060405180606001604052808b815260200160008152602001868410151581525060106000838152602001908152602001600020600082015181600001556020820151816001015560408201518160020160006101000a81548160ff021916908315150217905550905050600a60008b8152602001908152602001600020819080600181540180825580915050600190039060005260206000200160009091909190915055876101000151611e9857336009600083815260200190815260200160002060006101000a81548173ffffffffffffffffffffffffffffffffffffffff021916908373ffffffffffffffffffffffffffffffffffffffff1602179055505b50806001019050611d7f565b506000828760800151611eb79190613883565b9050600087608001518860400151611ecf9190613390565b84611eda9190613883565b886040015186611eea9190613883565b611ef49190613274565b905060006127106000548b8b60400151611f0e9190613883565b611f189190613883565b611f229190613778565b905060008284611f329190613274565b8383611f3e9190613883565b611f489190613778565b90506000841115611f9d5760008183611f619190613390565b90508085611f6f9190613390565b600f60008f81526020019081526020016000206006016000828254611f949190613274565b92505081905550505b81600460008c60e0015173ffffffffffffffffffffffffffffffffffffffff1673ffffffffffffffffffffffffffffffffffffffff1681526020019081526020016000206000828254611ff09190613274565b925050819055508960e0015173ffffffffffffffffffffffffffffffffffffffff166323b872dd333086886120259190613274565b6040518463ffffffff1660e01b8152600401612043939291906138c5565b6020604051808303816000875af1158015612062573d6000803e3d6000fd5b505050506040513d601f19601f8201168201806040525081019061208691906131ac565b5061209b83856120969190613274565b6128ad565b8960e0015173ffffffffffffffffffffffffffffffffffffffff1663a9059cbb600d60009054906101000a900473ffffffffffffffffffffffffffffffffffffffff1673ffffffffffffffffffffffffffffffffffffffff16637366ad268d60a001518e60e001516040518363ffffffff1660e01b815260040161212092919061316e565b602060405180830381865afa15801561213d573d6000803e3d6000fd5b505050506040513d601f19601f8201168201806040525081019061216191906136b0565b838661216d9190613390565b6040518363ffffffff1660e01b815260040161218a9291906133c4565b6020604051808303816000875af11580156121a9573d6000803e3d6000fd5b505050506040513d601f19601f820116820180604052508101906121cd91906131ac565b506121e281846121dd9190613390565b6128ad565b505050505050505050505050565b600c60009054906101000a900473ffffffffffffffffffffffffffffffffffffffff1681565b6000600f60008481526020019081526020016000209050600d60009054906101000a900473ffffffffffffffffffffffffffffffffffffffff1673ffffffffffffffffffffffffffffffffffffffff16631a179451338360050160009054906101000a900473ffffffffffffffffffffffffffffffffffffffff166040518363ffffffff1660e01b81526004016122ae92919061316e565b602060405180830381865afa1580156122cb573d6000803e3d6000fd5b505050506040513d601f19601f820116820180604052508101906122ef91906131ac565b612325576040517fc19f17a900000000000000000000000000000000000000000000000000000000815260040160405180910390fd5b600c60009054906101000a900473ffffffffffffffffffffffffffffffffffffffff1673ffffffffffffffffffffffffffffffffffffffff1663933a6f0d84846040518363ffffffff1660e01b81526004016123829291906138fc565b600060405180830381600087803b15801561239c57600080fd5b505af11580156123b0573d6000803e3d6000fd5b50505050505050565b600260009054906101000a900473ffffffffffffffffffffffffffffffffffffffff1681565b6000600f60008381526020019081526020016000209050600d60009054906101000a900473ffffffffffffffffffffffffffffffffffffffff1673ffffffffffffffffffffffffffffffffffffffff16631a179451338360050160009054906101000a900473ffffffffffffffffffffffffffffffffffffffff166040518363ffffffff1660e01b815260040161247792919061316e565b602060405180830381865afa158015612494573d6000803e3d6000fd5b505050506040513d601f19601f820116820180604052508101906124b891906131ac565b6124ee576040517fc19f17a900000000000000000000000000000000000000000000000000000000815260040160405180910390fd5b42816003015411801561251a57508060010154600a600084815260200190815260200160002080549050105b1561258d57600a6000838152602001908152602001600020805490508160010181905550817f21f267dac0a15d879c03a9244f09a8dc90028bcc0d298344c13f4a9de2b218ad600a6000858152602001908152602001600020805490506040516125849190612c3d565b60405180910390a25b5050565b600b6020528060005260406000206000915090505481565b600860205281600052604060002081815481106125c557600080fd5b90600052602060002001600091509150505481565b60106020528060005260406000206000915090508060000154908060010154908060020160009054906101000a900460ff16905083565b600f6020528060005260406000206000915090508060000154908060010154908060020154908060030154908060040154908060050160009054906101000a900473ffffffffffffffffffffffffffffffffffffffff16908060060154908060070160009054906101000a900473ffffffffffffffffffffffffffffffffffffffff16908060070160149054906101000a900460ff16905089565b600160009054906101000a900473ffffffffffffffffffffffffffffffffffffffff1681565b60056020528060005260406000206000915090505481565b600e5481565b60005481565b60606000600a600084815260200190815260200160002080548060200260200160405190810160405280929190818152602001828054801561275757602002820191906000526020600020905b815481526020019060010190808311612743575b5050505050905080915050919050565b600a602052816000526040600020818154811061278357600080fd5b90600052602060002001600091509150505481565b600160009054906101000a900473ffffffffffffffffffffffffffffffffffffffff1673ffffffffffffffffffffffffffffffffffffffff163373ffffffffffffffffffffffffffffffffffffffff1614612828576040517f08c379a000000000000000000000000000000000000000000000000000000000815260040161281f9061314e565b60405180910390fd5b80600360006101000a81548173ffffffffffffffffffffffffffffffffffffffff021916908373ffffffffffffffffffffffffffffffffffffffff16021790555080600d60006101000a81548173ffffffffffffffffffffffffffffffffffffffff021916908373ffffffffffffffffffffffffffffffffffffffff16021790555050565b612943816040516024016128c19190612c3d565b6040516020818303038152906040527ff82c50f1000000000000000000000000000000000000000000000000000000007bffffffffffffffffffffffffffffffffffffffffffffffffffffffff19166020820180517bffffffffffffffffffffffffffffffffffffffffffffffffffffffff8381831617835250505050612946565b50565b61295d81612955612960612981565b63ffffffff16565b50565b60006a636f6e736f6c652e6c6f679050600080835160208501845afa505050565b61298c819050919050565b612994613925565b565b6000604051905090565b600080fd5b600080fd5b600073ffffffffffffffffffffffffffffffffffffffff82169050919050565b60006129d5826129aa565b9050919050565b6129e5816129ca565b81146129f057600080fd5b50565b600081359050612a02816129dc565b92915050565b6000819050919050565b612a1b81612a08565b8114612a2657600080fd5b50565b600081359050612a3881612a12565b92915050565b60008060408385031215612a5557612a546129a0565b5b6000612a63858286016129f3565b9250506020612a7485828601612a29565b9150509250929050565b612a87816129ca565b82525050565b6000602082019050612aa26000830184612a7e565b92915050565b6000612ab3826129aa565b9050919050565b612ac381612aa8565b8114612ace57600080fd5b50565b600081359050612ae081612aba565b92915050565b600060208284031215612afc57612afb6129a0565b5b6000612b0a84828501612ad1565b91505092915050565b60008115159050919050565b612b2881612b13565b8114612b3357600080fd5b50565b600081359050612b4581612b1f565b92915050565b600080600080600080600080610100898b031215612b6c57612b6b6129a0565b5b6000612b7a8b828c01612a29565b9850506020612b8b8b828c01612a29565b9750506040612b9c8b828c01612a29565b9650506060612bad8b828c01612a29565b9550506080612bbe8b828c01612a29565b94505060a0612bcf8b828c016129f3565b93505060c0612be08b828c016129f3565b92505060e0612bf18b828c01612b36565b9150509295985092959890939650565b600060208284031215612c1757612c166129a0565b5b6000612c25848285016129f3565b91505092915050565b612c3781612a08565b82525050565b6000602082019050612c526000830184612c2e565b92915050565b60008060408385031215612c6f57612c6e6129a0565b5b6000612c7d858286016129f3565b9250506020612c8e858286016129f3565b9150509250929050565b612ca181612b13565b82525050565b6000602082019050612cbc6000830184612c98565b92915050565b600060208284031215612cd857612cd76129a0565b5b6000612ce684828501612a29565b91505092915050565b600081519050919050565b600082825260208201905092915050565b6000819050602082019050919050565b612d2481612a08565b82525050565b6000612d368383612d1b565b60208301905092915050565b6000602082019050919050565b6000612d5a82612cef565b612d648185612cfa565b9350612d6f83612d0b565b8060005b83811015612da0578151612d878882612d2a565b9750612d9283612d42565b925050600181019050612d73565b5085935050505092915050565b60006020820190508181036000830152612dc78184612d4f565b905092915050565b600080fd5b600080fd5b600080fd5b60008083601f840112612df457612df3612dcf565b5b8235905067ffffffffffffffff811115612e1157612e10612dd4565b5b602083019150836001820283011115612e2d57612e2c612dd9565b5b9250929050565b600080600060408486031215612e4d57612e4c6129a0565b5b6000612e5b86828701612a29565b935050602084013567ffffffffffffffff811115612e7c57612e7b6129a5565b5b612e8886828701612dde565b92509250509250925092565b60008083601f840112612eaa57612ea9612dcf565b5b8235905067ffffffffffffffff811115612ec757612ec6612dd4565b5b602083019150836020820283011115612ee357612ee2612dd9565b5b9250929050565b60008060208385031215612f0157612f006129a0565b5b600083013567ffffffffffffffff811115612f1f57612f1e6129a5565b5b612f2b85828601612e94565b92509250509250929050565b6000819050919050565b6000612f5c612f57612f52846129aa565b612f37565b6129aa565b9050919050565b6000612f6e82612f41565b9050919050565b6000612f8082612f63565b9050919050565b612f9081612f75565b82525050565b6000602082019050612fab6000830184612f87565b92915050565b60008060408385031215612fc857612fc76129a0565b5b6000612fd685828601612a29565b9250506020612fe785828601612a29565b9150509250929050565b6000612ffc82612f63565b9050919050565b61300c81612ff1565b82525050565b60006020820190506130276000830184613003565b92915050565b60006060820190506130426000830186612c2e565b61304f6020830185612c2e565b61305c6040830184612c98565b949350505050565b60006101208201905061307a600083018c612c2e565b613087602083018b612c2e565b613094604083018a612c2e565b6130a16060830189612c2e565b6130ae6080830188612c2e565b6130bb60a0830187612a7e565b6130c860c0830186612c2e565b6130d560e0830185612a7e565b6130e3610100830184612c98565b9a9950505050505050505050565b600082825260208201905092915050565b7f4e6f744f776e6572000000000000000000000000000000000000000000000000600082015250565b60006131386008836130f1565b915061314382613102565b602082019050919050565b600060208201905081810360008301526131678161312b565b9050919050565b60006040820190506131836000830185612a7e565b6131906020830184612a7e565b9392505050565b6000815190506131a681612b1f565b92915050565b6000602082840312156131c2576131c16129a0565b5b60006131d084828501613197565b91505092915050565b7f4e6f7420417070726f7665640000000000000000000000000000000000000000600082015250565b600061320f600c836130f1565b915061321a826131d9565b602082019050919050565b6000602082019050818103600083015261323e81613202565b9050919050565b7f4e487b7100000000000000000000000000000000000000000000000000000000600052601160045260246000fd5b600061327f82612a08565b915061328a83612a08565b92508282019050808211156132a2576132a1613245565b5b92915050565b600060a0820190506132bd6000830188612c2e565b6132ca6020830187612c2e565b6132d76040830186612c2e565b6132e46060830185612c2e565b6132f16080830184612c98565b9695505050505050565b60006040820190506133106000830185612c2e565b61331d6020830184612a7e565b9392505050565b7f496e760000000000000000000000000000000000000000000000000000000000600082015250565b600061335a6003836130f1565b915061336582613324565b602082019050919050565b600060208201905081810360008301526133898161334d565b9050919050565b600061339b82612a08565b91506133a683612a08565b92508282039050818111156133be576133bd613245565b5b92915050565b60006040820190506133d96000830185612a7e565b6133e66020830184612c2e565b9392505050565b600080fd5b6000601f19601f8301169050919050565b7f4e487b7100000000000000000000000000000000000000000000000000000000600052604160045260246000fd5b61343b826133f2565b810181811067ffffffffffffffff8211171561345a57613459613403565b5b80604052505050565b600061346d612996565b90506134798282613432565b919050565b600067ffffffffffffffff82111561349957613498613403565b5b6134a2826133f2565b9050602081019050919050565b60005b838110156134cd5780820151818401526020810190506134b2565b60008484015250505050565b60006134ec6134e78461347e565b613463565b905082815260208101848484011115613508576135076133ed565b5b6135138482856134af565b509392505050565b600082601f8301126135305761352f612dcf565b5b81516135408482602086016134d9565b91505092915050565b60006020828403121561355f5761355e6129a0565b5b600082015167ffffffffffffffff81111561357d5761357c6129a5565b5b6135898482850161351b565b91505092915050565b82818337600083830152505050565b60006135ad83856130f1565b93506135ba838584613592565b6135c3836133f2565b840190509392505050565b60006040820190506135e36000830186612c2e565b81810360208301526135f68184866135a1565b9050949350505050565b7f4e487b7100000000000000000000000000000000000000000000000000000000600052603260045260246000fd5b7f496e76616c696400000000000000000000000000000000000000000000000000600082015250565b60006136656007836130f1565b91506136708261362f565b602082019050919050565b6000602082019050818103600083015261369481613658565b9050919050565b6000815190506136aa816129dc565b92915050565b6000602082840312156136c6576136c56129a0565b5b60006136d48482850161369b565b91505092915050565b7f4e6f74206f776e65640000000000000000000000000000000000000000000000600082015250565b60006137136009836130f1565b915061371e826136dd565b602082019050919050565b6000602082019050818103600083015261374281613706565b9050919050565b7f4e487b7100000000000000000000000000000000000000000000000000000000600052601260045260246000fd5b600061378382612a08565b915061378e83612a08565b92508261379e5761379d613749565b5b828204905092915050565b60006080820190506137be6000830187612a7e565b6137cb6020830186612c2e565b6137d86040830185612c2e565b6137e56060830184612c2e565b95945050505050565b6000815190506137fd81612a12565b92915050565b600060208284031215613819576138186129a0565b5b6000613827848285016137ee565b91505092915050565b600060a0820190506138456000830188612c2e565b6138526020830187612c2e565b61385f6040830186612c2e565b61386c6060830185612c98565b6138796080830184612c2e565b9695505050505050565b600061388e82612a08565b915061389983612a08565b92508282026138a781612a08565b915082820484148315176138be576138bd613245565b5b5092915050565b60006060820190506138da6000830186612a7e565b6138e76020830185612a7e565b6138f46040830184612c2e565b949350505050565b60006040820190506139116000830185612c2e565b61391e6020830184612c2e565b9392505050565b7f4e487b7100000000000000000000000000000000000000000000000000000000600052605160045260246000fdfea2646970667358221220692711c0031ba2be0e16875f51e46bf2292fd83a1349a76e48ca542f2c088d2a64736f6c63430008180033",
  "devdoc": {
    "kind": "dev",
    "methods": {},
    "version": 1
  },
  "userdoc": {
    "kind": "user",
    "methods": {},
    "version": 1
  },
  "storageLayout": {
    "storage": [
      {
        "astId": 1604,
        "contract": "contracts/SeedManagerv2.sol:SeedManager",
        "label": "commission",
        "offset": 0,
        "slot": "0",
        "type": "t_uint256"
      },
      {
        "astId": 1606,
        "contract": "contracts/SeedManagerv2.sol:SeedManager",
        "label": "contractOwner",
        "offset": 0,
        "slot": "1",
        "type": "t_address"
      },
      {
        "astId": 1608,
        "contract": "contracts/SeedManagerv2.sol:SeedManager",
        "label": "receiptManagerAddress",
        "offset": 0,
        "slot": "2",
        "type": "t_address"
      },
      {
        "astId": 1610,
        "contract": "contracts/SeedManagerv2.sol:SeedManager",
        "label": "promotionsManagerAddress",
        "offset": 0,
        "slot": "3",
        "type": "t_address"
      },
      {
        "astId": 1614,
        "contract": "contracts/SeedManagerv2.sol:SeedManager",
        "label": "earnedCommissions",
        "offset": 0,
        "slot": "4",
        "type": "t_mapping(t_address,t_uint256)"
      },
      {
        "astId": 1618,
        "contract": "contracts/SeedManagerv2.sol:SeedManager",
        "label": "withdrawnCommissions",
        "offset": 0,
        "slot": "5",
        "type": "t_mapping(t_address,t_uint256)"
      },
      {
        "astId": 1624,
        "contract": "contracts/SeedManagerv2.sol:SeedManager",
        "label": "approvedOperators",
        "offset": 0,
        "slot": "6",
        "type": "t_mapping(t_address,t_mapping(t_address,t_bool))"
      },
      {
        "astId": 1629,
        "contract": "contracts/SeedManagerv2.sol:SeedManager",
        "label": "arrayOfApprovedOperators",
        "offset": 0,
        "slot": "7",
        "type": "t_mapping(t_address,t_array(t_address)dyn_storage)"
      },
      {
        "astId": 1634,
        "contract": "contracts/SeedManagerv2.sol:SeedManager",
        "label": "addressToPromotions",
        "offset": 0,
        "slot": "8",
        "type": "t_mapping(t_address,t_array(t_uint256)dyn_storage)"
      },
      {
        "astId": 1638,
        "contract": "contracts/SeedManagerv2.sol:SeedManager",
        "label": "unmintedReceiptsToOwners",
        "offset": 0,
        "slot": "9",
        "type": "t_mapping(t_uint256,t_address)"
      },
      {
        "astId": 1643,
        "contract": "contracts/SeedManagerv2.sol:SeedManager",
        "label": "promotionIDToReceiptIDs",
        "offset": 0,
        "slot": "10",
        "type": "t_mapping(t_uint256,t_array(t_uint256)dyn_storage)"
      },
      {
        "astId": 1647,
        "contract": "contracts/SeedManagerv2.sol:SeedManager",
        "label": "receiptIDToPromotionID",
        "offset": 0,
        "slot": "11",
        "type": "t_mapping(t_uint256,t_uint256)"
      },
      {
        "astId": 1650,
        "contract": "contracts/SeedManagerv2.sol:SeedManager",
        "label": "receiptManager",
        "offset": 0,
        "slot": "12",
        "type": "t_contract(IReceiptManager)12266"
      },
      {
        "astId": 1653,
        "contract": "contracts/SeedManagerv2.sol:SeedManager",
        "label": "promotionsManager",
        "offset": 0,
        "slot": "13",
        "type": "t_contract(IPromotionsManager)12208"
      },
      {
        "astId": 1945,
        "contract": "contracts/SeedManagerv2.sol:SeedManager",
        "label": "seedIDs",
        "offset": 0,
        "slot": "14",
        "type": "t_uint256"
      },
      {
        "astId": 1953,
        "contract": "contracts/SeedManagerv2.sol:SeedManager",
        "label": "Seeds",
        "offset": 0,
        "slot": "15",
        "type": "t_mapping(t_uint256,t_struct(Seed)1935_storage)"
      },
      {
        "astId": 1958,
        "contract": "contracts/SeedManagerv2.sol:SeedManager",
        "label": "SeedReceipts",
        "offset": 0,
        "slot": "16",
        "type": "t_mapping(t_uint256,t_struct(SeedReceipt)1942_storage)"
      }
    ],
    "types": {
      "t_address": {
        "encoding": "inplace",
        "label": "address",
        "numberOfBytes": "20"
      },
      "t_array(t_address)dyn_storage": {
        "base": "t_address",
        "encoding": "dynamic_array",
        "label": "address[]",
        "numberOfBytes": "32"
      },
      "t_array(t_uint256)dyn_storage": {
        "base": "t_uint256",
        "encoding": "dynamic_array",
        "label": "uint256[]",
        "numberOfBytes": "32"
      },
      "t_bool": {
        "encoding": "inplace",
        "label": "bool",
        "numberOfBytes": "1"
      },
      "t_contract(IPromotionsManager)12208": {
        "encoding": "inplace",
        "label": "contract IPromotionsManager",
        "numberOfBytes": "20"
      },
      "t_contract(IReceiptManager)12266": {
        "encoding": "inplace",
        "label": "contract IReceiptManager",
        "numberOfBytes": "20"
      },
      "t_mapping(t_address,t_array(t_address)dyn_storage)": {
        "encoding": "mapping",
        "key": "t_address",
        "label": "mapping(address => address[])",
        "numberOfBytes": "32",
        "value": "t_array(t_address)dyn_storage"
      },
      "t_mapping(t_address,t_array(t_uint256)dyn_storage)": {
        "encoding": "mapping",
        "key": "t_address",
        "label": "mapping(address => uint256[])",
        "numberOfBytes": "32",
        "value": "t_array(t_uint256)dyn_storage"
      },
      "t_mapping(t_address,t_bool)": {
        "encoding": "mapping",
        "key": "t_address",
        "label": "mapping(address => bool)",
        "numberOfBytes": "32",
        "value": "t_bool"
      },
      "t_mapping(t_address,t_mapping(t_address,t_bool))": {
        "encoding": "mapping",
        "key": "t_address",
        "label": "mapping(address => mapping(address => bool))",
        "numberOfBytes": "32",
        "value": "t_mapping(t_address,t_bool)"
      },
      "t_mapping(t_address,t_uint256)": {
        "encoding": "mapping",
        "key": "t_address",
        "label": "mapping(address => uint256)",
        "numberOfBytes": "32",
        "value": "t_uint256"
      },
      "t_mapping(t_uint256,t_address)": {
        "encoding": "mapping",
        "key": "t_uint256",
        "label": "mapping(uint256 => address)",
        "numberOfBytes": "32",
        "value": "t_address"
      },
      "t_mapping(t_uint256,t_array(t_uint256)dyn_storage)": {
        "encoding": "mapping",
        "key": "t_uint256",
        "label": "mapping(uint256 => uint256[])",
        "numberOfBytes": "32",
        "value": "t_array(t_uint256)dyn_storage"
      },
      "t_mapping(t_uint256,t_struct(Seed)1935_storage)": {
        "encoding": "mapping",
        "key": "t_uint256",
        "label": "mapping(uint256 => struct SeedManager.Seed)",
        "numberOfBytes": "32",
        "value": "t_struct(Seed)1935_storage"
      },
      "t_mapping(t_uint256,t_struct(SeedReceipt)1942_storage)": {
        "encoding": "mapping",
        "key": "t_uint256",
        "label": "mapping(uint256 => struct SeedManager.SeedReceipt)",
        "numberOfBytes": "32",
        "value": "t_struct(SeedReceipt)1942_storage"
      },
      "t_mapping(t_uint256,t_uint256)": {
        "encoding": "mapping",
        "key": "t_uint256",
        "label": "mapping(uint256 => uint256)",
        "numberOfBytes": "32",
        "value": "t_uint256"
      },
      "t_struct(Seed)1935_storage": {
        "encoding": "inplace",
        "label": "struct SeedManager.Seed",
        "members": [
          {
            "astId": 1918,
            "contract": "contracts/SeedManagerv2.sol:SeedManager",
            "label": "numSeeds",
            "offset": 0,
            "slot": "0",
            "type": "t_uint256"
          },
          {
            "astId": 1920,
            "contract": "contracts/SeedManagerv2.sol:SeedManager",
            "label": "maxSlots",
            "offset": 0,
            "slot": "1",
            "type": "t_uint256"
          },
          {
            "astId": 1922,
            "contract": "contracts/SeedManagerv2.sol:SeedManager",
            "label": "price",
            "offset": 0,
            "slot": "2",
            "type": "t_uint256"
          },
          {
            "astId": 1924,
            "contract": "contracts/SeedManagerv2.sol:SeedManager",
            "label": "endTime",
            "offset": 0,
            "slot": "3",
            "type": "t_uint256"
          },
          {
            "astId": 1926,
            "contract": "contracts/SeedManagerv2.sol:SeedManager",
            "label": "sharedAmount",
            "offset": 0,
            "slot": "4",
            "type": "t_uint256"
          },
          {
            "astId": 1928,
            "contract": "contracts/SeedManagerv2.sol:SeedManager",
            "label": "owner",
            "offset": 0,
            "slot": "5",
            "type": "t_address"
          },
          {
            "astId": 1930,
            "contract": "contracts/SeedManagerv2.sol:SeedManager",
            "label": "earnedAmount",
            "offset": 0,
            "slot": "6",
            "type": "t_uint256"
          },
          {
            "astId": 1932,
            "contract": "contracts/SeedManagerv2.sol:SeedManager",
            "label": "erc20Token",
            "offset": 0,
            "slot": "7",
            "type": "t_address"
          },
          {
            "astId": 1934,
            "contract": "contracts/SeedManagerv2.sol:SeedManager",
            "label": "mintsNFTs",
            "offset": 20,
            "slot": "7",
            "type": "t_bool"
          }
        ],
        "numberOfBytes": "256"
      },
      "t_struct(SeedReceipt)1942_storage": {
        "encoding": "inplace",
        "label": "struct SeedManager.SeedReceipt",
        "members": [
          {
            "astId": 1937,
            "contract": "contracts/SeedManagerv2.sol:SeedManager",
            "label": "seedID",
            "offset": 0,
            "slot": "0",
            "type": "t_uint256"
          },
          {
            "astId": 1939,
            "contract": "contracts/SeedManagerv2.sol:SeedManager",
            "label": "redeemedAmount",
            "offset": 0,
            "slot": "1",
            "type": "t_uint256"
          },
          {
            "astId": 1941,
            "contract": "contracts/SeedManagerv2.sol:SeedManager",
            "label": "seeded",
            "offset": 0,
            "slot": "2",
            "type": "t_bool"
          }
        ],
        "numberOfBytes": "96"
      },
      "t_uint256": {
        "encoding": "inplace",
        "label": "uint256",
        "numberOfBytes": "32"
      }
    }
  }
}