{
  "address": "0x84eA74d481Ee0A5332c457a4d796187F6Ba67fEB",
  "abi": [
    {
      "inputs": [
        {
          "internalType": "address",
          "name": "_receiptManagerAddress",
          "type": "address"
        },
        {
          "internalType": "address",
          "name": "_promotionsManagerAddress",
          "type": "address"
        }
      ],
      "stateMutability": "nonpayable",
      "type": "constructor"
    },
    {
      "inputs": [],
      "name": "InvalidConfig",
      "type": "error"
    },
    {
      "inputs": [],
      "name": "NotApproved",
      "type": "error"
    },
    {
      "inputs": [],
      "name": "NotCustomURI",
      "type": "error"
    },
    {
      "inputs": [],
      "name": "Promotion_Expired",
      "type": "error"
    },
    {
      "inputs": [],
      "name": "URIAlreadSet",
      "type": "error"
    },
    {
      "anonymous": false,
      "inputs": [
        {
          "indexed": true,
          "internalType": "uint256",
          "name": "promotionID",
          "type": "uint256"
        },
        {
          "indexed": false,
          "internalType": "uint256",
          "name": "numberOfParticipants",
          "type": "uint256"
        }
      ],
      "name": "SeedCancelled",
      "type": "event"
    },
    {
      "anonymous": false,
      "inputs": [
        {
          "indexed": true,
          "internalType": "address",
          "name": "owner",
          "type": "address"
        },
        {
          "indexed": true,
          "internalType": "uint256",
          "name": "promotionID",
          "type": "uint256"
        },
        {
          "indexed": true,
          "internalType": "address",
          "name": "erc20Token",
          "type": "address"
        },
        {
          "indexed": false,
          "internalType": "uint256",
          "name": "seeds",
          "type": "uint256"
        },
        {
          "indexed": false,
          "internalType": "uint256",
          "name": "maxSlots",
          "type": "uint256"
        },
        {
          "indexed": false,
          "internalType": "uint256",
          "name": "sharedAmount",
          "type": "uint256"
        },
        {
          "indexed": false,
          "internalType": "uint256",
          "name": "endTime",
          "type": "uint256"
        },
        {
          "indexed": false,
          "internalType": "bool",
          "name": "mintsNFTs",
          "type": "bool"
        }
      ],
      "name": "SeedCreated",
      "type": "event"
    },
    {
      "anonymous": false,
      "inputs": [
        {
          "indexed": true,
          "internalType": "uint256",
          "name": "tokenID",
          "type": "uint256"
        },
        {
          "indexed": true,
          "internalType": "uint256",
          "name": "promotionID",
          "type": "uint256"
        },
        {
          "indexed": false,
          "internalType": "uint256",
          "name": "redeemedAmount",
          "type": "uint256"
        }
      ],
      "name": "SeedReceiptRedeemed",
      "type": "event"
    },
    {
      "anonymous": false,
      "inputs": [
        {
          "indexed": true,
          "internalType": "address",
          "name": "joiner",
          "type": "address"
        },
        {
          "indexed": false,
          "internalType": "uint256",
          "name": "promotionID",
          "type": "uint256"
        },
        {
          "indexed": false,
          "internalType": "uint256",
          "name": "firstParticipantNumber",
          "type": "uint256"
        },
        {
          "indexed": false,
          "internalType": "uint256",
          "name": "firstTokenID",
          "type": "uint256"
        },
        {
          "indexed": false,
          "internalType": "bool",
          "name": "seeded",
          "type": "bool"
        },
        {
          "indexed": false,
          "internalType": "uint256",
          "name": "numTickets",
          "type": "uint256"
        }
      ],
      "name": "SeedReceiptsMinted",
      "type": "event"
    },
    {
      "inputs": [],
      "name": "MINIMUM_DURATION",
      "outputs": [
        {
          "internalType": "uint256",
          "name": "",
          "type": "uint256"
        }
      ],
      "stateMutability": "view",
      "type": "function"
    },
    {
      "inputs": [
        {
          "internalType": "uint256",
          "name": "",
          "type": "uint256"
        }
      ],
      "name": "SeedReceipts",
      "outputs": [
        {
          "internalType": "uint256",
          "name": "seedID",
          "type": "uint256"
        },
        {
          "internalType": "uint256",
          "name": "redeemedAmount",
          "type": "uint256"
        },
        {
          "internalType": "bool",
          "name": "seeded",
          "type": "bool"
        }
      ],
      "stateMutability": "view",
      "type": "function"
    },
    {
      "inputs": [
        {
          "internalType": "uint256",
          "name": "",
          "type": "uint256"
        }
      ],
      "name": "Seeds",
      "outputs": [
        {
          "internalType": "uint256",
          "name": "numSeeds",
          "type": "uint256"
        },
        {
          "internalType": "uint256",
          "name": "maxSlots",
          "type": "uint256"
        },
        {
          "internalType": "uint256",
          "name": "price",
          "type": "uint256"
        },
        {
          "internalType": "uint256",
          "name": "endTime",
          "type": "uint256"
        },
        {
          "internalType": "uint256",
          "name": "sharedAmount",
          "type": "uint256"
        },
        {
          "internalType": "address",
          "name": "owner",
          "type": "address"
        },
        {
          "internalType": "uint256",
          "name": "earnedAmount",
          "type": "uint256"
        },
        {
          "internalType": "address",
          "name": "erc20Token",
          "type": "address"
        },
        {
          "internalType": "bool",
          "name": "mintsNFTs",
          "type": "bool"
        }
      ],
      "stateMutability": "view",
      "type": "function"
    },
    {
      "inputs": [
        {
          "internalType": "address",
          "name": "",
          "type": "address"
        },
        {
          "internalType": "uint256",
          "name": "",
          "type": "uint256"
        }
      ],
      "name": "addressToPromotions",
      "outputs": [
        {
          "internalType": "uint256",
          "name": "",
          "type": "uint256"
        }
      ],
      "stateMutability": "view",
      "type": "function"
    },
    {
      "inputs": [
        {
          "internalType": "address",
          "name": "",
          "type": "address"
        },
        {
          "internalType": "address",
          "name": "",
          "type": "address"
        }
      ],
      "name": "approvedOperators",
      "outputs": [
        {
          "internalType": "bool",
          "name": "",
          "type": "bool"
        }
      ],
      "stateMutability": "view",
      "type": "function"
    },
    {
      "inputs": [
        {
          "internalType": "address",
          "name": "",
          "type": "address"
        },
        {
          "internalType": "uint256",
          "name": "",
          "type": "uint256"
        }
      ],
      "name": "arrayOfApprovedOperators",
      "outputs": [
        {
          "internalType": "address",
          "name": "",
          "type": "address"
        }
      ],
      "stateMutability": "view",
      "type": "function"
    },
    {
      "inputs": [],
      "name": "bank",
      "outputs": [
        {
          "internalType": "address payable",
          "name": "",
          "type": "address"
        }
      ],
      "stateMutability": "view",
      "type": "function"
    },
    {
      "inputs": [
        {
          "internalType": "uint256",
          "name": "seedID",
          "type": "uint256"
        }
      ],
      "name": "cancelSeed",
      "outputs": [],
      "stateMutability": "nonpayable",
      "type": "function"
    },
    {
      "inputs": [],
      "name": "commission",
      "outputs": [
        {
          "internalType": "uint256",
          "name": "",
          "type": "uint256"
        }
      ],
      "stateMutability": "view",
      "type": "function"
    },
    {
      "inputs": [
        {
          "internalType": "uint256",
          "name": "_seeds",
          "type": "uint256"
        },
        {
          "internalType": "uint256",
          "name": "_maxSlots",
          "type": "uint256"
        },
        {
          "internalType": "uint256",
          "name": "_price",
          "type": "uint256"
        },
        {
          "internalType": "uint256",
          "name": "_duration",
          "type": "uint256"
        },
        {
          "internalType": "uint256",
          "name": "_sharedAmount",
          "type": "uint256"
        },
        {
          "internalType": "address",
          "name": "_owner",
          "type": "address"
        },
        {
          "internalType": "address",
          "name": "_erc20Token",
          "type": "address"
        },
        {
          "internalType": "bool",
          "name": "_mintsNFTs",
          "type": "bool"
        }
      ],
      "name": "createSeed",
      "outputs": [],
      "stateMutability": "nonpayable",
      "type": "function"
    },
    {
      "inputs": [
        {
          "internalType": "address",
          "name": "",
          "type": "address"
        }
      ],
      "name": "earnedCommissions",
      "outputs": [
        {
          "internalType": "uint256",
          "name": "",
          "type": "uint256"
        }
      ],
      "stateMutability": "view",
      "type": "function"
    },
    {
      "inputs": [
        {
          "internalType": "uint256",
          "name": "promotionID",
          "type": "uint256"
        }
      ],
      "name": "getNumberOfParticipants",
      "outputs": [
        {
          "internalType": "uint256",
          "name": "",
          "type": "uint256"
        }
      ],
      "stateMutability": "view",
      "type": "function"
    },
    {
      "inputs": [
        {
          "internalType": "uint256",
          "name": "promotionID",
          "type": "uint256"
        }
      ],
      "name": "getPromotionReceipts",
      "outputs": [
        {
          "internalType": "uint256[]",
          "name": "",
          "type": "uint256[]"
        }
      ],
      "stateMutability": "view",
      "type": "function"
    },
    {
      "inputs": [
        {
          "internalType": "address",
          "name": "promotionOwner",
          "type": "address"
        }
      ],
      "name": "getPromotionsByOwner",
      "outputs": [
        {
          "internalType": "uint256[]",
          "name": "",
          "type": "uint256[]"
        }
      ],
      "stateMutability": "view",
      "type": "function"
    },
    {
      "inputs": [
        {
          "internalType": "uint256",
          "name": "seedID",
          "type": "uint256"
        },
        {
          "internalType": "uint256",
          "name": "numOrders",
          "type": "uint256"
        }
      ],
      "name": "joinSeed",
      "outputs": [],
      "stateMutability": "nonpayable",
      "type": "function"
    },
    {
      "inputs": [],
      "name": "owner",
      "outputs": [
        {
          "internalType": "address",
          "name": "",
          "type": "address"
        }
      ],
      "stateMutability": "view",
      "type": "function"
    },
    {
      "inputs": [
        {
          "internalType": "uint256",
          "name": "",
          "type": "uint256"
        },
        {
          "internalType": "uint256",
          "name": "",
          "type": "uint256"
        }
      ],
      "name": "promotionIDToReceiptIDs",
      "outputs": [
        {
          "internalType": "uint256",
          "name": "",
          "type": "uint256"
        }
      ],
      "stateMutability": "view",
      "type": "function"
    },
    {
      "inputs": [],
      "name": "promotionsManager",
      "outputs": [
        {
          "internalType": "contract IPromotionsManager",
          "name": "",
          "type": "address"
        }
      ],
      "stateMutability": "view",
      "type": "function"
    },
    {
      "inputs": [],
      "name": "promotionsManagerAddress",
      "outputs": [
        {
          "internalType": "address",
          "name": "",
          "type": "address"
        }
      ],
      "stateMutability": "view",
      "type": "function"
    },
    {
      "inputs": [
        {
          "internalType": "uint256",
          "name": "",
          "type": "uint256"
        }
      ],
      "name": "receiptIDToPromotionID",
      "outputs": [
        {
          "internalType": "uint256",
          "name": "",
          "type": "uint256"
        }
      ],
      "stateMutability": "view",
      "type": "function"
    },
    {
      "inputs": [],
      "name": "receiptManager",
      "outputs": [
        {
          "internalType": "contract IReceiptManager",
          "name": "",
          "type": "address"
        }
      ],
      "stateMutability": "view",
      "type": "function"
    },
    {
      "inputs": [],
      "name": "receiptManagerAddress",
      "outputs": [
        {
          "internalType": "address",
          "name": "",
          "type": "address"
        }
      ],
      "stateMutability": "view",
      "type": "function"
    },
    {
      "inputs": [
        {
          "internalType": "uint256[]",
          "name": "receiptIDs",
          "type": "uint256[]"
        }
      ],
      "name": "redeemSeedReceipts",
      "outputs": [],
      "stateMutability": "nonpayable",
      "type": "function"
    },
    {
      "inputs": [],
      "name": "seedIDs",
      "outputs": [
        {
          "internalType": "uint256",
          "name": "",
          "type": "uint256"
        }
      ],
      "stateMutability": "view",
      "type": "function"
    },
    {
      "inputs": [
        {
          "internalType": "address payable",
          "name": "newBank",
          "type": "address"
        }
      ],
      "name": "setBank",
      "outputs": [],
      "stateMutability": "nonpayable",
      "type": "function"
    },
    {
      "inputs": [
        {
          "internalType": "uint256",
          "name": "newCommissionBPs",
          "type": "uint256"
        }
      ],
      "name": "setCommission",
      "outputs": [],
      "stateMutability": "nonpayable",
      "type": "function"
    },
    {
      "inputs": [
        {
          "internalType": "address payable",
          "name": "newOwner",
          "type": "address"
        }
      ],
      "name": "setOwner",
      "outputs": [],
      "stateMutability": "nonpayable",
      "type": "function"
    },
    {
      "inputs": [
        {
          "internalType": "uint256",
          "name": "promotionID",
          "type": "uint256"
        },
        {
          "internalType": "string",
          "name": "newURIRoot",
          "type": "string"
        }
      ],
      "name": "setPromotionURI",
      "outputs": [],
      "stateMutability": "nonpayable",
      "type": "function"
    },
    {
      "inputs": [
        {
          "internalType": "address",
          "name": "_promotionsManagerAddress",
          "type": "address"
        }
      ],
      "name": "setPromotionsManager",
      "outputs": [],
      "stateMutability": "nonpayable",
      "type": "function"
    },
    {
      "inputs": [
        {
          "internalType": "address",
          "name": "_receiptManagerAddress",
          "type": "address"
        }
      ],
      "name": "setReceiptManager",
      "outputs": [],
      "stateMutability": "nonpayable",
      "type": "function"
    },
    {
      "inputs": [
        {
          "internalType": "uint256",
          "name": "promotionID",
          "type": "uint256"
        },
        {
          "internalType": "uint256",
          "name": "basisPoints",
          "type": "uint256"
        }
      ],
      "name": "setRoyalty",
      "outputs": [],
      "stateMutability": "nonpayable",
      "type": "function"
    },
    {
      "inputs": [
        {
          "internalType": "uint256",
          "name": "",
          "type": "uint256"
        }
      ],
      "name": "unmintedReceiptsToOwners",
      "outputs": [
        {
          "internalType": "address",
          "name": "",
          "type": "address"
        }
      ],
      "stateMutability": "view",
      "type": "function"
    },
    {
      "inputs": [
        {
          "internalType": "address",
          "name": "erc20Token",
          "type": "address"
        }
      ],
      "name": "withdrawCommissions",
      "outputs": [],
      "stateMutability": "nonpayable",
      "type": "function"
    },
    {
      "inputs": [
        {
          "internalType": "address",
          "name": "",
          "type": "address"
        }
      ],
      "name": "withdrawnCommissions",
      "outputs": [
        {
          "internalType": "uint256",
          "name": "",
          "type": "uint256"
        }
      ],
      "stateMutability": "view",
      "type": "function"
    }
  ],
  "transactionHash": "0xb5f8724e736225bfe46d6bb4843c9df80a8e8decb3ad1708cea375e8d5937882",
  "args": [
    "0xE6E340D132b5f46d1e472DebcD681B2aBc16e57E",
    "0xc3e53F4d16Ae77Db1c982e75a937B9f60FE63690"
  ],
  "numDeployments": 1,
  "solcInputHash": "fa3cd023cd54f1738fcdcb567709f3c7",
  "bytecode": "0x608060405260c86000556064600f553480156200001b57600080fd5b5060405162003dfa38038062003dfa83398181016040528101906200004191906200025b565b33600260006101000a81548173ffffffffffffffffffffffffffffffffffffffff021916908373ffffffffffffffffffffffffffffffffffffffff160217905550600260009054906101000a900473ffffffffffffffffffffffffffffffffffffffff16600160006101000a81548173ffffffffffffffffffffffffffffffffffffffff021916908373ffffffffffffffffffffffffffffffffffffffff16021790555081600d60006101000a81548173ffffffffffffffffffffffffffffffffffffffff021916908373ffffffffffffffffffffffffffffffffffffffff16021790555081600360006101000a81548173ffffffffffffffffffffffffffffffffffffffff021916908373ffffffffffffffffffffffffffffffffffffffff16021790555080600460006101000a81548173ffffffffffffffffffffffffffffffffffffffff021916908373ffffffffffffffffffffffffffffffffffffffff16021790555080600e60006101000a81548173ffffffffffffffffffffffffffffffffffffffff021916908373ffffffffffffffffffffffffffffffffffffffff1602179055505050620002a2565b600080fd5b600073ffffffffffffffffffffffffffffffffffffffff82169050919050565b60006200022382620001f6565b9050919050565b620002358162000216565b81146200024157600080fd5b50565b60008151905062000255816200022a565b92915050565b60008060408385031215620002755762000274620001f1565b5b6000620002858582860162000244565b9250506020620002988582860162000244565b9150509250929050565b613b4880620002b26000396000f3fe608060405234801561001057600080fd5b50600436106102065760003560e01c80637aa88c7f1161011a578063c0628f1d116100ad578063d3aca8721161007c578063d3aca8721461062b578063e148919114610649578063e9b08e1314610667578063ef5856c314610697578063f7dbfa53146106c757610206565b8063c0628f1d14610561578063c2b5dc6214610591578063c8d4d0f8146105c3578063cfefaa4e146105fb57610206565b8063933a6f0d116100e9578063933a6f0d146104db578063a0bbde32146104f7578063a2d26ab714610515578063a3a92ad81461053157610206565b80637aa88c7f146104535780638da5cb5b146104835780638ec621c9146104a15780639165bdba146104bd57610206565b8063355e6b431161019d57806364ead1eb1161016c57806364ead1eb146103ad5780636d03e728146103dd578063709b1dbc146103fb57806376640a5c1461041757806376cdb03b1461043557610206565b8063355e6b43146103295780633a8101141461034557806351f7a854146103755780635a31470d1461039157610206565b806317a59ab0116101d957806317a59ab01461028f5780632d28e89d146102bf5780632ff71a69146102dd57806334d82220146102f957610206565b8063039551f41461020b578063090d23b91461023b57806313af403514610257578063163403b214610273575b600080fd5b61022560048036038101906102209190612b88565b6106e3565b6040516102329190612bd7565b60405180910390f35b61025560048036038101906102509190612c30565b610731565b005b610271600480360381019061026c9190612c30565b610805565b005b61028d60048036038101906102889190612c95565b6108d9565b005b6102a960048036038101906102a49190612d4b565b610cc0565b6040516102b69190612d87565b60405180910390f35b6102c7610cd8565b6040516102d49190612d87565b60405180910390f35b6102f760048036038101906102f29190612d4b565b610cde565b005b610313600480360381019061030e9190612da2565b610df3565b6040516103209190612df1565b60405180910390f35b610343600480360381019061033e9190612e0c565b610e22565b005b61035f600480360381019061035a9190612d4b565b610f01565b60405161036c9190612ef7565b60405180910390f35b61038f600480360381019061038a9190612d4b565b610f98565b005b6103ab60048036038101906103a69190612f7e565b6111d8565b005b6103c760048036038101906103c29190612e0c565b6114a1565b6040516103d49190612d87565b60405180910390f35b6103e56114c1565b6040516103f29190612bd7565b60405180910390f35b61041560048036038101906104109190613034565b6114e7565b005b61041f6119f3565b60405161042c91906130e0565b60405180910390f35b61043d611a19565b60405161044a919061310a565b60405180910390f35b61046d60048036038101906104689190612e0c565b611a3f565b60405161047a9190612bd7565b60405180910390f35b61048b611a72565b6040516104989190612bd7565b60405180910390f35b6104bb60048036038101906104b69190613125565b611a98565b005b6104c5612360565b6040516104d29190613186565b60405180910390f35b6104f560048036038101906104f09190613125565b612386565b005b6104ff612529565b60405161050c9190612bd7565b60405180910390f35b61052f600480360381019061052a9190612e0c565b61254f565b005b61054b60048036038101906105469190612e0c565b612701565b6040516105589190612d87565b60405180910390f35b61057b60048036038101906105769190612b88565b612719565b6040516105889190612d87565b60405180910390f35b6105ab60048036038101906105a69190612e0c565b61274a565b6040516105ba939291906131a1565b60405180910390f35b6105dd60048036038101906105d89190612e0c565b612781565b6040516105f2999897969594939291906131d8565b60405180910390f35b61061560048036038101906106109190612d4b565b61281c565b6040516106229190612d87565b60405180910390f35b610633612834565b6040516106409190612d87565b60405180910390f35b61065161283a565b60405161065e9190612d87565b60405180910390f35b610681600480360381019061067c9190612e0c565b612840565b60405161068e9190612ef7565b60405180910390f35b6106b160048036038101906106ac9190613125565b6128b1565b6040516106be9190612d87565b60405180910390f35b6106e160048036038101906106dc9190612d4b565b6128e2565b005b600860205281600052604060002081815481106106ff57600080fd5b906000526020600020016000915091509054906101000a900473ffffffffffffffffffffffffffffffffffffffff1681565b600260009054906101000a900473ffffffffffffffffffffffffffffffffffffffff1673ffffffffffffffffffffffffffffffffffffffff163373ffffffffffffffffffffffffffffffffffffffff16146107c1576040517f08c379a00000000000000000000000000000000000000000000000000000000081526004016107b8906132c2565b60405180910390fd5b80600160006101000a81548173ffffffffffffffffffffffffffffffffffffffff021916908373ffffffffffffffffffffffffffffffffffffffff16021790555050565b600260009054906101000a900473ffffffffffffffffffffffffffffffffffffffff1673ffffffffffffffffffffffffffffffffffffffff163373ffffffffffffffffffffffffffffffffffffffff1614610895576040517f08c379a000000000000000000000000000000000000000000000000000000000815260040161088c906132c2565b60405180910390fd5b80600260006101000a81548173ffffffffffffffffffffffffffffffffffffffff021916908373ffffffffffffffffffffffffffffffffffffffff16021790555050565b82600e60009054906101000a900473ffffffffffffffffffffffffffffffffffffffff1673ffffffffffffffffffffffffffffffffffffffff16631a17945133836040518363ffffffff1660e01b81526004016109379291906132e2565b602060405180830381865afa158015610954573d6000803e3d6000fd5b505050506040513d601f19601f820116820180604052508101906109789190613320565b6109b7576040517f08c379a00000000000000000000000000000000000000000000000000000000081526004016109ae90613399565b60405180910390fd5b87891015806109c65750868510155b806109d2575061038486105b806109de575060018811155b806109e95750600089145b806109f5575060018811155b15610a2c576040517f35be3ac800000000000000000000000000000000000000000000000000000000815260040160405180910390fd5b600060106000600f54815260200190815260200160002090508981600001819055508881600101819055508781600201819055508642610a6c91906133e8565b8160030181905550858160040181905550838160070160006101000a81548173ffffffffffffffffffffffffffffffffffffffff021916908373ffffffffffffffffffffffffffffffffffffffff160217905550848160050160006101000a81548173ffffffffffffffffffffffffffffffffffffffff021916908373ffffffffffffffffffffffffffffffffffffffff160217905550828160070160146101000a81548160ff0219169083151502179055508373ffffffffffffffffffffffffffffffffffffffff16600f548673ffffffffffffffffffffffffffffffffffffffff167f24429ab6e4cdad3b4cb2d66947e851734c9e80c3154e3650fa0da5c8319980688d8d8b428e610b8091906133e8565b8a604051610b9295949392919061341c565b60405180910390a4600960008673ffffffffffffffffffffffffffffffffffffffff1673ffffffffffffffffffffffffffffffffffffffff168152602001908152602001600020600f5490806001815401808255809150506001900390600052602060002001600090919091909150558215610c9a57600d60009054906101000a900473ffffffffffffffffffffffffffffffffffffffff1673ffffffffffffffffffffffffffffffffffffffff166335b20baf600f54876040518363ffffffff1660e01b8152600401610c6792919061346f565b600060405180830381600087803b158015610c8157600080fd5b505af1158015610c95573d6000803e3d6000fd5b505050505b6001600f6000828254610cad91906133e8565b9250508190555050505050505050505050565b60056020528060005260406000206000915090505481565b61038481565b600260009054906101000a900473ffffffffffffffffffffffffffffffffffffffff1673ffffffffffffffffffffffffffffffffffffffff163373ffffffffffffffffffffffffffffffffffffffff1614610d6e576040517f08c379a0000000000000000000000000000000000000000000000000000000008152600401610d65906132c2565b60405180910390fd5b80600360006101000a81548173ffffffffffffffffffffffffffffffffffffffff021916908373ffffffffffffffffffffffffffffffffffffffff16021790555080600d60006101000a81548173ffffffffffffffffffffffffffffffffffffffff021916908373ffffffffffffffffffffffffffffffffffffffff16021790555050565b60076020528160005260406000206020528060005260406000206000915091509054906101000a900460ff1681565b600260009054906101000a900473ffffffffffffffffffffffffffffffffffffffff1673ffffffffffffffffffffffffffffffffffffffff163373ffffffffffffffffffffffffffffffffffffffff1614610eb2576040517f08c379a0000000000000000000000000000000000000000000000000000000008152600401610ea9906132c2565b60405180910390fd5b612710811115610ef7576040517f08c379a0000000000000000000000000000000000000000000000000000000008152600401610eee906134e4565b60405180910390fd5b8060008190555050565b6060600960008373ffffffffffffffffffffffffffffffffffffffff1673ffffffffffffffffffffffffffffffffffffffff168152602001908152602001600020805480602002602001604051908101604052809291908181526020018280548015610f8c57602002820191906000526020600020905b815481526020019060010190808311610f78575b50505050509050919050565b600260009054906101000a900473ffffffffffffffffffffffffffffffffffffffff1673ffffffffffffffffffffffffffffffffffffffff163373ffffffffffffffffffffffffffffffffffffffff1614611028576040517f08c379a000000000000000000000000000000000000000000000000000000000815260040161101f906132c2565b60405180910390fd5b8073ffffffffffffffffffffffffffffffffffffffff1663a9059cbb600160009054906101000a900473ffffffffffffffffffffffffffffffffffffffff16600660008573ffffffffffffffffffffffffffffffffffffffff1673ffffffffffffffffffffffffffffffffffffffff16815260200190815260200160002054600560008673ffffffffffffffffffffffffffffffffffffffff1673ffffffffffffffffffffffffffffffffffffffff168152602001908152602001600020546110f19190613504565b6040518363ffffffff1660e01b815260040161110e929190613559565b6020604051808303816000875af115801561112d573d6000803e3d6000fd5b505050506040513d601f19601f820116820180604052508101906111519190613320565b50600560008273ffffffffffffffffffffffffffffffffffffffff1673ffffffffffffffffffffffffffffffffffffffff16815260200190815260200160002054600660008373ffffffffffffffffffffffffffffffffffffffff1673ffffffffffffffffffffffffffffffffffffffff1681526020019081526020016000208190555050565b6000601060008581526020019081526020016000209050600e60009054906101000a900473ffffffffffffffffffffffffffffffffffffffff1673ffffffffffffffffffffffffffffffffffffffff16631a179451338360050160009054906101000a900473ffffffffffffffffffffffffffffffffffffffff166040518363ffffffff1660e01b81526004016112709291906132e2565b602060405180830381865afa15801561128d573d6000803e3d6000fd5b505050506040513d601f19601f820116820180604052508101906112b19190613320565b6112e7576040517fc19f17a900000000000000000000000000000000000000000000000000000000815260040160405180910390fd5b8060070160149054906101000a900460ff1661132f576040517f1fbb40b200000000000000000000000000000000000000000000000000000000815260040160405180910390fd5b6000600d60009054906101000a900473ffffffffffffffffffffffffffffffffffffffff1673ffffffffffffffffffffffffffffffffffffffff1663135a0ce9866040518263ffffffff1660e01b815260040161138c9190612d87565b600060405180830381865afa1580156113a9573d6000803e3d6000fd5b505050506040513d6000823e3d601f19601f820116820180604052508101906113d291906136de565b511461140a576040517f1c1d2b4c00000000000000000000000000000000000000000000000000000000815260040160405180910390fd5b600d60009054906101000a900473ffffffffffffffffffffffffffffffffffffffff1673ffffffffffffffffffffffffffffffffffffffff166384936ac08585856040518463ffffffff1660e01b815260040161146993929190613763565b600060405180830381600087803b15801561148357600080fd5b505af1158015611497573d6000803e3d6000fd5b5050505050505050565b6000600b6000838152602001908152602001600020805490509050919050565b600460009054906101000a900473ffffffffffffffffffffffffffffffffffffffff1681565b60008060106000601160008787600081811061150657611505613795565b5b90506020020135815260200190815260200160002060000154815260200190815260200160002060070160009054906101000a900473ffffffffffffffffffffffffffffffffffffffff16905060005b848490508110156119645760006011600087878581811061157a57611579613795565b5b90506020020135815260200190815260200160002060405180606001604052908160008201548152602001600182015481526020016002820160009054906101000a900460ff16151515158152505090506000601060008360000151815260200190815260200160002090508060070160009054906101000a900473ffffffffffffffffffffffffffffffffffffffff1673ffffffffffffffffffffffffffffffffffffffff168473ffffffffffffffffffffffffffffffffffffffff1614611678576040517f08c379a000000000000000000000000000000000000000000000000000000000815260040161166f90613810565b60405180910390fd5b8060070160149054906101000a900460ff16156117b6573373ffffffffffffffffffffffffffffffffffffffff16600d60009054906101000a900473ffffffffffffffffffffffffffffffffffffffff1673ffffffffffffffffffffffffffffffffffffffff16636352211e8989878181106116f7576116f6613795565b5b905060200201356040518263ffffffff1660e01b815260040161171a9190612d87565b602060405180830381865afa158015611737573d6000803e3d6000fd5b505050506040513d601f19601f8201168201806040525081019061175b9190613845565b73ffffffffffffffffffffffffffffffffffffffff16146117b1576040517f08c379a00000000000000000000000000000000000000000000000000000000081526004016117a8906138be565b60405180910390fd5b611871565b3373ffffffffffffffffffffffffffffffffffffffff16600a60008989878181106117e4576117e3613795565b5b90506020020135815260200190815260200160002060009054906101000a900473ffffffffffffffffffffffffffffffffffffffff1673ffffffffffffffffffffffffffffffffffffffff1614611870576040517f08c379a0000000000000000000000000000000000000000000000000000000008152600401611867906138be565b60405180910390fd5b5b60011515826040015115150361195557600081600001548260060154611897919061390d565b905080836020015110156119535760008360200151826118b79190613504565b905081601160008b8b898181106118d1576118d0613795565b5b9050602002013581526020019081526020016000206001018190555080876118f991906133e8565b9650836000015189898781811061191357611912613795565b5b905060200201357f112fb83fd3fa5d5f7813ce04bb6378298a45e2e19fd97cbf30a9dee11a8c8f0d836040516119499190612d87565b60405180910390a3505b505b50508080600101915050611556565b50600082146119ed578073ffffffffffffffffffffffffffffffffffffffff1663a9059cbb33846040518363ffffffff1660e01b81526004016119a892919061393e565b6020604051808303816000875af11580156119c7573d6000803e3d6000fd5b505050506040513d601f19601f820116820180604052508101906119eb9190613320565b505b50505050565b600e60009054906101000a900473ffffffffffffffffffffffffffffffffffffffff1681565b600160009054906101000a900473ffffffffffffffffffffffffffffffffffffffff1681565b600a6020528060005260406000206000915054906101000a900473ffffffffffffffffffffffffffffffffffffffff1681565b600260009054906101000a900473ffffffffffffffffffffffffffffffffffffffff1681565b6000601060008481526020019081526020016000206040518061012001604052908160008201548152602001600182015481526020016002820154815260200160038201548152602001600482015481526020016005820160009054906101000a900473ffffffffffffffffffffffffffffffffffffffff1673ffffffffffffffffffffffffffffffffffffffff1673ffffffffffffffffffffffffffffffffffffffff168152602001600682015481526020016007820160009054906101000a900473ffffffffffffffffffffffffffffffffffffffff1673ffffffffffffffffffffffffffffffffffffffff1673ffffffffffffffffffffffffffffffffffffffff1681526020016007820160149054906101000a900460ff16151515158152505090506000600b6000858152602001908152602001600020805490509050816020015181101580611bef5750428260600151105b15611c26576040517faf061c0e00000000000000000000000000000000000000000000000000000000815260040160405180910390fd5b81602001518382611c3791906133e8565b1115611c5057808260200151611c4d9190613504565b92505b600081836000015111611c64576000611c75565b818360000151611c749190613504565b5b90506000818511611c865784611c88565b815b905060008186611c989190613504565b9050600085610100015115611d5d57600d60009054906101000a900473ffffffffffffffffffffffffffffffffffffffff1673ffffffffffffffffffffffffffffffffffffffff16629308a1338a600189611cf391906133e8565b8b6040518563ffffffff1660e01b8152600401611d139493929190613967565b6020604051808303816000875af1158015611d32573d6000803e3d6000fd5b505050506040513d601f19601f82011682018060405250810190611d5691906139c1565b9050611dfe565b600d60009054906101000a900473ffffffffffffffffffffffffffffffffffffffff1673ffffffffffffffffffffffffffffffffffffffff16631d4922b8886040518263ffffffff1660e01b8152600401611db89190612d87565b6020604051808303816000875af1158015611dd7573d6000803e3d6000fd5b505050506040513d601f19601f82011682018060405250810190611dfb91906139c1565b90505b60008314611e6a573373ffffffffffffffffffffffffffffffffffffffff167f3f7a6c5db8bf57b98c258359b47ba1019ee540680da9a55b2c5ab54655831c7689600188611e4c91906133e8565b84600188604051611e619594939291906139ee565b60405180910390a25b60008214611eec573373ffffffffffffffffffffffffffffffffffffffff167f3f7a6c5db8bf57b98c258359b47ba1019ee540680da9a55b2c5ab54655831c768985600189611eb991906133e8565b611ec391906133e8565b8685611ecf91906133e8565b600087604051611ee39594939291906139ee565b60405180910390a25b60005b878110156120145760008183611f0591906133e8565b905060405180606001604052808b815260200160008152602001868410151581525060116000838152602001908152602001600020600082015181600001556020820151816001015560408201518160020160006101000a81548160ff021916908315150217905550905050600b60008b81526020019081526020016000208190806001815401808255809150506001900390600052602060002001600090919091909150558761010001516120085733600a600083815260200190815260200160002060006101000a81548173ffffffffffffffffffffffffffffffffffffffff021916908373ffffffffffffffffffffffffffffffffffffffff1602179055505b50806001019050611eef565b5060008287608001516120279190613a41565b905060008760800151886040015161203f9190613504565b8461204a9190613a41565b88604001518661205a9190613a41565b61206491906133e8565b905060006127106000548b8b6040015161207e9190613a41565b6120889190613a41565b612092919061390d565b9050600082846120a291906133e8565b83836120ae9190613a41565b6120b8919061390d565b9050600084111561210d57600081836120d19190613504565b905080856120df9190613504565b601060008f8152602001908152602001600020600601600082825461210491906133e8565b92505081905550505b81600560008c60e0015173ffffffffffffffffffffffffffffffffffffffff1673ffffffffffffffffffffffffffffffffffffffff168152602001908152602001600020600082825461216091906133e8565b925050819055508960e0015173ffffffffffffffffffffffffffffffffffffffff166323b872dd3330868861219591906133e8565b6040518463ffffffff1660e01b81526004016121b393929190613a83565b6020604051808303816000875af11580156121d2573d6000803e3d6000fd5b505050506040513d601f19601f820116820180604052508101906121f69190613320565b5061220b838561220691906133e8565b6129f7565b8960e0015173ffffffffffffffffffffffffffffffffffffffff1663a9059cbb600e60009054906101000a900473ffffffffffffffffffffffffffffffffffffffff1673ffffffffffffffffffffffffffffffffffffffff16637366ad268d60a001518e60e001516040518363ffffffff1660e01b81526004016122909291906132e2565b602060405180830381865afa1580156122ad573d6000803e3d6000fd5b505050506040513d601f19601f820116820180604052508101906122d19190613845565b83866122dd9190613504565b6040518363ffffffff1660e01b81526004016122fa92919061393e565b6020604051808303816000875af1158015612319573d6000803e3d6000fd5b505050506040513d601f19601f8201168201806040525081019061233d9190613320565b50612352818461234d9190613504565b6129f7565b505050505050505050505050565b600d60009054906101000a900473ffffffffffffffffffffffffffffffffffffffff1681565b6000601060008481526020019081526020016000209050600e60009054906101000a900473ffffffffffffffffffffffffffffffffffffffff1673ffffffffffffffffffffffffffffffffffffffff16631a179451338360050160009054906101000a900473ffffffffffffffffffffffffffffffffffffffff166040518363ffffffff1660e01b815260040161241e9291906132e2565b602060405180830381865afa15801561243b573d6000803e3d6000fd5b505050506040513d601f19601f8201168201806040525081019061245f9190613320565b612495576040517fc19f17a900000000000000000000000000000000000000000000000000000000815260040160405180910390fd5b600d60009054906101000a900473ffffffffffffffffffffffffffffffffffffffff1673ffffffffffffffffffffffffffffffffffffffff1663933a6f0d84846040518363ffffffff1660e01b81526004016124f2929190613aba565b600060405180830381600087803b15801561250c57600080fd5b505af1158015612520573d6000803e3d6000fd5b50505050505050565b600360009054906101000a900473ffffffffffffffffffffffffffffffffffffffff1681565b6000601060008381526020019081526020016000209050600e60009054906101000a900473ffffffffffffffffffffffffffffffffffffffff1673ffffffffffffffffffffffffffffffffffffffff16631a179451338360050160009054906101000a900473ffffffffffffffffffffffffffffffffffffffff166040518363ffffffff1660e01b81526004016125e79291906132e2565b602060405180830381865afa158015612604573d6000803e3d6000fd5b505050506040513d601f19601f820116820180604052508101906126289190613320565b61265e576040517fc19f17a900000000000000000000000000000000000000000000000000000000815260040160405180910390fd5b42816003015411801561268a57508060010154600b600084815260200190815260200160002080549050105b156126fd57600b6000838152602001908152602001600020805490508160010181905550817f21f267dac0a15d879c03a9244f09a8dc90028bcc0d298344c13f4a9de2b218ad600b6000858152602001908152602001600020805490506040516126f49190612d87565b60405180910390a25b5050565b600c6020528060005260406000206000915090505481565b6009602052816000526040600020818154811061273557600080fd5b90600052602060002001600091509150505481565b60116020528060005260406000206000915090508060000154908060010154908060020160009054906101000a900460ff16905083565b60106020528060005260406000206000915090508060000154908060010154908060020154908060030154908060040154908060050160009054906101000a900473ffffffffffffffffffffffffffffffffffffffff16908060060154908060070160009054906101000a900473ffffffffffffffffffffffffffffffffffffffff16908060070160149054906101000a900460ff16905089565b60066020528060005260406000206000915090505481565b600f5481565b60005481565b60606000600b60008481526020019081526020016000208054806020026020016040519081016040528092919081815260200182805480156128a157602002820191906000526020600020905b81548152602001906001019080831161288d575b5050505050905080915050919050565b600b60205281600052604060002081815481106128cd57600080fd5b90600052602060002001600091509150505481565b600260009054906101000a900473ffffffffffffffffffffffffffffffffffffffff1673ffffffffffffffffffffffffffffffffffffffff163373ffffffffffffffffffffffffffffffffffffffff1614612972576040517f08c379a0000000000000000000000000000000000000000000000000000000008152600401612969906132c2565b60405180910390fd5b80600460006101000a81548173ffffffffffffffffffffffffffffffffffffffff021916908373ffffffffffffffffffffffffffffffffffffffff16021790555080600e60006101000a81548173ffffffffffffffffffffffffffffffffffffffff021916908373ffffffffffffffffffffffffffffffffffffffff16021790555050565b612a8d81604051602401612a0b9190612d87565b6040516020818303038152906040527ff82c50f1000000000000000000000000000000000000000000000000000000007bffffffffffffffffffffffffffffffffffffffffffffffffffffffff19166020820180517bffffffffffffffffffffffffffffffffffffffffffffffffffffffff8381831617835250505050612a90565b50565b612aa781612a9f612aaa612acb565b63ffffffff16565b50565b60006a636f6e736f6c652e6c6f679050600080835160208501845afa505050565b612ad6819050919050565b612ade613ae3565b565b6000604051905090565b600080fd5b600080fd5b600073ffffffffffffffffffffffffffffffffffffffff82169050919050565b6000612b1f82612af4565b9050919050565b612b2f81612b14565b8114612b3a57600080fd5b50565b600081359050612b4c81612b26565b92915050565b6000819050919050565b612b6581612b52565b8114612b7057600080fd5b50565b600081359050612b8281612b5c565b92915050565b60008060408385031215612b9f57612b9e612aea565b5b6000612bad85828601612b3d565b9250506020612bbe85828601612b73565b9150509250929050565b612bd181612b14565b82525050565b6000602082019050612bec6000830184612bc8565b92915050565b6000612bfd82612af4565b9050919050565b612c0d81612bf2565b8114612c1857600080fd5b50565b600081359050612c2a81612c04565b92915050565b600060208284031215612c4657612c45612aea565b5b6000612c5484828501612c1b565b91505092915050565b60008115159050919050565b612c7281612c5d565b8114612c7d57600080fd5b50565b600081359050612c8f81612c69565b92915050565b600080600080600080600080610100898b031215612cb657612cb5612aea565b5b6000612cc48b828c01612b73565b9850506020612cd58b828c01612b73565b9750506040612ce68b828c01612b73565b9650506060612cf78b828c01612b73565b9550506080612d088b828c01612b73565b94505060a0612d198b828c01612b3d565b93505060c0612d2a8b828c01612b3d565b92505060e0612d3b8b828c01612c80565b9150509295985092959890939650565b600060208284031215612d6157612d60612aea565b5b6000612d6f84828501612b3d565b91505092915050565b612d8181612b52565b82525050565b6000602082019050612d9c6000830184612d78565b92915050565b60008060408385031215612db957612db8612aea565b5b6000612dc785828601612b3d565b9250506020612dd885828601612b3d565b9150509250929050565b612deb81612c5d565b82525050565b6000602082019050612e066000830184612de2565b92915050565b600060208284031215612e2257612e21612aea565b5b6000612e3084828501612b73565b91505092915050565b600081519050919050565b600082825260208201905092915050565b6000819050602082019050919050565b612e6e81612b52565b82525050565b6000612e808383612e65565b60208301905092915050565b6000602082019050919050565b6000612ea482612e39565b612eae8185612e44565b9350612eb983612e55565b8060005b83811015612eea578151612ed18882612e74565b9750612edc83612e8c565b925050600181019050612ebd565b5085935050505092915050565b60006020820190508181036000830152612f118184612e99565b905092915050565b600080fd5b600080fd5b600080fd5b60008083601f840112612f3e57612f3d612f19565b5b8235905067ffffffffffffffff811115612f5b57612f5a612f1e565b5b602083019150836001820283011115612f7757612f76612f23565b5b9250929050565b600080600060408486031215612f9757612f96612aea565b5b6000612fa586828701612b73565b935050602084013567ffffffffffffffff811115612fc657612fc5612aef565b5b612fd286828701612f28565b92509250509250925092565b60008083601f840112612ff457612ff3612f19565b5b8235905067ffffffffffffffff81111561301157613010612f1e565b5b60208301915083602082028301111561302d5761302c612f23565b5b9250929050565b6000806020838503121561304b5761304a612aea565b5b600083013567ffffffffffffffff81111561306957613068612aef565b5b61307585828601612fde565b92509250509250929050565b6000819050919050565b60006130a66130a161309c84612af4565b613081565b612af4565b9050919050565b60006130b88261308b565b9050919050565b60006130ca826130ad565b9050919050565b6130da816130bf565b82525050565b60006020820190506130f560008301846130d1565b92915050565b61310481612bf2565b82525050565b600060208201905061311f60008301846130fb565b92915050565b6000806040838503121561313c5761313b612aea565b5b600061314a85828601612b73565b925050602061315b85828601612b73565b9150509250929050565b6000613170826130ad565b9050919050565b61318081613165565b82525050565b600060208201905061319b6000830184613177565b92915050565b60006060820190506131b66000830186612d78565b6131c36020830185612d78565b6131d06040830184612de2565b949350505050565b6000610120820190506131ee600083018c612d78565b6131fb602083018b612d78565b613208604083018a612d78565b6132156060830189612d78565b6132226080830188612d78565b61322f60a0830187612bc8565b61323c60c0830186612d78565b61324960e0830185612bc8565b613257610100830184612de2565b9a9950505050505050505050565b600082825260208201905092915050565b7f4e6f744f776e6572000000000000000000000000000000000000000000000000600082015250565b60006132ac600883613265565b91506132b782613276565b602082019050919050565b600060208201905081810360008301526132db8161329f565b9050919050565b60006040820190506132f76000830185612bc8565b6133046020830184612bc8565b9392505050565b60008151905061331a81612c69565b92915050565b60006020828403121561333657613335612aea565b5b60006133448482850161330b565b91505092915050565b7f4e6f7420417070726f7665640000000000000000000000000000000000000000600082015250565b6000613383600c83613265565b915061338e8261334d565b602082019050919050565b600060208201905081810360008301526133b281613376565b9050919050565b7f4e487b7100000000000000000000000000000000000000000000000000000000600052601160045260246000fd5b60006133f382612b52565b91506133fe83612b52565b9250828201905080821115613416576134156133b9565b5b92915050565b600060a0820190506134316000830188612d78565b61343e6020830187612d78565b61344b6040830186612d78565b6134586060830185612d78565b6134656080830184612de2565b9695505050505050565b60006040820190506134846000830185612d78565b6134916020830184612bc8565b9392505050565b7f496e760000000000000000000000000000000000000000000000000000000000600082015250565b60006134ce600383613265565b91506134d982613498565b602082019050919050565b600060208201905081810360008301526134fd816134c1565b9050919050565b600061350f82612b52565b915061351a83612b52565b9250828203905081811115613532576135316133b9565b5b92915050565b6000613543826130ad565b9050919050565b61355381613538565b82525050565b600060408201905061356e600083018561354a565b61357b6020830184612d78565b9392505050565b600080fd5b6000601f19601f8301169050919050565b7f4e487b7100000000000000000000000000000000000000000000000000000000600052604160045260246000fd5b6135d082613587565b810181811067ffffffffffffffff821117156135ef576135ee613598565b5b80604052505050565b6000613602612ae0565b905061360e82826135c7565b919050565b600067ffffffffffffffff82111561362e5761362d613598565b5b61363782613587565b9050602081019050919050565b60005b83811015613662578082015181840152602081019050613647565b60008484015250505050565b600061368161367c84613613565b6135f8565b90508281526020810184848401111561369d5761369c613582565b5b6136a8848285613644565b509392505050565b600082601f8301126136c5576136c4612f19565b5b81516136d584826020860161366e565b91505092915050565b6000602082840312156136f4576136f3612aea565b5b600082015167ffffffffffffffff81111561371257613711612aef565b5b61371e848285016136b0565b91505092915050565b82818337600083830152505050565b60006137428385613265565b935061374f838584613727565b61375883613587565b840190509392505050565b60006040820190506137786000830186612d78565b818103602083015261378b818486613736565b9050949350505050565b7f4e487b7100000000000000000000000000000000000000000000000000000000600052603260045260246000fd5b7f496e76616c696400000000000000000000000000000000000000000000000000600082015250565b60006137fa600783613265565b9150613805826137c4565b602082019050919050565b60006020820190508181036000830152613829816137ed565b9050919050565b60008151905061383f81612b26565b92915050565b60006020828403121561385b5761385a612aea565b5b600061386984828501613830565b91505092915050565b7f4e6f74206f776e65640000000000000000000000000000000000000000000000600082015250565b60006138a8600983613265565b91506138b382613872565b602082019050919050565b600060208201905081810360008301526138d78161389b565b9050919050565b7f4e487b7100000000000000000000000000000000000000000000000000000000600052601260045260246000fd5b600061391882612b52565b915061392383612b52565b925082613933576139326138de565b5b828204905092915050565b60006040820190506139536000830185612bc8565b6139606020830184612d78565b9392505050565b600060808201905061397c6000830187612bc8565b6139896020830186612d78565b6139966040830185612d78565b6139a36060830184612d78565b95945050505050565b6000815190506139bb81612b5c565b92915050565b6000602082840312156139d7576139d6612aea565b5b60006139e5848285016139ac565b91505092915050565b600060a082019050613a036000830188612d78565b613a106020830187612d78565b613a1d6040830186612d78565b613a2a6060830185612de2565b613a376080830184612d78565b9695505050505050565b6000613a4c82612b52565b9150613a5783612b52565b9250828202613a6581612b52565b91508282048414831517613a7c57613a7b6133b9565b5b5092915050565b6000606082019050613a986000830186612bc8565b613aa56020830185612bc8565b613ab26040830184612d78565b949350505050565b6000604082019050613acf6000830185612d78565b613adc6020830184612d78565b9392505050565b7f4e487b7100000000000000000000000000000000000000000000000000000000600052605160045260246000fdfea26469706673582212201233e8dd4d11f32eeb9d8bfa0982aad1b795102e4b258c7cd20157738fdd83bc64736f6c63430008180033",
  "devdoc": {
    "kind": "dev",
    "methods": {},
    "version": 1
  },
  "userdoc": {
    "kind": "user",
    "methods": {},
    "version": 1
  },
  "storageLayout": {
    "storage": [
      {
        "astId": 1611,
        "contract": "contracts/SeedManagerv2.sol:SeedManager",
        "label": "commission",
        "offset": 0,
        "slot": "0",
        "type": "t_uint256"
      },
      {
        "astId": 1613,
        "contract": "contracts/SeedManagerv2.sol:SeedManager",
        "label": "bank",
        "offset": 0,
        "slot": "1",
        "type": "t_address_payable"
      },
      {
        "astId": 1615,
        "contract": "contracts/SeedManagerv2.sol:SeedManager",
        "label": "owner",
        "offset": 0,
        "slot": "2",
        "type": "t_address"
      },
      {
        "astId": 1617,
        "contract": "contracts/SeedManagerv2.sol:SeedManager",
        "label": "receiptManagerAddress",
        "offset": 0,
        "slot": "3",
        "type": "t_address"
      },
      {
        "astId": 1619,
        "contract": "contracts/SeedManagerv2.sol:SeedManager",
        "label": "promotionsManagerAddress",
        "offset": 0,
        "slot": "4",
        "type": "t_address"
      },
      {
        "astId": 1623,
        "contract": "contracts/SeedManagerv2.sol:SeedManager",
        "label": "earnedCommissions",
        "offset": 0,
        "slot": "5",
        "type": "t_mapping(t_address,t_uint256)"
      },
      {
        "astId": 1627,
        "contract": "contracts/SeedManagerv2.sol:SeedManager",
        "label": "withdrawnCommissions",
        "offset": 0,
        "slot": "6",
        "type": "t_mapping(t_address,t_uint256)"
      },
      {
        "astId": 1633,
        "contract": "contracts/SeedManagerv2.sol:SeedManager",
        "label": "approvedOperators",
        "offset": 0,
        "slot": "7",
        "type": "t_mapping(t_address,t_mapping(t_address,t_bool))"
      },
      {
        "astId": 1638,
        "contract": "contracts/SeedManagerv2.sol:SeedManager",
        "label": "arrayOfApprovedOperators",
        "offset": 0,
        "slot": "8",
        "type": "t_mapping(t_address,t_array(t_address)dyn_storage)"
      },
      {
        "astId": 1643,
        "contract": "contracts/SeedManagerv2.sol:SeedManager",
        "label": "addressToPromotions",
        "offset": 0,
        "slot": "9",
        "type": "t_mapping(t_address,t_array(t_uint256)dyn_storage)"
      },
      {
        "astId": 1647,
        "contract": "contracts/SeedManagerv2.sol:SeedManager",
        "label": "unmintedReceiptsToOwners",
        "offset": 0,
        "slot": "10",
        "type": "t_mapping(t_uint256,t_address)"
      },
      {
        "astId": 1652,
        "contract": "contracts/SeedManagerv2.sol:SeedManager",
        "label": "promotionIDToReceiptIDs",
        "offset": 0,
        "slot": "11",
        "type": "t_mapping(t_uint256,t_array(t_uint256)dyn_storage)"
      },
      {
        "astId": 1656,
        "contract": "contracts/SeedManagerv2.sol:SeedManager",
        "label": "receiptIDToPromotionID",
        "offset": 0,
        "slot": "12",
        "type": "t_mapping(t_uint256,t_uint256)"
      },
      {
        "astId": 1659,
        "contract": "contracts/SeedManagerv2.sol:SeedManager",
        "label": "receiptManager",
        "offset": 0,
        "slot": "13",
        "type": "t_contract(IReceiptManager)12769"
      },
      {
        "astId": 1662,
        "contract": "contracts/SeedManagerv2.sol:SeedManager",
        "label": "promotionsManager",
        "offset": 0,
        "slot": "14",
        "type": "t_contract(IPromotionsManager)12711"
      },
      {
        "astId": 2434,
        "contract": "contracts/SeedManagerv2.sol:SeedManager",
        "label": "seedIDs",
        "offset": 0,
        "slot": "15",
        "type": "t_uint256"
      },
      {
        "astId": 2442,
        "contract": "contracts/SeedManagerv2.sol:SeedManager",
        "label": "Seeds",
        "offset": 0,
        "slot": "16",
        "type": "t_mapping(t_uint256,t_struct(Seed)2424_storage)"
      },
      {
        "astId": 2447,
        "contract": "contracts/SeedManagerv2.sol:SeedManager",
        "label": "SeedReceipts",
        "offset": 0,
        "slot": "17",
        "type": "t_mapping(t_uint256,t_struct(SeedReceipt)2431_storage)"
      }
    ],
    "types": {
      "t_address": {
        "encoding": "inplace",
        "label": "address",
        "numberOfBytes": "20"
      },
      "t_address_payable": {
        "encoding": "inplace",
        "label": "address payable",
        "numberOfBytes": "20"
      },
      "t_array(t_address)dyn_storage": {
        "base": "t_address",
        "encoding": "dynamic_array",
        "label": "address[]",
        "numberOfBytes": "32"
      },
      "t_array(t_uint256)dyn_storage": {
        "base": "t_uint256",
        "encoding": "dynamic_array",
        "label": "uint256[]",
        "numberOfBytes": "32"
      },
      "t_bool": {
        "encoding": "inplace",
        "label": "bool",
        "numberOfBytes": "1"
      },
      "t_contract(IPromotionsManager)12711": {
        "encoding": "inplace",
        "label": "contract IPromotionsManager",
        "numberOfBytes": "20"
      },
      "t_contract(IReceiptManager)12769": {
        "encoding": "inplace",
        "label": "contract IReceiptManager",
        "numberOfBytes": "20"
      },
      "t_mapping(t_address,t_array(t_address)dyn_storage)": {
        "encoding": "mapping",
        "key": "t_address",
        "label": "mapping(address => address[])",
        "numberOfBytes": "32",
        "value": "t_array(t_address)dyn_storage"
      },
      "t_mapping(t_address,t_array(t_uint256)dyn_storage)": {
        "encoding": "mapping",
        "key": "t_address",
        "label": "mapping(address => uint256[])",
        "numberOfBytes": "32",
        "value": "t_array(t_uint256)dyn_storage"
      },
      "t_mapping(t_address,t_bool)": {
        "encoding": "mapping",
        "key": "t_address",
        "label": "mapping(address => bool)",
        "numberOfBytes": "32",
        "value": "t_bool"
      },
      "t_mapping(t_address,t_mapping(t_address,t_bool))": {
        "encoding": "mapping",
        "key": "t_address",
        "label": "mapping(address => mapping(address => bool))",
        "numberOfBytes": "32",
        "value": "t_mapping(t_address,t_bool)"
      },
      "t_mapping(t_address,t_uint256)": {
        "encoding": "mapping",
        "key": "t_address",
        "label": "mapping(address => uint256)",
        "numberOfBytes": "32",
        "value": "t_uint256"
      },
      "t_mapping(t_uint256,t_address)": {
        "encoding": "mapping",
        "key": "t_uint256",
        "label": "mapping(uint256 => address)",
        "numberOfBytes": "32",
        "value": "t_address"
      },
      "t_mapping(t_uint256,t_array(t_uint256)dyn_storage)": {
        "encoding": "mapping",
        "key": "t_uint256",
        "label": "mapping(uint256 => uint256[])",
        "numberOfBytes": "32",
        "value": "t_array(t_uint256)dyn_storage"
      },
      "t_mapping(t_uint256,t_struct(Seed)2424_storage)": {
        "encoding": "mapping",
        "key": "t_uint256",
        "label": "mapping(uint256 => struct SeedManager.Seed)",
        "numberOfBytes": "32",
        "value": "t_struct(Seed)2424_storage"
      },
      "t_mapping(t_uint256,t_struct(SeedReceipt)2431_storage)": {
        "encoding": "mapping",
        "key": "t_uint256",
        "label": "mapping(uint256 => struct SeedManager.SeedReceipt)",
        "numberOfBytes": "32",
        "value": "t_struct(SeedReceipt)2431_storage"
      },
      "t_mapping(t_uint256,t_uint256)": {
        "encoding": "mapping",
        "key": "t_uint256",
        "label": "mapping(uint256 => uint256)",
        "numberOfBytes": "32",
        "value": "t_uint256"
      },
      "t_struct(Seed)2424_storage": {
        "encoding": "inplace",
        "label": "struct SeedManager.Seed",
        "members": [
          {
            "astId": 2407,
            "contract": "contracts/SeedManagerv2.sol:SeedManager",
            "label": "numSeeds",
            "offset": 0,
            "slot": "0",
            "type": "t_uint256"
          },
          {
            "astId": 2409,
            "contract": "contracts/SeedManagerv2.sol:SeedManager",
            "label": "maxSlots",
            "offset": 0,
            "slot": "1",
            "type": "t_uint256"
          },
          {
            "astId": 2411,
            "contract": "contracts/SeedManagerv2.sol:SeedManager",
            "label": "price",
            "offset": 0,
            "slot": "2",
            "type": "t_uint256"
          },
          {
            "astId": 2413,
            "contract": "contracts/SeedManagerv2.sol:SeedManager",
            "label": "endTime",
            "offset": 0,
            "slot": "3",
            "type": "t_uint256"
          },
          {
            "astId": 2415,
            "contract": "contracts/SeedManagerv2.sol:SeedManager",
            "label": "sharedAmount",
            "offset": 0,
            "slot": "4",
            "type": "t_uint256"
          },
          {
            "astId": 2417,
            "contract": "contracts/SeedManagerv2.sol:SeedManager",
            "label": "owner",
            "offset": 0,
            "slot": "5",
            "type": "t_address"
          },
          {
            "astId": 2419,
            "contract": "contracts/SeedManagerv2.sol:SeedManager",
            "label": "earnedAmount",
            "offset": 0,
            "slot": "6",
            "type": "t_uint256"
          },
          {
            "astId": 2421,
            "contract": "contracts/SeedManagerv2.sol:SeedManager",
            "label": "erc20Token",
            "offset": 0,
            "slot": "7",
            "type": "t_address"
          },
          {
            "astId": 2423,
            "contract": "contracts/SeedManagerv2.sol:SeedManager",
            "label": "mintsNFTs",
            "offset": 20,
            "slot": "7",
            "type": "t_bool"
          }
        ],
        "numberOfBytes": "256"
      },
      "t_struct(SeedReceipt)2431_storage": {
        "encoding": "inplace",
        "label": "struct SeedManager.SeedReceipt",
        "members": [
          {
            "astId": 2426,
            "contract": "contracts/SeedManagerv2.sol:SeedManager",
            "label": "seedID",
            "offset": 0,
            "slot": "0",
            "type": "t_uint256"
          },
          {
            "astId": 2428,
            "contract": "contracts/SeedManagerv2.sol:SeedManager",
            "label": "redeemedAmount",
            "offset": 0,
            "slot": "1",
            "type": "t_uint256"
          },
          {
            "astId": 2430,
            "contract": "contracts/SeedManagerv2.sol:SeedManager",
            "label": "seeded",
            "offset": 0,
            "slot": "2",
            "type": "t_bool"
          }
        ],
        "numberOfBytes": "96"
      },
      "t_uint256": {
        "encoding": "inplace",
        "label": "uint256",
        "numberOfBytes": "32"
      }
    }
  }
}