{
  "address": "0x9E545E3C0baAB3E08CdfD552C960A1050f373042",
  "abi": [
    {
      "inputs": [
        {
          "internalType": "address",
          "name": "_receiptManagerAddress",
          "type": "address"
        },
        {
          "internalType": "address",
          "name": "_promotionsManagerAddress",
          "type": "address"
        }
      ],
      "stateMutability": "nonpayable",
      "type": "constructor"
    },
    {
      "inputs": [],
      "name": "InvalidConfig",
      "type": "error"
    },
    {
      "inputs": [],
      "name": "NotApproved",
      "type": "error"
    },
    {
      "inputs": [],
      "name": "NotCustomURI",
      "type": "error"
    },
    {
      "inputs": [],
      "name": "Promotion_Expired",
      "type": "error"
    },
    {
      "inputs": [],
      "name": "URIAlreadSet",
      "type": "error"
    },
    {
      "anonymous": false,
      "inputs": [
        {
          "indexed": true,
          "internalType": "uint256",
          "name": "snowballID",
          "type": "uint256"
        },
        {
          "indexed": false,
          "internalType": "uint256",
          "name": "numberOfParticipants",
          "type": "uint256"
        }
      ],
      "name": "SnowballCancelled",
      "type": "event"
    },
    {
      "anonymous": false,
      "inputs": [
        {
          "indexed": true,
          "internalType": "address",
          "name": "owner",
          "type": "address"
        },
        {
          "indexed": true,
          "internalType": "uint256",
          "name": "snowballID",
          "type": "uint256"
        },
        {
          "indexed": true,
          "internalType": "address",
          "name": "erc20Token",
          "type": "address"
        },
        {
          "indexed": false,
          "internalType": "uint256",
          "name": "maxSlots",
          "type": "uint256"
        },
        {
          "indexed": false,
          "internalType": "uint256",
          "name": "endTime",
          "type": "uint256"
        },
        {
          "indexed": false,
          "internalType": "uint256[]",
          "name": "thresholds",
          "type": "uint256[]"
        },
        {
          "indexed": false,
          "internalType": "uint256[]",
          "name": "cohortPrices",
          "type": "uint256[]"
        },
        {
          "indexed": false,
          "internalType": "bool",
          "name": "mintsNFTS",
          "type": "bool"
        }
      ],
      "name": "SnowballCreated",
      "type": "event"
    },
    {
      "anonymous": false,
      "inputs": [
        {
          "indexed": true,
          "internalType": "uint256",
          "name": "snowballID",
          "type": "uint256"
        },
        {
          "indexed": false,
          "internalType": "uint256",
          "name": "redeemedAmount",
          "type": "uint256"
        }
      ],
      "name": "SnowballCustodyRedeemed",
      "type": "event"
    },
    {
      "anonymous": false,
      "inputs": [
        {
          "indexed": true,
          "internalType": "uint256",
          "name": "tokenID",
          "type": "uint256"
        },
        {
          "indexed": true,
          "internalType": "uint256",
          "name": "snowballID",
          "type": "uint256"
        },
        {
          "indexed": false,
          "internalType": "uint256",
          "name": "redeemedAmount",
          "type": "uint256"
        }
      ],
      "name": "SnowballReceiptRedeemed",
      "type": "event"
    },
    {
      "anonymous": false,
      "inputs": [
        {
          "indexed": true,
          "internalType": "address",
          "name": "joiner",
          "type": "address"
        },
        {
          "indexed": true,
          "internalType": "uint256",
          "name": "snowballID",
          "type": "uint256"
        },
        {
          "indexed": false,
          "internalType": "uint256",
          "name": "firstParticipantNumber",
          "type": "uint256"
        },
        {
          "indexed": false,
          "internalType": "uint256",
          "name": "firstTokenID",
          "type": "uint256"
        },
        {
          "indexed": false,
          "internalType": "uint256",
          "name": "pricePaid",
          "type": "uint256"
        },
        {
          "indexed": false,
          "internalType": "uint256",
          "name": "numTickets",
          "type": "uint256"
        }
      ],
      "name": "SnowballReceiptsMinted",
      "type": "event"
    },
    {
      "inputs": [],
      "name": "MINIMUM_DURATION",
      "outputs": [
        {
          "internalType": "uint256",
          "name": "",
          "type": "uint256"
        }
      ],
      "stateMutability": "view",
      "type": "function"
    },
    {
      "inputs": [
        {
          "internalType": "uint256",
          "name": "",
          "type": "uint256"
        }
      ],
      "name": "SnowballReceipts",
      "outputs": [
        {
          "internalType": "uint256",
          "name": "snowballID",
          "type": "uint256"
        },
        {
          "internalType": "uint256",
          "name": "effectivePricePaid",
          "type": "uint256"
        }
      ],
      "stateMutability": "view",
      "type": "function"
    },
    {
      "inputs": [
        {
          "internalType": "uint256",
          "name": "",
          "type": "uint256"
        }
      ],
      "name": "Snowballs",
      "outputs": [
        {
          "internalType": "uint256",
          "name": "maxSlots",
          "type": "uint256"
        },
        {
          "internalType": "uint256",
          "name": "endTime",
          "type": "uint256"
        },
        {
          "internalType": "address",
          "name": "owner",
          "type": "address"
        },
        {
          "internalType": "bool",
          "name": "returnedCustody",
          "type": "bool"
        },
        {
          "internalType": "address",
          "name": "erc20Token",
          "type": "address"
        },
        {
          "internalType": "bool",
          "name": "mintReceipts",
          "type": "bool"
        }
      ],
      "stateMutability": "view",
      "type": "function"
    },
    {
      "inputs": [
        {
          "internalType": "address",
          "name": "",
          "type": "address"
        },
        {
          "internalType": "uint256",
          "name": "",
          "type": "uint256"
        }
      ],
      "name": "addressToPromotions",
      "outputs": [
        {
          "internalType": "uint256",
          "name": "",
          "type": "uint256"
        }
      ],
      "stateMutability": "view",
      "type": "function"
    },
    {
      "inputs": [
        {
          "internalType": "address",
          "name": "",
          "type": "address"
        },
        {
          "internalType": "address",
          "name": "",
          "type": "address"
        }
      ],
      "name": "approvedOperators",
      "outputs": [
        {
          "internalType": "bool",
          "name": "",
          "type": "bool"
        }
      ],
      "stateMutability": "view",
      "type": "function"
    },
    {
      "inputs": [
        {
          "internalType": "address",
          "name": "",
          "type": "address"
        },
        {
          "internalType": "uint256",
          "name": "",
          "type": "uint256"
        }
      ],
      "name": "arrayOfApprovedOperators",
      "outputs": [
        {
          "internalType": "address",
          "name": "",
          "type": "address"
        }
      ],
      "stateMutability": "view",
      "type": "function"
    },
    {
      "inputs": [],
      "name": "bank",
      "outputs": [
        {
          "internalType": "address payable",
          "name": "",
          "type": "address"
        }
      ],
      "stateMutability": "view",
      "type": "function"
    },
    {
      "inputs": [
        {
          "internalType": "uint256",
          "name": "snowballID",
          "type": "uint256"
        }
      ],
      "name": "calculateExcessSnowballCustody",
      "outputs": [
        {
          "internalType": "uint256",
          "name": "",
          "type": "uint256"
        }
      ],
      "stateMutability": "view",
      "type": "function"
    },
    {
      "inputs": [
        {
          "internalType": "uint256",
          "name": "snowballID",
          "type": "uint256"
        }
      ],
      "name": "cancelSnowball",
      "outputs": [],
      "stateMutability": "nonpayable",
      "type": "function"
    },
    {
      "inputs": [],
      "name": "commission",
      "outputs": [
        {
          "internalType": "uint256",
          "name": "",
          "type": "uint256"
        }
      ],
      "stateMutability": "view",
      "type": "function"
    },
    {
      "inputs": [
        {
          "internalType": "uint256",
          "name": "_maxSlots",
          "type": "uint256"
        },
        {
          "internalType": "uint256",
          "name": "_duration",
          "type": "uint256"
        },
        {
          "internalType": "uint256[]",
          "name": "_cohortPrices",
          "type": "uint256[]"
        },
        {
          "internalType": "uint256[]",
          "name": "_thresholds",
          "type": "uint256[]"
        },
        {
          "internalType": "address",
          "name": "_owner",
          "type": "address"
        },
        {
          "internalType": "address",
          "name": "_erc20Token",
          "type": "address"
        },
        {
          "internalType": "bool",
          "name": "_mintReceipts",
          "type": "bool"
        }
      ],
      "name": "createSnowball",
      "outputs": [],
      "stateMutability": "nonpayable",
      "type": "function"
    },
    {
      "inputs": [
        {
          "internalType": "address",
          "name": "",
          "type": "address"
        }
      ],
      "name": "earnedCommissions",
      "outputs": [
        {
          "internalType": "uint256",
          "name": "",
          "type": "uint256"
        }
      ],
      "stateMutability": "view",
      "type": "function"
    },
    {
      "inputs": [
        {
          "internalType": "uint256",
          "name": "promotionID",
          "type": "uint256"
        }
      ],
      "name": "getNumberOfParticipants",
      "outputs": [
        {
          "internalType": "uint256",
          "name": "",
          "type": "uint256"
        }
      ],
      "stateMutability": "view",
      "type": "function"
    },
    {
      "inputs": [
        {
          "internalType": "uint256",
          "name": "promotionID",
          "type": "uint256"
        }
      ],
      "name": "getPromotionReceipts",
      "outputs": [
        {
          "internalType": "uint256[]",
          "name": "",
          "type": "uint256[]"
        }
      ],
      "stateMutability": "view",
      "type": "function"
    },
    {
      "inputs": [
        {
          "internalType": "address",
          "name": "promotionOwner",
          "type": "address"
        }
      ],
      "name": "getPromotionsByOwner",
      "outputs": [
        {
          "internalType": "uint256[]",
          "name": "",
          "type": "uint256[]"
        }
      ],
      "stateMutability": "view",
      "type": "function"
    },
    {
      "inputs": [
        {
          "internalType": "uint256",
          "name": "snowballID",
          "type": "uint256"
        }
      ],
      "name": "getSnowball",
      "outputs": [
        {
          "internalType": "uint256",
          "name": "maxSlots",
          "type": "uint256"
        },
        {
          "internalType": "uint256",
          "name": "endTime",
          "type": "uint256"
        },
        {
          "internalType": "uint256[]",
          "name": "thresholds",
          "type": "uint256[]"
        },
        {
          "internalType": "uint256[]",
          "name": "cohortPrices",
          "type": "uint256[]"
        },
        {
          "internalType": "address",
          "name": "owner",
          "type": "address"
        },
        {
          "internalType": "bool",
          "name": "returnedCustody",
          "type": "bool"
        },
        {
          "internalType": "address",
          "name": "erc20Token",
          "type": "address"
        },
        {
          "internalType": "bool",
          "name": "mintReceipts",
          "type": "bool"
        }
      ],
      "stateMutability": "view",
      "type": "function"
    },
    {
      "inputs": [
        {
          "internalType": "uint256",
          "name": "snowballID",
          "type": "uint256"
        }
      ],
      "name": "getSnowballPrice",
      "outputs": [
        {
          "internalType": "uint256",
          "name": "",
          "type": "uint256"
        }
      ],
      "stateMutability": "view",
      "type": "function"
    },
    {
      "inputs": [
        {
          "internalType": "uint256",
          "name": "snowballID",
          "type": "uint256"
        },
        {
          "internalType": "uint256",
          "name": "numOrders",
          "type": "uint256"
        }
      ],
      "name": "joinSnowball",
      "outputs": [],
      "stateMutability": "nonpayable",
      "type": "function"
    },
    {
      "inputs": [],
      "name": "owner",
      "outputs": [
        {
          "internalType": "address",
          "name": "",
          "type": "address"
        }
      ],
      "stateMutability": "view",
      "type": "function"
    },
    {
      "inputs": [
        {
          "internalType": "uint256",
          "name": "",
          "type": "uint256"
        },
        {
          "internalType": "uint256",
          "name": "",
          "type": "uint256"
        }
      ],
      "name": "promotionIDToReceiptIDs",
      "outputs": [
        {
          "internalType": "uint256",
          "name": "",
          "type": "uint256"
        }
      ],
      "stateMutability": "view",
      "type": "function"
    },
    {
      "inputs": [],
      "name": "promotionsManager",
      "outputs": [
        {
          "internalType": "contract IPromotionsManager",
          "name": "",
          "type": "address"
        }
      ],
      "stateMutability": "view",
      "type": "function"
    },
    {
      "inputs": [],
      "name": "promotionsManagerAddress",
      "outputs": [
        {
          "internalType": "address",
          "name": "",
          "type": "address"
        }
      ],
      "stateMutability": "view",
      "type": "function"
    },
    {
      "inputs": [
        {
          "internalType": "uint256",
          "name": "",
          "type": "uint256"
        }
      ],
      "name": "receiptIDToPromotionID",
      "outputs": [
        {
          "internalType": "uint256",
          "name": "",
          "type": "uint256"
        }
      ],
      "stateMutability": "view",
      "type": "function"
    },
    {
      "inputs": [],
      "name": "receiptManager",
      "outputs": [
        {
          "internalType": "contract IReceiptManager",
          "name": "",
          "type": "address"
        }
      ],
      "stateMutability": "view",
      "type": "function"
    },
    {
      "inputs": [],
      "name": "receiptManagerAddress",
      "outputs": [
        {
          "internalType": "address",
          "name": "",
          "type": "address"
        }
      ],
      "stateMutability": "view",
      "type": "function"
    },
    {
      "inputs": [
        {
          "internalType": "uint256[]",
          "name": "receiptIDs",
          "type": "uint256[]"
        }
      ],
      "name": "redeemSnowballReceipts",
      "outputs": [],
      "stateMutability": "nonpayable",
      "type": "function"
    },
    {
      "inputs": [
        {
          "internalType": "uint256",
          "name": "snowballID",
          "type": "uint256"
        }
      ],
      "name": "retrieveExcessSnowballCustody",
      "outputs": [],
      "stateMutability": "nonpayable",
      "type": "function"
    },
    {
      "inputs": [
        {
          "internalType": "address payable",
          "name": "newBank",
          "type": "address"
        }
      ],
      "name": "setBank",
      "outputs": [],
      "stateMutability": "nonpayable",
      "type": "function"
    },
    {
      "inputs": [
        {
          "internalType": "uint256",
          "name": "newCommissionBPs",
          "type": "uint256"
        }
      ],
      "name": "setCommission",
      "outputs": [],
      "stateMutability": "nonpayable",
      "type": "function"
    },
    {
      "inputs": [
        {
          "internalType": "address payable",
          "name": "newOwner",
          "type": "address"
        }
      ],
      "name": "setOwner",
      "outputs": [],
      "stateMutability": "nonpayable",
      "type": "function"
    },
    {
      "inputs": [
        {
          "internalType": "uint256",
          "name": "promotionID",
          "type": "uint256"
        },
        {
          "internalType": "string",
          "name": "newURIRoot",
          "type": "string"
        }
      ],
      "name": "setPromotionURI",
      "outputs": [],
      "stateMutability": "nonpayable",
      "type": "function"
    },
    {
      "inputs": [
        {
          "internalType": "address",
          "name": "_promotionsManagerAddress",
          "type": "address"
        }
      ],
      "name": "setPromotionsManager",
      "outputs": [],
      "stateMutability": "nonpayable",
      "type": "function"
    },
    {
      "inputs": [
        {
          "internalType": "address",
          "name": "_receiptManagerAddress",
          "type": "address"
        }
      ],
      "name": "setReceiptManager",
      "outputs": [],
      "stateMutability": "nonpayable",
      "type": "function"
    },
    {
      "inputs": [
        {
          "internalType": "uint256",
          "name": "promotionID",
          "type": "uint256"
        },
        {
          "internalType": "uint256",
          "name": "basisPoints",
          "type": "uint256"
        }
      ],
      "name": "setRoyalty",
      "outputs": [],
      "stateMutability": "nonpayable",
      "type": "function"
    },
    {
      "inputs": [],
      "name": "snowballIDs",
      "outputs": [
        {
          "internalType": "uint256",
          "name": "",
          "type": "uint256"
        }
      ],
      "stateMutability": "view",
      "type": "function"
    },
    {
      "inputs": [
        {
          "internalType": "uint256",
          "name": "",
          "type": "uint256"
        }
      ],
      "name": "unmintedReceiptsToOwners",
      "outputs": [
        {
          "internalType": "address",
          "name": "",
          "type": "address"
        }
      ],
      "stateMutability": "view",
      "type": "function"
    },
    {
      "inputs": [
        {
          "internalType": "address",
          "name": "erc20Token",
          "type": "address"
        }
      ],
      "name": "withdrawCommissions",
      "outputs": [],
      "stateMutability": "nonpayable",
      "type": "function"
    },
    {
      "inputs": [
        {
          "internalType": "address",
          "name": "",
          "type": "address"
        }
      ],
      "name": "withdrawnCommissions",
      "outputs": [
        {
          "internalType": "uint256",
          "name": "",
          "type": "uint256"
        }
      ],
      "stateMutability": "view",
      "type": "function"
    }
  ],
  "transactionHash": "0xc34011258291ddcb29b7a437653a4836916b9198e11e1c59fe2a15f99192bfd0",
  "args": [
    "0xE6E340D132b5f46d1e472DebcD681B2aBc16e57E",
    "0xc3e53F4d16Ae77Db1c982e75a937B9f60FE63690"
  ],
  "numDeployments": 1,
  "solcInputHash": "fa3cd023cd54f1738fcdcb567709f3c7",
  "bytecode": "0x608060405260c86000556001600f553480156200001b57600080fd5b50604051620049cc380380620049cc83398181016040528101906200004191906200025b565b33600260006101000a81548173ffffffffffffffffffffffffffffffffffffffff021916908373ffffffffffffffffffffffffffffffffffffffff160217905550600260009054906101000a900473ffffffffffffffffffffffffffffffffffffffff16600160006101000a81548173ffffffffffffffffffffffffffffffffffffffff021916908373ffffffffffffffffffffffffffffffffffffffff16021790555081600d60006101000a81548173ffffffffffffffffffffffffffffffffffffffff021916908373ffffffffffffffffffffffffffffffffffffffff16021790555081600360006101000a81548173ffffffffffffffffffffffffffffffffffffffff021916908373ffffffffffffffffffffffffffffffffffffffff16021790555080600460006101000a81548173ffffffffffffffffffffffffffffffffffffffff021916908373ffffffffffffffffffffffffffffffffffffffff16021790555080600e60006101000a81548173ffffffffffffffffffffffffffffffffffffffff021916908373ffffffffffffffffffffffffffffffffffffffff1602179055505050620002a2565b600080fd5b600073ffffffffffffffffffffffffffffffffffffffff82169050919050565b60006200022382620001f6565b9050919050565b620002358162000216565b81146200024157600080fd5b50565b60008151905062000255816200022a565b92915050565b60008060408385031215620002755762000274620001f1565b5b6000620002858582860162000244565b9250506020620002988582860162000244565b9150509250929050565b61471a80620002b26000396000f3fe608060405234801561001057600080fd5b50600436106102325760003560e01c806376640a5c11610130578063a3a92ad8116100b8578063e9b08e131161007c578063e9b08e1314610708578063ed9821be14610738578063ef5856c314610754578063f38f541614610784578063f7dbfa53146107a257610232565b8063a3a92ad814610625578063c0628f1d14610655578063cfefaa4e14610685578063d5483058146106b5578063e1489191146106ea57610232565b8063900530a9116100ff578063900530a9146105815780639165bdba146105b1578063933a6f0d146105cf578063a0bbde32146105eb578063a12e49e31461060957610232565b806376640a5c146104f757806376cdb03b146105155780637aa88c7f146105335780638da5cb5b1461056357610232565b80632ff71a69116101be57806351f7a8541161018257806351f7a854146104555780635a31470d1461047157806364ead1eb1461048d5780636d03e728146104bd57806370d19d85146104db57610232565b80632ff71a691461038657806334d82220146103a2578063355e6b43146103d25780633a810114146103ee578063408c521d1461041e57610232565b806317a59ab01161020557806317a59ab0146102d05780631bd973d0146103005780632d28e89d1461031c5780632ddee3401461033a5780632e7e50a91461036a57610232565b8063039551f414610237578063090d23b91461026757806309bddbe71461028357806313af4035146102b4575b600080fd5b610251600480360381019061024c9190613631565b6107be565b60405161025e9190613680565b60405180910390f35b610281600480360381019061027c91906136d9565b61080c565b005b61029d60048036038101906102989190613706565b6108e0565b6040516102ab929190613742565b60405180910390f35b6102ce60048036038101906102c991906136d9565b610904565b005b6102ea60048036038101906102e5919061376b565b6109d8565b6040516102f79190613798565b60405180910390f35b61031a60048036038101906103159190613706565b6109f0565b005b610324610e1e565b6040516103319190613798565b60405180910390f35b610354600480360381019061034f9190613706565b610e24565b6040516103619190613798565b60405180910390f35b610384600480360381019061037f91906137b3565b610f4c565b005b6103a0600480360381019061039b919061376b565b611707565b005b6103bc60048036038101906103b791906137f3565b61181c565b6040516103c9919061384e565b60405180910390f35b6103ec60048036038101906103e79190613706565b61184b565b005b6104086004803603810190610403919061376b565b61192a565b6040516104159190613927565b60405180910390f35b61043860048036038101906104339190613706565b6119c1565b60405161044c989796959493929190613949565b60405180910390f35b61046f600480360381019061046a919061376b565b611b24565b005b61048b60048036038101906104869190613a3a565b611d64565b005b6104a760048036038101906104a29190613706565b61202d565b6040516104b49190613798565b60405180910390f35b6104c561204d565b6040516104d29190613680565b60405180910390f35b6104f560048036038101906104f09190613af0565b612073565b005b6104ff612555565b60405161050c9190613b9c565b60405180910390f35b61051d61257b565b60405161052a9190613bc6565b60405180910390f35b61054d60048036038101906105489190613706565b6125a1565b60405161055a9190613680565b60405180910390f35b61056b6125d4565b6040516105789190613680565b60405180910390f35b61059b60048036038101906105969190613706565b6125fa565b6040516105a89190613798565b60405180910390f35b6105b961278f565b6040516105c69190613c02565b60405180910390f35b6105e960048036038101906105e491906137b3565b6127b5565b005b6105f3612958565b6040516106009190613680565b60405180910390f35b610623600480360381019061061e9190613706565b61297e565b005b61063f600480360381019061063a9190613706565b612b0a565b60405161064c9190613798565b60405180910390f35b61066f600480360381019061066a9190613631565b612b22565b60405161067c9190613798565b60405180910390f35b61069f600480360381019061069a919061376b565b612b53565b6040516106ac9190613798565b60405180910390f35b6106cf60048036038101906106ca9190613706565b612b6b565b6040516106e196959493929190613c1d565b60405180910390f35b6106f2612c01565b6040516106ff9190613798565b60405180910390f35b610722600480360381019061071d9190613706565b612c07565b60405161072f9190613927565b60405180910390f35b610752600480360381019061074d9190613caa565b612c78565b005b61076e600480360381019061076991906137b3565b613251565b60405161077b9190613798565b60405180910390f35b61078c613282565b6040516107999190613798565b60405180910390f35b6107bc60048036038101906107b7919061376b565b613288565b005b600860205281600052604060002081815481106107da57600080fd5b906000526020600020016000915091509054906101000a900473ffffffffffffffffffffffffffffffffffffffff1681565b600260009054906101000a900473ffffffffffffffffffffffffffffffffffffffff1673ffffffffffffffffffffffffffffffffffffffff163373ffffffffffffffffffffffffffffffffffffffff161461089c576040517f08c379a000000000000000000000000000000000000000000000000000000000815260040161089390613de9565b60405180910390fd5b80600160006101000a81548173ffffffffffffffffffffffffffffffffffffffff021916908373ffffffffffffffffffffffffffffffffffffffff16021790555050565b60116020528060005260406000206000915090508060000154908060010154905082565b600260009054906101000a900473ffffffffffffffffffffffffffffffffffffffff1673ffffffffffffffffffffffffffffffffffffffff163373ffffffffffffffffffffffffffffffffffffffff1614610994576040517f08c379a000000000000000000000000000000000000000000000000000000000815260040161098b90613de9565b60405180910390fd5b80600260006101000a81548173ffffffffffffffffffffffffffffffffffffffff021916908373ffffffffffffffffffffffffffffffffffffffff16021790555050565b60056020528060005260406000206000915090505481565b6000601060008381526020019081526020016000209050600e60009054906101000a900473ffffffffffffffffffffffffffffffffffffffff1673ffffffffffffffffffffffffffffffffffffffff16631a179451338360040160009054906101000a900473ffffffffffffffffffffffffffffffffffffffff166040518363ffffffff1660e01b8152600401610a88929190613e09565b602060405180830381865afa158015610aa5573d6000803e3d6000fd5b505050506040513d601f19601f82011682018060405250810190610ac99190613e47565b610aff576040517fc19f17a900000000000000000000000000000000000000000000000000000000815260040160405180910390fd5b6000600b60008481526020019081526020016000208054905090508160010154421180610b2f5750808260000154145b8015610b4a57508160040160149054906101000a900460ff16155b610b89576040517f08c379a0000000000000000000000000000000000000000000000000000000008152600401610b8090613ec0565b60405180910390fd5b6000610b9484610e24565b9050600061271060005483610ba99190613f0f565b610bb39190613f80565b905080600560008660050160009054906101000a900473ffffffffffffffffffffffffffffffffffffffff1673ffffffffffffffffffffffffffffffffffffffff1673ffffffffffffffffffffffffffffffffffffffff1681526020019081526020016000206000828254610c289190613fb1565b925050819055508360050160009054906101000a900473ffffffffffffffffffffffffffffffffffffffff1673ffffffffffffffffffffffffffffffffffffffff1663a9059cbb600e60009054906101000a900473ffffffffffffffffffffffffffffffffffffffff1673ffffffffffffffffffffffffffffffffffffffff16637366ad268760040160009054906101000a900473ffffffffffffffffffffffffffffffffffffffff168860050160009054906101000a900473ffffffffffffffffffffffffffffffffffffffff166040518363ffffffff1660e01b8152600401610d14929190613e09565b602060405180830381865afa158015610d31573d6000803e3d6000fd5b505050506040513d601f19601f82011682018060405250810190610d559190613ffa565b8385610d619190614027565b6040518363ffffffff1660e01b8152600401610d7e92919061405b565b6020604051808303816000875af1158015610d9d573d6000803e3d6000fd5b505050506040513d601f19601f82011682018060405250810190610dc19190613e47565b5060018460040160146101000a81548160ff021916908315150217905550847f6094eece54fc92fbed698b7335ab3fe7bb4ef980256f1a38a85efb345c05259283604051610e0f9190613798565b60405180910390a25050505050565b61038481565b6000806010600084815260200190815260200160002090506000600b6000858152602001908152602001600020805490509050610e608161339d565b428260010154118015610e765750808260000154115b80610e8f57508160040160149054906101000a900460ff165b15610e9f57600092505050610f47565b6000610eaa856125fa565b9050610eb58161339d565b610ef18360030160018560030180549050610ed09190614027565b81548110610ee157610ee0614084565b5b906000526020600020015461339d565b6000828460030160018660030180549050610f0c9190614027565b81548110610f1d57610f1c614084565b5b906000526020600020015483610f339190614027565b610f3d9190613f0f565b9050809450505050505b919050565b60006010600084815260200190815260200160002090506000600b600085815260200190815260200160002080549050905060008260050160009054906101000a900473ffffffffffffffffffffffffffffffffffffffff169050826000015482101580610fbd5750428360010154105b15610ff4576040517faf061c0e00000000000000000000000000000000000000000000000000000000815260040160405180910390fd5b826000015484836110059190613fb1565b111561101e5781836000015461101b9190614027565b93505b60008360030160008154811061103757611036614084565b5b9060005260206000200154905060005b84600201805490508110156110ce5784600201818154811061106c5761106b614084565b5b906000526020600020015486856110839190613fb1565b106110bc57846003016001826110999190613fb1565b815481106110aa576110a9614084565b5b906000526020600020015491506110c1565b6110ce565b8080600101915050611047565b50600084600301600186600301805490506110e99190614027565b815481106110fa576110f9614084565b5b906000526020600020015490506000612710600054838961111b9190613f0f565b6111259190613f0f565b61112f9190613f80565b90508373ffffffffffffffffffffffffffffffffffffffff166323b872dd33308a8761115b9190613f0f565b6040518463ffffffff1660e01b8152600401611179939291906140b3565b6020604051808303816000875af1158015611198573d6000803e3d6000fd5b505050506040513d601f19601f820116820180604052508101906111bc9190613e47565b5080600560008673ffffffffffffffffffffffffffffffffffffffff1673ffffffffffffffffffffffffffffffffffffffff168152602001908152602001600020600082825461120c9190613fb1565b9250508190555060008183896112229190613f0f565b61122c9190614027565b90508473ffffffffffffffffffffffffffffffffffffffff1663a9059cbb600e60009054906101000a900473ffffffffffffffffffffffffffffffffffffffff1673ffffffffffffffffffffffffffffffffffffffff16637366ad268a60040160009054906101000a900473ffffffffffffffffffffffffffffffffffffffff168b60050160009054906101000a900473ffffffffffffffffffffffffffffffffffffffff166040518363ffffffff1660e01b81526004016112ef929190613e09565b602060405180830381865afa15801561130c573d6000803e3d6000fd5b505050506040513d601f19601f820116820180604052508101906113309190613ffa565b836040518363ffffffff1660e01b815260040161134e92919061405b565b6020604051808303816000875af115801561136d573d6000803e3d6000fd5b505050506040513d601f19601f820116820180604052508101906113919190613e47565b5060008760050160149054906101000a900460ff161561150457600d60009054906101000a900473ffffffffffffffffffffffffffffffffffffffff1673ffffffffffffffffffffffffffffffffffffffff16629308a1338c60018b6113f79190613fb1565b8d6040518563ffffffff1660e01b815260040161141794939291906140ea565b6020604051808303816000875af1158015611436573d6000803e3d6000fd5b505050506040513d601f19601f8201168201806040525081019061145a9190614144565b905060005b898110156114fe57600081836114759190613fb1565b905060405180604001604052808d815260200188815250601160008381526020019081526020016000206000820151816000015560208201518160010155905050600b60008d815260200190815260200160002081908060018154018082558091505060019003906000526020600020016000909190919091505550808060010191505061145f565b5061169a565b600d60009054906101000a900473ffffffffffffffffffffffffffffffffffffffff1673ffffffffffffffffffffffffffffffffffffffff16631d4922b88a6040518263ffffffff1660e01b815260040161155f9190613798565b6020604051808303816000875af115801561157e573d6000803e3d6000fd5b505050506040513d601f19601f820116820180604052508101906115a29190614144565b905060005b8981101561169857600081836115bd9190613fb1565b905060405180604001604052808d815260200188815250601160008381526020019081526020016000206000820151816000015560208201518160010155905050600b60008d815260200190815260200160002081908060018154018082558091505060019003906000526020600020016000909190919091505533600a600083815260200190815260200160002060006101000a81548173ffffffffffffffffffffffffffffffffffffffff021916908373ffffffffffffffffffffffffffffffffffffffff1602179055505080806001019150506115a7565b505b893373ffffffffffffffffffffffffffffffffffffffff167f939db526775fa8f099701bff1904c7d0980498a3a35ea0569a41be08b8d76df560018a6116e09190613fb1565b84898e6040516116f39493929190614171565b60405180910390a350505050505050505050565b600260009054906101000a900473ffffffffffffffffffffffffffffffffffffffff1673ffffffffffffffffffffffffffffffffffffffff163373ffffffffffffffffffffffffffffffffffffffff1614611797576040517f08c379a000000000000000000000000000000000000000000000000000000000815260040161178e90613de9565b60405180910390fd5b80600360006101000a81548173ffffffffffffffffffffffffffffffffffffffff021916908373ffffffffffffffffffffffffffffffffffffffff16021790555080600d60006101000a81548173ffffffffffffffffffffffffffffffffffffffff021916908373ffffffffffffffffffffffffffffffffffffffff16021790555050565b60076020528160005260406000206020528060005260406000206000915091509054906101000a900460ff1681565b600260009054906101000a900473ffffffffffffffffffffffffffffffffffffffff1673ffffffffffffffffffffffffffffffffffffffff163373ffffffffffffffffffffffffffffffffffffffff16146118db576040517f08c379a00000000000000000000000000000000000000000000000000000000081526004016118d290613de9565b60405180910390fd5b612710811115611920576040517f08c379a000000000000000000000000000000000000000000000000000000000815260040161191790614202565b60405180910390fd5b8060008190555050565b6060600960008373ffffffffffffffffffffffffffffffffffffffff1673ffffffffffffffffffffffffffffffffffffffff1681526020019081526020016000208054806020026020016040519081016040528092919081815260200182805480156119b557602002820191906000526020600020905b8154815260200190600101908083116119a1575b50505050509050919050565b6000806060806000806000806000601060008b815260200190815260200160002090508060000154816001015482600201836003018460040160009054906101000a900473ffffffffffffffffffffffffffffffffffffffff168560040160149054906101000a900460ff168660050160009054906101000a900473ffffffffffffffffffffffffffffffffffffffff168760050160149054906101000a900460ff1685805480602002602001604051908101604052809291908181526020018280548015611aaf57602002820191906000526020600020905b815481526020019060010190808311611a9b575b5050505050955084805480602002602001604051908101604052809291908181526020018280548015611b0157602002820191906000526020600020905b815481526020019060010190808311611aed575b505050505094509850985098509850985098509850985050919395975091939597565b600260009054906101000a900473ffffffffffffffffffffffffffffffffffffffff1673ffffffffffffffffffffffffffffffffffffffff163373ffffffffffffffffffffffffffffffffffffffff1614611bb4576040517f08c379a0000000000000000000000000000000000000000000000000000000008152600401611bab90613de9565b60405180910390fd5b8073ffffffffffffffffffffffffffffffffffffffff1663a9059cbb600160009054906101000a900473ffffffffffffffffffffffffffffffffffffffff16600660008573ffffffffffffffffffffffffffffffffffffffff1673ffffffffffffffffffffffffffffffffffffffff16815260200190815260200160002054600560008673ffffffffffffffffffffffffffffffffffffffff1673ffffffffffffffffffffffffffffffffffffffff16815260200190815260200160002054611c7d9190614027565b6040518363ffffffff1660e01b8152600401611c9a929190614243565b6020604051808303816000875af1158015611cb9573d6000803e3d6000fd5b505050506040513d601f19601f82011682018060405250810190611cdd9190613e47565b50600560008273ffffffffffffffffffffffffffffffffffffffff1673ffffffffffffffffffffffffffffffffffffffff16815260200190815260200160002054600660008373ffffffffffffffffffffffffffffffffffffffff1673ffffffffffffffffffffffffffffffffffffffff1681526020019081526020016000208190555050565b6000601060008581526020019081526020016000209050600e60009054906101000a900473ffffffffffffffffffffffffffffffffffffffff1673ffffffffffffffffffffffffffffffffffffffff16631a179451338360040160009054906101000a900473ffffffffffffffffffffffffffffffffffffffff166040518363ffffffff1660e01b8152600401611dfc929190613e09565b602060405180830381865afa158015611e19573d6000803e3d6000fd5b505050506040513d601f19601f82011682018060405250810190611e3d9190613e47565b611e73576040517fc19f17a900000000000000000000000000000000000000000000000000000000815260040160405180910390fd5b8060050160149054906101000a900460ff16611ebb576040517f1fbb40b200000000000000000000000000000000000000000000000000000000815260040160405180910390fd5b6000600d60009054906101000a900473ffffffffffffffffffffffffffffffffffffffff1673ffffffffffffffffffffffffffffffffffffffff1663135a0ce9866040518263ffffffff1660e01b8152600401611f189190613798565b600060405180830381865afa158015611f35573d6000803e3d6000fd5b505050506040513d6000823e3d601f19601f82011682018060405250810190611f5e91906143c8565b5114611f96576040517f1c1d2b4c00000000000000000000000000000000000000000000000000000000815260040160405180910390fd5b600d60009054906101000a900473ffffffffffffffffffffffffffffffffffffffff1673ffffffffffffffffffffffffffffffffffffffff166384936ac08585856040518463ffffffff1660e01b8152600401611ff59392919061444d565b600060405180830381600087803b15801561200f57600080fd5b505af1158015612023573d6000803e3d6000fd5b5050505050505050565b6000600b6000838152602001908152602001600020805490509050919050565b600460009054906101000a900473ffffffffffffffffffffffffffffffffffffffff1681565b60008060106000601160008787600081811061209257612091614084565b5b90506020020135815260200190815260200160002060000154815260200190815260200160002060050160009054906101000a900473ffffffffffffffffffffffffffffffffffffffff16905060005b848490508110156124c65760006011600087878581811061210657612105614084565b5b9050602002013581526020019081526020016000206040518060400160405290816000820154815260200160018201548152505090506000601060008360000151815260200190815260200160002090508060050160009054906101000a900473ffffffffffffffffffffffffffffffffffffffff1673ffffffffffffffffffffffffffffffffffffffff168473ffffffffffffffffffffffffffffffffffffffff16146121e9576040517f08c379a00000000000000000000000000000000000000000000000000000000081526004016121e0906144cb565b60405180910390fd5b8060050160149054906101000a900460ff1615612327573373ffffffffffffffffffffffffffffffffffffffff16600d60009054906101000a900473ffffffffffffffffffffffffffffffffffffffff1673ffffffffffffffffffffffffffffffffffffffff16636352211e89898781811061226857612267614084565b5b905060200201356040518263ffffffff1660e01b815260040161228b9190613798565b602060405180830381865afa1580156122a8573d6000803e3d6000fd5b505050506040513d601f19601f820116820180604052508101906122cc9190613ffa565b73ffffffffffffffffffffffffffffffffffffffff1614612322576040517f08c379a000000000000000000000000000000000000000000000000000000000815260040161231990614537565b60405180910390fd5b6123e2565b3373ffffffffffffffffffffffffffffffffffffffff16600a600089898781811061235557612354614084565b5b90506020020135815260200190815260200160002060009054906101000a900473ffffffffffffffffffffffffffffffffffffffff1673ffffffffffffffffffffffffffffffffffffffff16146123e1576040517f08c379a00000000000000000000000000000000000000000000000000000000081526004016123d890614537565b60405180910390fd5b5b60006123f183600001516125fa565b905080836020015111156124b65780836020015161240f9190614027565b8661241a9190613fb1565b955080601160008a8a8881811061243457612433614084565b5b90506020020135815260200190815260200160002060010181905550826000015188888681811061246857612467614084565b5b905060200201357f4907df46a8fb05ca76bad2160b503254cc7bc2c28b518b0fe6bbd7fb0ca206d08386602001516124a09190614027565b6040516124ad9190613798565b60405180910390a35b50505080806001019150506120e2565b506000821461254f578073ffffffffffffffffffffffffffffffffffffffff1663a9059cbb33846040518363ffffffff1660e01b815260040161250a92919061405b565b6020604051808303816000875af1158015612529573d6000803e3d6000fd5b505050506040513d601f19601f8201168201806040525081019061254d9190613e47565b505b50505050565b600e60009054906101000a900473ffffffffffffffffffffffffffffffffffffffff1681565b600160009054906101000a900473ffffffffffffffffffffffffffffffffffffffff1681565b600a6020528060005260406000206000915054906101000a900473ffffffffffffffffffffffffffffffffffffffff1681565b600260009054906101000a900473ffffffffffffffffffffffffffffffffffffffff1681565b6000806010600084815260200190815260200160002090506000600b60008581526020019081526020016000208054905090506126368161339d565b8082600001540361267e5781600301600183600301805490506126599190614027565b8154811061266a57612669614084565b5b90600052602060002001549250505061278a565b60008260030160008154811061269757612696614084565b5b906000526020600020015490506126ad8161339d565b60008360020180549050905060005b81811015612781578460020181815481106126da576126d9614084565b5b9060005260206000200154841061272857846003016001826126fc9190613fb1565b8154811061270d5761270c614084565b5b906000526020600020015492506127238361339d565b612774565b6127318361339d565b61276f6040518060400160405280600281526020017f6272000000000000000000000000000000000000000000000000000000000000815250613436565b612781565b80806001019150506126bc565b50819450505050505b919050565b600d60009054906101000a900473ffffffffffffffffffffffffffffffffffffffff1681565b6000601060008481526020019081526020016000209050600e60009054906101000a900473ffffffffffffffffffffffffffffffffffffffff1673ffffffffffffffffffffffffffffffffffffffff16631a179451338360040160009054906101000a900473ffffffffffffffffffffffffffffffffffffffff166040518363ffffffff1660e01b815260040161284d929190613e09565b602060405180830381865afa15801561286a573d6000803e3d6000fd5b505050506040513d601f19601f8201168201806040525081019061288e9190613e47565b6128c4576040517fc19f17a900000000000000000000000000000000000000000000000000000000815260040160405180910390fd5b600d60009054906101000a900473ffffffffffffffffffffffffffffffffffffffff1673ffffffffffffffffffffffffffffffffffffffff1663933a6f0d84846040518363ffffffff1660e01b8152600401612921929190613742565b600060405180830381600087803b15801561293b57600080fd5b505af115801561294f573d6000803e3d6000fd5b50505050505050565b600360009054906101000a900473ffffffffffffffffffffffffffffffffffffffff1681565b60006010600083815260200190815260200160002090506000600b6000848152602001908152602001600020805490509050600e60009054906101000a900473ffffffffffffffffffffffffffffffffffffffff1673ffffffffffffffffffffffffffffffffffffffff16631a179451338460040160009054906101000a900473ffffffffffffffffffffffffffffffffffffffff166040518363ffffffff1660e01b8152600401612a31929190613e09565b602060405180830381865afa158015612a4e573d6000803e3d6000fd5b505050506040513d601f19601f82011682018060405250810190612a729190613e47565b612aa8576040517fc19f17a900000000000000000000000000000000000000000000000000000000815260040160405180910390fd5b428260010154118015612abe5750816000015481105b15612b0557808260000181905550827f1c038487ab9d72a04e7dccf91e75853fde86cf1ad4ea22d5cd4c9c928ea3142f82604051612afc9190613798565b60405180910390a25b505050565b600c6020528060005260406000206000915090505481565b60096020528160005260406000208181548110612b3e57600080fd5b90600052602060002001600091509150505481565b60066020528060005260406000206000915090505481565b60106020528060005260406000206000915090508060000154908060010154908060040160009054906101000a900473ffffffffffffffffffffffffffffffffffffffff16908060040160149054906101000a900460ff16908060050160009054906101000a900473ffffffffffffffffffffffffffffffffffffffff16908060050160149054906101000a900460ff16905086565b60005481565b60606000600b6000848152602001908152602001600020805480602002602001604051908101604052809291908181526020018280548015612c6857602002820191906000526020600020905b815481526020019060010190808311612c54575b5050505050905080915050919050565b84849050600188889050612c8c9190614027565b141580612c9c5750600287879050105b80612caa5750600587879050115b80612cd05750600185856000818110612cc657612cc5614084565b5b9050602002013511155b80612d025750888585600188889050612ce99190614027565b818110612cf957612cf8614084565b5b90506020020135115b80612d0e575061038488105b15612d45576040517f35be3ac800000000000000000000000000000000000000000000000000000000815260040160405180910390fd5b600e60009054906101000a900473ffffffffffffffffffffffffffffffffffffffff1673ffffffffffffffffffffffffffffffffffffffff16631a17945133856040518363ffffffff1660e01b8152600401612da2929190613e09565b602060405180830381865afa158015612dbf573d6000803e3d6000fd5b505050506040513d601f19601f82011682018060405250810190612de39190613e47565b612e19576040517fc19f17a900000000000000000000000000000000000000000000000000000000815260040160405180910390fd5b60005b87879050811015612f07576000888883818110612e3c57612e3b614084565b5b9050602002013503612e7a576040517f35be3ac800000000000000000000000000000000000000000000000000000000815260040160405180910390fd5b60008114612efa578787600183612e919190614027565b818110612ea157612ea0614084565b5b90506020020135888883818110612ebb57612eba614084565b5b9050602002013510612ef9576040517f35be3ac800000000000000000000000000000000000000000000000000000000815260040160405180910390fd5b5b8080600101915050612e1c565b506001858590501115612fac576000600190505b85859050811015612faa578585600183612f359190614027565b818110612f4557612f44614084565b5b90506020020135868683818110612f5f57612f5e614084565b5b9050602002013511612f9d576040517f35be3ac800000000000000000000000000000000000000000000000000000000815260040160405180910390fd5b8080600101915050612f1b565b505b600060106000600f54815260200190815260200160002090508981600001819055508585826002019190612fe1929190613515565b50838160040160006101000a81548173ffffffffffffffffffffffffffffffffffffffff021916908373ffffffffffffffffffffffffffffffffffffffff16021790555088426130319190613fb1565b8160010181905550878782600301919061304c929190613515565b50828160050160006101000a81548173ffffffffffffffffffffffffffffffffffffffff021916908373ffffffffffffffffffffffffffffffffffffffff160217905550818160050160146101000a81548160ff0219169083151502179055508273ffffffffffffffffffffffffffffffffffffffff16600f548573ffffffffffffffffffffffffffffffffffffffff167f262d16d362ac721d980fea1b3d0326feb86cd621739667af16f7d42486acad438d428e61310b9190613fb1565b8b8b8f8f8b60405161312397969594939291906145c1565b60405180910390a4600960008573ffffffffffffffffffffffffffffffffffffffff1673ffffffffffffffffffffffffffffffffffffffff168152602001908152602001600020600f549080600181540180825580915050600190039060005260206000200160009091909190915055811561322b57600d60009054906101000a900473ffffffffffffffffffffffffffffffffffffffff1673ffffffffffffffffffffffffffffffffffffffff166335b20baf600f54866040518363ffffffff1660e01b81526004016131f8929190614626565b600060405180830381600087803b15801561321257600080fd5b505af1158015613226573d6000803e3d6000fd5b505050505b6001600f600082825461323e9190613fb1565b9250508190555050505050505050505050565b600b602052816000526040600020818154811061326d57600080fd5b90600052602060002001600091509150505481565b600f5481565b600260009054906101000a900473ffffffffffffffffffffffffffffffffffffffff1673ffffffffffffffffffffffffffffffffffffffff163373ffffffffffffffffffffffffffffffffffffffff1614613318576040517f08c379a000000000000000000000000000000000000000000000000000000000815260040161330f90613de9565b60405180910390fd5b80600460006101000a81548173ffffffffffffffffffffffffffffffffffffffff021916908373ffffffffffffffffffffffffffffffffffffffff16021790555080600e60006101000a81548173ffffffffffffffffffffffffffffffffffffffff021916908373ffffffffffffffffffffffffffffffffffffffff16021790555050565b613433816040516024016133b19190613798565b6040516020818303038152906040527ff82c50f1000000000000000000000000000000000000000000000000000000007bffffffffffffffffffffffffffffffffffffffffffffffffffffffff19166020820180517bffffffffffffffffffffffffffffffffffffffffffffffffffffffff83818316178352505050506134cf565b50565b6134cc8160405160240161344a9190614693565b6040516020818303038152906040527f41304fac000000000000000000000000000000000000000000000000000000007bffffffffffffffffffffffffffffffffffffffffffffffffffffffff19166020820180517bffffffffffffffffffffffffffffffffffffffffffffffffffffffff83818316178352505050506134cf565b50565b6134e6816134de6134e961350a565b63ffffffff16565b50565b60006a636f6e736f6c652e6c6f679050600080835160208501845afa505050565b613562819050919050565b828054828255906000526020600020908101928215613551579160200282015b82811115613550578235825591602001919060010190613535565b5b50905061355e919061356c565b5090565b61356a6146b5565b565b5b8082111561358557600081600090555060010161356d565b5090565b6000604051905090565b600080fd5b600080fd5b600073ffffffffffffffffffffffffffffffffffffffff82169050919050565b60006135c88261359d565b9050919050565b6135d8816135bd565b81146135e357600080fd5b50565b6000813590506135f5816135cf565b92915050565b6000819050919050565b61360e816135fb565b811461361957600080fd5b50565b60008135905061362b81613605565b92915050565b6000806040838503121561364857613647613593565b5b6000613656858286016135e6565b92505060206136678582860161361c565b9150509250929050565b61367a816135bd565b82525050565b60006020820190506136956000830184613671565b92915050565b60006136a68261359d565b9050919050565b6136b68161369b565b81146136c157600080fd5b50565b6000813590506136d3816136ad565b92915050565b6000602082840312156136ef576136ee613593565b5b60006136fd848285016136c4565b91505092915050565b60006020828403121561371c5761371b613593565b5b600061372a8482850161361c565b91505092915050565b61373c816135fb565b82525050565b60006040820190506137576000830185613733565b6137646020830184613733565b9392505050565b60006020828403121561378157613780613593565b5b600061378f848285016135e6565b91505092915050565b60006020820190506137ad6000830184613733565b92915050565b600080604083850312156137ca576137c9613593565b5b60006137d88582860161361c565b92505060206137e98582860161361c565b9150509250929050565b6000806040838503121561380a57613809613593565b5b6000613818858286016135e6565b9250506020613829858286016135e6565b9150509250929050565b60008115159050919050565b61384881613833565b82525050565b6000602082019050613863600083018461383f565b92915050565b600081519050919050565b600082825260208201905092915050565b6000819050602082019050919050565b61389e816135fb565b82525050565b60006138b08383613895565b60208301905092915050565b6000602082019050919050565b60006138d482613869565b6138de8185613874565b93506138e983613885565b8060005b8381101561391a57815161390188826138a4565b975061390c836138bc565b9250506001810190506138ed565b5085935050505092915050565b6000602082019050818103600083015261394181846138c9565b905092915050565b60006101008201905061395f600083018b613733565b61396c602083018a613733565b818103604083015261397e81896138c9565b9050818103606083015261399281886138c9565b90506139a16080830187613671565b6139ae60a083018661383f565b6139bb60c0830185613671565b6139c860e083018461383f565b9998505050505050505050565b600080fd5b600080fd5b600080fd5b60008083601f8401126139fa576139f96139d5565b5b8235905067ffffffffffffffff811115613a1757613a166139da565b5b602083019150836001820283011115613a3357613a326139df565b5b9250929050565b600080600060408486031215613a5357613a52613593565b5b6000613a618682870161361c565b935050602084013567ffffffffffffffff811115613a8257613a81613598565b5b613a8e868287016139e4565b92509250509250925092565b60008083601f840112613ab057613aaf6139d5565b5b8235905067ffffffffffffffff811115613acd57613acc6139da565b5b602083019150836020820283011115613ae957613ae86139df565b5b9250929050565b60008060208385031215613b0757613b06613593565b5b600083013567ffffffffffffffff811115613b2557613b24613598565b5b613b3185828601613a9a565b92509250509250929050565b6000819050919050565b6000613b62613b5d613b588461359d565b613b3d565b61359d565b9050919050565b6000613b7482613b47565b9050919050565b6000613b8682613b69565b9050919050565b613b9681613b7b565b82525050565b6000602082019050613bb16000830184613b8d565b92915050565b613bc08161369b565b82525050565b6000602082019050613bdb6000830184613bb7565b92915050565b6000613bec82613b69565b9050919050565b613bfc81613be1565b82525050565b6000602082019050613c176000830184613bf3565b92915050565b600060c082019050613c326000830189613733565b613c3f6020830188613733565b613c4c6040830187613671565b613c59606083018661383f565b613c666080830185613671565b613c7360a083018461383f565b979650505050505050565b613c8781613833565b8114613c9257600080fd5b50565b600081359050613ca481613c7e565b92915050565b600080600080600080600080600060e08a8c031215613ccc57613ccb613593565b5b6000613cda8c828d0161361c565b9950506020613ceb8c828d0161361c565b98505060408a013567ffffffffffffffff811115613d0c57613d0b613598565b5b613d188c828d01613a9a565b975097505060608a013567ffffffffffffffff811115613d3b57613d3a613598565b5b613d478c828d01613a9a565b95509550506080613d5a8c828d016135e6565b93505060a0613d6b8c828d016135e6565b92505060c0613d7c8c828d01613c95565b9150509295985092959850929598565b600082825260208201905092915050565b7f4e6f744f776e6572000000000000000000000000000000000000000000000000600082015250565b6000613dd3600883613d8c565b9150613dde82613d9d565b602082019050919050565b60006020820190508181036000830152613e0281613dc6565b9050919050565b6000604082019050613e1e6000830185613671565b613e2b6020830184613671565b9392505050565b600081519050613e4181613c7e565b92915050565b600060208284031215613e5d57613e5c613593565b5b6000613e6b84828501613e32565b91505092915050565b7f496e656c696769626c6500000000000000000000000000000000000000000000600082015250565b6000613eaa600a83613d8c565b9150613eb582613e74565b602082019050919050565b60006020820190508181036000830152613ed981613e9d565b9050919050565b7f4e487b7100000000000000000000000000000000000000000000000000000000600052601160045260246000fd5b6000613f1a826135fb565b9150613f25836135fb565b9250828202613f33816135fb565b91508282048414831517613f4a57613f49613ee0565b5b5092915050565b7f4e487b7100000000000000000000000000000000000000000000000000000000600052601260045260246000fd5b6000613f8b826135fb565b9150613f96836135fb565b925082613fa657613fa5613f51565b5b828204905092915050565b6000613fbc826135fb565b9150613fc7836135fb565b9250828201905080821115613fdf57613fde613ee0565b5b92915050565b600081519050613ff4816135cf565b92915050565b6000602082840312156140105761400f613593565b5b600061401e84828501613fe5565b91505092915050565b6000614032826135fb565b915061403d836135fb565b925082820390508181111561405557614054613ee0565b5b92915050565b60006040820190506140706000830185613671565b61407d6020830184613733565b9392505050565b7f4e487b7100000000000000000000000000000000000000000000000000000000600052603260045260246000fd5b60006060820190506140c86000830186613671565b6140d56020830185613671565b6140e26040830184613733565b949350505050565b60006080820190506140ff6000830187613671565b61410c6020830186613733565b6141196040830185613733565b6141266060830184613733565b95945050505050565b60008151905061413e81613605565b92915050565b60006020828403121561415a57614159613593565b5b60006141688482850161412f565b91505092915050565b60006080820190506141866000830187613733565b6141936020830186613733565b6141a06040830185613733565b6141ad6060830184613733565b95945050505050565b7f496e760000000000000000000000000000000000000000000000000000000000600082015250565b60006141ec600383613d8c565b91506141f7826141b6565b602082019050919050565b6000602082019050818103600083015261421b816141df565b9050919050565b600061422d82613b69565b9050919050565b61423d81614222565b82525050565b60006040820190506142586000830185614234565b6142656020830184613733565b9392505050565b600080fd5b6000601f19601f8301169050919050565b7f4e487b7100000000000000000000000000000000000000000000000000000000600052604160045260246000fd5b6142ba82614271565b810181811067ffffffffffffffff821117156142d9576142d8614282565b5b80604052505050565b60006142ec613589565b90506142f882826142b1565b919050565b600067ffffffffffffffff82111561431857614317614282565b5b61432182614271565b9050602081019050919050565b60005b8381101561434c578082015181840152602081019050614331565b60008484015250505050565b600061436b614366846142fd565b6142e2565b9050828152602081018484840111156143875761438661426c565b5b61439284828561432e565b509392505050565b600082601f8301126143af576143ae6139d5565b5b81516143bf848260208601614358565b91505092915050565b6000602082840312156143de576143dd613593565b5b600082015167ffffffffffffffff8111156143fc576143fb613598565b5b6144088482850161439a565b91505092915050565b82818337600083830152505050565b600061442c8385613d8c565b9350614439838584614411565b61444283614271565b840190509392505050565b60006040820190506144626000830186613733565b8181036020830152614475818486614420565b9050949350505050565b7f496e76616c696400000000000000000000000000000000000000000000000000600082015250565b60006144b5600783613d8c565b91506144c08261447f565b602082019050919050565b600060208201905081810360008301526144e4816144a8565b9050919050565b7f4e6f74206f776e65640000000000000000000000000000000000000000000000600082015250565b6000614521600983613d8c565b915061452c826144eb565b602082019050919050565b6000602082019050818103600083015261455081614514565b9050919050565b600080fd5b82818337505050565b60006145718385613874565b93507f07ffffffffffffffffffffffffffffffffffffffffffffffffffffffffffffff8311156145a4576145a3614557565b5b6020830292506145b583858461455c565b82840190509392505050565b600060a0820190506145d6600083018a613733565b6145e36020830189613733565b81810360408301526145f6818789614565565b9050818103606083015261460b818587614565565b905061461a608083018461383f565b98975050505050505050565b600060408201905061463b6000830185613733565b6146486020830184613671565b9392505050565b600081519050919050565b60006146658261464f565b61466f8185613d8c565b935061467f81856020860161432e565b61468881614271565b840191505092915050565b600060208201905081810360008301526146ad818461465a565b905092915050565b7f4e487b7100000000000000000000000000000000000000000000000000000000600052605160045260246000fdfea26469706673582212209d4ad4b34ba9076a6c6232929c79a572f064a2669b4381b995117d1a24941c3564736f6c63430008180033",
  "devdoc": {
    "kind": "dev",
    "methods": {},
    "version": 1
  },
  "userdoc": {
    "kind": "user",
    "methods": {},
    "version": 1
  },
  "storageLayout": {
    "storage": [
      {
        "astId": 1611,
        "contract": "contracts/SnowballManagerv3.sol:SnowballManager",
        "label": "commission",
        "offset": 0,
        "slot": "0",
        "type": "t_uint256"
      },
      {
        "astId": 1613,
        "contract": "contracts/SnowballManagerv3.sol:SnowballManager",
        "label": "bank",
        "offset": 0,
        "slot": "1",
        "type": "t_address_payable"
      },
      {
        "astId": 1615,
        "contract": "contracts/SnowballManagerv3.sol:SnowballManager",
        "label": "owner",
        "offset": 0,
        "slot": "2",
        "type": "t_address"
      },
      {
        "astId": 1617,
        "contract": "contracts/SnowballManagerv3.sol:SnowballManager",
        "label": "receiptManagerAddress",
        "offset": 0,
        "slot": "3",
        "type": "t_address"
      },
      {
        "astId": 1619,
        "contract": "contracts/SnowballManagerv3.sol:SnowballManager",
        "label": "promotionsManagerAddress",
        "offset": 0,
        "slot": "4",
        "type": "t_address"
      },
      {
        "astId": 1623,
        "contract": "contracts/SnowballManagerv3.sol:SnowballManager",
        "label": "earnedCommissions",
        "offset": 0,
        "slot": "5",
        "type": "t_mapping(t_address,t_uint256)"
      },
      {
        "astId": 1627,
        "contract": "contracts/SnowballManagerv3.sol:SnowballManager",
        "label": "withdrawnCommissions",
        "offset": 0,
        "slot": "6",
        "type": "t_mapping(t_address,t_uint256)"
      },
      {
        "astId": 1633,
        "contract": "contracts/SnowballManagerv3.sol:SnowballManager",
        "label": "approvedOperators",
        "offset": 0,
        "slot": "7",
        "type": "t_mapping(t_address,t_mapping(t_address,t_bool))"
      },
      {
        "astId": 1638,
        "contract": "contracts/SnowballManagerv3.sol:SnowballManager",
        "label": "arrayOfApprovedOperators",
        "offset": 0,
        "slot": "8",
        "type": "t_mapping(t_address,t_array(t_address)dyn_storage)"
      },
      {
        "astId": 1643,
        "contract": "contracts/SnowballManagerv3.sol:SnowballManager",
        "label": "addressToPromotions",
        "offset": 0,
        "slot": "9",
        "type": "t_mapping(t_address,t_array(t_uint256)dyn_storage)"
      },
      {
        "astId": 1647,
        "contract": "contracts/SnowballManagerv3.sol:SnowballManager",
        "label": "unmintedReceiptsToOwners",
        "offset": 0,
        "slot": "10",
        "type": "t_mapping(t_uint256,t_address)"
      },
      {
        "astId": 1652,
        "contract": "contracts/SnowballManagerv3.sol:SnowballManager",
        "label": "promotionIDToReceiptIDs",
        "offset": 0,
        "slot": "11",
        "type": "t_mapping(t_uint256,t_array(t_uint256)dyn_storage)"
      },
      {
        "astId": 1656,
        "contract": "contracts/SnowballManagerv3.sol:SnowballManager",
        "label": "receiptIDToPromotionID",
        "offset": 0,
        "slot": "12",
        "type": "t_mapping(t_uint256,t_uint256)"
      },
      {
        "astId": 1659,
        "contract": "contracts/SnowballManagerv3.sol:SnowballManager",
        "label": "receiptManager",
        "offset": 0,
        "slot": "13",
        "type": "t_contract(IReceiptManager)12769"
      },
      {
        "astId": 1662,
        "contract": "contracts/SnowballManagerv3.sol:SnowballManager",
        "label": "promotionsManager",
        "offset": 0,
        "slot": "14",
        "type": "t_contract(IPromotionsManager)12711"
      },
      {
        "astId": 3357,
        "contract": "contracts/SnowballManagerv3.sol:SnowballManager",
        "label": "snowballIDs",
        "offset": 0,
        "slot": "15",
        "type": "t_uint256"
      },
      {
        "astId": 3365,
        "contract": "contracts/SnowballManagerv3.sol:SnowballManager",
        "label": "Snowballs",
        "offset": 0,
        "slot": "16",
        "type": "t_mapping(t_uint256,t_struct(Snowball)3349_storage)"
      },
      {
        "astId": 3370,
        "contract": "contracts/SnowballManagerv3.sol:SnowballManager",
        "label": "SnowballReceipts",
        "offset": 0,
        "slot": "17",
        "type": "t_mapping(t_uint256,t_struct(SnowballReceipt)3354_storage)"
      }
    ],
    "types": {
      "t_address": {
        "encoding": "inplace",
        "label": "address",
        "numberOfBytes": "20"
      },
      "t_address_payable": {
        "encoding": "inplace",
        "label": "address payable",
        "numberOfBytes": "20"
      },
      "t_array(t_address)dyn_storage": {
        "base": "t_address",
        "encoding": "dynamic_array",
        "label": "address[]",
        "numberOfBytes": "32"
      },
      "t_array(t_uint256)dyn_storage": {
        "base": "t_uint256",
        "encoding": "dynamic_array",
        "label": "uint256[]",
        "numberOfBytes": "32"
      },
      "t_bool": {
        "encoding": "inplace",
        "label": "bool",
        "numberOfBytes": "1"
      },
      "t_contract(IPromotionsManager)12711": {
        "encoding": "inplace",
        "label": "contract IPromotionsManager",
        "numberOfBytes": "20"
      },
      "t_contract(IReceiptManager)12769": {
        "encoding": "inplace",
        "label": "contract IReceiptManager",
        "numberOfBytes": "20"
      },
      "t_mapping(t_address,t_array(t_address)dyn_storage)": {
        "encoding": "mapping",
        "key": "t_address",
        "label": "mapping(address => address[])",
        "numberOfBytes": "32",
        "value": "t_array(t_address)dyn_storage"
      },
      "t_mapping(t_address,t_array(t_uint256)dyn_storage)": {
        "encoding": "mapping",
        "key": "t_address",
        "label": "mapping(address => uint256[])",
        "numberOfBytes": "32",
        "value": "t_array(t_uint256)dyn_storage"
      },
      "t_mapping(t_address,t_bool)": {
        "encoding": "mapping",
        "key": "t_address",
        "label": "mapping(address => bool)",
        "numberOfBytes": "32",
        "value": "t_bool"
      },
      "t_mapping(t_address,t_mapping(t_address,t_bool))": {
        "encoding": "mapping",
        "key": "t_address",
        "label": "mapping(address => mapping(address => bool))",
        "numberOfBytes": "32",
        "value": "t_mapping(t_address,t_bool)"
      },
      "t_mapping(t_address,t_uint256)": {
        "encoding": "mapping",
        "key": "t_address",
        "label": "mapping(address => uint256)",
        "numberOfBytes": "32",
        "value": "t_uint256"
      },
      "t_mapping(t_uint256,t_address)": {
        "encoding": "mapping",
        "key": "t_uint256",
        "label": "mapping(uint256 => address)",
        "numberOfBytes": "32",
        "value": "t_address"
      },
      "t_mapping(t_uint256,t_array(t_uint256)dyn_storage)": {
        "encoding": "mapping",
        "key": "t_uint256",
        "label": "mapping(uint256 => uint256[])",
        "numberOfBytes": "32",
        "value": "t_array(t_uint256)dyn_storage"
      },
      "t_mapping(t_uint256,t_struct(Snowball)3349_storage)": {
        "encoding": "mapping",
        "key": "t_uint256",
        "label": "mapping(uint256 => struct SnowballManager.Snowball)",
        "numberOfBytes": "32",
        "value": "t_struct(Snowball)3349_storage"
      },
      "t_mapping(t_uint256,t_struct(SnowballReceipt)3354_storage)": {
        "encoding": "mapping",
        "key": "t_uint256",
        "label": "mapping(uint256 => struct SnowballManager.SnowballReceipt)",
        "numberOfBytes": "32",
        "value": "t_struct(SnowballReceipt)3354_storage"
      },
      "t_mapping(t_uint256,t_uint256)": {
        "encoding": "mapping",
        "key": "t_uint256",
        "label": "mapping(uint256 => uint256)",
        "numberOfBytes": "32",
        "value": "t_uint256"
      },
      "t_struct(Snowball)3349_storage": {
        "encoding": "inplace",
        "label": "struct SnowballManager.Snowball",
        "members": [
          {
            "astId": 3332,
            "contract": "contracts/SnowballManagerv3.sol:SnowballManager",
            "label": "maxSlots",
            "offset": 0,
            "slot": "0",
            "type": "t_uint256"
          },
          {
            "astId": 3334,
            "contract": "contracts/SnowballManagerv3.sol:SnowballManager",
            "label": "endTime",
            "offset": 0,
            "slot": "1",
            "type": "t_uint256"
          },
          {
            "astId": 3337,
            "contract": "contracts/SnowballManagerv3.sol:SnowballManager",
            "label": "thresholds",
            "offset": 0,
            "slot": "2",
            "type": "t_array(t_uint256)dyn_storage"
          },
          {
            "astId": 3340,
            "contract": "contracts/SnowballManagerv3.sol:SnowballManager",
            "label": "cohortPrices",
            "offset": 0,
            "slot": "3",
            "type": "t_array(t_uint256)dyn_storage"
          },
          {
            "astId": 3342,
            "contract": "contracts/SnowballManagerv3.sol:SnowballManager",
            "label": "owner",
            "offset": 0,
            "slot": "4",
            "type": "t_address"
          },
          {
            "astId": 3344,
            "contract": "contracts/SnowballManagerv3.sol:SnowballManager",
            "label": "returnedCustody",
            "offset": 20,
            "slot": "4",
            "type": "t_bool"
          },
          {
            "astId": 3346,
            "contract": "contracts/SnowballManagerv3.sol:SnowballManager",
            "label": "erc20Token",
            "offset": 0,
            "slot": "5",
            "type": "t_address"
          },
          {
            "astId": 3348,
            "contract": "contracts/SnowballManagerv3.sol:SnowballManager",
            "label": "mintReceipts",
            "offset": 20,
            "slot": "5",
            "type": "t_bool"
          }
        ],
        "numberOfBytes": "192"
      },
      "t_struct(SnowballReceipt)3354_storage": {
        "encoding": "inplace",
        "label": "struct SnowballManager.SnowballReceipt",
        "members": [
          {
            "astId": 3351,
            "contract": "contracts/SnowballManagerv3.sol:SnowballManager",
            "label": "snowballID",
            "offset": 0,
            "slot": "0",
            "type": "t_uint256"
          },
          {
            "astId": 3353,
            "contract": "contracts/SnowballManagerv3.sol:SnowballManager",
            "label": "effectivePricePaid",
            "offset": 0,
            "slot": "1",
            "type": "t_uint256"
          }
        ],
        "numberOfBytes": "64"
      },
      "t_uint256": {
        "encoding": "inplace",
        "label": "uint256",
        "numberOfBytes": "32"
      }
    }
  }
}