{
  "address": "0x9E545E3C0baAB3E08CdfD552C960A1050f373042",
  "abi": [
    {
      "inputs": [
        {
          "internalType": "address",
          "name": "_receiptManagerAddress",
          "type": "address"
        },
        {
          "internalType": "address",
          "name": "_promotionsManagerAddress",
          "type": "address"
        }
      ],
      "stateMutability": "nonpayable",
      "type": "constructor"
    },
    {
      "inputs": [],
      "name": "InvalidConfig",
      "type": "error"
    },
    {
      "inputs": [],
      "name": "NotApproved",
      "type": "error"
    },
    {
      "inputs": [],
      "name": "NotCustomURI",
      "type": "error"
    },
    {
      "inputs": [],
      "name": "Promotion_Expired",
      "type": "error"
    },
    {
      "inputs": [],
      "name": "URIAlreadSet",
      "type": "error"
    },
    {
      "anonymous": false,
      "inputs": [
        {
          "indexed": true,
          "internalType": "uint256",
          "name": "snowballID",
          "type": "uint256"
        },
        {
          "indexed": false,
          "internalType": "uint256",
          "name": "numberOfParticipants",
          "type": "uint256"
        }
      ],
      "name": "SnowballCancelled",
      "type": "event"
    },
    {
      "anonymous": false,
      "inputs": [
        {
          "indexed": true,
          "internalType": "address",
          "name": "owner",
          "type": "address"
        },
        {
          "indexed": true,
          "internalType": "uint256",
          "name": "snowballID",
          "type": "uint256"
        },
        {
          "indexed": true,
          "internalType": "address",
          "name": "erc20Token",
          "type": "address"
        },
        {
          "indexed": false,
          "internalType": "uint256",
          "name": "maxSlots",
          "type": "uint256"
        },
        {
          "indexed": false,
          "internalType": "uint256",
          "name": "endTime",
          "type": "uint256"
        },
        {
          "indexed": false,
          "internalType": "uint256[]",
          "name": "thresholds",
          "type": "uint256[]"
        },
        {
          "indexed": false,
          "internalType": "uint256[]",
          "name": "cohortPrices",
          "type": "uint256[]"
        },
        {
          "indexed": false,
          "internalType": "bool",
          "name": "mintsNFTS",
          "type": "bool"
        }
      ],
      "name": "SnowballCreated",
      "type": "event"
    },
    {
      "anonymous": false,
      "inputs": [
        {
          "indexed": true,
          "internalType": "uint256",
          "name": "snowballID",
          "type": "uint256"
        },
        {
          "indexed": false,
          "internalType": "uint256",
          "name": "redeemedAmount",
          "type": "uint256"
        }
      ],
      "name": "SnowballCustodyRedeemed",
      "type": "event"
    },
    {
      "anonymous": false,
      "inputs": [
        {
          "indexed": true,
          "internalType": "uint256",
          "name": "tokenID",
          "type": "uint256"
        },
        {
          "indexed": true,
          "internalType": "uint256",
          "name": "snowballID",
          "type": "uint256"
        },
        {
          "indexed": false,
          "internalType": "uint256",
          "name": "redeemedAmount",
          "type": "uint256"
        }
      ],
      "name": "SnowballReceiptRedeemed",
      "type": "event"
    },
    {
      "anonymous": false,
      "inputs": [
        {
          "indexed": true,
          "internalType": "address",
          "name": "joiner",
          "type": "address"
        },
        {
          "indexed": true,
          "internalType": "uint256",
          "name": "snowballID",
          "type": "uint256"
        },
        {
          "indexed": false,
          "internalType": "uint256",
          "name": "firstParticipantNumber",
          "type": "uint256"
        },
        {
          "indexed": false,
          "internalType": "uint256",
          "name": "firstTokenID",
          "type": "uint256"
        },
        {
          "indexed": false,
          "internalType": "uint256",
          "name": "pricePaid",
          "type": "uint256"
        },
        {
          "indexed": false,
          "internalType": "uint256",
          "name": "numTickets",
          "type": "uint256"
        }
      ],
      "name": "SnowballReceiptsMinted",
      "type": "event"
    },
    {
      "inputs": [],
      "name": "MINIMUM_DURATION",
      "outputs": [
        {
          "internalType": "uint256",
          "name": "",
          "type": "uint256"
        }
      ],
      "stateMutability": "view",
      "type": "function"
    },
    {
      "inputs": [
        {
          "internalType": "uint256",
          "name": "",
          "type": "uint256"
        }
      ],
      "name": "SnowballReceipts",
      "outputs": [
        {
          "internalType": "uint256",
          "name": "snowballID",
          "type": "uint256"
        },
        {
          "internalType": "uint256",
          "name": "effectivePricePaid",
          "type": "uint256"
        }
      ],
      "stateMutability": "view",
      "type": "function"
    },
    {
      "inputs": [
        {
          "internalType": "uint256",
          "name": "",
          "type": "uint256"
        }
      ],
      "name": "Snowballs",
      "outputs": [
        {
          "internalType": "uint256",
          "name": "maxSlots",
          "type": "uint256"
        },
        {
          "internalType": "uint256",
          "name": "endTime",
          "type": "uint256"
        },
        {
          "internalType": "address",
          "name": "owner",
          "type": "address"
        },
        {
          "internalType": "bool",
          "name": "returnedCustody",
          "type": "bool"
        },
        {
          "internalType": "address",
          "name": "erc20Token",
          "type": "address"
        },
        {
          "internalType": "bool",
          "name": "mintReceipts",
          "type": "bool"
        }
      ],
      "stateMutability": "view",
      "type": "function"
    },
    {
      "inputs": [
        {
          "internalType": "address",
          "name": "",
          "type": "address"
        },
        {
          "internalType": "uint256",
          "name": "",
          "type": "uint256"
        }
      ],
      "name": "addressToPromotions",
      "outputs": [
        {
          "internalType": "uint256",
          "name": "",
          "type": "uint256"
        }
      ],
      "stateMutability": "view",
      "type": "function"
    },
    {
      "inputs": [
        {
          "internalType": "address",
          "name": "",
          "type": "address"
        },
        {
          "internalType": "address",
          "name": "",
          "type": "address"
        }
      ],
      "name": "approvedOperators",
      "outputs": [
        {
          "internalType": "bool",
          "name": "",
          "type": "bool"
        }
      ],
      "stateMutability": "view",
      "type": "function"
    },
    {
      "inputs": [
        {
          "internalType": "address",
          "name": "",
          "type": "address"
        },
        {
          "internalType": "uint256",
          "name": "",
          "type": "uint256"
        }
      ],
      "name": "arrayOfApprovedOperators",
      "outputs": [
        {
          "internalType": "address",
          "name": "",
          "type": "address"
        }
      ],
      "stateMutability": "view",
      "type": "function"
    },
    {
      "inputs": [
        {
          "internalType": "uint256",
          "name": "snowballID",
          "type": "uint256"
        }
      ],
      "name": "calculateExcessSnowballCustody",
      "outputs": [
        {
          "internalType": "uint256",
          "name": "",
          "type": "uint256"
        }
      ],
      "stateMutability": "view",
      "type": "function"
    },
    {
      "inputs": [
        {
          "internalType": "uint256",
          "name": "snowballID",
          "type": "uint256"
        }
      ],
      "name": "cancelSnowball",
      "outputs": [],
      "stateMutability": "nonpayable",
      "type": "function"
    },
    {
      "inputs": [],
      "name": "commission",
      "outputs": [
        {
          "internalType": "uint256",
          "name": "",
          "type": "uint256"
        }
      ],
      "stateMutability": "view",
      "type": "function"
    },
    {
      "inputs": [],
      "name": "contractOwner",
      "outputs": [
        {
          "internalType": "address",
          "name": "",
          "type": "address"
        }
      ],
      "stateMutability": "view",
      "type": "function"
    },
    {
      "inputs": [
        {
          "internalType": "uint256",
          "name": "_maxSlots",
          "type": "uint256"
        },
        {
          "internalType": "uint256",
          "name": "_duration",
          "type": "uint256"
        },
        {
          "internalType": "uint256[]",
          "name": "_cohortPrices",
          "type": "uint256[]"
        },
        {
          "internalType": "uint256[]",
          "name": "_thresholds",
          "type": "uint256[]"
        },
        {
          "internalType": "address",
          "name": "_owner",
          "type": "address"
        },
        {
          "internalType": "address",
          "name": "_erc20Token",
          "type": "address"
        },
        {
          "internalType": "bool",
          "name": "_mintReceipts",
          "type": "bool"
        }
      ],
      "name": "createSnowball",
      "outputs": [],
      "stateMutability": "nonpayable",
      "type": "function"
    },
    {
      "inputs": [
        {
          "internalType": "address",
          "name": "",
          "type": "address"
        }
      ],
      "name": "earnedCommissions",
      "outputs": [
        {
          "internalType": "uint256",
          "name": "",
          "type": "uint256"
        }
      ],
      "stateMutability": "view",
      "type": "function"
    },
    {
      "inputs": [
        {
          "internalType": "uint256",
          "name": "promotionID",
          "type": "uint256"
        }
      ],
      "name": "getNumberOfParticipants",
      "outputs": [
        {
          "internalType": "uint256",
          "name": "",
          "type": "uint256"
        }
      ],
      "stateMutability": "view",
      "type": "function"
    },
    {
      "inputs": [
        {
          "internalType": "uint256",
          "name": "promotionID",
          "type": "uint256"
        }
      ],
      "name": "getPromotionReceipts",
      "outputs": [
        {
          "internalType": "uint256[]",
          "name": "",
          "type": "uint256[]"
        }
      ],
      "stateMutability": "view",
      "type": "function"
    },
    {
      "inputs": [
        {
          "internalType": "address",
          "name": "promotionOwner",
          "type": "address"
        }
      ],
      "name": "getPromotionsByOwner",
      "outputs": [
        {
          "internalType": "uint256[]",
          "name": "",
          "type": "uint256[]"
        }
      ],
      "stateMutability": "view",
      "type": "function"
    },
    {
      "inputs": [
        {
          "internalType": "uint256",
          "name": "snowballID",
          "type": "uint256"
        }
      ],
      "name": "getSnowball",
      "outputs": [
        {
          "internalType": "uint256",
          "name": "maxSlots",
          "type": "uint256"
        },
        {
          "internalType": "uint256",
          "name": "endTime",
          "type": "uint256"
        },
        {
          "internalType": "uint256[]",
          "name": "thresholds",
          "type": "uint256[]"
        },
        {
          "internalType": "uint256[]",
          "name": "cohortPrices",
          "type": "uint256[]"
        },
        {
          "internalType": "address",
          "name": "owner",
          "type": "address"
        },
        {
          "internalType": "bool",
          "name": "returnedCustody",
          "type": "bool"
        },
        {
          "internalType": "address",
          "name": "erc20Token",
          "type": "address"
        },
        {
          "internalType": "bool",
          "name": "mintReceipts",
          "type": "bool"
        }
      ],
      "stateMutability": "view",
      "type": "function"
    },
    {
      "inputs": [
        {
          "internalType": "uint256",
          "name": "snowballID",
          "type": "uint256"
        }
      ],
      "name": "getSnowballPrice",
      "outputs": [
        {
          "internalType": "uint256",
          "name": "",
          "type": "uint256"
        }
      ],
      "stateMutability": "view",
      "type": "function"
    },
    {
      "inputs": [
        {
          "internalType": "uint256",
          "name": "snowballID",
          "type": "uint256"
        },
        {
          "internalType": "uint256",
          "name": "numOrders",
          "type": "uint256"
        }
      ],
      "name": "joinSnowball",
      "outputs": [],
      "stateMutability": "nonpayable",
      "type": "function"
    },
    {
      "inputs": [
        {
          "internalType": "uint256",
          "name": "",
          "type": "uint256"
        },
        {
          "internalType": "uint256",
          "name": "",
          "type": "uint256"
        }
      ],
      "name": "promotionIDToReceiptIDs",
      "outputs": [
        {
          "internalType": "uint256",
          "name": "",
          "type": "uint256"
        }
      ],
      "stateMutability": "view",
      "type": "function"
    },
    {
      "inputs": [],
      "name": "promotionsManager",
      "outputs": [
        {
          "internalType": "contract IPromotionsManager",
          "name": "",
          "type": "address"
        }
      ],
      "stateMutability": "view",
      "type": "function"
    },
    {
      "inputs": [],
      "name": "promotionsManagerAddress",
      "outputs": [
        {
          "internalType": "address",
          "name": "",
          "type": "address"
        }
      ],
      "stateMutability": "view",
      "type": "function"
    },
    {
      "inputs": [
        {
          "internalType": "uint256",
          "name": "",
          "type": "uint256"
        }
      ],
      "name": "receiptIDToPromotionID",
      "outputs": [
        {
          "internalType": "uint256",
          "name": "",
          "type": "uint256"
        }
      ],
      "stateMutability": "view",
      "type": "function"
    },
    {
      "inputs": [],
      "name": "receiptManager",
      "outputs": [
        {
          "internalType": "contract IReceiptManager",
          "name": "",
          "type": "address"
        }
      ],
      "stateMutability": "view",
      "type": "function"
    },
    {
      "inputs": [],
      "name": "receiptManagerAddress",
      "outputs": [
        {
          "internalType": "address",
          "name": "",
          "type": "address"
        }
      ],
      "stateMutability": "view",
      "type": "function"
    },
    {
      "inputs": [
        {
          "internalType": "uint256[]",
          "name": "receiptIDs",
          "type": "uint256[]"
        }
      ],
      "name": "redeemSnowballReceipts",
      "outputs": [],
      "stateMutability": "nonpayable",
      "type": "function"
    },
    {
      "inputs": [
        {
          "internalType": "uint256",
          "name": "snowballID",
          "type": "uint256"
        }
      ],
      "name": "retrieveExcessSnowballCustody",
      "outputs": [],
      "stateMutability": "nonpayable",
      "type": "function"
    },
    {
      "inputs": [
        {
          "internalType": "uint256",
          "name": "newCommissionBPs",
          "type": "uint256"
        }
      ],
      "name": "setCommission",
      "outputs": [],
      "stateMutability": "nonpayable",
      "type": "function"
    },
    {
      "inputs": [
        {
          "internalType": "address payable",
          "name": "newOwner",
          "type": "address"
        }
      ],
      "name": "setOwner",
      "outputs": [],
      "stateMutability": "nonpayable",
      "type": "function"
    },
    {
      "inputs": [
        {
          "internalType": "uint256",
          "name": "promotionID",
          "type": "uint256"
        },
        {
          "internalType": "string",
          "name": "newURIRoot",
          "type": "string"
        }
      ],
      "name": "setPromotionURI",
      "outputs": [],
      "stateMutability": "nonpayable",
      "type": "function"
    },
    {
      "inputs": [
        {
          "internalType": "address",
          "name": "_promotionsManagerAddress",
          "type": "address"
        }
      ],
      "name": "setPromotionsManager",
      "outputs": [],
      "stateMutability": "nonpayable",
      "type": "function"
    },
    {
      "inputs": [
        {
          "internalType": "address",
          "name": "_receiptManagerAddress",
          "type": "address"
        }
      ],
      "name": "setReceiptManager",
      "outputs": [],
      "stateMutability": "nonpayable",
      "type": "function"
    },
    {
      "inputs": [
        {
          "internalType": "uint256",
          "name": "promotionID",
          "type": "uint256"
        },
        {
          "internalType": "uint256",
          "name": "basisPoints",
          "type": "uint256"
        }
      ],
      "name": "setRoyalty",
      "outputs": [],
      "stateMutability": "nonpayable",
      "type": "function"
    },
    {
      "inputs": [],
      "name": "snowballIDs",
      "outputs": [
        {
          "internalType": "uint256",
          "name": "",
          "type": "uint256"
        }
      ],
      "stateMutability": "view",
      "type": "function"
    },
    {
      "inputs": [
        {
          "internalType": "uint256",
          "name": "",
          "type": "uint256"
        }
      ],
      "name": "unmintedReceiptsToOwners",
      "outputs": [
        {
          "internalType": "address",
          "name": "",
          "type": "address"
        }
      ],
      "stateMutability": "view",
      "type": "function"
    },
    {
      "inputs": [
        {
          "internalType": "address",
          "name": "erc20Token",
          "type": "address"
        }
      ],
      "name": "withdrawCommissions",
      "outputs": [],
      "stateMutability": "nonpayable",
      "type": "function"
    },
    {
      "inputs": [
        {
          "internalType": "address",
          "name": "",
          "type": "address"
        }
      ],
      "name": "withdrawnCommissions",
      "outputs": [
        {
          "internalType": "uint256",
          "name": "",
          "type": "uint256"
        }
      ],
      "stateMutability": "view",
      "type": "function"
    }
  ],
  "transactionHash": "0x8781f243a3505e8638eb2588a15ab64134e45bcefda175d307f98cb94ea895e9",
  "args": [
    "0xE6E340D132b5f46d1e472DebcD681B2aBc16e57E",
    "0xc3e53F4d16Ae77Db1c982e75a937B9f60FE63690"
  ],
  "numDeployments": 1,
  "solcInputHash": "4e9e6149be04f0c3dde4d2910f02c0c8",
  "bytecode": "0x608060405260c86000556001600e553480156200001b57600080fd5b50604051620047ab380380620047ab8339818101604052810190620000419190620001f8565b33600160006101000a81548173ffffffffffffffffffffffffffffffffffffffff021916908373ffffffffffffffffffffffffffffffffffffffff16021790555081600c60006101000a81548173ffffffffffffffffffffffffffffffffffffffff021916908373ffffffffffffffffffffffffffffffffffffffff16021790555081600260006101000a81548173ffffffffffffffffffffffffffffffffffffffff021916908373ffffffffffffffffffffffffffffffffffffffff16021790555080600360006101000a81548173ffffffffffffffffffffffffffffffffffffffff021916908373ffffffffffffffffffffffffffffffffffffffff16021790555080600d60006101000a81548173ffffffffffffffffffffffffffffffffffffffff021916908373ffffffffffffffffffffffffffffffffffffffff16021790555050506200023f565b600080fd5b600073ffffffffffffffffffffffffffffffffffffffff82169050919050565b6000620001c08262000193565b9050919050565b620001d281620001b3565b8114620001de57600080fd5b50565b600081519050620001f281620001c7565b92915050565b600080604083850312156200021257620002116200018e565b5b60006200022285828601620001e1565b92505060206200023585828601620001e1565b9150509250929050565b61455c806200024f6000396000f3fe608060405234801561001057600080fd5b506004361061021c5760003560e01c806376640a5c11610125578063ce606ee0116100ad578063e9b08e131161007c578063e9b08e13146106b8578063ed9821be146106e8578063ef5856c314610704578063f38f541614610734578063f7dbfa53146107525761021c565b8063ce606ee014610617578063cfefaa4e14610635578063d548305814610665578063e14891911461069a5761021c565b8063933a6f0d116100f4578063933a6f0d14610561578063a0bbde321461057d578063a12e49e31461059b578063a3a92ad8146105b7578063c0628f1d146105e75761021c565b806376640a5c146104c55780637aa88c7f146104e3578063900530a9146105135780639165bdba146105435761021c565b806334d82220116101a857806351f7a8541161017757806351f7a854146104235780635a31470d1461043f57806364ead1eb1461045b5780636d03e7281461048b57806370d19d85146104a95761021c565b806334d8222014610370578063355e6b43146103a05780633a810114146103bc578063408c521d146103ec5761021c565b80631bd973d0116101ef5780631bd973d0146102ce5780632d28e89d146102ea5780632ddee340146103085780632e7e50a9146103385780632ff71a69146103545761021c565b8063039551f41461022157806309bddbe71461025157806313af40351461028257806317a59ab01461029e575b600080fd5b61023b600480360381019061023691906134e7565b61076e565b6040516102489190613536565b60405180910390f35b61026b60048036038101906102669190613551565b6107bc565b60405161027992919061358d565b60405180910390f35b61029c600480360381019061029791906135f4565b6107e0565b005b6102b860048036038101906102b39190613621565b6108b4565b6040516102c5919061364e565b60405180910390f35b6102e860048036038101906102e39190613551565b6108cc565b005b6102f2610cfa565b6040516102ff919061364e565b60405180910390f35b610322600480360381019061031d9190613551565b610d00565b60405161032f919061364e565b60405180910390f35b610352600480360381019061034d9190613669565b610e28565b005b61036e60048036038101906103699190613621565b6115e3565b005b61038a600480360381019061038591906136a9565b6116f8565b6040516103979190613704565b60405180910390f35b6103ba60048036038101906103b59190613551565b611727565b005b6103d660048036038101906103d19190613621565b611806565b6040516103e391906137dd565b60405180910390f35b61040660048036038101906104019190613551565b61189d565b60405161041a9897969594939291906137ff565b60405180910390f35b61043d60048036038101906104389190613621565b611a00565b005b610459600480360381019061045491906138f0565b611c40565b005b61047560048036038101906104709190613551565b611f09565b604051610482919061364e565b60405180910390f35b610493611f29565b6040516104a09190613536565b60405180910390f35b6104c360048036038101906104be91906139a6565b611f4f565b005b6104cd612431565b6040516104da9190613a52565b60405180910390f35b6104fd60048036038101906104f89190613551565b612457565b60405161050a9190613536565b60405180910390f35b61052d60048036038101906105289190613551565b61248a565b60405161053a919061364e565b60405180910390f35b61054b61261f565b6040516105589190613a8e565b60405180910390f35b61057b60048036038101906105769190613669565b612645565b005b6105856127e8565b6040516105929190613536565b60405180910390f35b6105b560048036038101906105b09190613551565b61280e565b005b6105d160048036038101906105cc9190613551565b61299a565b6040516105de919061364e565b60405180910390f35b61060160048036038101906105fc91906134e7565b6129b2565b60405161060e919061364e565b60405180910390f35b61061f6129e3565b60405161062c9190613536565b60405180910390f35b61064f600480360381019061064a9190613621565b612a09565b60405161065c919061364e565b60405180910390f35b61067f600480360381019061067a9190613551565b612a21565b60405161069196959493929190613aa9565b60405180910390f35b6106a2612ab7565b6040516106af919061364e565b60405180910390f35b6106d260048036038101906106cd9190613551565b612abd565b6040516106df91906137dd565b60405180910390f35b61070260048036038101906106fd9190613b36565b612b2e565b005b61071e60048036038101906107199190613669565b613107565b60405161072b919061364e565b60405180910390f35b61073c613138565b604051610749919061364e565b60405180910390f35b61076c60048036038101906107679190613621565b61313e565b005b6007602052816000526040600020818154811061078a57600080fd5b906000526020600020016000915091509054906101000a900473ffffffffffffffffffffffffffffffffffffffff1681565b60106020528060005260406000206000915090508060000154908060010154905082565b600160009054906101000a900473ffffffffffffffffffffffffffffffffffffffff1673ffffffffffffffffffffffffffffffffffffffff163373ffffffffffffffffffffffffffffffffffffffff1614610870576040517f08c379a000000000000000000000000000000000000000000000000000000000815260040161086790613c75565b60405180910390fd5b80600160006101000a81548173ffffffffffffffffffffffffffffffffffffffff021916908373ffffffffffffffffffffffffffffffffffffffff16021790555050565b60046020528060005260406000206000915090505481565b6000600f60008381526020019081526020016000209050600d60009054906101000a900473ffffffffffffffffffffffffffffffffffffffff1673ffffffffffffffffffffffffffffffffffffffff16631a179451338360040160009054906101000a900473ffffffffffffffffffffffffffffffffffffffff166040518363ffffffff1660e01b8152600401610964929190613c95565b602060405180830381865afa158015610981573d6000803e3d6000fd5b505050506040513d601f19601f820116820180604052508101906109a59190613cd3565b6109db576040517fc19f17a900000000000000000000000000000000000000000000000000000000815260040160405180910390fd5b6000600a60008481526020019081526020016000208054905090508160010154421180610a0b5750808260000154145b8015610a2657508160040160149054906101000a900460ff16155b610a65576040517f08c379a0000000000000000000000000000000000000000000000000000000008152600401610a5c90613d4c565b60405180910390fd5b6000610a7084610d00565b9050600061271060005483610a859190613d9b565b610a8f9190613e0c565b905080600460008660050160009054906101000a900473ffffffffffffffffffffffffffffffffffffffff1673ffffffffffffffffffffffffffffffffffffffff1673ffffffffffffffffffffffffffffffffffffffff1681526020019081526020016000206000828254610b049190613e3d565b925050819055508360050160009054906101000a900473ffffffffffffffffffffffffffffffffffffffff1673ffffffffffffffffffffffffffffffffffffffff1663a9059cbb600d60009054906101000a900473ffffffffffffffffffffffffffffffffffffffff1673ffffffffffffffffffffffffffffffffffffffff16637366ad268760040160009054906101000a900473ffffffffffffffffffffffffffffffffffffffff168860050160009054906101000a900473ffffffffffffffffffffffffffffffffffffffff166040518363ffffffff1660e01b8152600401610bf0929190613c95565b602060405180830381865afa158015610c0d573d6000803e3d6000fd5b505050506040513d601f19601f82011682018060405250810190610c319190613e86565b8385610c3d9190613eb3565b6040518363ffffffff1660e01b8152600401610c5a929190613ee7565b6020604051808303816000875af1158015610c79573d6000803e3d6000fd5b505050506040513d601f19601f82011682018060405250810190610c9d9190613cd3565b5060018460040160146101000a81548160ff021916908315150217905550847f6094eece54fc92fbed698b7335ab3fe7bb4ef980256f1a38a85efb345c05259283604051610ceb919061364e565b60405180910390a25050505050565b61038481565b600080600f600084815260200190815260200160002090506000600a6000858152602001908152602001600020805490509050610d3c81613253565b428260010154118015610d525750808260000154115b80610d6b57508160040160149054906101000a900460ff165b15610d7b57600092505050610e23565b6000610d868561248a565b9050610d9181613253565b610dcd8360030160018560030180549050610dac9190613eb3565b81548110610dbd57610dbc613f10565b5b9060005260206000200154613253565b6000828460030160018660030180549050610de89190613eb3565b81548110610df957610df8613f10565b5b906000526020600020015483610e0f9190613eb3565b610e199190613d9b565b9050809450505050505b919050565b6000600f600084815260200190815260200160002090506000600a600085815260200190815260200160002080549050905060008260050160009054906101000a900473ffffffffffffffffffffffffffffffffffffffff169050826000015482101580610e995750428360010154105b15610ed0576040517faf061c0e00000000000000000000000000000000000000000000000000000000815260040160405180910390fd5b82600001548483610ee19190613e3d565b1115610efa57818360000154610ef79190613eb3565b93505b600083600301600081548110610f1357610f12613f10565b5b9060005260206000200154905060005b8460020180549050811015610faa57846002018181548110610f4857610f47613f10565b5b90600052602060002001548685610f5f9190613e3d565b10610f985784600301600182610f759190613e3d565b81548110610f8657610f85613f10565b5b90600052602060002001549150610f9d565b610faa565b8080600101915050610f23565b5060008460030160018660030180549050610fc59190613eb3565b81548110610fd657610fd5613f10565b5b9060005260206000200154905060006127106000548389610ff79190613d9b565b6110019190613d9b565b61100b9190613e0c565b90508373ffffffffffffffffffffffffffffffffffffffff166323b872dd33308a876110379190613d9b565b6040518463ffffffff1660e01b815260040161105593929190613f3f565b6020604051808303816000875af1158015611074573d6000803e3d6000fd5b505050506040513d601f19601f820116820180604052508101906110989190613cd3565b5080600460008673ffffffffffffffffffffffffffffffffffffffff1673ffffffffffffffffffffffffffffffffffffffff16815260200190815260200160002060008282546110e89190613e3d565b9250508190555060008183896110fe9190613d9b565b6111089190613eb3565b90508473ffffffffffffffffffffffffffffffffffffffff1663a9059cbb600d60009054906101000a900473ffffffffffffffffffffffffffffffffffffffff1673ffffffffffffffffffffffffffffffffffffffff16637366ad268a60040160009054906101000a900473ffffffffffffffffffffffffffffffffffffffff168b60050160009054906101000a900473ffffffffffffffffffffffffffffffffffffffff166040518363ffffffff1660e01b81526004016111cb929190613c95565b602060405180830381865afa1580156111e8573d6000803e3d6000fd5b505050506040513d601f19601f8201168201806040525081019061120c9190613e86565b836040518363ffffffff1660e01b815260040161122a929190613ee7565b6020604051808303816000875af1158015611249573d6000803e3d6000fd5b505050506040513d601f19601f8201168201806040525081019061126d9190613cd3565b5060008760050160149054906101000a900460ff16156113e057600c60009054906101000a900473ffffffffffffffffffffffffffffffffffffffff1673ffffffffffffffffffffffffffffffffffffffff16629308a1338c60018b6112d39190613e3d565b8d6040518563ffffffff1660e01b81526004016112f39493929190613f76565b6020604051808303816000875af1158015611312573d6000803e3d6000fd5b505050506040513d601f19601f820116820180604052508101906113369190613fd0565b905060005b898110156113da57600081836113519190613e3d565b905060405180604001604052808d815260200188815250601060008381526020019081526020016000206000820151816000015560208201518160010155905050600a60008d815260200190815260200160002081908060018154018082558091505060019003906000526020600020016000909190919091505550808060010191505061133b565b50611576565b600c60009054906101000a900473ffffffffffffffffffffffffffffffffffffffff1673ffffffffffffffffffffffffffffffffffffffff16631d4922b88a6040518263ffffffff1660e01b815260040161143b919061364e565b6020604051808303816000875af115801561145a573d6000803e3d6000fd5b505050506040513d601f19601f8201168201806040525081019061147e9190613fd0565b905060005b8981101561157457600081836114999190613e3d565b905060405180604001604052808d815260200188815250601060008381526020019081526020016000206000820151816000015560208201518160010155905050600a60008d8152602001908152602001600020819080600181540180825580915050600190039060005260206000200160009091909190915055336009600083815260200190815260200160002060006101000a81548173ffffffffffffffffffffffffffffffffffffffff021916908373ffffffffffffffffffffffffffffffffffffffff160217905550508080600101915050611483565b505b893373ffffffffffffffffffffffffffffffffffffffff167f939db526775fa8f099701bff1904c7d0980498a3a35ea0569a41be08b8d76df560018a6115bc9190613e3d565b84898e6040516115cf9493929190613ffd565b60405180910390a350505050505050505050565b600160009054906101000a900473ffffffffffffffffffffffffffffffffffffffff1673ffffffffffffffffffffffffffffffffffffffff163373ffffffffffffffffffffffffffffffffffffffff1614611673576040517f08c379a000000000000000000000000000000000000000000000000000000000815260040161166a90613c75565b60405180910390fd5b80600260006101000a81548173ffffffffffffffffffffffffffffffffffffffff021916908373ffffffffffffffffffffffffffffffffffffffff16021790555080600c60006101000a81548173ffffffffffffffffffffffffffffffffffffffff021916908373ffffffffffffffffffffffffffffffffffffffff16021790555050565b60066020528160005260406000206020528060005260406000206000915091509054906101000a900460ff1681565b600160009054906101000a900473ffffffffffffffffffffffffffffffffffffffff1673ffffffffffffffffffffffffffffffffffffffff163373ffffffffffffffffffffffffffffffffffffffff16146117b7576040517f08c379a00000000000000000000000000000000000000000000000000000000081526004016117ae90613c75565b60405180910390fd5b6127108111156117fc576040517f08c379a00000000000000000000000000000000000000000000000000000000081526004016117f39061408e565b60405180910390fd5b8060008190555050565b6060600860008373ffffffffffffffffffffffffffffffffffffffff1673ffffffffffffffffffffffffffffffffffffffff16815260200190815260200160002080548060200260200160405190810160405280929190818152602001828054801561189157602002820191906000526020600020905b81548152602001906001019080831161187d575b50505050509050919050565b6000806060806000806000806000600f60008b815260200190815260200160002090508060000154816001015482600201836003018460040160009054906101000a900473ffffffffffffffffffffffffffffffffffffffff168560040160149054906101000a900460ff168660050160009054906101000a900473ffffffffffffffffffffffffffffffffffffffff168760050160149054906101000a900460ff168580548060200260200160405190810160405280929190818152602001828054801561198b57602002820191906000526020600020905b815481526020019060010190808311611977575b50505050509550848054806020026020016040519081016040528092919081815260200182805480156119dd57602002820191906000526020600020905b8154815260200190600101908083116119c9575b505050505094509850985098509850985098509850985050919395975091939597565b600160009054906101000a900473ffffffffffffffffffffffffffffffffffffffff1673ffffffffffffffffffffffffffffffffffffffff163373ffffffffffffffffffffffffffffffffffffffff1614611a90576040517f08c379a0000000000000000000000000000000000000000000000000000000008152600401611a8790613c75565b60405180910390fd5b8073ffffffffffffffffffffffffffffffffffffffff1663a9059cbb600160009054906101000a900473ffffffffffffffffffffffffffffffffffffffff16600560008573ffffffffffffffffffffffffffffffffffffffff1673ffffffffffffffffffffffffffffffffffffffff16815260200190815260200160002054600460008673ffffffffffffffffffffffffffffffffffffffff1673ffffffffffffffffffffffffffffffffffffffff16815260200190815260200160002054611b599190613eb3565b6040518363ffffffff1660e01b8152600401611b76929190613ee7565b6020604051808303816000875af1158015611b95573d6000803e3d6000fd5b505050506040513d601f19601f82011682018060405250810190611bb99190613cd3565b50600460008273ffffffffffffffffffffffffffffffffffffffff1673ffffffffffffffffffffffffffffffffffffffff16815260200190815260200160002054600560008373ffffffffffffffffffffffffffffffffffffffff1673ffffffffffffffffffffffffffffffffffffffff1681526020019081526020016000208190555050565b6000600f60008581526020019081526020016000209050600d60009054906101000a900473ffffffffffffffffffffffffffffffffffffffff1673ffffffffffffffffffffffffffffffffffffffff16631a179451338360040160009054906101000a900473ffffffffffffffffffffffffffffffffffffffff166040518363ffffffff1660e01b8152600401611cd8929190613c95565b602060405180830381865afa158015611cf5573d6000803e3d6000fd5b505050506040513d601f19601f82011682018060405250810190611d199190613cd3565b611d4f576040517fc19f17a900000000000000000000000000000000000000000000000000000000815260040160405180910390fd5b8060050160149054906101000a900460ff16611d97576040517f1fbb40b200000000000000000000000000000000000000000000000000000000815260040160405180910390fd5b6000600c60009054906101000a900473ffffffffffffffffffffffffffffffffffffffff1673ffffffffffffffffffffffffffffffffffffffff1663135a0ce9866040518263ffffffff1660e01b8152600401611df4919061364e565b600060405180830381865afa158015611e11573d6000803e3d6000fd5b505050506040513d6000823e3d601f19601f82011682018060405250810190611e3a919061420a565b5114611e72576040517f1c1d2b4c00000000000000000000000000000000000000000000000000000000815260040160405180910390fd5b600c60009054906101000a900473ffffffffffffffffffffffffffffffffffffffff1673ffffffffffffffffffffffffffffffffffffffff166384936ac08585856040518463ffffffff1660e01b8152600401611ed19392919061428f565b600060405180830381600087803b158015611eeb57600080fd5b505af1158015611eff573d6000803e3d6000fd5b5050505050505050565b6000600a6000838152602001908152602001600020805490509050919050565b600360009054906101000a900473ffffffffffffffffffffffffffffffffffffffff1681565b600080600f60006010600087876000818110611f6e57611f6d613f10565b5b90506020020135815260200190815260200160002060000154815260200190815260200160002060050160009054906101000a900473ffffffffffffffffffffffffffffffffffffffff16905060005b848490508110156123a257600060106000878785818110611fe257611fe1613f10565b5b9050602002013581526020019081526020016000206040518060400160405290816000820154815260200160018201548152505090506000600f60008360000151815260200190815260200160002090508060050160009054906101000a900473ffffffffffffffffffffffffffffffffffffffff1673ffffffffffffffffffffffffffffffffffffffff168473ffffffffffffffffffffffffffffffffffffffff16146120c5576040517f08c379a00000000000000000000000000000000000000000000000000000000081526004016120bc9061430d565b60405180910390fd5b8060050160149054906101000a900460ff1615612203573373ffffffffffffffffffffffffffffffffffffffff16600c60009054906101000a900473ffffffffffffffffffffffffffffffffffffffff1673ffffffffffffffffffffffffffffffffffffffff16636352211e89898781811061214457612143613f10565b5b905060200201356040518263ffffffff1660e01b8152600401612167919061364e565b602060405180830381865afa158015612184573d6000803e3d6000fd5b505050506040513d601f19601f820116820180604052508101906121a89190613e86565b73ffffffffffffffffffffffffffffffffffffffff16146121fe576040517f08c379a00000000000000000000000000000000000000000000000000000000081526004016121f590614379565b60405180910390fd5b6122be565b3373ffffffffffffffffffffffffffffffffffffffff166009600089898781811061223157612230613f10565b5b90506020020135815260200190815260200160002060009054906101000a900473ffffffffffffffffffffffffffffffffffffffff1673ffffffffffffffffffffffffffffffffffffffff16146122bd576040517f08c379a00000000000000000000000000000000000000000000000000000000081526004016122b490614379565b60405180910390fd5b5b60006122cd836000015161248a565b90508083602001511115612392578083602001516122eb9190613eb3565b866122f69190613e3d565b955080601060008a8a888181106123105761230f613f10565b5b90506020020135815260200190815260200160002060010181905550826000015188888681811061234457612343613f10565b5b905060200201357f4907df46a8fb05ca76bad2160b503254cc7bc2c28b518b0fe6bbd7fb0ca206d083866020015161237c9190613eb3565b604051612389919061364e565b60405180910390a35b5050508080600101915050611fbe565b506000821461242b578073ffffffffffffffffffffffffffffffffffffffff1663a9059cbb33846040518363ffffffff1660e01b81526004016123e6929190613ee7565b6020604051808303816000875af1158015612405573d6000803e3d6000fd5b505050506040513d601f19601f820116820180604052508101906124299190613cd3565b505b50505050565b600d60009054906101000a900473ffffffffffffffffffffffffffffffffffffffff1681565b60096020528060005260406000206000915054906101000a900473ffffffffffffffffffffffffffffffffffffffff1681565b600080600f600084815260200190815260200160002090506000600a60008581526020019081526020016000208054905090506124c681613253565b8082600001540361250e5781600301600183600301805490506124e99190613eb3565b815481106124fa576124f9613f10565b5b90600052602060002001549250505061261a565b60008260030160008154811061252757612526613f10565b5b9060005260206000200154905061253d81613253565b60008360020180549050905060005b818110156126115784600201818154811061256a57612569613f10565b5b906000526020600020015484106125b8578460030160018261258c9190613e3d565b8154811061259d5761259c613f10565b5b906000526020600020015492506125b383613253565b612604565b6125c183613253565b6125ff6040518060400160405280600281526020017f62720000000000000000000000000000000000000000000000000000000000008152506132ec565b612611565b808060010191505061254c565b50819450505050505b919050565b600c60009054906101000a900473ffffffffffffffffffffffffffffffffffffffff1681565b6000600f60008481526020019081526020016000209050600d60009054906101000a900473ffffffffffffffffffffffffffffffffffffffff1673ffffffffffffffffffffffffffffffffffffffff16631a179451338360040160009054906101000a900473ffffffffffffffffffffffffffffffffffffffff166040518363ffffffff1660e01b81526004016126dd929190613c95565b602060405180830381865afa1580156126fa573d6000803e3d6000fd5b505050506040513d601f19601f8201168201806040525081019061271e9190613cd3565b612754576040517fc19f17a900000000000000000000000000000000000000000000000000000000815260040160405180910390fd5b600c60009054906101000a900473ffffffffffffffffffffffffffffffffffffffff1673ffffffffffffffffffffffffffffffffffffffff1663933a6f0d84846040518363ffffffff1660e01b81526004016127b192919061358d565b600060405180830381600087803b1580156127cb57600080fd5b505af11580156127df573d6000803e3d6000fd5b50505050505050565b600260009054906101000a900473ffffffffffffffffffffffffffffffffffffffff1681565b6000600f600083815260200190815260200160002090506000600a6000848152602001908152602001600020805490509050600d60009054906101000a900473ffffffffffffffffffffffffffffffffffffffff1673ffffffffffffffffffffffffffffffffffffffff16631a179451338460040160009054906101000a900473ffffffffffffffffffffffffffffffffffffffff166040518363ffffffff1660e01b81526004016128c1929190613c95565b602060405180830381865afa1580156128de573d6000803e3d6000fd5b505050506040513d601f19601f820116820180604052508101906129029190613cd3565b612938576040517fc19f17a900000000000000000000000000000000000000000000000000000000815260040160405180910390fd5b42826001015411801561294e5750816000015481105b1561299557808260000181905550827f1c038487ab9d72a04e7dccf91e75853fde86cf1ad4ea22d5cd4c9c928ea3142f8260405161298c919061364e565b60405180910390a25b505050565b600b6020528060005260406000206000915090505481565b600860205281600052604060002081815481106129ce57600080fd5b90600052602060002001600091509150505481565b600160009054906101000a900473ffffffffffffffffffffffffffffffffffffffff1681565b60056020528060005260406000206000915090505481565b600f6020528060005260406000206000915090508060000154908060010154908060040160009054906101000a900473ffffffffffffffffffffffffffffffffffffffff16908060040160149054906101000a900460ff16908060050160009054906101000a900473ffffffffffffffffffffffffffffffffffffffff16908060050160149054906101000a900460ff16905086565b60005481565b60606000600a6000848152602001908152602001600020805480602002602001604051908101604052809291908181526020018280548015612b1e57602002820191906000526020600020905b815481526020019060010190808311612b0a575b5050505050905080915050919050565b84849050600188889050612b429190613eb3565b141580612b525750600287879050105b80612b605750600587879050115b80612b865750600185856000818110612b7c57612b7b613f10565b5b9050602002013511155b80612bb85750888585600188889050612b9f9190613eb3565b818110612baf57612bae613f10565b5b90506020020135115b80612bc4575061038488105b15612bfb576040517f35be3ac800000000000000000000000000000000000000000000000000000000815260040160405180910390fd5b600d60009054906101000a900473ffffffffffffffffffffffffffffffffffffffff1673ffffffffffffffffffffffffffffffffffffffff16631a17945133856040518363ffffffff1660e01b8152600401612c58929190613c95565b602060405180830381865afa158015612c75573d6000803e3d6000fd5b505050506040513d601f19601f82011682018060405250810190612c999190613cd3565b612ccf576040517fc19f17a900000000000000000000000000000000000000000000000000000000815260040160405180910390fd5b60005b87879050811015612dbd576000888883818110612cf257612cf1613f10565b5b9050602002013503612d30576040517f35be3ac800000000000000000000000000000000000000000000000000000000815260040160405180910390fd5b60008114612db0578787600183612d479190613eb3565b818110612d5757612d56613f10565b5b90506020020135888883818110612d7157612d70613f10565b5b9050602002013510612daf576040517f35be3ac800000000000000000000000000000000000000000000000000000000815260040160405180910390fd5b5b8080600101915050612cd2565b506001858590501115612e62576000600190505b85859050811015612e60578585600183612deb9190613eb3565b818110612dfb57612dfa613f10565b5b90506020020135868683818110612e1557612e14613f10565b5b9050602002013511612e53576040517f35be3ac800000000000000000000000000000000000000000000000000000000815260040160405180910390fd5b8080600101915050612dd1565b505b6000600f6000600e54815260200190815260200160002090508981600001819055508585826002019190612e979291906133cb565b50838160040160006101000a81548173ffffffffffffffffffffffffffffffffffffffff021916908373ffffffffffffffffffffffffffffffffffffffff1602179055508842612ee79190613e3d565b81600101819055508787826003019190612f029291906133cb565b50828160050160006101000a81548173ffffffffffffffffffffffffffffffffffffffff021916908373ffffffffffffffffffffffffffffffffffffffff160217905550818160050160146101000a81548160ff0219169083151502179055508273ffffffffffffffffffffffffffffffffffffffff16600e548573ffffffffffffffffffffffffffffffffffffffff167f262d16d362ac721d980fea1b3d0326feb86cd621739667af16f7d42486acad438d428e612fc19190613e3d565b8b8b8f8f8b604051612fd99796959493929190614403565b60405180910390a4600860008573ffffffffffffffffffffffffffffffffffffffff1673ffffffffffffffffffffffffffffffffffffffff168152602001908152602001600020600e54908060018154018082558091505060019003906000526020600020016000909190919091505581156130e157600c60009054906101000a900473ffffffffffffffffffffffffffffffffffffffff1673ffffffffffffffffffffffffffffffffffffffff166335b20baf600e54866040518363ffffffff1660e01b81526004016130ae929190614468565b600060405180830381600087803b1580156130c857600080fd5b505af11580156130dc573d6000803e3d6000fd5b505050505b6001600e60008282546130f49190613e3d565b9250508190555050505050505050505050565b600a602052816000526040600020818154811061312357600080fd5b90600052602060002001600091509150505481565b600e5481565b600160009054906101000a900473ffffffffffffffffffffffffffffffffffffffff1673ffffffffffffffffffffffffffffffffffffffff163373ffffffffffffffffffffffffffffffffffffffff16146131ce576040517f08c379a00000000000000000000000000000000000000000000000000000000081526004016131c590613c75565b60405180910390fd5b80600360006101000a81548173ffffffffffffffffffffffffffffffffffffffff021916908373ffffffffffffffffffffffffffffffffffffffff16021790555080600d60006101000a81548173ffffffffffffffffffffffffffffffffffffffff021916908373ffffffffffffffffffffffffffffffffffffffff16021790555050565b6132e981604051602401613267919061364e565b6040516020818303038152906040527ff82c50f1000000000000000000000000000000000000000000000000000000007bffffffffffffffffffffffffffffffffffffffffffffffffffffffff19166020820180517bffffffffffffffffffffffffffffffffffffffffffffffffffffffff8381831617835250505050613385565b50565b6133828160405160240161330091906144d5565b6040516020818303038152906040527f41304fac000000000000000000000000000000000000000000000000000000007bffffffffffffffffffffffffffffffffffffffffffffffffffffffff19166020820180517bffffffffffffffffffffffffffffffffffffffffffffffffffffffff8381831617835250505050613385565b50565b61339c8161339461339f6133c0565b63ffffffff16565b50565b60006a636f6e736f6c652e6c6f679050600080835160208501845afa505050565b613418819050919050565b828054828255906000526020600020908101928215613407579160200282015b828111156134065782358255916020019190600101906133eb565b5b5090506134149190613422565b5090565b6134206144f7565b565b5b8082111561343b576000816000905550600101613423565b5090565b6000604051905090565b600080fd5b600080fd5b600073ffffffffffffffffffffffffffffffffffffffff82169050919050565b600061347e82613453565b9050919050565b61348e81613473565b811461349957600080fd5b50565b6000813590506134ab81613485565b92915050565b6000819050919050565b6134c4816134b1565b81146134cf57600080fd5b50565b6000813590506134e1816134bb565b92915050565b600080604083850312156134fe576134fd613449565b5b600061350c8582860161349c565b925050602061351d858286016134d2565b9150509250929050565b61353081613473565b82525050565b600060208201905061354b6000830184613527565b92915050565b60006020828403121561356757613566613449565b5b6000613575848285016134d2565b91505092915050565b613587816134b1565b82525050565b60006040820190506135a2600083018561357e565b6135af602083018461357e565b9392505050565b60006135c182613453565b9050919050565b6135d1816135b6565b81146135dc57600080fd5b50565b6000813590506135ee816135c8565b92915050565b60006020828403121561360a57613609613449565b5b6000613618848285016135df565b91505092915050565b60006020828403121561363757613636613449565b5b60006136458482850161349c565b91505092915050565b6000602082019050613663600083018461357e565b92915050565b600080604083850312156136805761367f613449565b5b600061368e858286016134d2565b925050602061369f858286016134d2565b9150509250929050565b600080604083850312156136c0576136bf613449565b5b60006136ce8582860161349c565b92505060206136df8582860161349c565b9150509250929050565b60008115159050919050565b6136fe816136e9565b82525050565b600060208201905061371960008301846136f5565b92915050565b600081519050919050565b600082825260208201905092915050565b6000819050602082019050919050565b613754816134b1565b82525050565b6000613766838361374b565b60208301905092915050565b6000602082019050919050565b600061378a8261371f565b613794818561372a565b935061379f8361373b565b8060005b838110156137d05781516137b7888261375a565b97506137c283613772565b9250506001810190506137a3565b5085935050505092915050565b600060208201905081810360008301526137f7818461377f565b905092915050565b600061010082019050613815600083018b61357e565b613822602083018a61357e565b8181036040830152613834818961377f565b90508181036060830152613848818861377f565b90506138576080830187613527565b61386460a08301866136f5565b61387160c0830185613527565b61387e60e08301846136f5565b9998505050505050505050565b600080fd5b600080fd5b600080fd5b60008083601f8401126138b0576138af61388b565b5b8235905067ffffffffffffffff8111156138cd576138cc613890565b5b6020830191508360018202830111156138e9576138e8613895565b5b9250929050565b60008060006040848603121561390957613908613449565b5b6000613917868287016134d2565b935050602084013567ffffffffffffffff8111156139385761393761344e565b5b6139448682870161389a565b92509250509250925092565b60008083601f8401126139665761396561388b565b5b8235905067ffffffffffffffff81111561398357613982613890565b5b60208301915083602082028301111561399f5761399e613895565b5b9250929050565b600080602083850312156139bd576139bc613449565b5b600083013567ffffffffffffffff8111156139db576139da61344e565b5b6139e785828601613950565b92509250509250929050565b6000819050919050565b6000613a18613a13613a0e84613453565b6139f3565b613453565b9050919050565b6000613a2a826139fd565b9050919050565b6000613a3c82613a1f565b9050919050565b613a4c81613a31565b82525050565b6000602082019050613a676000830184613a43565b92915050565b6000613a7882613a1f565b9050919050565b613a8881613a6d565b82525050565b6000602082019050613aa36000830184613a7f565b92915050565b600060c082019050613abe600083018961357e565b613acb602083018861357e565b613ad86040830187613527565b613ae560608301866136f5565b613af26080830185613527565b613aff60a08301846136f5565b979650505050505050565b613b13816136e9565b8114613b1e57600080fd5b50565b600081359050613b3081613b0a565b92915050565b600080600080600080600080600060e08a8c031215613b5857613b57613449565b5b6000613b668c828d016134d2565b9950506020613b778c828d016134d2565b98505060408a013567ffffffffffffffff811115613b9857613b9761344e565b5b613ba48c828d01613950565b975097505060608a013567ffffffffffffffff811115613bc757613bc661344e565b5b613bd38c828d01613950565b95509550506080613be68c828d0161349c565b93505060a0613bf78c828d0161349c565b92505060c0613c088c828d01613b21565b9150509295985092959850929598565b600082825260208201905092915050565b7f4e6f744f776e6572000000000000000000000000000000000000000000000000600082015250565b6000613c5f600883613c18565b9150613c6a82613c29565b602082019050919050565b60006020820190508181036000830152613c8e81613c52565b9050919050565b6000604082019050613caa6000830185613527565b613cb76020830184613527565b9392505050565b600081519050613ccd81613b0a565b92915050565b600060208284031215613ce957613ce8613449565b5b6000613cf784828501613cbe565b91505092915050565b7f496e656c696769626c6500000000000000000000000000000000000000000000600082015250565b6000613d36600a83613c18565b9150613d4182613d00565b602082019050919050565b60006020820190508181036000830152613d6581613d29565b9050919050565b7f4e487b7100000000000000000000000000000000000000000000000000000000600052601160045260246000fd5b6000613da6826134b1565b9150613db1836134b1565b9250828202613dbf816134b1565b91508282048414831517613dd657613dd5613d6c565b5b5092915050565b7f4e487b7100000000000000000000000000000000000000000000000000000000600052601260045260246000fd5b6000613e17826134b1565b9150613e22836134b1565b925082613e3257613e31613ddd565b5b828204905092915050565b6000613e48826134b1565b9150613e53836134b1565b9250828201905080821115613e6b57613e6a613d6c565b5b92915050565b600081519050613e8081613485565b92915050565b600060208284031215613e9c57613e9b613449565b5b6000613eaa84828501613e71565b91505092915050565b6000613ebe826134b1565b9150613ec9836134b1565b9250828203905081811115613ee157613ee0613d6c565b5b92915050565b6000604082019050613efc6000830185613527565b613f09602083018461357e565b9392505050565b7f4e487b7100000000000000000000000000000000000000000000000000000000600052603260045260246000fd5b6000606082019050613f546000830186613527565b613f616020830185613527565b613f6e604083018461357e565b949350505050565b6000608082019050613f8b6000830187613527565b613f98602083018661357e565b613fa5604083018561357e565b613fb2606083018461357e565b95945050505050565b600081519050613fca816134bb565b92915050565b600060208284031215613fe657613fe5613449565b5b6000613ff484828501613fbb565b91505092915050565b6000608082019050614012600083018761357e565b61401f602083018661357e565b61402c604083018561357e565b614039606083018461357e565b95945050505050565b7f496e760000000000000000000000000000000000000000000000000000000000600082015250565b6000614078600383613c18565b915061408382614042565b602082019050919050565b600060208201905081810360008301526140a78161406b565b9050919050565b600080fd5b6000601f19601f8301169050919050565b7f4e487b7100000000000000000000000000000000000000000000000000000000600052604160045260246000fd5b6140fc826140b3565b810181811067ffffffffffffffff8211171561411b5761411a6140c4565b5b80604052505050565b600061412e61343f565b905061413a82826140f3565b919050565b600067ffffffffffffffff82111561415a576141596140c4565b5b614163826140b3565b9050602081019050919050565b60005b8381101561418e578082015181840152602081019050614173565b60008484015250505050565b60006141ad6141a88461413f565b614124565b9050828152602081018484840111156141c9576141c86140ae565b5b6141d4848285614170565b509392505050565b600082601f8301126141f1576141f061388b565b5b815161420184826020860161419a565b91505092915050565b6000602082840312156142205761421f613449565b5b600082015167ffffffffffffffff81111561423e5761423d61344e565b5b61424a848285016141dc565b91505092915050565b82818337600083830152505050565b600061426e8385613c18565b935061427b838584614253565b614284836140b3565b840190509392505050565b60006040820190506142a4600083018661357e565b81810360208301526142b7818486614262565b9050949350505050565b7f496e76616c696400000000000000000000000000000000000000000000000000600082015250565b60006142f7600783613c18565b9150614302826142c1565b602082019050919050565b60006020820190508181036000830152614326816142ea565b9050919050565b7f4e6f74206f776e65640000000000000000000000000000000000000000000000600082015250565b6000614363600983613c18565b915061436e8261432d565b602082019050919050565b6000602082019050818103600083015261439281614356565b9050919050565b600080fd5b82818337505050565b60006143b3838561372a565b93507f07ffffffffffffffffffffffffffffffffffffffffffffffffffffffffffffff8311156143e6576143e5614399565b5b6020830292506143f783858461439e565b82840190509392505050565b600060a082019050614418600083018a61357e565b614425602083018961357e565b81810360408301526144388187896143a7565b9050818103606083015261444d8185876143a7565b905061445c60808301846136f5565b98975050505050505050565b600060408201905061447d600083018561357e565b61448a6020830184613527565b9392505050565b600081519050919050565b60006144a782614491565b6144b18185613c18565b93506144c1818560208601614170565b6144ca816140b3565b840191505092915050565b600060208201905081810360008301526144ef818461449c565b905092915050565b7f4e487b7100000000000000000000000000000000000000000000000000000000600052605160045260246000fdfea2646970667358221220102664fabafd242b9a00398ae4cc1efeb744892e05156f810b3ae4db1b5ed79e64736f6c63430008180033",
  "devdoc": {
    "kind": "dev",
    "methods": {},
    "version": 1
  },
  "userdoc": {
    "kind": "user",
    "methods": {},
    "version": 1
  },
  "storageLayout": {
    "storage": [
      {
        "astId": 1604,
        "contract": "contracts/SnowballManagerv3.sol:SnowballManager",
        "label": "commission",
        "offset": 0,
        "slot": "0",
        "type": "t_uint256"
      },
      {
        "astId": 1606,
        "contract": "contracts/SnowballManagerv3.sol:SnowballManager",
        "label": "contractOwner",
        "offset": 0,
        "slot": "1",
        "type": "t_address"
      },
      {
        "astId": 1608,
        "contract": "contracts/SnowballManagerv3.sol:SnowballManager",
        "label": "receiptManagerAddress",
        "offset": 0,
        "slot": "2",
        "type": "t_address"
      },
      {
        "astId": 1610,
        "contract": "contracts/SnowballManagerv3.sol:SnowballManager",
        "label": "promotionsManagerAddress",
        "offset": 0,
        "slot": "3",
        "type": "t_address"
      },
      {
        "astId": 1614,
        "contract": "contracts/SnowballManagerv3.sol:SnowballManager",
        "label": "earnedCommissions",
        "offset": 0,
        "slot": "4",
        "type": "t_mapping(t_address,t_uint256)"
      },
      {
        "astId": 1618,
        "contract": "contracts/SnowballManagerv3.sol:SnowballManager",
        "label": "withdrawnCommissions",
        "offset": 0,
        "slot": "5",
        "type": "t_mapping(t_address,t_uint256)"
      },
      {
        "astId": 1624,
        "contract": "contracts/SnowballManagerv3.sol:SnowballManager",
        "label": "approvedOperators",
        "offset": 0,
        "slot": "6",
        "type": "t_mapping(t_address,t_mapping(t_address,t_bool))"
      },
      {
        "astId": 1629,
        "contract": "contracts/SnowballManagerv3.sol:SnowballManager",
        "label": "arrayOfApprovedOperators",
        "offset": 0,
        "slot": "7",
        "type": "t_mapping(t_address,t_array(t_address)dyn_storage)"
      },
      {
        "astId": 1634,
        "contract": "contracts/SnowballManagerv3.sol:SnowballManager",
        "label": "addressToPromotions",
        "offset": 0,
        "slot": "8",
        "type": "t_mapping(t_address,t_array(t_uint256)dyn_storage)"
      },
      {
        "astId": 1638,
        "contract": "contracts/SnowballManagerv3.sol:SnowballManager",
        "label": "unmintedReceiptsToOwners",
        "offset": 0,
        "slot": "9",
        "type": "t_mapping(t_uint256,t_address)"
      },
      {
        "astId": 1643,
        "contract": "contracts/SnowballManagerv3.sol:SnowballManager",
        "label": "promotionIDToReceiptIDs",
        "offset": 0,
        "slot": "10",
        "type": "t_mapping(t_uint256,t_array(t_uint256)dyn_storage)"
      },
      {
        "astId": 1647,
        "contract": "contracts/SnowballManagerv3.sol:SnowballManager",
        "label": "receiptIDToPromotionID",
        "offset": 0,
        "slot": "11",
        "type": "t_mapping(t_uint256,t_uint256)"
      },
      {
        "astId": 1650,
        "contract": "contracts/SnowballManagerv3.sol:SnowballManager",
        "label": "receiptManager",
        "offset": 0,
        "slot": "12",
        "type": "t_contract(IReceiptManager)12266"
      },
      {
        "astId": 1653,
        "contract": "contracts/SnowballManagerv3.sol:SnowballManager",
        "label": "promotionsManager",
        "offset": 0,
        "slot": "13",
        "type": "t_contract(IPromotionsManager)12208"
      },
      {
        "astId": 2861,
        "contract": "contracts/SnowballManagerv3.sol:SnowballManager",
        "label": "snowballIDs",
        "offset": 0,
        "slot": "14",
        "type": "t_uint256"
      },
      {
        "astId": 2869,
        "contract": "contracts/SnowballManagerv3.sol:SnowballManager",
        "label": "Snowballs",
        "offset": 0,
        "slot": "15",
        "type": "t_mapping(t_uint256,t_struct(Snowball)2853_storage)"
      },
      {
        "astId": 2874,
        "contract": "contracts/SnowballManagerv3.sol:SnowballManager",
        "label": "SnowballReceipts",
        "offset": 0,
        "slot": "16",
        "type": "t_mapping(t_uint256,t_struct(SnowballReceipt)2858_storage)"
      }
    ],
    "types": {
      "t_address": {
        "encoding": "inplace",
        "label": "address",
        "numberOfBytes": "20"
      },
      "t_array(t_address)dyn_storage": {
        "base": "t_address",
        "encoding": "dynamic_array",
        "label": "address[]",
        "numberOfBytes": "32"
      },
      "t_array(t_uint256)dyn_storage": {
        "base": "t_uint256",
        "encoding": "dynamic_array",
        "label": "uint256[]",
        "numberOfBytes": "32"
      },
      "t_bool": {
        "encoding": "inplace",
        "label": "bool",
        "numberOfBytes": "1"
      },
      "t_contract(IPromotionsManager)12208": {
        "encoding": "inplace",
        "label": "contract IPromotionsManager",
        "numberOfBytes": "20"
      },
      "t_contract(IReceiptManager)12266": {
        "encoding": "inplace",
        "label": "contract IReceiptManager",
        "numberOfBytes": "20"
      },
      "t_mapping(t_address,t_array(t_address)dyn_storage)": {
        "encoding": "mapping",
        "key": "t_address",
        "label": "mapping(address => address[])",
        "numberOfBytes": "32",
        "value": "t_array(t_address)dyn_storage"
      },
      "t_mapping(t_address,t_array(t_uint256)dyn_storage)": {
        "encoding": "mapping",
        "key": "t_address",
        "label": "mapping(address => uint256[])",
        "numberOfBytes": "32",
        "value": "t_array(t_uint256)dyn_storage"
      },
      "t_mapping(t_address,t_bool)": {
        "encoding": "mapping",
        "key": "t_address",
        "label": "mapping(address => bool)",
        "numberOfBytes": "32",
        "value": "t_bool"
      },
      "t_mapping(t_address,t_mapping(t_address,t_bool))": {
        "encoding": "mapping",
        "key": "t_address",
        "label": "mapping(address => mapping(address => bool))",
        "numberOfBytes": "32",
        "value": "t_mapping(t_address,t_bool)"
      },
      "t_mapping(t_address,t_uint256)": {
        "encoding": "mapping",
        "key": "t_address",
        "label": "mapping(address => uint256)",
        "numberOfBytes": "32",
        "value": "t_uint256"
      },
      "t_mapping(t_uint256,t_address)": {
        "encoding": "mapping",
        "key": "t_uint256",
        "label": "mapping(uint256 => address)",
        "numberOfBytes": "32",
        "value": "t_address"
      },
      "t_mapping(t_uint256,t_array(t_uint256)dyn_storage)": {
        "encoding": "mapping",
        "key": "t_uint256",
        "label": "mapping(uint256 => uint256[])",
        "numberOfBytes": "32",
        "value": "t_array(t_uint256)dyn_storage"
      },
      "t_mapping(t_uint256,t_struct(Snowball)2853_storage)": {
        "encoding": "mapping",
        "key": "t_uint256",
        "label": "mapping(uint256 => struct SnowballManager.Snowball)",
        "numberOfBytes": "32",
        "value": "t_struct(Snowball)2853_storage"
      },
      "t_mapping(t_uint256,t_struct(SnowballReceipt)2858_storage)": {
        "encoding": "mapping",
        "key": "t_uint256",
        "label": "mapping(uint256 => struct SnowballManager.SnowballReceipt)",
        "numberOfBytes": "32",
        "value": "t_struct(SnowballReceipt)2858_storage"
      },
      "t_mapping(t_uint256,t_uint256)": {
        "encoding": "mapping",
        "key": "t_uint256",
        "label": "mapping(uint256 => uint256)",
        "numberOfBytes": "32",
        "value": "t_uint256"
      },
      "t_struct(Snowball)2853_storage": {
        "encoding": "inplace",
        "label": "struct SnowballManager.Snowball",
        "members": [
          {
            "astId": 2836,
            "contract": "contracts/SnowballManagerv3.sol:SnowballManager",
            "label": "maxSlots",
            "offset": 0,
            "slot": "0",
            "type": "t_uint256"
          },
          {
            "astId": 2838,
            "contract": "contracts/SnowballManagerv3.sol:SnowballManager",
            "label": "endTime",
            "offset": 0,
            "slot": "1",
            "type": "t_uint256"
          },
          {
            "astId": 2841,
            "contract": "contracts/SnowballManagerv3.sol:SnowballManager",
            "label": "thresholds",
            "offset": 0,
            "slot": "2",
            "type": "t_array(t_uint256)dyn_storage"
          },
          {
            "astId": 2844,
            "contract": "contracts/SnowballManagerv3.sol:SnowballManager",
            "label": "cohortPrices",
            "offset": 0,
            "slot": "3",
            "type": "t_array(t_uint256)dyn_storage"
          },
          {
            "astId": 2846,
            "contract": "contracts/SnowballManagerv3.sol:SnowballManager",
            "label": "owner",
            "offset": 0,
            "slot": "4",
            "type": "t_address"
          },
          {
            "astId": 2848,
            "contract": "contracts/SnowballManagerv3.sol:SnowballManager",
            "label": "returnedCustody",
            "offset": 20,
            "slot": "4",
            "type": "t_bool"
          },
          {
            "astId": 2850,
            "contract": "contracts/SnowballManagerv3.sol:SnowballManager",
            "label": "erc20Token",
            "offset": 0,
            "slot": "5",
            "type": "t_address"
          },
          {
            "astId": 2852,
            "contract": "contracts/SnowballManagerv3.sol:SnowballManager",
            "label": "mintReceipts",
            "offset": 20,
            "slot": "5",
            "type": "t_bool"
          }
        ],
        "numberOfBytes": "192"
      },
      "t_struct(SnowballReceipt)2858_storage": {
        "encoding": "inplace",
        "label": "struct SnowballManager.SnowballReceipt",
        "members": [
          {
            "astId": 2855,
            "contract": "contracts/SnowballManagerv3.sol:SnowballManager",
            "label": "snowballID",
            "offset": 0,
            "slot": "0",
            "type": "t_uint256"
          },
          {
            "astId": 2857,
            "contract": "contracts/SnowballManagerv3.sol:SnowballManager",
            "label": "effectivePricePaid",
            "offset": 0,
            "slot": "1",
            "type": "t_uint256"
          }
        ],
        "numberOfBytes": "64"
      },
      "t_uint256": {
        "encoding": "inplace",
        "label": "uint256",
        "numberOfBytes": "32"
      }
    }
  }
}