{
  "address": "0x7b767cCEcB60c092D97DF077b350D92334F74621",
  "abi": [
    {
      "inputs": [
        {
          "internalType": "address",
          "name": "vrfCoordinatorV2",
          "type": "address"
        },
        {
          "internalType": "bytes32",
          "name": "gasLane",
          "type": "bytes32"
        },
        {
          "internalType": "uint64",
          "name": "subscriptionId",
          "type": "uint64"
        },
        {
          "internalType": "uint32",
          "name": "callbackGasLimit",
          "type": "uint32"
        },
        {
          "internalType": "uint256",
          "name": "interval",
          "type": "uint256"
        }
      ],
      "stateMutability": "nonpayable",
      "type": "constructor"
    },
    {
      "inputs": [
        {
          "internalType": "address",
          "name": "have",
          "type": "address"
        },
        {
          "internalType": "address",
          "name": "want",
          "type": "address"
        }
      ],
      "name": "OnlyCoordinatorCanFulfill",
      "type": "error"
    },
    {
      "inputs": [],
      "name": "Snowball_Expired",
      "type": "error"
    },
    {
      "inputs": [],
      "name": "Snowball_InsufficientFund",
      "type": "error"
    },
    {
      "anonymous": false,
      "inputs": [
        {
          "indexed": false,
          "internalType": "uint256",
          "name": "snowballId",
          "type": "uint256"
        }
      ],
      "name": "SnowballCreated",
      "type": "event"
    },
    {
      "inputs": [],
      "name": "MINIMUM_PRICE",
      "outputs": [
        {
          "internalType": "uint256",
          "name": "",
          "type": "uint256"
        }
      ],
      "stateMutability": "view",
      "type": "function"
    },
    {
      "inputs": [],
      "name": "SNOWBALL_COST",
      "outputs": [
        {
          "internalType": "uint256",
          "name": "",
          "type": "uint256"
        }
      ],
      "stateMutability": "view",
      "type": "function"
    },
    {
      "inputs": [
        {
          "internalType": "uint256",
          "name": "",
          "type": "uint256"
        }
      ],
      "name": "activeSnowballContracts",
      "outputs": [
        {
          "internalType": "uint256",
          "name": "id",
          "type": "uint256"
        },
        {
          "internalType": "uint256",
          "name": "maxSlots",
          "type": "uint256"
        },
        {
          "internalType": "uint256",
          "name": "price",
          "type": "uint256"
        },
        {
          "internalType": "uint256",
          "name": "duration",
          "type": "uint256"
        },
        {
          "internalType": "address payable",
          "name": "owner",
          "type": "address"
        },
        {
          "internalType": "uint256",
          "name": "startTime",
          "type": "uint256"
        },
        {
          "internalType": "enum Snowball.State",
          "name": "snowballState",
          "type": "uint8"
        },
        {
          "internalType": "uint256",
          "name": "targetThresholdIndex",
          "type": "uint256"
        },
        {
          "internalType": "uint256",
          "name": "balance",
          "type": "uint256"
        },
        {
          "internalType": "bool",
          "name": "maxDiscount",
          "type": "bool"
        }
      ],
      "stateMutability": "view",
      "type": "function"
    },
    {
      "inputs": [
        {
          "internalType": "uint256",
          "name": "",
          "type": "uint256"
        }
      ],
      "name": "allSnowballContracts",
      "outputs": [
        {
          "internalType": "uint256",
          "name": "id",
          "type": "uint256"
        },
        {
          "internalType": "uint256",
          "name": "maxSlots",
          "type": "uint256"
        },
        {
          "internalType": "uint256",
          "name": "price",
          "type": "uint256"
        },
        {
          "internalType": "uint256",
          "name": "duration",
          "type": "uint256"
        },
        {
          "internalType": "address payable",
          "name": "owner",
          "type": "address"
        },
        {
          "internalType": "uint256",
          "name": "startTime",
          "type": "uint256"
        },
        {
          "internalType": "enum Snowball.State",
          "name": "snowballState",
          "type": "uint8"
        },
        {
          "internalType": "uint256",
          "name": "targetThresholdIndex",
          "type": "uint256"
        },
        {
          "internalType": "uint256",
          "name": "balance",
          "type": "uint256"
        },
        {
          "internalType": "bool",
          "name": "maxDiscount",
          "type": "bool"
        }
      ],
      "stateMutability": "view",
      "type": "function"
    },
    {
      "inputs": [
        {
          "internalType": "bytes",
          "name": "",
          "type": "bytes"
        }
      ],
      "name": "checkUpkeep",
      "outputs": [
        {
          "internalType": "bool",
          "name": "upkeepNeeded",
          "type": "bool"
        },
        {
          "internalType": "bytes",
          "name": "performData",
          "type": "bytes"
        }
      ],
      "stateMutability": "view",
      "type": "function"
    },
    {
      "inputs": [
        {
          "internalType": "uint256",
          "name": "_maxSlots",
          "type": "uint256"
        },
        {
          "internalType": "uint256",
          "name": "_price",
          "type": "uint256"
        },
        {
          "internalType": "uint256",
          "name": "_duration",
          "type": "uint256"
        },
        {
          "internalType": "uint256[]",
          "name": "_payouts",
          "type": "uint256[]"
        },
        {
          "internalType": "uint256[]",
          "name": "_thresholds",
          "type": "uint256[]"
        }
      ],
      "name": "createSnowball",
      "outputs": [
        {
          "internalType": "uint256",
          "name": "",
          "type": "uint256"
        }
      ],
      "stateMutability": "payable",
      "type": "function"
    },
    {
      "inputs": [
        {
          "internalType": "uint256",
          "name": "snowballID",
          "type": "uint256"
        }
      ],
      "name": "getSnowball",
      "outputs": [
        {
          "internalType": "uint256",
          "name": "id",
          "type": "uint256"
        },
        {
          "internalType": "uint256",
          "name": "maxSlots",
          "type": "uint256"
        },
        {
          "internalType": "uint256",
          "name": "price",
          "type": "uint256"
        },
        {
          "internalType": "uint256",
          "name": "duration",
          "type": "uint256"
        },
        {
          "internalType": "uint256[]",
          "name": "payouts",
          "type": "uint256[]"
        },
        {
          "internalType": "uint256[]",
          "name": "thresholds",
          "type": "uint256[]"
        },
        {
          "internalType": "address payable",
          "name": "owner",
          "type": "address"
        },
        {
          "internalType": "uint256",
          "name": "startTime",
          "type": "uint256"
        },
        {
          "internalType": "uint256",
          "name": "snowballState",
          "type": "uint256"
        },
        {
          "internalType": "uint256",
          "name": "balance",
          "type": "uint256"
        },
        {
          "internalType": "bool",
          "name": "maxDiscount",
          "type": "bool"
        },
        {
          "internalType": "uint256",
          "name": "numParticipants",
          "type": "uint256"
        }
      ],
      "stateMutability": "view",
      "type": "function"
    },
    {
      "inputs": [
        {
          "internalType": "uint256",
          "name": "id",
          "type": "uint256"
        }
      ],
      "name": "joinContract",
      "outputs": [],
      "stateMutability": "payable",
      "type": "function"
    },
    {
      "inputs": [
        {
          "internalType": "uint256",
          "name": "id",
          "type": "uint256"
        }
      ],
      "name": "payParticipants",
      "outputs": [
        {
          "internalType": "bool",
          "name": "",
          "type": "bool"
        }
      ],
      "stateMutability": "nonpayable",
      "type": "function"
    },
    {
      "inputs": [
        {
          "internalType": "bytes",
          "name": "performData",
          "type": "bytes"
        }
      ],
      "name": "performUpkeep",
      "outputs": [],
      "stateMutability": "nonpayable",
      "type": "function"
    },
    {
      "inputs": [
        {
          "internalType": "uint256",
          "name": "requestId",
          "type": "uint256"
        },
        {
          "internalType": "uint256[]",
          "name": "randomWords",
          "type": "uint256[]"
        }
      ],
      "name": "rawFulfillRandomWords",
      "outputs": [],
      "stateMutability": "nonpayable",
      "type": "function"
    },
    {
      "inputs": [
        {
          "internalType": "uint256",
          "name": "index",
          "type": "uint256"
        }
      ],
      "name": "returnArray",
      "outputs": [
        {
          "internalType": "address",
          "name": "",
          "type": "address"
        }
      ],
      "stateMutability": "nonpayable",
      "type": "function"
    },
    {
      "inputs": [
        {
          "internalType": "uint256",
          "name": "",
          "type": "uint256"
        }
      ],
      "name": "s_idToSnowball",
      "outputs": [
        {
          "internalType": "uint256",
          "name": "id",
          "type": "uint256"
        },
        {
          "internalType": "uint256",
          "name": "maxSlots",
          "type": "uint256"
        },
        {
          "internalType": "uint256",
          "name": "price",
          "type": "uint256"
        },
        {
          "internalType": "uint256",
          "name": "duration",
          "type": "uint256"
        },
        {
          "internalType": "address payable",
          "name": "owner",
          "type": "address"
        },
        {
          "internalType": "uint256",
          "name": "startTime",
          "type": "uint256"
        },
        {
          "internalType": "enum Snowball.State",
          "name": "snowballState",
          "type": "uint8"
        },
        {
          "internalType": "uint256",
          "name": "targetThresholdIndex",
          "type": "uint256"
        },
        {
          "internalType": "uint256",
          "name": "balance",
          "type": "uint256"
        },
        {
          "internalType": "bool",
          "name": "maxDiscount",
          "type": "bool"
        }
      ],
      "stateMutability": "view",
      "type": "function"
    },
    {
      "inputs": [
        {
          "internalType": "uint256[]",
          "name": "arr",
          "type": "uint256[]"
        },
        {
          "internalType": "uint256",
          "name": "start",
          "type": "uint256"
        },
        {
          "internalType": "uint256",
          "name": "end",
          "type": "uint256"
        }
      ],
      "name": "sumArray",
      "outputs": [
        {
          "internalType": "uint256",
          "name": "result",
          "type": "uint256"
        }
      ],
      "stateMutability": "pure",
      "type": "function"
    },
    {
      "inputs": [
        {
          "internalType": "uint256[]",
          "name": "a",
          "type": "uint256[]"
        },
        {
          "internalType": "uint256[]",
          "name": "b",
          "type": "uint256[]"
        }
      ],
      "name": "testCreate",
      "outputs": [],
      "stateMutability": "nonpayable",
      "type": "function"
    }
  ],
  "transactionHash": "0xb4f5df8b3b0ec6df5a4235e649243d1b1336a4464cbb0536ab84a17a81f04027",
  "args": [
    "0x8103B0A8A00be2DDC778e6e7eaa21791Cd364625",
    "0x474e34a077df58807dbe9c96d3c009b23b3c6d0cce433e59bbf5b34f823bc56c",
    "0",
    "500000",
    "30"
  ],
  "numDeployments": 1,
  "solcInputHash": "22e2b4beba79018727e8c35f3e54cfe0",
  "bytecode": "0x6101406040523480156200001257600080fd5b50604051620035773803806200357783398181016040528101906200003891906200025c565b848073ffffffffffffffffffffffffffffffffffffffff1660808173ffffffffffffffffffffffffffffffffffffffff1681525050508473ffffffffffffffffffffffffffffffffffffffff1660a08173ffffffffffffffffffffffffffffffffffffffff16815250508360c081815250508267ffffffffffffffff1660e08167ffffffffffffffff16815250508163ffffffff166101008163ffffffff1681525050426003819055508061012081815250505050505050620002e4565b600080fd5b600073ffffffffffffffffffffffffffffffffffffffff82169050919050565b60006200012882620000fb565b9050919050565b6200013a816200011b565b81146200014657600080fd5b50565b6000815190506200015a816200012f565b92915050565b6000819050919050565b620001758162000160565b81146200018157600080fd5b50565b60008151905062000195816200016a565b92915050565b600067ffffffffffffffff82169050919050565b620001ba816200019b565b8114620001c657600080fd5b50565b600081519050620001da81620001af565b92915050565b600063ffffffff82169050919050565b620001fb81620001e0565b81146200020757600080fd5b50565b6000815190506200021b81620001f0565b92915050565b6000819050919050565b620002368162000221565b81146200024257600080fd5b50565b60008151905062000256816200022b565b92915050565b600080600080600060a086880312156200027b576200027a620000f6565b5b60006200028b8882890162000149565b95505060206200029e8882890162000184565b9450506040620002b188828901620001c9565b9350506060620002c4888289016200020a565b9250506080620002d78882890162000245565b9150509295509295909350565b60805160a05160c05160e051610100516101205161324b6200032c60003960005050600050506000505060005050600050506000818161041b015261046f015261324b6000f3fe6080604052600436106100e85760003560e01c8063505df3e91161008a57806386403cf41161005957806386403cf41461035a578063b00d239414610397578063e08482b5146103b3578063eaec9142146103f0576100e8565b8063505df3e914610284578063554c952b146102c15780636b156ddb146102ec5780636e04ff0d1461031c576100e8565b806336646009116100c657806336646009146101875780633fa496fc146101cd578063408c521d146102135780634585e33b1461025b576100e8565b80631fe543e3146100ed578063217a6bdd14610116578063351876651461015c575b600080fd5b3480156100f957600080fd5b50610114600480360381019061010f91906127a5565b610419565b005b34801561012257600080fd5b5061013d60048036038101906101389190612801565b6104d9565b6040516101539a99989796959493929190612910565b60405180910390f35b34801561016857600080fd5b50610171610577565b60405161017e91906129ac565b60405180910390f35b34801561019357600080fd5b506101ae60048036038101906101a99190612801565b610583565b6040516101c49a99989796959493929190612910565b60405180910390f35b3480156101d957600080fd5b506101f460048036038101906101ef9190612801565b610611565b60405161020a9a99989796959493929190612910565b60405180910390f35b34801561021f57600080fd5b5061023a60048036038101906102359190612801565b6106af565b6040516102529c9b9a99989796959493929190612a85565b60405180910390f35b34801561026757600080fd5b50610282600480360381019061027d9190612ba8565b61098f565b005b34801561029057600080fd5b506102ab60048036038101906102a69190612801565b610a78565b6040516102b89190612c16565b60405180910390f35b3480156102cd57600080fd5b506102d6610b7d565b6040516102e391906129ac565b60405180910390f35b61030660048036038101906103019190612c31565b610b89565b60405161031391906129ac565b60405180910390f35b34801561032857600080fd5b50610343600480360381019061033e9190612d99565b61123d565b604051610351929190612e61565b60405180910390f35b34801561036657600080fd5b50610381600480360381019061037c9190612e91565b611577565b60405161038e91906129ac565b60405180910390f35b6103b160048036038101906103ac9190612801565b6115c8565b005b3480156103bf57600080fd5b506103da60048036038101906103d59190612801565b61193a565b6040516103e79190612f00565b60405180910390f35b3480156103fc57600080fd5b5061041760048036038101906104129190612f1b565b611d72565b005b7f000000000000000000000000000000000000000000000000000000000000000073ffffffffffffffffffffffffffffffffffffffff163373ffffffffffffffffffffffffffffffffffffffff16146104cb57337f00000000000000000000000000000000000000000000000000000000000000006040517f1cf993f40000000000000000000000000000000000000000000000000000000081526004016104c2929190612f93565b60405180910390fd5b6104d58282611ee7565b5050565b600181815481106104e957600080fd5b90600052602060002090600d02016000915090508060000154908060010154908060020154908060030154908060060160009054906101000a900473ffffffffffffffffffffffffffffffffffffffff16908060070154908060080160009054906101000a900460ff169080600a01549080600b01549080600c0160009054906101000a900460ff1690508a565b674563918244f4000081565b60026020528060005260406000206000915090508060000154908060010154908060020154908060030154908060060160009054906101000a900473ffffffffffffffffffffffffffffffffffffffff16908060070154908060080160009054906101000a900460ff169080600a01549080600b01549080600c0160009054906101000a900460ff1690508a565b6000818154811061062157600080fd5b90600052602060002090600d02016000915090508060000154908060010154908060020154908060030154908060060160009054906101000a900473ffffffffffffffffffffffffffffffffffffffff16908060070154908060080160009054906101000a900460ff169080600a01549080600b01549080600c0160009054906101000a900460ff1690508a565b6000806000806060806000806000806000806000600260008f8152602001908152602001600020604051806101a0016040529081600082015481526020016001820154815260200160028201548152602001600382015481526020016004820180548060200260200160405190810160405280929190818152602001828054801561075957602002820191906000526020600020905b815481526020019060010190808311610745575b50505050508152602001600582018054806020026020016040519081016040528092919081815260200182805480156107b157602002820191906000526020600020905b81548152602001906001019080831161079d575b505050505081526020016006820160009054906101000a900473ffffffffffffffffffffffffffffffffffffffff1673ffffffffffffffffffffffffffffffffffffffff1673ffffffffffffffffffffffffffffffffffffffff168152602001600782015481526020016008820160009054906101000a900460ff16600181111561083f5761083e61287e565b5b60018111156108515761085061287e565b5b8152602001600982018054806020026020016040519081016040528092919081815260200182805480156108da57602002820191906000526020600020905b8160009054906101000a900473ffffffffffffffffffffffffffffffffffffffff1673ffffffffffffffffffffffffffffffffffffffff1681526020019060010190808311610890575b50505050508152602001600a8201548152602001600b8201548152602001600c820160009054906101000a900460ff1615151515815250509050806000015181602001518260400151836060015184608001518560a001518660c001518760e0015188610100015160018111156109545761095361287e565b5b8961016001518a61018001518b6101200151519c509c509c509c509c509c509c509c509c509c509c509c505091939597999b5091939597999b565b600082828101906109a09190612fbc565b90506000600182516109b29190613034565b90505b60008110610a7257600060018383815181106109d4576109d3613068565b5b6020026020010151815481106109ed576109ec613068565b5b90600052602060002090600d0201905060018160080160006101000a81548160ff02191690836001811115610a2557610a2461287e565b5b0217905550610a37816000015461193a565b50610a5d6001848481518110610a5057610a4f613068565b5b6020026020010151611eeb565b50508080610a6a90613097565b9150506109b5565b50505050565b6000808281548110610a8d57610a8c613068565b5b90600052602060002090600d02016009017312345678901234567890123456789012345678909080600181540180825580915050600190039060005260206000200160009091909190916101000a81548173ffffffffffffffffffffffffffffffffffffffff021916908373ffffffffffffffffffffffffffffffffffffffff16021790555060008281548110610b2757610b26613068565b5b90600052602060002090600d0201600901600081548110610b4b57610b4a613068565b5b9060005260206000200160009054906101000a900473ffffffffffffffffffffffffffffffffffffffff169050919050565b674563918244f4000081565b600080835167ffffffffffffffff811115610ba757610ba6612662565b5b604051908082528060200260200182016040528015610bd55781602001602082028036833780820191505090505b5090506000835167ffffffffffffffff811115610bf557610bf4612662565b5b604051908082528060200260200182016040528015610c235781602001602082028036833780820191505090505b50905060005b8551811015610c7957858181518110610c4557610c44613068565b5b6020026020010151838281518110610c6057610c5f613068565b5b6020026020010181815250508080600101915050610c29565b5060005b8451811015610ccd57848181518110610c9957610c98613068565b5b6020026020010151828281518110610cb457610cb3613068565b5b6020026020010181815250508080600101915050610c7d565b50600080855103610ce15760019050610ce6565b600090505b6000604051806101a0016040528060008054905081526020018b81526020018a81526020018981526020018581526020018481526020013373ffffffffffffffffffffffffffffffffffffffff16815260200142815260200160006001811115610d5357610d5261287e565b5b8152602001600067ffffffffffffffff811115610d7357610d72612662565b5b604051908082528060200260200182016040528015610da15781602001602082028036833780820191505090505b50815260200160008152602001600081526020018315158152509050806002600080805490508152602001908152602001600020600082015181600001556020820151816001015560408201518160020155606082015181600301556080820151816004019080519060200190610e19929190612428565b5060a0820151816005019080519060200190610e36929190612428565b5060c08201518160060160006101000a81548173ffffffffffffffffffffffffffffffffffffffff021916908373ffffffffffffffffffffffffffffffffffffffff16021790555060e082015181600701556101008201518160080160006101000a81548160ff02191690836001811115610eb457610eb361287e565b5b0217905550610120820151816009019080519060200190610ed6929190612475565b5061014082015181600a015561016082015181600b015561018082015181600c0160006101000a81548160ff02191690831515021790555090505060008190806001815401808255809150506001900390600052602060002090600d0201600090919091909150600082015181600001556020820151816001015560408201518160020155606082015181600301556080820151816004019080519060200190610f81929190612428565b5060a0820151816005019080519060200190610f9e929190612428565b5060c08201518160060160006101000a81548173ffffffffffffffffffffffffffffffffffffffff021916908373ffffffffffffffffffffffffffffffffffffffff16021790555060e082015181600701556101008201518160080160006101000a81548160ff0219169083600181111561101c5761101b61287e565b5b021790555061012082015181600901908051906020019061103e929190612475565b5061014082015181600a015561016082015181600b015561018082015181600c0160006101000a81548160ff021916908315150217905550505060018190806001815401808255809150506001900390600052602060002090600d02016000909190919091506000820151816000015560208201518160010155604082015181600201556060820151816003015560808201518160040190805190602001906110e8929190612428565b5060a0820151816005019080519060200190611105929190612428565b5060c08201518160060160006101000a81548173ffffffffffffffffffffffffffffffffffffffff021916908373ffffffffffffffffffffffffffffffffffffffff16021790555060e082015181600701556101008201518160080160006101000a81548160ff021916908360018111156111835761118261287e565b5b02179055506101208201518160090190805190602001906111a5929190612475565b5061014082015181600a015561016082015181600b015561018082015181600c0160006101000a81548160ff0219169083151502179055505050600060016000805490506111f39190613034565b90507ff056e5a45325be881213b80800fe9ddc7617640717ef7e41a80fd39a6947d39c8160405161122491906129ac565b60405180910390a1809550505050505095945050505050565b600060606000915060606000805b60018054905081101561154d5760006001828154811061126e5761126d613068565b5b90600052602060002090600d0201604051806101a001604052908160008201548152602001600182015481526020016002820154815260200160038201548152602001600482018054806020026020016040519081016040528092919081815260200182805480156112ff57602002820191906000526020600020905b8154815260200190600101908083116112eb575b505050505081526020016005820180548060200260200160405190810160405280929190818152602001828054801561135757602002820191906000526020600020905b815481526020019060010190808311611343575b505050505081526020016006820160009054906101000a900473ffffffffffffffffffffffffffffffffffffffff1673ffffffffffffffffffffffffffffffffffffffff1673ffffffffffffffffffffffffffffffffffffffff168152602001600782015481526020016008820160009054906101000a900460ff1660018111156113e5576113e461287e565b5b60018111156113f7576113f661287e565b5b81526020016009820180548060200260200160405190810160405280929190818152602001828054801561148057602002820191906000526020600020905b8160009054906101000a900473ffffffffffffffffffffffffffffffffffffffff1673ffffffffffffffffffffffffffffffffffffffff1681526020019060010190808311611436575b50505050508152602001600a8201548152602001600b8201548152602001600c820160009054906101000a900460ff16151515158152505090506001808111156114cd576114cc61287e565b5b81610100015160018111156114e5576114e461287e565b5b1480611503575080606001518160e00151426115019190613034565b115b1561153f5780600001518484815181106115205761151f613068565b5b60200260200101818152505060019550828061153b906130c0565b9350505b50808060010191505061124b565b508160405160200161155f9190613108565b60405160208183030381529060405292505050915091565b6000808390505b8281116115c05784818151811061159857611597613068565b5b6020026020010151826115ab919061312a565b915080806115b8906130c0565b91505061157e565b509392505050565b6000600260008381526020019081526020016000209050806002015434101561161d576040517fa6ce004200000000000000000000000000000000000000000000000000000000815260040160405180910390fd5b600060018111156116315761163061287e565b5b8160080160009054906101000a900460ff1660018111156116555761165461287e565b5b1461168c576040517f19a2d5b400000000000000000000000000000000000000000000000000000000815260040160405180910390fd5b3481600b0160008282546116a0919061312a565b9250508190555080600901339080600181540180825580915050600190039060005260206000200160009091909190916101000a81548173ffffffffffffffffffffffffffffffffffffffff021916908373ffffffffffffffffffffffffffffffffffffffff160217905550600081600901805490509050816001015481036117c15760018260080160006101000a81548160ff0219169083600181111561174b5761174a61287e565b5b02179055508160050182600a01548154811061176a57611769613068565b5b9060005260206000200154811480156117995750600182600501805490506117929190613034565b82600a0154145b156117bc57600182600c0160006101000a81548160ff0219169083151502179055505b611935565b6001151582600c0160009054906101000a900460ff1615150315611934578160050182600a0154815481106117f9576117f8613068565b5b9060005260206000200154811480156118285750600182600501805490506118219190613034565b82600a0154105b1561188a578160040182600a01548154811061184757611846613068565b5b906000526020600020015482600201546118619190613034565b8260020181905550600182600a01600082825461187e919061312a565b92505081905550611933565b8160050182600a0154815481106118a4576118a3613068565b5b9060005260206000200154811480156118d35750600182600501805490506118cc9190613034565b82600a0154145b15611932578160040182600a0154815481106118f2576118f1613068565b5b9060005260206000200154826002015461190c9190613034565b8260020181905550600182600c0160006101000a81548160ff0219169083151502179055505b5b5b5b505050565b600080600260008481526020019081526020016000209050600081600901805490509050600082600b015490506000810361197b5760009350505050611d6d565b6000836005018054806020026020016040519081016040528092919081815260200182805480156119cb57602002820191906000526020600020905b8154815260200190600101908083116119b7575b50505050509050600084600401805480602002602001604051908101604052809291908181526020018280548015611a2257602002820191906000526020600020905b815481526020019060010190808311611a0e575b50505050509050600085600901805480602002602001604051908101604052809291908181526020018280548015611aaf57602002820191906000526020600020905b8160009054906101000a900473ffffffffffffffffffffffffffffffffffffffff1673ffffffffffffffffffffffffffffffffffffffff1681526020019060010190808311611a65575b50505050509050600086600a015403611b695760008660060160009054906101000a900473ffffffffffffffffffffffffffffffffffffffff1673ffffffffffffffffffffffffffffffffffffffff1685604051611b0c9061318f565b60006040518083038185875af1925050503d8060008114611b49576040519150601f19603f3d011682016040523d82523d6000602084013e611b4e565b606091505b505090508015611b6357600087600b01819055505b50611d62565b6000805b87600a01548111611cbd57600088600c0160009054906101000a900460ff1615611ba757611ba085838b600a0154611577565b9050611bc5565b611bc2858360018c600a0154611bbd9190613034565b611577565b90505b6000611beb878481518110611bdd57611bdc613068565b5b60200260200101518a61240f565b905060008490505b81811015611ca4576000868281518110611c1057611c0f613068565b5b602002602001015173ffffffffffffffffffffffffffffffffffffffff1684604051611c3b9061318f565b60006040518083038185875af1925050503d8060008114611c78576040519150601f19603f3d011682016040523d82523d6000602084013e611c7d565b606091505b505090508015611c9657838a611c939190613034565b99505b508080600101915050611bf3565b5080935050508080611cb5906130c0565b915050611b6d565b5060008760060160009054906101000a900473ffffffffffffffffffffffffffffffffffffffff1673ffffffffffffffffffffffffffffffffffffffff1686604051611d089061318f565b60006040518083038185875af1925050503d8060008114611d45576040519150601f19603f3d011682016040523d82523d6000602084013e611d4a565b606091505b505090508015611d5f57600088600b01819055505b50505b600196505050505050505b919050565b6000825167ffffffffffffffff811115611d8f57611d8e612662565b5b604051908082528060200260200182016040528015611dbd5781602001602082028036833780820191505090505b5090506000825167ffffffffffffffff811115611ddd57611ddc612662565b5b604051908082528060200260200182016040528015611e0b5781602001602082028036833780820191505090505b50905060005b8451811015611e7457670de0b6b3a7640000858281518110611e3657611e35613068565b5b6020026020010151611e4891906131a4565b838281518110611e5b57611e5a613068565b5b6020026020010181815250508080600101915050611e11565b5060005b8351811015611ec857838181518110611e9457611e93613068565b5b6020026020010151828281518110611eaf57611eae613068565b5b6020026020010181815250508080600101915050611e78565b50611ee0600a674563918244f4000060648585610b89565b5050505050565b5050565b60608260018480549050611eff9190613034565b81548110611f1057611f0f613068565b5b90600052602060002090600d0201838381548110611f3157611f30613068565b5b90600052602060002090600d0201600082015481600001556001820154816001015560028201548160020155600382015481600301556004820181600401908054611f7d9291906124ff565b506005820181600501908054611f949291906124ff565b506006820160009054906101000a900473ffffffffffffffffffffffffffffffffffffffff168160060160006101000a81548173ffffffffffffffffffffffffffffffffffffffff021916908373ffffffffffffffffffffffffffffffffffffffff160217905550600782015481600701556008820160009054906101000a900460ff168160080160006101000a81548160ff0219169083600181111561203e5761203d61287e565b5b02179055506009820181600901908054612059929190612551565b50600a82015481600a0155600b82015481600b0155600c820160009054906101000a900460ff1681600c0160006101000a81548160ff021916908315150217905550905050828054806120af576120ae6131e6565b5b60019003818190600052602060002090600d02016000808201600090556001820160009055600282016000905560038201600090556004820160006120f491906125a3565b60058201600061210491906125a3565b6006820160006101000a81549073ffffffffffffffffffffffffffffffffffffffff021916905560078201600090556008820160006101000a81549060ff021916905560098201600061215791906125c4565b600a820160009055600b820160009055600c820160006101000a81549060ff02191690555050905582805480602002602001604051908101604052809291908181526020016000905b8282101561240357838290600052602060002090600d0201604051806101a0016040529081600082015481526020016001820154815260200160028201548152602001600382015481526020016004820180548060200260200160405190810160405280929190818152602001828054801561223b57602002820191906000526020600020905b815481526020019060010190808311612227575b505050505081526020016005820180548060200260200160405190810160405280929190818152602001828054801561229357602002820191906000526020600020905b81548152602001906001019080831161227f575b505050505081526020016006820160009054906101000a900473ffffffffffffffffffffffffffffffffffffffff1673ffffffffffffffffffffffffffffffffffffffff1673ffffffffffffffffffffffffffffffffffffffff168152602001600782015481526020016008820160009054906101000a900460ff1660018111156123215761232061287e565b5b60018111156123335761233261287e565b5b8152602001600982018054806020026020016040519081016040528092919081815260200182805480156123bc57602002820191906000526020600020905b8160009054906101000a900473ffffffffffffffffffffffffffffffffffffffff1673ffffffffffffffffffffffffffffffffffffffff1681526020019060010190808311612372575b50505050508152602001600a8201548152602001600b8201548152602001600c820160009054906101000a900460ff161515151581525050815260200190600101906121a0565b50505050905092915050565b600081831061241e5781612420565b825b905092915050565b828054828255906000526020600020908101928215612464579160200282015b82811115612463578251825591602001919060010190612448565b5b50905061247191906125e5565b5090565b8280548282559060005260206000209081019282156124ee579160200282015b828111156124ed5782518260006101000a81548173ffffffffffffffffffffffffffffffffffffffff021916908373ffffffffffffffffffffffffffffffffffffffff16021790555091602001919060010190612495565b5b5090506124fb91906125e5565b5090565b8280548282559060005260206000209081019282156125405760005260206000209182015b8281111561253f578254825591600101919060010190612524565b5b50905061254d91906125e5565b5090565b8280548282559060005260206000209081019282156125925760005260206000209182015b82811115612591578254825591600101919060010190612576565b5b50905061259f91906125e5565b5090565b50805460008255906000526020600020908101906125c191906125e5565b50565b50805460008255906000526020600020908101906125e291906125e5565b50565b5b808211156125fe5760008160009055506001016125e6565b5090565b6000604051905090565b600080fd5b600080fd5b6000819050919050565b61262981612616565b811461263457600080fd5b50565b60008135905061264681612620565b92915050565b600080fd5b6000601f19601f8301169050919050565b7f4e487b7100000000000000000000000000000000000000000000000000000000600052604160045260246000fd5b61269a82612651565b810181811067ffffffffffffffff821117156126b9576126b8612662565b5b80604052505050565b60006126cc612602565b90506126d88282612691565b919050565b600067ffffffffffffffff8211156126f8576126f7612662565b5b602082029050602081019050919050565b600080fd5b600061272161271c846126dd565b6126c2565b9050808382526020820190506020840283018581111561274457612743612709565b5b835b8181101561276d57806127598882612637565b845260208401935050602081019050612746565b5050509392505050565b600082601f83011261278c5761278b61264c565b5b813561279c84826020860161270e565b91505092915050565b600080604083850312156127bc576127bb61260c565b5b60006127ca85828601612637565b925050602083013567ffffffffffffffff8111156127eb576127ea612611565b5b6127f785828601612777565b9150509250929050565b6000602082840312156128175761281661260c565b5b600061282584828501612637565b91505092915050565b61283781612616565b82525050565b600073ffffffffffffffffffffffffffffffffffffffff82169050919050565b60006128688261283d565b9050919050565b6128788161285d565b82525050565b7f4e487b7100000000000000000000000000000000000000000000000000000000600052602160045260246000fd5b600281106128be576128bd61287e565b5b50565b60008190506128cf826128ad565b919050565b60006128df826128c1565b9050919050565b6128ef816128d4565b82525050565b60008115159050919050565b61290a816128f5565b82525050565b600061014082019050612926600083018d61282e565b612933602083018c61282e565b612940604083018b61282e565b61294d606083018a61282e565b61295a608083018961286f565b61296760a083018861282e565b61297460c08301876128e6565b61298160e083018661282e565b61298f61010083018561282e565b61299d610120830184612901565b9b9a5050505050505050505050565b60006020820190506129c1600083018461282e565b92915050565b600081519050919050565b600082825260208201905092915050565b6000819050602082019050919050565b6129fc81612616565b82525050565b6000612a0e83836129f3565b60208301905092915050565b6000602082019050919050565b6000612a32826129c7565b612a3c81856129d2565b9350612a47836129e3565b8060005b83811015612a78578151612a5f8882612a02565b9750612a6a83612a1a565b925050600181019050612a4b565b5085935050505092915050565b600061018082019050612a9b600083018f61282e565b612aa8602083018e61282e565b612ab5604083018d61282e565b612ac2606083018c61282e565b8181036080830152612ad4818b612a27565b905081810360a0830152612ae8818a612a27565b9050612af760c083018961286f565b612b0460e083018861282e565b612b1261010083018761282e565b612b2061012083018661282e565b612b2e610140830185612901565b612b3c61016083018461282e565b9d9c50505050505050505050505050565b600080fd5b60008083601f840112612b6857612b6761264c565b5b8235905067ffffffffffffffff811115612b8557612b84612b4d565b5b602083019150836001820283011115612ba157612ba0612709565b5b9250929050565b60008060208385031215612bbf57612bbe61260c565b5b600083013567ffffffffffffffff811115612bdd57612bdc612611565b5b612be985828601612b52565b92509250509250929050565b6000612c008261283d565b9050919050565b612c1081612bf5565b82525050565b6000602082019050612c2b6000830184612c07565b92915050565b600080600080600060a08688031215612c4d57612c4c61260c565b5b6000612c5b88828901612637565b9550506020612c6c88828901612637565b9450506040612c7d88828901612637565b935050606086013567ffffffffffffffff811115612c9e57612c9d612611565b5b612caa88828901612777565b925050608086013567ffffffffffffffff811115612ccb57612cca612611565b5b612cd788828901612777565b9150509295509295909350565b600080fd5b600067ffffffffffffffff821115612d0457612d03612662565b5b612d0d82612651565b9050602081019050919050565b82818337600083830152505050565b6000612d3c612d3784612ce9565b6126c2565b905082815260208101848484011115612d5857612d57612ce4565b5b612d63848285612d1a565b509392505050565b600082601f830112612d8057612d7f61264c565b5b8135612d90848260208601612d29565b91505092915050565b600060208284031215612daf57612dae61260c565b5b600082013567ffffffffffffffff811115612dcd57612dcc612611565b5b612dd984828501612d6b565b91505092915050565b600081519050919050565b600082825260208201905092915050565b60005b83811015612e1c578082015181840152602081019050612e01565b60008484015250505050565b6000612e3382612de2565b612e3d8185612ded565b9350612e4d818560208601612dfe565b612e5681612651565b840191505092915050565b6000604082019050612e766000830185612901565b8181036020830152612e888184612e28565b90509392505050565b600080600060608486031215612eaa57612ea961260c565b5b600084013567ffffffffffffffff811115612ec857612ec7612611565b5b612ed486828701612777565b9350506020612ee586828701612637565b9250506040612ef686828701612637565b9150509250925092565b6000602082019050612f156000830184612901565b92915050565b60008060408385031215612f3257612f3161260c565b5b600083013567ffffffffffffffff811115612f5057612f4f612611565b5b612f5c85828601612777565b925050602083013567ffffffffffffffff811115612f7d57612f7c612611565b5b612f8985828601612777565b9150509250929050565b6000604082019050612fa86000830185612c07565b612fb56020830184612c07565b9392505050565b600060208284031215612fd257612fd161260c565b5b600082013567ffffffffffffffff811115612ff057612fef612611565b5b612ffc84828501612777565b91505092915050565b7f4e487b7100000000000000000000000000000000000000000000000000000000600052601160045260246000fd5b600061303f82612616565b915061304a83612616565b925082820390508181111561306257613061613005565b5b92915050565b7f4e487b7100000000000000000000000000000000000000000000000000000000600052603260045260246000fd5b60006130a282612616565b9150600082036130b5576130b4613005565b5b600182039050919050565b60006130cb82612616565b91507fffffffffffffffffffffffffffffffffffffffffffffffffffffffffffffffff82036130fd576130fc613005565b5b600182019050919050565b600060208201905081810360008301526131228184612a27565b905092915050565b600061313582612616565b915061314083612616565b925082820190508082111561315857613157613005565b5b92915050565b600081905092915050565b50565b600061317960008361315e565b915061318482613169565b600082019050919050565b600061319a8261316c565b9150819050919050565b60006131af82612616565b91506131ba83612616565b92508282026131c881612616565b915082820484148315176131df576131de613005565b5b5092915050565b7f4e487b7100000000000000000000000000000000000000000000000000000000600052603160045260246000fdfea26469706673582212204e3e3d02a3c621ac9b03fbbb9b73ea41324f86edd12c67f3dcbe9acdd1bdf34c64736f6c63430008180033",
  "devdoc": {
    "kind": "dev",
    "methods": {
      "performUpkeep(bytes)": {
        "details": "The input to this method should not be trusted, and the caller of the method should not even be restricted to any single registry. Anyone should be able call it, and the input should be validated, there is no guarantee that the data passed in is the performData returned from checkUpkeep. This could happen due to malicious keepers, racing keepers, or simply a state change while the performUpkeep transaction is waiting for confirmation. Always validate the data passed in.",
        "params": {
          "performData": "is the data which was passed back from the checkData simulation. If it is encoded, it can easily be decoded into other types by calling `abi.decode`. This data should not be trusted, and should be validated against the contract's current state."
        }
      }
    },
    "version": 1
  },
  "userdoc": {
    "kind": "user",
    "methods": {
      "performUpkeep(bytes)": {
        "notice": "method that is actually executed by the keepers, via the registry. The data returned by the checkUpkeep simulation will be passed into this method to actually be executed."
      }
    },
    "version": 1
  },
  "storageLayout": {
    "storage": [
      {
        "astId": 1285,
        "contract": "contracts/Snowball.sol:Snowball",
        "label": "allSnowballContracts",
        "offset": 0,
        "slot": "0",
        "type": "t_array(t_struct(snowballContract)1281_storage)dyn_storage"
      },
      {
        "astId": 1289,
        "contract": "contracts/Snowball.sol:Snowball",
        "label": "activeSnowballContracts",
        "offset": 0,
        "slot": "1",
        "type": "t_array(t_struct(snowballContract)1281_storage)dyn_storage"
      },
      {
        "astId": 1294,
        "contract": "contracts/Snowball.sol:Snowball",
        "label": "s_idToSnowball",
        "offset": 0,
        "slot": "2",
        "type": "t_mapping(t_uint256,t_struct(snowballContract)1281_storage)"
      },
      {
        "astId": 1325,
        "contract": "contracts/Snowball.sol:Snowball",
        "label": "s_lastTimeStamp",
        "offset": 0,
        "slot": "3",
        "type": "t_uint256"
      }
    ],
    "types": {
      "t_address_payable": {
        "encoding": "inplace",
        "label": "address payable",
        "numberOfBytes": "20"
      },
      "t_array(t_address_payable)dyn_storage": {
        "base": "t_address_payable",
        "encoding": "dynamic_array",
        "label": "address payable[]",
        "numberOfBytes": "32"
      },
      "t_array(t_struct(snowballContract)1281_storage)dyn_storage": {
        "base": "t_struct(snowballContract)1281_storage",
        "encoding": "dynamic_array",
        "label": "struct Snowball.snowballContract[]",
        "numberOfBytes": "32"
      },
      "t_array(t_uint256)dyn_storage": {
        "base": "t_uint256",
        "encoding": "dynamic_array",
        "label": "uint256[]",
        "numberOfBytes": "32"
      },
      "t_bool": {
        "encoding": "inplace",
        "label": "bool",
        "numberOfBytes": "1"
      },
      "t_enum(State)1250": {
        "encoding": "inplace",
        "label": "enum Snowball.State",
        "numberOfBytes": "1"
      },
      "t_mapping(t_uint256,t_struct(snowballContract)1281_storage)": {
        "encoding": "mapping",
        "key": "t_uint256",
        "label": "mapping(uint256 => struct Snowball.snowballContract)",
        "numberOfBytes": "32",
        "value": "t_struct(snowballContract)1281_storage"
      },
      "t_struct(snowballContract)1281_storage": {
        "encoding": "inplace",
        "label": "struct Snowball.snowballContract",
        "members": [
          {
            "astId": 1252,
            "contract": "contracts/Snowball.sol:Snowball",
            "label": "id",
            "offset": 0,
            "slot": "0",
            "type": "t_uint256"
          },
          {
            "astId": 1254,
            "contract": "contracts/Snowball.sol:Snowball",
            "label": "maxSlots",
            "offset": 0,
            "slot": "1",
            "type": "t_uint256"
          },
          {
            "astId": 1256,
            "contract": "contracts/Snowball.sol:Snowball",
            "label": "price",
            "offset": 0,
            "slot": "2",
            "type": "t_uint256"
          },
          {
            "astId": 1258,
            "contract": "contracts/Snowball.sol:Snowball",
            "label": "duration",
            "offset": 0,
            "slot": "3",
            "type": "t_uint256"
          },
          {
            "astId": 1261,
            "contract": "contracts/Snowball.sol:Snowball",
            "label": "payouts",
            "offset": 0,
            "slot": "4",
            "type": "t_array(t_uint256)dyn_storage"
          },
          {
            "astId": 1264,
            "contract": "contracts/Snowball.sol:Snowball",
            "label": "thresholds",
            "offset": 0,
            "slot": "5",
            "type": "t_array(t_uint256)dyn_storage"
          },
          {
            "astId": 1266,
            "contract": "contracts/Snowball.sol:Snowball",
            "label": "owner",
            "offset": 0,
            "slot": "6",
            "type": "t_address_payable"
          },
          {
            "astId": 1268,
            "contract": "contracts/Snowball.sol:Snowball",
            "label": "startTime",
            "offset": 0,
            "slot": "7",
            "type": "t_uint256"
          },
          {
            "astId": 1271,
            "contract": "contracts/Snowball.sol:Snowball",
            "label": "snowballState",
            "offset": 0,
            "slot": "8",
            "type": "t_enum(State)1250"
          },
          {
            "astId": 1274,
            "contract": "contracts/Snowball.sol:Snowball",
            "label": "participants",
            "offset": 0,
            "slot": "9",
            "type": "t_array(t_address_payable)dyn_storage"
          },
          {
            "astId": 1276,
            "contract": "contracts/Snowball.sol:Snowball",
            "label": "targetThresholdIndex",
            "offset": 0,
            "slot": "10",
            "type": "t_uint256"
          },
          {
            "astId": 1278,
            "contract": "contracts/Snowball.sol:Snowball",
            "label": "balance",
            "offset": 0,
            "slot": "11",
            "type": "t_uint256"
          },
          {
            "astId": 1280,
            "contract": "contracts/Snowball.sol:Snowball",
            "label": "maxDiscount",
            "offset": 0,
            "slot": "12",
            "type": "t_bool"
          }
        ],
        "numberOfBytes": "416"
      },
      "t_uint256": {
        "encoding": "inplace",
        "label": "uint256",
        "numberOfBytes": "32"
      }
    }
  }
}